{
  "_format": "hh-sol-artifact-1",
  "contractName": "Goalfi",
  "sourceName": "contracts/Goalfi.sol",
  "abi": [
    {
      "inputs": [
        {
          "internalType": "uint64",
          "name": "functionsSubscriptionId",
          "type": "uint64"
        },
        {
          "internalType": "string",
          "name": "_source",
          "type": "string"
        }
      ],
      "stateMutability": "nonpayable",
      "type": "constructor"
    },
    {
      "inputs": [],
      "name": "EmptyArgs",
      "type": "error"
    },
    {
      "inputs": [],
      "name": "EmptySource",
      "type": "error"
    },
    {
      "inputs": [],
      "name": "NoInlineSecrets",
      "type": "error"
    },
    {
      "inputs": [],
      "name": "OnlyRouterCanFulfill",
      "type": "error"
    },
    {
      "inputs": [
        {
          "internalType": "address",
          "name": "owner",
          "type": "address"
        }
      ],
      "name": "OwnableInvalidOwner",
      "type": "error"
    },
    {
      "inputs": [
        {
          "internalType": "address",
          "name": "account",
          "type": "address"
        }
      ],
      "name": "OwnableUnauthorizedAccount",
      "type": "error"
    },
    {
      "anonymous": false,
      "inputs": [
        {
          "indexed": true,
          "internalType": "bytes32",
          "name": "requestId",
          "type": "bytes32"
        },
        {
          "indexed": false,
          "internalType": "string",
          "name": "activityType",
          "type": "string"
        }
      ],
      "name": "APIRequestSent",
      "type": "event"
    },
    {
      "anonymous": false,
      "inputs": [
        {
          "indexed": true,
          "internalType": "uint256",
          "name": "goalId",
          "type": "uint256"
        },
        {
          "indexed": false,
          "internalType": "string",
          "name": "activity",
          "type": "string"
        },
        {
          "indexed": false,
          "internalType": "string",
          "name": "description",
          "type": "string"
        },
        {
          "indexed": false,
          "internalType": "uint256",
          "name": "distance",
          "type": "uint256"
        },
        {
          "indexed": false,
          "internalType": "uint256",
          "name": "startTimestamp",
          "type": "uint256"
        },
        {
          "indexed": false,
          "internalType": "uint256",
          "name": "expiryTimestamp",
          "type": "uint256"
        }
      ],
      "name": "GoalCreated",
      "type": "event"
    },
    {
      "anonymous": false,
      "inputs": [
        {
          "indexed": true,
          "internalType": "uint256",
          "name": "goalId",
          "type": "uint256"
        }
      ],
      "name": "GoalEvaluated",
      "type": "event"
    },
    {
      "anonymous": false,
      "inputs": [
        {
          "indexed": true,
          "internalType": "address",
          "name": "previousOwner",
          "type": "address"
        },
        {
          "indexed": true,
          "internalType": "address",
          "name": "newOwner",
          "type": "address"
        }
      ],
      "name": "OwnershipTransferred",
      "type": "event"
    },
    {
      "anonymous": false,
      "inputs": [
        {
          "indexed": true,
          "internalType": "bytes32",
          "name": "id",
          "type": "bytes32"
        }
      ],
      "name": "RequestFulfilled",
      "type": "event"
    },
    {
      "anonymous": false,
      "inputs": [
        {
          "indexed": true,
          "internalType": "bytes32",
          "name": "id",
          "type": "bytes32"
        }
      ],
      "name": "RequestSent",
      "type": "event"
    },
    {
      "anonymous": false,
      "inputs": [
        {
          "indexed": true,
          "internalType": "bytes32",
          "name": "requestId",
          "type": "bytes32"
        },
        {
          "indexed": false,
          "internalType": "string",
          "name": "activityData",
          "type": "string"
        },
        {
          "indexed": false,
          "internalType": "bytes",
          "name": "response",
          "type": "bytes"
        },
        {
          "indexed": false,
          "internalType": "bytes",
          "name": "err",
          "type": "bytes"
        }
      ],
      "name": "Response",
      "type": "event"
    },
    {
      "anonymous": false,
      "inputs": [
        {
          "indexed": true,
          "internalType": "address",
          "name": "walletAddress",
          "type": "address"
        },
        {
          "indexed": true,
          "internalType": "uint256",
          "name": "goalId",
          "type": "uint256"
        }
      ],
      "name": "RewardsClaimed",
      "type": "event"
    },
    {
      "anonymous": false,
      "inputs": [
        {
          "indexed": true,
          "internalType": "address",
          "name": "walletAddress",
          "type": "address"
        }
      ],
      "name": "UserCreated",
      "type": "event"
    },
    {
      "anonymous": false,
      "inputs": [
        {
          "indexed": true,
          "internalType": "address",
          "name": "walletAddress",
          "type": "address"
        },
        {
          "indexed": true,
          "internalType": "uint256",
          "name": "goalId",
          "type": "uint256"
        },
        {
          "indexed": false,
          "internalType": "uint256",
          "name": "stake",
          "type": "uint256"
        }
      ],
      "name": "UserJoinedGoal",
      "type": "event"
    },
    {
      "anonymous": false,
      "inputs": [
        {
          "indexed": true,
          "internalType": "address",
          "name": "walletAddress",
          "type": "address"
        },
        {
          "indexed": true,
          "internalType": "uint256",
          "name": "goalId",
          "type": "uint256"
        },
        {
          "indexed": false,
          "internalType": "enum Goalfi.UserProgress",
          "name": "newStatus",
          "type": "uint8"
        }
      ],
      "name": "UserProgressUpdated",
      "type": "event"
    },
    {
      "inputs": [],
      "name": "FEE_PERCENTAGE",
      "outputs": [
        {
          "internalType": "uint256",
          "name": "",
          "type": "uint256"
        }
      ],
      "stateMutability": "view",
      "type": "function"
    },
    {
      "inputs": [],
      "name": "activeGoalCount",
      "outputs": [
        {
          "internalType": "uint256",
          "name": "",
          "type": "uint256"
        }
      ],
      "stateMutability": "view",
      "type": "function"
    },
    {
      "inputs": [
        {
          "internalType": "bytes32",
          "name": "",
          "type": "bytes32"
        }
      ],
      "name": "activities",
      "outputs": [
        {
          "internalType": "uint256",
          "name": "goalId",
          "type": "uint256"
        },
        {
          "internalType": "string",
          "name": "activityType",
          "type": "string"
        },
        {
          "internalType": "string",
          "name": "activityData",
          "type": "string"
        }
      ],
      "stateMutability": "view",
      "type": "function"
    },
    {
      "inputs": [
        {
          "internalType": "uint256[]",
          "name": "_data",
          "type": "uint256[]"
        },
        {
          "internalType": "uint256",
          "name": "_goalId",
          "type": "uint256"
        }
      ],
      "name": "assignDistance",
      "outputs": [],
      "stateMutability": "nonpayable",
      "type": "function"
    },
    {
      "inputs": [
        {
          "internalType": "uint256",
          "name": "_goalId",
          "type": "uint256"
        }
      ],
      "name": "claimRewards",
      "outputs": [],
      "stateMutability": "payable",
      "type": "function"
    },
    {
      "inputs": [
        {
          "internalType": "uint256",
          "name": "_goalId",
          "type": "uint256"
        }
      ],
      "name": "closeGoal",
      "outputs": [],
      "stateMutability": "nonpayable",
      "type": "function"
    },
    {
      "inputs": [
        {
          "internalType": "uint256",
          "name": "_goalId",
          "type": "uint256"
        },
        {
          "internalType": "enum Goalfi.UserProgress",
          "name": "progress",
          "type": "uint8"
        }
      ],
      "name": "countGoalParticipantsAtProgress",
      "outputs": [
        {
          "internalType": "uint256",
          "name": "",
          "type": "uint256"
        }
      ],
      "stateMutability": "view",
      "type": "function"
    },
    {
      "inputs": [
        {
          "internalType": "string",
          "name": "_activity",
          "type": "string"
        },
        {
          "internalType": "string",
          "name": "_description",
          "type": "string"
        },
        {
          "internalType": "uint256",
          "name": "_distance",
          "type": "uint256"
        },
        {
          "internalType": "uint256",
          "name": "_startTimestamp",
          "type": "uint256"
        },
        {
          "internalType": "uint256",
          "name": "_expiryTimestamp",
          "type": "uint256"
        }
      ],
      "name": "createGoal",
      "outputs": [],
      "stateMutability": "nonpayable",
      "type": "function"
    },
    {
      "inputs": [],
      "name": "createUser",
      "outputs": [],
      "stateMutability": "nonpayable",
      "type": "function"
    },
    {
      "inputs": [
        {
          "internalType": "string",
          "name": "requestData",
          "type": "string"
        },
        {
          "internalType": "string",
          "name": "activityType",
          "type": "string"
        },
        {
          "internalType": "uint256",
          "name": "goalId",
          "type": "uint256"
        }
      ],
      "name": "executeRequest",
      "outputs": [
        {
          "internalType": "bytes32",
          "name": "requestId",
          "type": "bytes32"
        }
      ],
      "stateMutability": "nonpayable",
      "type": "function"
    },
    {
      "inputs": [
        {
          "internalType": "uint256",
          "name": "goalId",
          "type": "uint256"
        }
      ],
      "name": "getActivityWithGoalId",
      "outputs": [
        {
          "components": [
            {
              "internalType": "uint256",
              "name": "goalId",
              "type": "uint256"
            },
            {
              "internalType": "string",
              "name": "activityType",
              "type": "string"
            },
            {
              "internalType": "string",
              "name": "activityData",
              "type": "string"
            }
          ],
          "internalType": "struct Goalfi.ActivityStruct",
          "name": "",
          "type": "tuple"
        }
      ],
      "stateMutability": "view",
      "type": "function"
    },
    {
      "inputs": [
        {
          "internalType": "bytes32",
          "name": "requestId",
          "type": "bytes32"
        }
      ],
      "name": "getActivityWithRequestId",
      "outputs": [
        {
          "components": [
            {
              "internalType": "uint256",
              "name": "goalId",
              "type": "uint256"
            },
            {
              "internalType": "string",
              "name": "activityType",
              "type": "string"
            },
            {
              "internalType": "string",
              "name": "activityData",
              "type": "string"
            }
          ],
          "internalType": "struct Goalfi.ActivityStruct",
          "name": "",
          "type": "tuple"
        }
      ],
      "stateMutability": "view",
      "type": "function"
    },
    {
      "inputs": [
        {
          "internalType": "uint256",
          "name": "_goalId",
          "type": "uint256"
        }
      ],
      "name": "getParticipantAddresses",
      "outputs": [
        {
          "internalType": "address[]",
          "name": "",
          "type": "address[]"
        }
      ],
      "stateMutability": "view",
      "type": "function"
    },
    {
      "inputs": [
        {
          "internalType": "uint256",
          "name": "_goalId",
          "type": "uint256"
        },
        {
          "internalType": "address",
          "name": "_userAddress",
          "type": "address"
        }
      ],
      "name": "getParticipantProgress",
      "outputs": [
        {
          "internalType": "enum Goalfi.UserProgress",
          "name": "",
          "type": "uint8"
        }
      ],
      "stateMutability": "view",
      "type": "function"
    },
    {
      "inputs": [
        {
          "internalType": "uint256",
          "name": "_id",
          "type": "uint256"
        }
      ],
      "name": "getUserAddress",
      "outputs": [
        {
          "internalType": "address",
          "name": "",
          "type": "address"
        }
      ],
      "stateMutability": "view",
      "type": "function"
    },
    {
      "inputs": [
        {
          "internalType": "address",
          "name": "walletAddress",
          "type": "address"
        },
        {
          "internalType": "uint256",
          "name": "goalId",
          "type": "uint256"
        }
      ],
      "name": "getUserDistance",
      "outputs": [
        {
          "internalType": "uint256",
          "name": "",
          "type": "uint256"
        }
      ],
      "stateMutability": "view",
      "type": "function"
    },
    {
      "inputs": [
        {
          "internalType": "address",
          "name": "walletAddress",
          "type": "address"
        }
      ],
      "name": "getUserId",
      "outputs": [
        {
          "internalType": "uint256",
          "name": "",
          "type": "uint256"
        }
      ],
      "stateMutability": "view",
      "type": "function"
    },
    {
      "inputs": [
        {
          "internalType": "address",
          "name": "walletAddress",
          "type": "address"
        }
      ],
      "name": "getUserTotalRewards",
      "outputs": [
        {
          "internalType": "uint256",
          "name": "",
          "type": "uint256"
        }
      ],
      "stateMutability": "view",
      "type": "function"
    },
    {
      "inputs": [],
      "name": "goalCount",
      "outputs": [
        {
          "internalType": "uint256",
          "name": "",
          "type": "uint256"
        }
      ],
      "stateMutability": "view",
      "type": "function"
    },
    {
      "inputs": [
        {
          "internalType": "uint256",
          "name": "",
          "type": "uint256"
        }
      ],
      "name": "goalToRequestId",
      "outputs": [
        {
          "internalType": "bytes32",
          "name": "",
          "type": "bytes32"
        }
      ],
      "stateMutability": "view",
      "type": "function"
    },
    {
      "inputs": [
        {
          "internalType": "uint256",
          "name": "",
          "type": "uint256"
        }
      ],
      "name": "goals",
      "outputs": [
        {
          "internalType": "uint256",
          "name": "goalId",
          "type": "uint256"
        },
        {
          "internalType": "string",
          "name": "activity",
          "type": "string"
        },
        {
          "internalType": "string",
          "name": "description",
          "type": "string"
        },
        {
          "internalType": "uint256",
          "name": "distance",
          "type": "uint256"
        },
        {
          "internalType": "uint256",
          "name": "stake",
          "type": "uint256"
        },
        {
          "internalType": "uint256",
          "name": "failedStake",
          "type": "uint256"
        },
        {
          "internalType": "uint256",
          "name": "startTimestamp",
          "type": "uint256"
        },
        {
          "internalType": "uint256",
          "name": "expiryTimestamp",
          "type": "uint256"
        },
        {
          "internalType": "bool",
          "name": "set",
          "type": "bool"
        }
      ],
      "stateMutability": "view",
      "type": "function"
    },
    {
      "inputs": [
        {
          "internalType": "bytes32",
          "name": "requestId",
          "type": "bytes32"
        },
        {
          "internalType": "bytes",
          "name": "response",
          "type": "bytes"
        },
        {
          "internalType": "bytes",
          "name": "err",
          "type": "bytes"
        }
      ],
      "name": "handleOracleFulfillment",
      "outputs": [],
      "stateMutability": "nonpayable",
      "type": "function"
    },
    {
      "inputs": [
        {
          "internalType": "uint256",
          "name": "_goalId",
          "type": "uint256"
        }
      ],
      "name": "joinGoal",
      "outputs": [],
      "stateMutability": "payable",
      "type": "function"
    },
    {
      "inputs": [],
      "name": "lastError",
      "outputs": [
        {
          "internalType": "bytes",
          "name": "",
          "type": "bytes"
        }
      ],
      "stateMutability": "view",
      "type": "function"
    },
    {
      "inputs": [],
      "name": "lastRequestId",
      "outputs": [
        {
          "internalType": "bytes32",
          "name": "",
          "type": "bytes32"
        }
      ],
      "stateMutability": "view",
      "type": "function"
    },
    {
      "inputs": [],
      "name": "lastResponse",
      "outputs": [
        {
          "internalType": "bytes",
          "name": "",
          "type": "bytes"
        }
      ],
      "stateMutability": "view",
      "type": "function"
    },
    {
      "inputs": [],
      "name": "owner",
      "outputs": [
        {
          "internalType": "address",
          "name": "",
          "type": "address"
        }
      ],
      "stateMutability": "view",
      "type": "function"
    },
    {
      "inputs": [],
      "name": "renounceOwnership",
      "outputs": [],
      "stateMutability": "nonpayable",
      "type": "function"
    },
    {
      "inputs": [
        {
          "internalType": "uint256",
          "name": "",
          "type": "uint256"
        }
      ],
      "name": "requestIds",
      "outputs": [
        {
          "internalType": "bytes32",
          "name": "",
          "type": "bytes32"
        }
      ],
      "stateMutability": "view",
      "type": "function"
    },
    {
      "inputs": [
        {
          "internalType": "bytes32",
          "name": "",
          "type": "bytes32"
        }
      ],
      "name": "requests",
      "outputs": [
        {
          "internalType": "bool",
          "name": "fulfilled",
          "type": "bool"
        },
        {
          "internalType": "bool",
          "name": "exists",
          "type": "bool"
        },
        {
          "internalType": "bytes",
          "name": "response",
          "type": "bytes"
        },
        {
          "internalType": "bytes",
          "name": "err",
          "type": "bytes"
        }
      ],
      "stateMutability": "view",
      "type": "function"
    },
    {
      "inputs": [
        {
          "internalType": "string",
          "name": "_source",
          "type": "string"
        }
      ],
      "name": "setSource",
      "outputs": [],
      "stateMutability": "nonpayable",
      "type": "function"
    },
    {
      "inputs": [],
      "name": "source",
      "outputs": [
        {
          "internalType": "string",
          "name": "",
          "type": "string"
        }
      ],
      "stateMutability": "view",
      "type": "function"
    },
    {
      "inputs": [],
      "name": "subscriptionId",
      "outputs": [
        {
          "internalType": "uint64",
          "name": "",
          "type": "uint64"
        }
      ],
      "stateMutability": "view",
      "type": "function"
    },
    {
      "inputs": [
        {
          "internalType": "address",
          "name": "newOwner",
          "type": "address"
        }
      ],
      "name": "transferOwnership",
      "outputs": [],
      "stateMutability": "nonpayable",
      "type": "function"
    },
    {
      "inputs": [
        {
          "internalType": "address",
          "name": "",
          "type": "address"
        }
      ],
      "name": "userAddressUsed",
      "outputs": [
        {
          "internalType": "bool",
          "name": "",
          "type": "bool"
        }
      ],
      "stateMutability": "view",
      "type": "function"
    },
    {
      "inputs": [],
      "name": "userCount",
      "outputs": [
        {
          "internalType": "uint256",
          "name": "",
          "type": "uint256"
        }
      ],
      "stateMutability": "view",
      "type": "function"
    },
    {
      "inputs": [
        {
          "internalType": "uint256",
          "name": "",
          "type": "uint256"
        }
      ],
      "name": "userIds",
      "outputs": [
        {
          "internalType": "address",
          "name": "",
          "type": "address"
        }
      ],
      "stateMutability": "view",
      "type": "function"
    },
    {
      "inputs": [
        {
          "internalType": "address",
          "name": "",
          "type": "address"
        }
      ],
      "name": "users",
      "outputs": [
        {
          "internalType": "address",
          "name": "walletAddress",
          "type": "address"
        },
        {
          "internalType": "uint256",
          "name": "id",
          "type": "uint256"
        },
        {
          "internalType": "uint256",
          "name": "totalRewards",
          "type": "uint256"
        }
      ],
      "stateMutability": "view",
      "type": "function"
    }
  ],
  "bytecode": "0x60a060405273a9d587a00a31a52ed70d6026794a8fc5e2f5dcb0600160006101000a81548173ffffffffffffffffffffffffffffffffffffffff021916908373ffffffffffffffffffffffffffffffffffffffff1602179055507f66756e2d6176616c616e6368652d66756a692d3100000000000000000000000060001b600255620493e0600360006101000a81548163ffffffff021916908363ffffffff160217905550348015620000b157600080fd5b5060405162006808380380620068088339818101604052810190620000d7919062000496565b600160009054906101000a900473ffffffffffffffffffffffffffffffffffffffff1633600073ffffffffffffffffffffffffffffffffffffffff168173ffffffffffffffffffffffffffffffffffffffff1603620001705760006040517f1e4fbdf700000000000000000000000000000000000000000000000000000000815260040162000167919062000541565b60405180910390fd5b6200018181620001fa60201b60201c565b508073ffffffffffffffffffffffffffffffffffffffff1660808173ffffffffffffffffffffffffffffffffffffffff16815250505081600560006101000a81548167ffffffffffffffff021916908367ffffffffffffffff1602179055508060069081620001f19190620007a9565b50505062000890565b60008060009054906101000a900473ffffffffffffffffffffffffffffffffffffffff169050816000806101000a81548173ffffffffffffffffffffffffffffffffffffffff021916908373ffffffffffffffffffffffffffffffffffffffff1602179055508173ffffffffffffffffffffffffffffffffffffffff168173ffffffffffffffffffffffffffffffffffffffff167f8be0079c531659141344cd1fd0a4f28419497f9722a3daafe3b4186f6b6457e060405160405180910390a35050565b6000604051905090565b600080fd5b600080fd5b600067ffffffffffffffff82169050919050565b620002f181620002d2565b8114620002fd57600080fd5b50565b6000815190506200031181620002e6565b92915050565b600080fd5b600080fd5b6000601f19601f8301169050919050565b7f4e487b7100000000000000000000000000000000000000000000000000000000600052604160045260246000fd5b6200036c8262000321565b810181811067ffffffffffffffff821117156200038e576200038d62000332565b5b80604052505050565b6000620003a3620002be565b9050620003b1828262000361565b919050565b600067ffffffffffffffff821115620003d457620003d362000332565b5b620003df8262000321565b9050602081019050919050565b60005b838110156200040c578082015181840152602081019050620003ef565b60008484015250505050565b60006200042f6200042984620003b6565b62000397565b9050828152602081018484840111156200044e576200044d6200031c565b5b6200045b848285620003ec565b509392505050565b600082601f8301126200047b576200047a62000317565b5b81516200048d84826020860162000418565b91505092915050565b60008060408385031215620004b057620004af620002c8565b5b6000620004c08582860162000300565b925050602083015167ffffffffffffffff811115620004e457620004e3620002cd565b5b620004f28582860162000463565b9150509250929050565b600073ffffffffffffffffffffffffffffffffffffffff82169050919050565b60006200052982620004fc565b9050919050565b6200053b816200051c565b82525050565b600060208201905062000558600083018462000530565b92915050565b600081519050919050565b7f4e487b7100000000000000000000000000000000000000000000000000000000600052602260045260246000fd5b60006002820490506001821680620005b157607f821691505b602082108103620005c757620005c662000569565b5b50919050565b60008190508160005260206000209050919050565b60006020601f8301049050919050565b600082821b905092915050565b600060088302620006317fffffffffffffffffffffffffffffffffffffffffffffffffffffffffffffffff82620005f2565b6200063d8683620005f2565b95508019841693508086168417925050509392505050565b6000819050919050565b6000819050919050565b60006200068a620006846200067e8462000655565b6200065f565b62000655565b9050919050565b6000819050919050565b620006a68362000669565b620006be620006b58262000691565b848454620005ff565b825550505050565b600090565b620006d5620006c6565b620006e28184846200069b565b505050565b5b818110156200070a57620006fe600082620006cb565b600181019050620006e8565b5050565b601f82111562000759576200072381620005cd565b6200072e84620005e2565b810160208510156200073e578190505b620007566200074d85620005e2565b830182620006e7565b50505b505050565b600082821c905092915050565b60006200077e600019846008026200075e565b1980831691505092915050565b60006200079983836200076b565b9150826002028217905092915050565b620007b4826200055e565b67ffffffffffffffff811115620007d057620007cf62000332565b5b620007dc825462000598565b620007e98282856200070e565b600060209050601f8311600181146200082157600084156200080c578287015190505b6200081885826200078b565b86555062000888565b601f1984166200083186620005cd565b60005b828110156200085b5784890151825560018201915060208501945060208101905062000834565b868310156200087b578489015162000877601f8916826200076b565b8355505b6001600288020188555050505b505050505050565b608051615f55620008b360003960008181610ed601526138fe0152615f556000f3fe6080604052600436106102245760003560e01c80638995c70f11610123578063bce8ed4d116100ab578063e75f6ca71161006f578063e75f6ca7146108b9578063f2fde38b146108e4578063f51b71561461090d578063f9e0913f14610936578063fc2a88c31461096157610224565b8063bce8ed4d146107bd578063c158b90c146107e6578063c2cd73f114610802578063d6901c981461083f578063e44ccec41461087c57610224565b80639cc0dd48116100f25780639cc0dd48146106875780639d866985146106c4578063a87430ba14610704578063afda2f8014610743578063bba766071461078057610224565b80638995c70f146105cd5780638da5cb5b146105f657806390d976e21461062157806399d254551461065e57610224565b80632b956ff7116101b1578063666c4b5c11610175578063666c4b5c146104d257806367e828bf1461050f578063715018a61461053a5780637922f426146105515780638796ba8c1461059057610224565b80632b956ff7146103ab57806330d167ae146103e85780634635fd681461042557806361449ca21461046257806362747e42146104a757610224565b80630ca76175116101f85780630ca76175146102c65780630da8c007146102ef57806325ad91ce1461032c57806329f0de3f146103435780632b8c9c6e1461036e57610224565b80620b46f81461022957806307973ccf146102545780630962ef791461027f57806309c1ba2e1461029b575b600080fd5b34801561023557600080fd5b5061023e61098c565b60405161024b9190614287565b60405180910390f35b34801561026057600080fd5b50610269610991565b6040516102769190614287565b60405180910390f35b610299600480360381019061029491906142e2565b610997565b005b3480156102a757600080fd5b506102b0610eba565b6040516102bd9190614332565b60405180910390f35b3480156102d257600080fd5b506102ed60048036038101906102e891906144c9565b610ed4565b005b3480156102fb57600080fd5b5061031660048036038101906103119190614579565b610f96565b6040516103239190614287565b60405180910390f35b34801561033857600080fd5b50610341611147565b005b34801561034f57600080fd5b5061035861140a565b6040516103659190614638565b60405180910390f35b34801561037a57600080fd5b50610395600480360381019061039091906146b8565b611498565b6040516103a29190614700565b60405180910390f35b3480156103b757600080fd5b506103d260048036038101906103cd91906146b8565b6114b8565b6040516103df9190614287565b60405180910390f35b3480156103f457600080fd5b5061040f600480360381019061040a919061471b565b6115d7565b60405161041c9190614287565b60405180910390f35b34801561043157600080fd5b5061044c600480360381019061044791906142e2565b611770565b604051610459919061476a565b60405180910390f35b34801561046e57600080fd5b50610489600480360381019061048491906142e2565b6117a3565b60405161049e999897969594939291906147da565b60405180910390f35b3480156104b357600080fd5b506104bc61190e565b6040516104c99190614638565b60405180910390f35b3480156104de57600080fd5b506104f960048036038101906104f491906146b8565b61199c565b6040516105069190614287565b60405180910390f35b34801561051b57600080fd5b50610524611abb565b6040516105319190614875565b60405180910390f35b34801561054657600080fd5b5061054f611b49565b005b34801561055d57600080fd5b5061057860048036038101906105739190614897565b611b5d565b604051610587939291906148c4565b60405180910390f35b34801561059c57600080fd5b506105b760048036038101906105b291906142e2565b611c97565b6040516105c49190614918565b60405180910390f35b3480156105d957600080fd5b506105f460048036038101906105ef91906149fb565b611cbb565b005b34801561060257600080fd5b5061060b611df6565b604051610618919061476a565b60405180910390f35b34801561062d57600080fd5b50610648600480360381019061064391906142e2565b611e1f565b604051610655919061476a565b60405180910390f35b34801561066a57600080fd5b5061068560048036038101906106809190614af8565b611e5c565b005b34801561069357600080fd5b506106ae60048036038101906106a99190614b41565b611e77565b6040516106bb9190614bf8565b60405180910390f35b3480156106d057600080fd5b506106eb60048036038101906106e69190614897565b611f4a565b6040516106fb9493929190614c13565b60405180910390f35b34801561071057600080fd5b5061072b600480360381019061072691906146b8565b6120a4565b60405161073a93929190614c66565b60405180910390f35b34801561074f57600080fd5b5061076a600480360381019061076591906142e2565b6120ee565b6040516107779190614918565b60405180910390f35b34801561078c57600080fd5b506107a760048036038101906107a291906142e2565b612106565b6040516107b49190614d4d565b60405180910390f35b3480156107c957600080fd5b506107e460048036038101906107df9190614d6f565b6122dd565b005b61080060048036038101906107fb91906142e2565b6123df565b005b34801561080e57600080fd5b5061082960048036038101906108249190614e22565b612893565b6040516108369190614918565b60405180910390f35b34801561084b57600080fd5b50610866600480360381019061086191906142e2565b612c60565b6040516108739190614f6b565b60405180910390f35b34801561088857600080fd5b506108a3600480360381019061089e9190614897565b612d69565b6040516108b09190614d4d565b60405180910390f35b3480156108c557600080fd5b506108ce612ec4565b6040516108db9190614287565b60405180910390f35b3480156108f057600080fd5b5061090b600480360381019061090691906146b8565b612eca565b005b34801561091957600080fd5b50610934600480360381019061092f91906142e2565b612f50565b005b34801561094257600080fd5b5061094b6130ec565b6040516109589190614287565b60405180910390f35b34801561096d57600080fd5b506109766130f2565b6040516109839190614918565b60405180910390f35b600281565b600a5481565b33600073ffffffffffffffffffffffffffffffffffffffff16600e60008373ffffffffffffffffffffffffffffffffffffffff1673ffffffffffffffffffffffffffffffffffffffff16815260200190815260200160002060000160009054906101000a900473ffffffffffffffffffffffffffffffffffffffff1673ffffffffffffffffffffffffffffffffffffffff1603610a69576040517f08c379a0000000000000000000000000000000000000000000000000000000008152600401610a6090614fd9565b60405180910390fd5b81600d6000828152602001908152602001600020600a0160009054906101000a900460ff16610acd576040517f08c379a0000000000000000000000000000000000000000000000000000000008152600401610ac49061506b565b60405180910390fd5b600d600084815260200190815260200160002060090154421015610b26576040517f08c379a0000000000000000000000000000000000000000000000000000000008152600401610b1d906150d7565b60405180910390fd5b6000600d60008581526020019081526020016000209050600480811115610b5057610b4f614b81565b5b8160060160003373ffffffffffffffffffffffffffffffffffffffff1673ffffffffffffffffffffffffffffffffffffffff16815260200190815260200160002060020160009054906101000a900460ff166004811115610bb457610bb3614b81565b5b03610bf4576040517f08c379a0000000000000000000000000000000000000000000000000000000008152600401610beb90615143565b60405180910390fd5b60036004811115610c0857610c07614b81565b5b8160060160003373ffffffffffffffffffffffffffffffffffffffff1673ffffffffffffffffffffffffffffffffffffffff16815260200190815260200160002060020160009054906101000a900460ff166004811115610c6c57610c6b614b81565b5b14610cac576040517f08c379a0000000000000000000000000000000000000000000000000000000008152600401610ca3906151af565b60405180910390fd5b60008160060160003373ffffffffffffffffffffffffffffffffffffffff1673ffffffffffffffffffffffffffffffffffffffff16815260200190815260200160002060000154905060008111610d38576040517f08c379a0000000000000000000000000000000000000000000000000000000008152600401610d2f9061521b565b60405180910390fd5b6000610d4433876130f8565b90503373ffffffffffffffffffffffffffffffffffffffff166108fc829081150290604051600060405180830381858888f19350505050158015610d8c573d6000803e3d6000fd5b5080836004016000828254610da1919061526a565b9250508190555060048360060160003373ffffffffffffffffffffffffffffffffffffffff1673ffffffffffffffffffffffffffffffffffffffff16815260200190815260200160002060020160006101000a81548160ff02191690836004811115610e1057610e0f614b81565b5b021790555080600e60003373ffffffffffffffffffffffffffffffffffffffff1673ffffffffffffffffffffffffffffffffffffffff1681526020019081526020016000206003016000828254610e67919061529e565b92505081905550853373ffffffffffffffffffffffffffffffffffffffff167ffc30cddea38e2bf4d6ea7d3f9ed3b6ad7f176419f4963bd81318067a4aee73fe60405160405180910390a3505050505050565b600560009054906101000a900467ffffffffffffffff1681565b7f000000000000000000000000000000000000000000000000000000000000000073ffffffffffffffffffffffffffffffffffffffff163373ffffffffffffffffffffffffffffffffffffffff1614610f59576040517fc6829f8300000000000000000000000000000000000000000000000000000000815260040160405180910390fd5b610f648383836131c9565b827f85e1543bf2f84fe80c6badbce3648c8539ad1df4d2b3d822938ca0538be727e660405160405180910390a2505050565b600082600d6000828152602001908152602001600020600a0160009054906101000a900460ff16610ffc576040517f08c379a0000000000000000000000000000000000000000000000000000000008152600401610ff39061506b565b60405180910390fd5b6000600d600086815260200190815260200160002090506000805b826007018054905081101561113a57600083600701828154811061103e5761103d6152d2565b5b9060005260206000200160009054906101000a900473ffffffffffffffffffffffffffffffffffffffff16905086600481111561107e5761107d614b81565b5b8460060160008373ffffffffffffffffffffffffffffffffffffffff1673ffffffffffffffffffffffffffffffffffffffff16815260200190815260200160002060020160009054906101000a900460ff1660048111156110e2576110e1614b81565b5b14806111125750600060048111156110fd576110fc614b81565b5b8760048111156111105761110f614b81565b5b145b1561112657828061112290615301565b9350505b50808061113290615301565b915050611017565b5080935050505092915050565b33601060008273ffffffffffffffffffffffffffffffffffffffff1673ffffffffffffffffffffffffffffffffffffffff16815260200190815260200160002060009054906101000a900460ff16156111d5576040517f08c379a00000000000000000000000000000000000000000000000000000000081526004016111cc90615395565b60405180910390fd5b66038d7ea4c680003373ffffffffffffffffffffffffffffffffffffffff16311015611236576040517f08c379a000000000000000000000000000000000000000000000000000000000815260040161122d90615401565b60405180910390fd5b33600e60003373ffffffffffffffffffffffffffffffffffffffff1673ffffffffffffffffffffffffffffffffffffffff16815260200190815260200160002060000160006101000a81548173ffffffffffffffffffffffffffffffffffffffff021916908373ffffffffffffffffffffffffffffffffffffffff160217905550600a54600e60003373ffffffffffffffffffffffffffffffffffffffff1673ffffffffffffffffffffffffffffffffffffffff1681526020019081526020016000206001018190555033600f6000600a54815260200190815260200160002060006101000a81548173ffffffffffffffffffffffffffffffffffffffff021916908373ffffffffffffffffffffffffffffffffffffffff1602179055506001601060003373ffffffffffffffffffffffffffffffffffffffff1673ffffffffffffffffffffffffffffffffffffffff16815260200190815260200160002060006101000a81548160ff021916908315150217905550600a60008154809291906113bf90615301565b91905055503373ffffffffffffffffffffffffffffffffffffffff167f0b0376a109cbb578b709f85f6a7befcdac3ac1ab251c99ede87f30c9572ac4d360405160405180910390a250565b6009805461141790615450565b80601f016020809104026020016040519081016040528092919081815260200182805461144390615450565b80156114905780601f1061146557610100808354040283529160200191611490565b820191906000526020600020905b81548152906001019060200180831161147357829003601f168201915b505050505081565b60106020528060005260406000206000915054906101000a900460ff1681565b600081600073ffffffffffffffffffffffffffffffffffffffff16600e60008373ffffffffffffffffffffffffffffffffffffffff1673ffffffffffffffffffffffffffffffffffffffff16815260200190815260200160002060000160009054906101000a900473ffffffffffffffffffffffffffffffffffffffff1673ffffffffffffffffffffffffffffffffffffffff160361158c576040517f08c379a000000000000000000000000000000000000000000000000000000000815260040161158390614fd9565b60405180910390fd5b600e60008473ffffffffffffffffffffffffffffffffffffffff1673ffffffffffffffffffffffffffffffffffffffff16815260200190815260200160002060010154915050919050565b600081600d6000828152602001908152602001600020600a0160009054906101000a900460ff1661163d576040517f08c379a00000000000000000000000000000000000000000000000000000000081526004016116349061506b565b60405180910390fd5b83600073ffffffffffffffffffffffffffffffffffffffff16600e60008373ffffffffffffffffffffffffffffffffffffffff1673ffffffffffffffffffffffffffffffffffffffff16815260200190815260200160002060000160009054906101000a900473ffffffffffffffffffffffffffffffffffffffff1673ffffffffffffffffffffffffffffffffffffffff160361170f576040517f08c379a000000000000000000000000000000000000000000000000000000000815260040161170690614fd9565b60405180910390fd5b600d600085815260200190815260200160002060060160008673ffffffffffffffffffffffffffffffffffffffff1673ffffffffffffffffffffffffffffffffffffffff168152602001908152602001600020600101549250505092915050565b600f6020528060005260406000206000915054906101000a900473ffffffffffffffffffffffffffffffffffffffff1681565b600d6020528060005260406000206000915090508060000154908060010180546117cc90615450565b80601f01602080910402602001604051908101604052809291908181526020018280546117f890615450565b80156118455780601f1061181a57610100808354040283529160200191611845565b820191906000526020600020905b81548152906001019060200180831161182857829003601f168201915b50505050509080600201805461185a90615450565b80601f016020809104026020016040519081016040528092919081815260200182805461188690615450565b80156118d35780601f106118a8576101008083540402835291602001916118d3565b820191906000526020600020905b8154815290600101906020018083116118b657829003601f168201915b50505050509080600301549080600401549080600501549080600801549080600901549080600a0160009054906101000a900460ff16905089565b6008805461191b90615450565b80601f016020809104026020016040519081016040528092919081815260200182805461194790615450565b80156119945780601f1061196957610100808354040283529160200191611994565b820191906000526020600020905b81548152906001019060200180831161197757829003601f168201915b505050505081565b600081600073ffffffffffffffffffffffffffffffffffffffff16600e60008373ffffffffffffffffffffffffffffffffffffffff1673ffffffffffffffffffffffffffffffffffffffff16815260200190815260200160002060000160009054906101000a900473ffffffffffffffffffffffffffffffffffffffff1673ffffffffffffffffffffffffffffffffffffffff1603611a70576040517f08c379a0000000000000000000000000000000000000000000000000000000008152600401611a6790614fd9565b60405180910390fd5b600e60008473ffffffffffffffffffffffffffffffffffffffff1673ffffffffffffffffffffffffffffffffffffffff16815260200190815260200160002060030154915050919050565b60068054611ac890615450565b80601f0160208091040260200160405190810160405280929190818152602001828054611af490615450565b8015611b415780601f10611b1657610100808354040283529160200191611b41565b820191906000526020600020905b815481529060010190602001808311611b2457829003601f168201915b505050505081565b611b51613339565b611b5b60006133c0565b565b6013602052806000526040600020600091509050806000015490806001018054611b8690615450565b80601f0160208091040260200160405190810160405280929190818152602001828054611bb290615450565b8015611bff5780601f10611bd457610100808354040283529160200191611bff565b820191906000526020600020905b815481529060010190602001808311611be257829003601f168201915b505050505090806002018054611c1490615450565b80601f0160208091040260200160405190810160405280929190818152602001828054611c4090615450565b8015611c8d5780601f10611c6257610100808354040283529160200191611c8d565b820191906000526020600020905b815481529060010190602001808311611c7057829003601f168201915b5050505050905083565b60078181548110611ca757600080fd5b906000526020600020016000915090505481565b611cc3613339565b80600d6000828152602001908152602001600020600a0160009054906101000a900460ff16611d27576040517f08c379a0000000000000000000000000000000000000000000000000000000008152600401611d1e9061506b565b60405180910390fd5b60005b8351811015611df0576000611d58858381518110611d4b57611d4a6152d2565b5b6020026020010151611e1f565b905084600183611d68919061529e565b81518110611d7957611d786152d2565b5b6020026020010151600d600086815260200190815260200160002060060160008373ffffffffffffffffffffffffffffffffffffffff1673ffffffffffffffffffffffffffffffffffffffff1681526020019081526020016000206001018190555050600281611de9919061529e565b9050611d2a565b50505050565b60008060009054906101000a900473ffffffffffffffffffffffffffffffffffffffff16905090565b6000600f600083815260200190815260200160002060009054906101000a900473ffffffffffffffffffffffffffffffffffffffff169050919050565b611e64613339565b8060069081611e73919061562d565b5050565b600082600d6000828152602001908152602001600020600a0160009054906101000a900460ff16611edd576040517f08c379a0000000000000000000000000000000000000000000000000000000008152600401611ed49061506b565b60405180910390fd5b600d600085815260200190815260200160002060060160008473ffffffffffffffffffffffffffffffffffffffff1673ffffffffffffffffffffffffffffffffffffffff16815260200190815260200160002060020160009054906101000a900460ff1691505092915050565b60126020528060005260406000206000915090508060000160009054906101000a900460ff16908060000160019054906101000a900460ff1690806001018054611f9390615450565b80601f0160208091040260200160405190810160405280929190818152602001828054611fbf90615450565b801561200c5780601f10611fe15761010080835404028352916020019161200c565b820191906000526020600020905b815481529060010190602001808311611fef57829003601f168201915b50505050509080600201805461202190615450565b80601f016020809104026020016040519081016040528092919081815260200182805461204d90615450565b801561209a5780601f1061206f5761010080835404028352916020019161209a565b820191906000526020600020905b81548152906001019060200180831161207d57829003601f168201915b5050505050905084565b600e6020528060005260406000206000915090508060000160009054906101000a900473ffffffffffffffffffffffffffffffffffffffff16908060010154908060030154905083565b60116020528060005260406000206000915090505481565b61210e6141a1565b6000601160008481526020019081526020016000205490506012600082815260200190815260200160002060000160019054906101000a900460ff16612189576040517f08c379a00000000000000000000000000000000000000000000000000000000081526004016121809061574b565b60405180910390fd5b60136000828152602001908152602001600020604051806060016040529081600082015481526020016001820180546121c190615450565b80601f01602080910402602001604051908101604052809291908181526020018280546121ed90615450565b801561223a5780601f1061220f5761010080835404028352916020019161223a565b820191906000526020600020905b81548152906001019060200180831161221d57829003601f168201915b5050505050815260200160028201805461225390615450565b80601f016020809104026020016040519081016040528092919081815260200182805461227f90615450565b80156122cc5780601f106122a1576101008083540402835291602001916122cc565b820191906000526020600020905b8154815290600101906020018083116122af57829003601f168201915b505050505081525050915050919050565b6122e5613339565b6000600d6000600b5481526020019081526020016000209050600b5481600001819055508581600101908161231a919061562d565b508481600201908161232c919061562d565b50838160030181905550828160080181905550818160090181905550600181600a0160006101000a81548160ff021916908315150217905550600c600081548092919061237890615301565b9190505550600b600081548092919061239090615301565b9190505550600b547f12147fa79fbbfaed904e6976dbd34cd000f28f8ed3f3ce6bb7f0f4a1769a267a87878787876040516123cf95949392919061576b565b60405180910390a2505050505050565b33600073ffffffffffffffffffffffffffffffffffffffff16600e60008373ffffffffffffffffffffffffffffffffffffffff1673ffffffffffffffffffffffffffffffffffffffff16815260200190815260200160002060000160009054906101000a900473ffffffffffffffffffffffffffffffffffffffff1673ffffffffffffffffffffffffffffffffffffffff16036124b1576040517f08c379a00000000000000000000000000000000000000000000000000000000081526004016124a890614fd9565b60405180910390fd5b81600d6000828152602001908152602001600020600a0160009054906101000a900460ff16612515576040517f08c379a000000000000000000000000000000000000000000000000000000000815260040161250c9061506b565b60405180910390fd5b600d600084815260200190815260200160002060080154421061256d576040517f08c379a000000000000000000000000000000000000000000000000000000000815260040161256490615818565b60405180910390fd5b42600d600085815260200190815260200160002060090154116125c5576040517f08c379a00000000000000000000000000000000000000000000000000000000081526004016125bc90615884565b60405180910390fd5b60003411612608576040517f08c379a00000000000000000000000000000000000000000000000000000000081526004016125ff906158f0565b60405180910390fd5b6000600481111561261c5761261b614b81565b5b600d600085815260200190815260200160002060060160003373ffffffffffffffffffffffffffffffffffffffff1673ffffffffffffffffffffffffffffffffffffffff16815260200190815260200160002060020160009054906101000a900460ff16600481111561269257612691614b81565b5b146126d2576040517f08c379a00000000000000000000000000000000000000000000000000000000081526004016126c99061595c565b60405180910390fd5b604051806060016040528034815260200160008152602001600160048111156126fe576126fd614b81565b5b815250600d600085815260200190815260200160002060060160003373ffffffffffffffffffffffffffffffffffffffff1673ffffffffffffffffffffffffffffffffffffffff168152602001908152602001600020600082015181600001556020820151816001015560408201518160020160006101000a81548160ff0219169083600481111561279357612792614b81565b5b0217905550905050600d6000848152602001908152602001600020600701339080600181540180825580915050600190039060005260206000200160009091909190916101000a81548173ffffffffffffffffffffffffffffffffffffffff021916908373ffffffffffffffffffffffffffffffffffffffff16021790555034600d60008581526020019081526020016000206004016000828254612838919061529e565b92505081905550823373ffffffffffffffffffffffffffffffffffffffff167f8f301af230e39227ba203f0d3f6b4314b562b99636df1521ff13d5516a9d7316346040516128869190614287565b60405180910390a3505050565b6000600d6000838152602001908152602001600020600a0160009054906101000a900460ff166128f8576040517f08c379a00000000000000000000000000000000000000000000000000000000081526004016128ef906159c8565b60405180910390fd5b6000600267ffffffffffffffff8111156129155761291461439e565b5b60405190808252806020026020018201604052801561294857816020015b60608152602001906001900390816129335790505b50905084816000815181106129605761295f6152d2565b5b602002602001018190525083816001815181106129805761297f6152d2565b5b60200260200101819052506129936141c2565b612a30600680546129a390615450565b80601f01602080910402602001604051908101604052809291908181526020018280546129cf90615450565b8015612a1c5780601f106129f157610100808354040283529160200191612a1c565b820191906000526020600020905b8154815290600101906020018083116129ff57829003601f168201915b50505050508261348490919063ffffffff16565b600082511115612a4e57612a4d828261349590919063ffffffff16565b5b612a8c612a5a826134dd565b600560009054906101000a900467ffffffffffffffff16600360009054906101000a900463ffffffff166002546138f9565b600481905550604051806060016040528085815260200186815260200160405180602001604052806000815250815250601360006004548152602001908152602001600020600082015181600001556020820151816001019081612af0919061562d565b506040820151816002019081612b06919061562d565b5090505060405180608001604052806000151581526020016001151581526020016040518060200160405280600081525081526020016040518060200160405280600081525081525060126000600454815260200190815260200160002060008201518160000160006101000a81548160ff02191690831515021790555060208201518160000160016101000a81548160ff0219169083151502179055506040820151816001019081612bb99190615a43565b506060820151816002019081612bcf9190615a43565b509050506007600454908060018154018082558091505060019003906000526020600020016000909190919091505560045460116000868152602001908152602001600020819055506004547f7d7e1d3575ff050561c31730682e6dfadeb23b921bb9e7a16f17506e05962a3a86604051612c4a9190614875565b60405180910390a2600454925050509392505050565b606081600d6000828152602001908152602001600020600a0160009054906101000a900460ff16612cc6576040517f08c379a0000000000000000000000000000000000000000000000000000000008152600401612cbd9061506b565b60405180910390fd5b600d6000848152602001908152602001600020600701805480602002602001604051908101604052809291908181526020018280548015612d5c57602002820191906000526020600020905b8160009054906101000a900473ffffffffffffffffffffffffffffffffffffffff1673ffffffffffffffffffffffffffffffffffffffff1681526020019060010190808311612d12575b5050505050915050919050565b612d716141a1565b6013600083815260200190815260200160002060405180606001604052908160008201548152602001600182018054612da990615450565b80601f0160208091040260200160405190810160405280929190818152602001828054612dd590615450565b8015612e225780601f10612df757610100808354040283529160200191612e22565b820191906000526020600020905b815481529060010190602001808311612e0557829003601f168201915b50505050508152602001600282018054612e3b90615450565b80601f0160208091040260200160405190810160405280929190818152602001828054612e6790615450565b8015612eb45780601f10612e8957610100808354040283529160200191612eb4565b820191906000526020600020905b815481529060010190602001808311612e9757829003601f168201915b5050505050815250509050919050565b600b5481565b612ed2613339565b600073ffffffffffffffffffffffffffffffffffffffff168173ffffffffffffffffffffffffffffffffffffffff1603612f445760006040517f1e4fbdf7000000000000000000000000000000000000000000000000000000008152600401612f3b919061476a565b60405180910390fd5b612f4d816133c0565b50565b612f58613339565b80600d6000828152602001908152602001600020600a0160009054906101000a900460ff16612fbc576040517f08c379a0000000000000000000000000000000000000000000000000000000008152600401612fb39061506b565b60405180910390fd5b600d600083815260200190815260200160002060090154421015613015576040517f08c379a000000000000000000000000000000000000000000000000000000000815260040161300c906150d7565b60405180910390fd5b6000600d6000848152602001908152602001600020905060005b81600701805490508110156130a1576000826007018281548110613056576130556152d2565b5b9060005260206000200160009054906101000a900473ffffffffffffffffffffffffffffffffffffffff16905061308d81866139dc565b50808061309990615301565b91505061302f565b50600c60008154809291906130b590615b15565b9190505550827f21f467260d12367f5f6c3427e620c488bcaa8f30684b081059fba3477919a89a60405160405180910390a2505050565b600c5481565b60045481565b600080600d6000848152602001908152602001600020905060008160060160008673ffffffffffffffffffffffffffffffffffffffff1673ffffffffffffffffffffffffffffffffffffffff168152602001908152602001600020600001549050600082600501549050600061316f866003610f96565b9050600060646002856131829190615b3e565b61318c9190615baf565b90506000828461319c9190615baf565b905060008282876131ad919061529e565b6131b7919061526a565b90508097505050505050505092915050565b6012600084815260200190815260200160002060000160019054906101000a900460ff1661322c576040517f08c379a000000000000000000000000000000000000000000000000000000000815260040161322390615c2c565b60405180910390fd5b806009908161323b9190615a43565b50816008908161324b9190615a43565b506000825111156132815760006013600085815260200190815260200160002090508281600201908161327e919061562d565b50505b60016012600085815260200190815260200160002060000160006101000a81548160ff021916908315150217905550816012600085815260200190815260200160002060010190816132d39190615a43565b50806012600085815260200190815260200160002060020190816132f79190615a43565b50827f160ed0aaffbef6885155188b91459cb5a97d5daadccf7561d8c46deea6641b5083848460405161332c93929190615c4c565b60405180910390a2505050565b613341613b74565b73ffffffffffffffffffffffffffffffffffffffff1661335f611df6565b73ffffffffffffffffffffffffffffffffffffffff16146133be57613382613b74565b6040517f118cdaa70000000000000000000000000000000000000000000000000000000081526004016133b5919061476a565b60405180910390fd5b565b60008060009054906101000a900473ffffffffffffffffffffffffffffffffffffffff169050816000806101000a81548173ffffffffffffffffffffffffffffffffffffffff021916908373ffffffffffffffffffffffffffffffffffffffff1602179055508173ffffffffffffffffffffffffffffffffffffffff168173ffffffffffffffffffffffffffffffffffffffff167f8be0079c531659141344cd1fd0a4f28419497f9722a3daafe3b4186f6b6457e060405160405180910390a35050565b6134918260008084613b7c565b5050565b60008151036134d0576040517ffe936cb700000000000000000000000000000000000000000000000000000000815260040160405180910390fd5b808260a001819052505050565b606060006134ec610100613c26565b90506135366040518060400160405280600c81526020017f636f64654c6f636174696f6e000000000000000000000000000000000000000081525082613c4d90919063ffffffff16565b61355f836000015160028111156135505761354f614b81565b5b82613c7690919063ffffffff16565b6135a76040518060400160405280600881526020017f6c616e677561676500000000000000000000000000000000000000000000000081525082613c4d90919063ffffffff16565b6135d0836040015160008111156135c1576135c0614b81565b5b82613c7690919063ffffffff16565b6136186040518060400160405280600681526020017f736f75726365000000000000000000000000000000000000000000000000000081525082613c4d90919063ffffffff16565b61362f836060015182613c4d90919063ffffffff16565b60008360a001515111156136eb576136856040518060400160405280600481526020017f617267730000000000000000000000000000000000000000000000000000000081525082613c4d90919063ffffffff16565b61368e81613cc6565b60005b8360a00151518110156136e0576136cf8460a0015182815181106136b8576136b76152d2565b5b602002602001015183613c4d90919063ffffffff16565b806136d990615301565b9050613691565b506136ea81613cee565b5b6000836080015151111561382c576000600281111561370d5761370c614b81565b5b8360200151600281111561372457613723614b81565b5b0361375b576040517fa80d31f700000000000000000000000000000000000000000000000000000000815260040160405180910390fd5b6137a36040518060400160405280600f81526020017f736563726574734c6f636174696f6e000000000000000000000000000000000081525082613c4d90919063ffffffff16565b6137cc836020015160028111156137bd576137bc614b81565b5b82613c7690919063ffffffff16565b6138146040518060400160405280600781526020017f736563726574730000000000000000000000000000000000000000000000000081525082613c4d90919063ffffffff16565b61382b836080015182613d1690919063ffffffff16565b5b60008360c001515111156138e8576138826040518060400160405280600981526020017f627974657341726773000000000000000000000000000000000000000000000081525082613c4d90919063ffffffff16565b61388b81613cc6565b60005b8360c00151518110156138dd576138cc8460c0015182815181106138b5576138b46152d2565b5b602002602001015183613d1690919063ffffffff16565b806138d690615301565b905061388e565b506138e781613cee565b5b806000015160000151915050919050565b6000807f000000000000000000000000000000000000000000000000000000000000000073ffffffffffffffffffffffffffffffffffffffff1663461d27628688600188886040518663ffffffff1660e01b815260040161395e959493929190615cd4565b6020604051808303816000875af115801561397d573d6000803e3d6000fd5b505050506040513d601f19601f820116820180604052508101906139a19190615d43565b9050807f1131472297a800fee664d1d89cfa8f7676ff07189ecc53f80bbb5f4969099db860405160405180910390a280915050949350505050565b6000600d6000838152602001908152602001600020905060008160060160008573ffffffffffffffffffffffffffffffffffffffff1673ffffffffffffffffffffffffffffffffffffffff168152602001908152602001600020905060016004811115613a4c57613a4b614b81565b5b8160020160009054906101000a900460ff166004811115613a7057613a6f614b81565b5b03613b6e578160030154816001015410613ab65760038160020160006101000a81548160ff02191690836004811115613aac57613aab614b81565b5b0217905550613b0d565b60028160020160006101000a81548160ff02191690836004811115613ade57613add614b81565b5b02179055508060000154826005016000828254613afb919061529e565b92505081905550600081600001819055505b828473ffffffffffffffffffffffffffffffffffffffff167f08a6fe6ac9911d48760b3a3730226ca83b632ae4d9406912428e3b4d6ba02ceb8360020160009054906101000a900460ff16604051613b659190614bf8565b60405180910390a35b50505050565b600033905090565b6000815103613bb7576040517f22ce3edd00000000000000000000000000000000000000000000000000000000815260040160405180910390fd5b8284600001906002811115613bcf57613bce614b81565b5b90816002811115613be357613be2614b81565b5b815250508184604001906000811115613bff57613bfe614b81565b5b90816000811115613c1357613c12614b81565b5b8152505080846060018190525050505050565b613c2e614234565b613c3c816000015183613d3f565b506000816020018181525050919050565b613c5a8260038351613db8565b613c71818360000151613f6190919063ffffffff16565b505050565b613c9860026005600660ff16901b178360000151613f7d90919063ffffffff16565b50613cc28282604051602001613cae9190614287565b604051602081830303815290604052613d16565b5050565b613cd1816004613fe7565b600181602001818151613ce4919061529e565b9150818152505050565b613cf9816007613fe7565b600181602001818151613d0c919061526a565b9150818152505050565b613d238260028351613db8565b613d3a818360000151613f6190919063ffffffff16565b505050565b613d47614254565b6000602083613d569190615d70565b14613d8257602082613d689190615d70565b6020613d74919061526a565b82613d7f919061529e565b91505b818360200181815250506040518084526000815282810160200181811015613da957600080fd5b80604052505082905092915050565b60178167ffffffffffffffff1611613df357613ded8160058460ff16901b60ff16178460000151613f7d90919063ffffffff16565b50613f5c565b60ff8167ffffffffffffffff1611613e5157613e26601860058460ff16901b178460000151613f7d90919063ffffffff16565b50613e4b8167ffffffffffffffff166001856000015161400d9092919063ffffffff16565b50613f5b565b61ffff8167ffffffffffffffff1611613eb057613e85601960058460ff16901b178460000151613f7d90919063ffffffff16565b50613eaa8167ffffffffffffffff166002856000015161400d9092919063ffffffff16565b50613f5a565b63ffffffff8167ffffffffffffffff1611613f1157613ee6601a60058460ff16901b178460000151613f7d90919063ffffffff16565b50613f0b8167ffffffffffffffff166004856000015161400d9092919063ffffffff16565b50613f59565b613f32601b60058460ff16901b178460000151613f7d90919063ffffffff16565b50613f578167ffffffffffffffff166008856000015161400d9092919063ffffffff16565b505b5b5b5b505050565b613f69614254565b613f758383845161409a565b905092915050565b613f85614254565b600083600001515190506000600182613f9e919061529e565b905084602001518210613fc257613fc185600283613fbc9190615b3e565b61417d565b5b84516020838201018581538151831115613fda578282525b5050849250505092915050565b614008601f60058360ff16901b178360000151613f7d90919063ffffffff16565b505050565b614015614254565b600084600001515190506000818461402d919061529e565b90508560200151811115614052576140518660028361404c9190615b3e565b61417d565b5b60006001856101006140649190615ed4565b61406e919061526a565b90508651828101878319825116178152815184111561408b578382525b50508693505050509392505050565b6140a2614254565b82518211156140b057600080fd5b60008460000151519050600083826140c8919061529e565b905085602001518111156140ed576140ec866002836140e79190615b3e565b61417d565b5b60008087518051856020830101935080851115614108578482525b60208901925050505b6020861061414f578051825260208261412a919061529e565b9150602081614139919061529e565b9050602086614148919061526a565b9550614111565b60006001876020036101000a0390508019825116818451168181178552505050879450505050509392505050565b6000826000015190506141908383613d3f565b5061419b8382613f61565b50505050565b60405180606001604052806000815260200160608152602001606081525090565b6040518060e00160405280600060028111156141e1576141e0614b81565b5b8152602001600060028111156141fa576141f9614b81565b5b815260200160008081111561421257614211614b81565b5b8152602001606081526020016060815260200160608152602001606081525090565b6040518060400160405280614247614254565b8152602001600081525090565b604051806040016040528060608152602001600081525090565b6000819050919050565b6142818161426e565b82525050565b600060208201905061429c6000830184614278565b92915050565b6000604051905090565b600080fd5b600080fd5b6142bf8161426e565b81146142ca57600080fd5b50565b6000813590506142dc816142b6565b92915050565b6000602082840312156142f8576142f76142ac565b5b6000614306848285016142cd565b91505092915050565b600067ffffffffffffffff82169050919050565b61432c8161430f565b82525050565b60006020820190506143476000830184614323565b92915050565b6000819050919050565b6143608161434d565b811461436b57600080fd5b50565b60008135905061437d81614357565b92915050565b600080fd5b600080fd5b6000601f19601f8301169050919050565b7f4e487b7100000000000000000000000000000000000000000000000000000000600052604160045260246000fd5b6143d68261438d565b810181811067ffffffffffffffff821117156143f5576143f461439e565b5b80604052505050565b60006144086142a2565b905061441482826143cd565b919050565b600067ffffffffffffffff8211156144345761443361439e565b5b61443d8261438d565b9050602081019050919050565b82818337600083830152505050565b600061446c61446784614419565b6143fe565b90508281526020810184848401111561448857614487614388565b5b61449384828561444a565b509392505050565b600082601f8301126144b0576144af614383565b5b81356144c0848260208601614459565b91505092915050565b6000806000606084860312156144e2576144e16142ac565b5b60006144f08682870161436e565b935050602084013567ffffffffffffffff811115614511576145106142b1565b5b61451d8682870161449b565b925050604084013567ffffffffffffffff81111561453e5761453d6142b1565b5b61454a8682870161449b565b9150509250925092565b6005811061456157600080fd5b50565b60008135905061457381614554565b92915050565b600080604083850312156145905761458f6142ac565b5b600061459e858286016142cd565b92505060206145af85828601614564565b9150509250929050565b600081519050919050565b600082825260208201905092915050565b60005b838110156145f35780820151818401526020810190506145d8565b60008484015250505050565b600061460a826145b9565b61461481856145c4565b93506146248185602086016145d5565b61462d8161438d565b840191505092915050565b6000602082019050818103600083015261465281846145ff565b905092915050565b600073ffffffffffffffffffffffffffffffffffffffff82169050919050565b60006146858261465a565b9050919050565b6146958161467a565b81146146a057600080fd5b50565b6000813590506146b28161468c565b92915050565b6000602082840312156146ce576146cd6142ac565b5b60006146dc848285016146a3565b91505092915050565b60008115159050919050565b6146fa816146e5565b82525050565b600060208201905061471560008301846146f1565b92915050565b60008060408385031215614732576147316142ac565b5b6000614740858286016146a3565b9250506020614751858286016142cd565b9150509250929050565b6147648161467a565b82525050565b600060208201905061477f600083018461475b565b92915050565b600081519050919050565b600082825260208201905092915050565b60006147ac82614785565b6147b68185614790565b93506147c68185602086016145d5565b6147cf8161438d565b840191505092915050565b6000610120820190506147f0600083018c614278565b8181036020830152614802818b6147a1565b90508181036040830152614816818a6147a1565b90506148256060830189614278565b6148326080830188614278565b61483f60a0830187614278565b61484c60c0830186614278565b61485960e0830185614278565b6148676101008301846146f1565b9a9950505050505050505050565b6000602082019050818103600083015261488f81846147a1565b905092915050565b6000602082840312156148ad576148ac6142ac565b5b60006148bb8482850161436e565b91505092915050565b60006060820190506148d96000830186614278565b81810360208301526148eb81856147a1565b905081810360408301526148ff81846147a1565b9050949350505050565b6149128161434d565b82525050565b600060208201905061492d6000830184614909565b92915050565b600067ffffffffffffffff82111561494e5761494d61439e565b5b602082029050602081019050919050565b600080fd5b600061497761497284614933565b6143fe565b9050808382526020820190506020840283018581111561499a5761499961495f565b5b835b818110156149c357806149af88826142cd565b84526020840193505060208101905061499c565b5050509392505050565b600082601f8301126149e2576149e1614383565b5b81356149f2848260208601614964565b91505092915050565b60008060408385031215614a1257614a116142ac565b5b600083013567ffffffffffffffff811115614a3057614a2f6142b1565b5b614a3c858286016149cd565b9250506020614a4d858286016142cd565b9150509250929050565b600067ffffffffffffffff821115614a7257614a7161439e565b5b614a7b8261438d565b9050602081019050919050565b6000614a9b614a9684614a57565b6143fe565b905082815260208101848484011115614ab757614ab6614388565b5b614ac284828561444a565b509392505050565b600082601f830112614adf57614ade614383565b5b8135614aef848260208601614a88565b91505092915050565b600060208284031215614b0e57614b0d6142ac565b5b600082013567ffffffffffffffff811115614b2c57614b2b6142b1565b5b614b3884828501614aca565b91505092915050565b60008060408385031215614b5857614b576142ac565b5b6000614b66858286016142cd565b9250506020614b77858286016146a3565b9150509250929050565b7f4e487b7100000000000000000000000000000000000000000000000000000000600052602160045260246000fd5b60058110614bc157614bc0614b81565b5b50565b6000819050614bd282614bb0565b919050565b6000614be282614bc4565b9050919050565b614bf281614bd7565b82525050565b6000602082019050614c0d6000830184614be9565b92915050565b6000608082019050614c2860008301876146f1565b614c3560208301866146f1565b8181036040830152614c4781856145ff565b90508181036060830152614c5b81846145ff565b905095945050505050565b6000606082019050614c7b600083018661475b565b614c886020830185614278565b614c956040830184614278565b949350505050565b614ca68161426e565b82525050565b600082825260208201905092915050565b6000614cc882614785565b614cd28185614cac565b9350614ce28185602086016145d5565b614ceb8161438d565b840191505092915050565b6000606083016000830151614d0e6000860182614c9d565b5060208301518482036020860152614d268282614cbd565b91505060408301518482036040860152614d408282614cbd565b9150508091505092915050565b60006020820190508181036000830152614d678184614cf6565b905092915050565b600080600080600060a08688031215614d8b57614d8a6142ac565b5b600086013567ffffffffffffffff811115614da957614da86142b1565b5b614db588828901614aca565b955050602086013567ffffffffffffffff811115614dd657614dd56142b1565b5b614de288828901614aca565b9450506040614df3888289016142cd565b9350506060614e04888289016142cd565b9250506080614e15888289016142cd565b9150509295509295909350565b600080600060608486031215614e3b57614e3a6142ac565b5b600084013567ffffffffffffffff811115614e5957614e586142b1565b5b614e6586828701614aca565b935050602084013567ffffffffffffffff811115614e8657614e856142b1565b5b614e9286828701614aca565b9250506040614ea3868287016142cd565b9150509250925092565b600081519050919050565b600082825260208201905092915050565b6000819050602082019050919050565b614ee28161467a565b82525050565b6000614ef48383614ed9565b60208301905092915050565b6000602082019050919050565b6000614f1882614ead565b614f228185614eb8565b9350614f2d83614ec9565b8060005b83811015614f5e578151614f458882614ee8565b9750614f5083614f00565b925050600181019050614f31565b5085935050505092915050565b60006020820190508181036000830152614f858184614f0d565b905092915050565b7f55736572206d7573742065786973740000000000000000000000000000000000600082015250565b6000614fc3600f83614790565b9150614fce82614f8d565b602082019050919050565b60006020820190508181036000830152614ff281614fb6565b9050919050565b7f496e76616c696420676f616c2069642c20676f616c20646f6573206e6f74206560008201527f7869737400000000000000000000000000000000000000000000000000000000602082015250565b6000615055602483614790565b915061506082614ff9565b604082019050919050565b6000602082019050818103600083015261508481615048565b9050919050565b7f476f616c206d7573742062652065787069726564000000000000000000000000600082015250565b60006150c1601483614790565b91506150cc8261508b565b602082019050919050565b600060208201905081810360008301526150f0816150b4565b9050919050565b7f5265776172647320636c61696d65642e00000000000000000000000000000000600082015250565b600061512d601083614790565b9150615138826150f7565b602082019050919050565b6000602082019050818103600083015261515c81615120565b9050919050565b7f476f616c20756e636f6d706c6574650000000000000000000000000000000000600082015250565b6000615199600f83614790565b91506151a482615163565b602082019050919050565b600060208201905081810360008301526151c88161518c565b9050919050565b7f446964206e6f74207374616b652e000000000000000000000000000000000000600082015250565b6000615205600e83614790565b9150615210826151cf565b602082019050919050565b60006020820190508181036000830152615234816151f8565b9050919050565b7f4e487b7100000000000000000000000000000000000000000000000000000000600052601160045260246000fd5b60006152758261426e565b91506152808361426e565b92508282039050818111156152985761529761523b565b5b92915050565b60006152a98261426e565b91506152b48361426e565b92508282019050808211156152cc576152cb61523b565b5b92915050565b7f4e487b7100000000000000000000000000000000000000000000000000000000600052603260045260246000fd5b600061530c8261426e565b91507fffffffffffffffffffffffffffffffffffffffffffffffffffffffffffffffff820361533e5761533d61523b565b5b600182019050919050565b7f43616e206f6e6c792063726561746520616e206163636f756e74206f6e636500600082015250565b600061537f601f83614790565b915061538a82615349565b602082019050919050565b600060208201905081810360008301526153ae81615372565b9050919050565b7f4d7573742068617665206174206c6561737420302e3030312041766178000000600082015250565b60006153eb601d83614790565b91506153f6826153b5565b602082019050919050565b6000602082019050818103600083015261541a816153de565b9050919050565b7f4e487b7100000000000000000000000000000000000000000000000000000000600052602260045260246000fd5b6000600282049050600182168061546857607f821691505b60208210810361547b5761547a615421565b5b50919050565b60008190508160005260206000209050919050565b60006020601f8301049050919050565b600082821b905092915050565b6000600883026154e37fffffffffffffffffffffffffffffffffffffffffffffffffffffffffffffffff826154a6565b6154ed86836154a6565b95508019841693508086168417925050509392505050565b6000819050919050565b600061552a6155256155208461426e565b615505565b61426e565b9050919050565b6000819050919050565b6155448361550f565b61555861555082615531565b8484546154b3565b825550505050565b600090565b61556d615560565b61557881848461553b565b505050565b5b8181101561559c57615591600082615565565b60018101905061557e565b5050565b601f8211156155e1576155b281615481565b6155bb84615496565b810160208510156155ca578190505b6155de6155d685615496565b83018261557d565b50505b505050565b600082821c905092915050565b6000615604600019846008026155e6565b1980831691505092915050565b600061561d83836155f3565b9150826002028217905092915050565b61563682614785565b67ffffffffffffffff81111561564f5761564e61439e565b5b6156598254615450565b6156648282856155a0565b600060209050601f8311600181146156975760008415615685578287015190505b61568f8582615611565b8655506156f7565b601f1984166156a586615481565b60005b828110156156cd578489015182556001820191506020850194506020810190506156a8565b868310156156ea57848901516156e6601f8916826155f3565b8355505b6001600288020188555050505b505050505050565b7f4e6f20616374697669747920666f756e642e0000000000000000000000000000600082015250565b6000615735601283614790565b9150615740826156ff565b602082019050919050565b6000602082019050818103600083015261576481615728565b9050919050565b600060a082019050818103600083015261578581886147a1565b9050818103602083015261579981876147a1565b90506157a86040830186614278565b6157b56060830185614278565b6157c26080830184614278565b9695505050505050565b7f476f616c2068617320737461727465642e000000000000000000000000000000600082015250565b6000615802601183614790565b915061580d826157cc565b602082019050919050565b60006020820190508181036000830152615831816157f5565b9050919050565b7f476f616c2068617320657870697265642e000000000000000000000000000000600082015250565b600061586e601183614790565b915061587982615838565b602082019050919050565b6000602082019050818103600083015261589d81615861565b9050919050565b7f4d757374207374616b6520746f206a6f696e20676f616c2e0000000000000000600082015250565b60006158da601883614790565b91506158e5826158a4565b602082019050919050565b60006020820190508181036000830152615909816158cd565b9050919050565b7f416c72656164792070617274696369706174656420696e20676f616c2e000000600082015250565b6000615946601d83614790565b915061595182615910565b602082019050919050565b6000602082019050818103600083015261597581615939565b9050919050565b7f476f616c206d7573742065786973740000000000000000000000000000000000600082015250565b60006159b2600f83614790565b91506159bd8261597c565b602082019050919050565b600060208201905081810360008301526159e1816159a5565b9050919050565b60008190508160005260206000209050919050565b601f821115615a3e57615a0f816159e8565b615a1884615496565b81016020851015615a27578190505b615a3b615a3385615496565b83018261557d565b50505b505050565b615a4c826145b9565b67ffffffffffffffff811115615a6557615a6461439e565b5b615a6f8254615450565b615a7a8282856159fd565b600060209050601f831160018114615aad5760008415615a9b578287015190505b615aa58582615611565b865550615b0d565b601f198416615abb866159e8565b60005b82811015615ae357848901518255600182019150602085019450602081019050615abe565b86831015615b005784890151615afc601f8916826155f3565b8355505b6001600288020188555050505b505050505050565b6000615b208261426e565b915060008203615b3357615b3261523b565b5b600182039050919050565b6000615b498261426e565b9150615b548361426e565b9250828202615b628161426e565b91508282048414831517615b7957615b7861523b565b5b5092915050565b7f4e487b7100000000000000000000000000000000000000000000000000000000600052601260045260246000fd5b6000615bba8261426e565b9150615bc58361426e565b925082615bd557615bd4615b80565b5b828204905092915050565b7f52657175657374206e6f7420666f756e64000000000000000000000000000000600082015250565b6000615c16601183614790565b9150615c2182615be0565b602082019050919050565b60006020820190508181036000830152615c4581615c09565b9050919050565b60006060820190508181036000830152615c6681866147a1565b90508181036020830152615c7a81856145ff565b90508181036040830152615c8e81846145ff565b9050949350505050565b600061ffff82169050919050565b615caf81615c98565b82525050565b600063ffffffff82169050919050565b615cce81615cb5565b82525050565b600060a082019050615ce96000830188614323565b8181036020830152615cfb81876145ff565b9050615d0a6040830186615ca6565b615d176060830185615cc5565b615d246080830184614909565b9695505050505050565b600081519050615d3d81614357565b92915050565b600060208284031215615d5957615d586142ac565b5b6000615d6784828501615d2e565b91505092915050565b6000615d7b8261426e565b9150615d868361426e565b925082615d9657615d95615b80565b5b828206905092915050565b60008160011c9050919050565b6000808291508390505b6001851115615df857808604811115615dd457615dd361523b565b5b6001851615615de35780820291505b8081029050615df185615da1565b9450615db8565b94509492505050565b600082615e115760019050615ecd565b81615e1f5760009050615ecd565b8160018114615e355760028114615e3f57615e6e565b6001915050615ecd565b60ff841115615e5157615e5061523b565b5b8360020a915084821115615e6857615e6761523b565b5b50615ecd565b5060208310610133831016604e8410600b8410161715615ea35782820a905083811115615e9e57615e9d61523b565b5b615ecd565b615eb08484846001615dae565b92509050818404811115615ec757615ec661523b565b5b81810290505b9392505050565b6000615edf8261426e565b9150615eea8361426e565b9250615f177fffffffffffffffffffffffffffffffffffffffffffffffffffffffffffffffff8484615e01565b90509291505056fea2646970667358221220aebfbdc39e267285fa5250e6192e3233aee244640dd8be20a71e81ba08d419de64736f6c63430008140033",
  "linkReferences": {},
  "deployedLinkReferences": {}
}