{
    "_format": "hh-sol-artifact-1",
    "contractName": "Goalfi",
    "sourceName": "contracts/Goalfi.sol",
    "abi": [
        {
            "inputs": [
                {
                    "internalType": "uint64",
                    "name": "functionsSubscriptionId",
                    "type": "uint64"
                },
                {
                    "internalType": "string",
                    "name": "_source",
                    "type": "string"
                }
            ],
            "stateMutability": "nonpayable",
            "type": "constructor"
        },
        {
            "inputs": [],
            "name": "EmptyArgs",
            "type": "error"
        },
        {
            "inputs": [],
            "name": "EmptySource",
            "type": "error"
        },
        {
            "inputs": [],
            "name": "NoInlineSecrets",
            "type": "error"
        },
        {
            "inputs": [],
            "name": "OnlyRouterCanFulfill",
            "type": "error"
        },
        {
            "inputs": [
                {
                    "internalType": "address",
                    "name": "owner",
                    "type": "address"
                }
            ],
            "name": "OwnableInvalidOwner",
            "type": "error"
        },
        {
            "inputs": [
                {
                    "internalType": "address",
                    "name": "account",
                    "type": "address"
                }
            ],
            "name": "OwnableUnauthorizedAccount",
            "type": "error"
        },
        {
            "anonymous": false,
            "inputs": [
                {
                    "indexed": true,
                    "internalType": "bytes32",
                    "name": "requestId",
                    "type": "bytes32"
                },
                {
                    "indexed": false,
                    "internalType": "string",
                    "name": "activityType",
                    "type": "string"
                }
            ],
            "name": "APIRequestSent",
            "type": "event"
        },
        {
            "anonymous": false,
            "inputs": [
                {
                    "indexed": true,
                    "internalType": "uint256",
                    "name": "goalId",
                    "type": "uint256"
                },
                {
                    "indexed": false,
                    "internalType": "string",
                    "name": "activity",
                    "type": "string"
                },
                {
                    "indexed": false,
                    "internalType": "string",
                    "name": "description",
                    "type": "string"
                },
                {
                    "indexed": false,
                    "internalType": "uint256",
                    "name": "distance",
                    "type": "uint256"
                },
                {
                    "indexed": false,
                    "internalType": "uint256",
                    "name": "startTimestamp",
                    "type": "uint256"
                },
                {
                    "indexed": false,
                    "internalType": "uint256",
                    "name": "expiryTimestamp",
                    "type": "uint256"
                }
            ],
            "name": "GoalCreated",
            "type": "event"
        },
        {
            "anonymous": false,
            "inputs": [
                {
                    "indexed": true,
                    "internalType": "uint256",
                    "name": "goalId",
                    "type": "uint256"
                }
            ],
            "name": "GoalEvaluated",
            "type": "event"
        },
        {
            "anonymous": false,
            "inputs": [
                {
                    "indexed": true,
                    "internalType": "address",
                    "name": "previousOwner",
                    "type": "address"
                },
                {
                    "indexed": true,
                    "internalType": "address",
                    "name": "newOwner",
                    "type": "address"
                }
            ],
            "name": "OwnershipTransferred",
            "type": "event"
        },
        {
            "anonymous": false,
            "inputs": [
                {
                    "indexed": true,
                    "internalType": "bytes32",
                    "name": "id",
                    "type": "bytes32"
                }
            ],
            "name": "RequestFulfilled",
            "type": "event"
        },
        {
            "anonymous": false,
            "inputs": [
                {
                    "indexed": true,
                    "internalType": "bytes32",
                    "name": "id",
                    "type": "bytes32"
                }
            ],
            "name": "RequestSent",
            "type": "event"
        },
        {
            "anonymous": false,
            "inputs": [
                {
                    "indexed": true,
                    "internalType": "bytes32",
                    "name": "requestId",
                    "type": "bytes32"
                },
                {
                    "indexed": false,
                    "internalType": "string",
                    "name": "activityData",
                    "type": "string"
                },
                {
                    "indexed": false,
                    "internalType": "bytes",
                    "name": "response",
                    "type": "bytes"
                },
                {
                    "indexed": false,
                    "internalType": "bytes",
                    "name": "err",
                    "type": "bytes"
                }
            ],
            "name": "Response",
            "type": "event"
        },
        {
            "anonymous": false,
            "inputs": [
                {
                    "indexed": true,
                    "internalType": "address",
                    "name": "walletAddress",
                    "type": "address"
                },
                {
                    "indexed": true,
                    "internalType": "uint256",
                    "name": "goalId",
                    "type": "uint256"
                }
            ],
            "name": "RewardsClaimed",
            "type": "event"
        },
        {
            "anonymous": false,
            "inputs": [
                {
                    "indexed": true,
                    "internalType": "address",
                    "name": "walletAddress",
                    "type": "address"
                }
            ],
            "name": "UserCreated",
            "type": "event"
        },
        {
            "anonymous": false,
            "inputs": [
                {
                    "indexed": true,
                    "internalType": "address",
                    "name": "walletAddress",
                    "type": "address"
                },
                {
                    "indexed": true,
                    "internalType": "uint256",
                    "name": "goalId",
                    "type": "uint256"
                },
                {
                    "indexed": false,
                    "internalType": "uint256",
                    "name": "stake",
                    "type": "uint256"
                }
            ],
            "name": "UserJoinedGoal",
            "type": "event"
        },
        {
            "anonymous": false,
            "inputs": [
                {
                    "indexed": true,
                    "internalType": "address",
                    "name": "walletAddress",
                    "type": "address"
                },
                {
                    "indexed": true,
                    "internalType": "uint256",
                    "name": "goalId",
                    "type": "uint256"
                },
                {
                    "indexed": false,
                    "internalType": "enum Goalfi.UserProgress",
                    "name": "newStatus",
                    "type": "uint8"
                }
            ],
            "name": "UserProgressUpdated",
            "type": "event"
        },
        {
            "inputs": [],
            "name": "FEE_PERCENTAGE",
            "outputs": [
                {
                    "internalType": "uint256",
                    "name": "",
                    "type": "uint256"
                }
            ],
            "stateMutability": "view",
            "type": "function"
        },
        {
            "inputs": [],
            "name": "activeGoalCount",
            "outputs": [
                {
                    "internalType": "uint256",
                    "name": "",
                    "type": "uint256"
                }
            ],
            "stateMutability": "view",
            "type": "function"
        },
        {
            "inputs": [
                {
                    "internalType": "bytes32",
                    "name": "",
                    "type": "bytes32"
                }
            ],
            "name": "activities",
            "outputs": [
                {
                    "internalType": "uint256",
                    "name": "goalId",
                    "type": "uint256"
                },
                {
                    "internalType": "string",
                    "name": "activityType",
                    "type": "string"
                },
                {
                    "internalType": "string",
                    "name": "activityData",
                    "type": "string"
                }
            ],
            "stateMutability": "view",
            "type": "function"
        },
        {
            "inputs": [
                {
                    "internalType": "uint256[]",
                    "name": "_data",
                    "type": "uint256[]"
                },
                {
                    "internalType": "uint256",
                    "name": "_goalId",
                    "type": "uint256"
                }
            ],
            "name": "assignDistance",
            "outputs": [],
            "stateMutability": "nonpayable",
            "type": "function"
        },
        {
            "inputs": [
                {
                    "internalType": "uint256",
                    "name": "_goalId",
                    "type": "uint256"
                }
            ],
            "name": "claimRewards",
            "outputs": [],
            "stateMutability": "payable",
            "type": "function"
        },
        {
            "inputs": [
                {
                    "internalType": "uint256",
                    "name": "_goalId",
                    "type": "uint256"
                }
            ],
            "name": "closeGoal",
            "outputs": [],
            "stateMutability": "nonpayable",
            "type": "function"
        },
        {
            "inputs": [
                {
                    "internalType": "uint256",
                    "name": "_goalId",
                    "type": "uint256"
                },
                {
                    "internalType": "enum Goalfi.UserProgress",
                    "name": "progress",
                    "type": "uint8"
                }
            ],
            "name": "countGoalParticipantsAtProgress",
            "outputs": [
                {
                    "internalType": "uint256",
                    "name": "",
                    "type": "uint256"
                }
            ],
            "stateMutability": "view",
            "type": "function"
        },
        {
            "inputs": [
                {
                    "internalType": "string",
                    "name": "_activity",
                    "type": "string"
                },
                {
                    "internalType": "string",
                    "name": "_description",
                    "type": "string"
                },
                {
                    "internalType": "uint256",
                    "name": "_distance",
                    "type": "uint256"
                },
                {
                    "internalType": "uint256",
                    "name": "_startTimestamp",
                    "type": "uint256"
                },
                {
                    "internalType": "uint256",
                    "name": "_expiryTimestamp",
                    "type": "uint256"
                }
            ],
            "name": "createGoal",
            "outputs": [],
            "stateMutability": "nonpayable",
            "type": "function"
        },
        {
            "inputs": [],
            "name": "createUser",
            "outputs": [],
            "stateMutability": "nonpayable",
            "type": "function"
        },
        {
            "inputs": [
                {
                    "internalType": "string",
                    "name": "accessTokens",
                    "type": "string"
                },
                {
                    "internalType": "string",
                    "name": "activityType",
                    "type": "string"
                },
                {
                    "internalType": "uint256",
                    "name": "goalId",
                    "type": "uint256"
                },
                {
                    "internalType": "string",
                    "name": "startTimestamp",
                    "type": "string"
                },
                {
                    "internalType": "string",
                    "name": "expiryTimestamp",
                    "type": "string"
                }
            ],
            "name": "executeRequest",
            "outputs": [
                {
                    "internalType": "bytes32",
                    "name": "requestId",
                    "type": "bytes32"
                }
            ],
            "stateMutability": "nonpayable",
            "type": "function"
        },
        {
            "inputs": [
                {
                    "internalType": "uint256",
                    "name": "goalId",
                    "type": "uint256"
                }
            ],
            "name": "getActivityWithGoalId",
            "outputs": [
                {
                    "components": [
                        {
                            "internalType": "uint256",
                            "name": "goalId",
                            "type": "uint256"
                        },
                        {
                            "internalType": "string",
                            "name": "activityType",
                            "type": "string"
                        },
                        {
                            "internalType": "string",
                            "name": "activityData",
                            "type": "string"
                        }
                    ],
                    "internalType": "struct Goalfi.ActivityStruct",
                    "name": "",
                    "type": "tuple"
                }
            ],
            "stateMutability": "view",
            "type": "function"
        },
        {
            "inputs": [
                {
                    "internalType": "bytes32",
                    "name": "requestId",
                    "type": "bytes32"
                }
            ],
            "name": "getActivityWithRequestId",
            "outputs": [
                {
                    "components": [
                        {
                            "internalType": "uint256",
                            "name": "goalId",
                            "type": "uint256"
                        },
                        {
                            "internalType": "string",
                            "name": "activityType",
                            "type": "string"
                        },
                        {
                            "internalType": "string",
                            "name": "activityData",
                            "type": "string"
                        }
                    ],
                    "internalType": "struct Goalfi.ActivityStruct",
                    "name": "",
                    "type": "tuple"
                }
            ],
            "stateMutability": "view",
            "type": "function"
        },
        {
            "inputs": [
                {
                    "internalType": "uint256",
                    "name": "_goalId",
                    "type": "uint256"
                }
            ],
            "name": "getParticipantAddresses",
            "outputs": [
                {
                    "internalType": "address[]",
                    "name": "",
                    "type": "address[]"
                }
            ],
            "stateMutability": "view",
            "type": "function"
        },
        {
            "inputs": [
                {
                    "internalType": "uint256",
                    "name": "_goalId",
                    "type": "uint256"
                },
                {
                    "internalType": "address",
                    "name": "_userAddress",
                    "type": "address"
                }
            ],
            "name": "getParticipantProgress",
            "outputs": [
                {
                    "internalType": "enum Goalfi.UserProgress",
                    "name": "",
                    "type": "uint8"
                }
            ],
            "stateMutability": "view",
            "type": "function"
        },
        {
            "inputs": [
                {
                    "internalType": "uint256",
                    "name": "_id",
                    "type": "uint256"
                }
            ],
            "name": "getUserAddress",
            "outputs": [
                {
                    "internalType": "address",
                    "name": "",
                    "type": "address"
                }
            ],
            "stateMutability": "view",
            "type": "function"
        },
        {
            "inputs": [
                {
                    "internalType": "address",
                    "name": "walletAddress",
                    "type": "address"
                },
                {
                    "internalType": "uint256",
                    "name": "goalId",
                    "type": "uint256"
                }
            ],
            "name": "getUserDistance",
            "outputs": [
                {
                    "internalType": "uint256",
                    "name": "",
                    "type": "uint256"
                }
            ],
            "stateMutability": "view",
            "type": "function"
        },
        {
            "inputs": [
                {
                    "internalType": "address",
                    "name": "walletAddress",
                    "type": "address"
                }
            ],
            "name": "getUserId",
            "outputs": [
                {
                    "internalType": "uint256",
                    "name": "",
                    "type": "uint256"
                }
            ],
            "stateMutability": "view",
            "type": "function"
        },
        {
            "inputs": [
                {
                    "internalType": "address",
                    "name": "walletAddress",
                    "type": "address"
                }
            ],
            "name": "getUserTotalRewards",
            "outputs": [
                {
                    "internalType": "uint256",
                    "name": "",
                    "type": "uint256"
                }
            ],
            "stateMutability": "view",
            "type": "function"
        },
        {
            "inputs": [],
            "name": "goalCount",
            "outputs": [
                {
                    "internalType": "uint256",
                    "name": "",
                    "type": "uint256"
                }
            ],
            "stateMutability": "view",
            "type": "function"
        },
        {
            "inputs": [
                {
                    "internalType": "uint256",
                    "name": "",
                    "type": "uint256"
                }
            ],
            "name": "goalToRequestId",
            "outputs": [
                {
                    "internalType": "bytes32",
                    "name": "",
                    "type": "bytes32"
                }
            ],
            "stateMutability": "view",
            "type": "function"
        },
        {
            "inputs": [
                {
                    "internalType": "uint256",
                    "name": "",
                    "type": "uint256"
                }
            ],
            "name": "goals",
            "outputs": [
                {
                    "internalType": "uint256",
                    "name": "goalId",
                    "type": "uint256"
                },
                {
                    "internalType": "string",
                    "name": "activity",
                    "type": "string"
                },
                {
                    "internalType": "string",
                    "name": "description",
                    "type": "string"
                },
                {
                    "internalType": "uint256",
                    "name": "distance",
                    "type": "uint256"
                },
                {
                    "internalType": "uint256",
                    "name": "stake",
                    "type": "uint256"
                },
                {
                    "internalType": "uint256",
                    "name": "failedStake",
                    "type": "uint256"
                },
                {
                    "internalType": "uint256",
                    "name": "startTimestamp",
                    "type": "uint256"
                },
                {
                    "internalType": "uint256",
                    "name": "expiryTimestamp",
                    "type": "uint256"
                },
                {
                    "internalType": "bool",
                    "name": "set",
                    "type": "bool"
                }
            ],
            "stateMutability": "view",
            "type": "function"
        },
        {
            "inputs": [
                {
                    "internalType": "bytes32",
                    "name": "requestId",
                    "type": "bytes32"
                },
                {
                    "internalType": "bytes",
                    "name": "response",
                    "type": "bytes"
                },
                {
                    "internalType": "bytes",
                    "name": "err",
                    "type": "bytes"
                }
            ],
            "name": "handleOracleFulfillment",
            "outputs": [],
            "stateMutability": "nonpayable",
            "type": "function"
        },
        {
            "inputs": [
                {
                    "internalType": "uint256",
                    "name": "_goalId",
                    "type": "uint256"
                }
            ],
            "name": "joinGoal",
            "outputs": [],
            "stateMutability": "payable",
            "type": "function"
        },
        {
            "inputs": [],
            "name": "lastError",
            "outputs": [
                {
                    "internalType": "bytes",
                    "name": "",
                    "type": "bytes"
                }
            ],
            "stateMutability": "view",
            "type": "function"
        },
        {
            "inputs": [],
            "name": "lastRequestId",
            "outputs": [
                {
                    "internalType": "bytes32",
                    "name": "",
                    "type": "bytes32"
                }
            ],
            "stateMutability": "view",
            "type": "function"
        },
        {
            "inputs": [],
            "name": "lastResponse",
            "outputs": [
                {
                    "internalType": "bytes",
                    "name": "",
                    "type": "bytes"
                }
            ],
            "stateMutability": "view",
            "type": "function"
        },
        {
            "inputs": [],
            "name": "owner",
            "outputs": [
                {
                    "internalType": "address",
                    "name": "",
                    "type": "address"
                }
            ],
            "stateMutability": "view",
            "type": "function"
        },
        {
            "inputs": [],
            "name": "renounceOwnership",
            "outputs": [],
            "stateMutability": "nonpayable",
            "type": "function"
        },
        {
            "inputs": [
                {
                    "internalType": "uint256",
                    "name": "",
                    "type": "uint256"
                }
            ],
            "name": "requestIds",
            "outputs": [
                {
                    "internalType": "bytes32",
                    "name": "",
                    "type": "bytes32"
                }
            ],
            "stateMutability": "view",
            "type": "function"
        },
        {
            "inputs": [
                {
                    "internalType": "bytes32",
                    "name": "",
                    "type": "bytes32"
                }
            ],
            "name": "requests",
            "outputs": [
                {
                    "internalType": "bool",
                    "name": "fulfilled",
                    "type": "bool"
                },
                {
                    "internalType": "bool",
                    "name": "exists",
                    "type": "bool"
                },
                {
                    "internalType": "bytes",
                    "name": "response",
                    "type": "bytes"
                },
                {
                    "internalType": "bytes",
                    "name": "err",
                    "type": "bytes"
                }
            ],
            "stateMutability": "view",
            "type": "function"
        },
        {
            "inputs": [
                {
                    "internalType": "string",
                    "name": "_source",
                    "type": "string"
                }
            ],
            "name": "setSource",
            "outputs": [],
            "stateMutability": "nonpayable",
            "type": "function"
        },
        {
            "inputs": [],
            "name": "source",
            "outputs": [
                {
                    "internalType": "string",
                    "name": "",
                    "type": "string"
                }
            ],
            "stateMutability": "view",
            "type": "function"
        },
        {
            "inputs": [],
            "name": "subscriptionId",
            "outputs": [
                {
                    "internalType": "uint64",
                    "name": "",
                    "type": "uint64"
                }
            ],
            "stateMutability": "view",
            "type": "function"
        },
        {
            "inputs": [
                {
                    "internalType": "address",
                    "name": "newOwner",
                    "type": "address"
                }
            ],
            "name": "transferOwnership",
            "outputs": [],
            "stateMutability": "nonpayable",
            "type": "function"
        },
        {
            "inputs": [
                {
                    "internalType": "address",
                    "name": "",
                    "type": "address"
                }
            ],
            "name": "userAddressUsed",
            "outputs": [
                {
                    "internalType": "bool",
                    "name": "",
                    "type": "bool"
                }
            ],
            "stateMutability": "view",
            "type": "function"
        },
        {
            "inputs": [],
            "name": "userCount",
            "outputs": [
                {
                    "internalType": "uint256",
                    "name": "",
                    "type": "uint256"
                }
            ],
            "stateMutability": "view",
            "type": "function"
        },
        {
            "inputs": [
                {
                    "internalType": "uint256",
                    "name": "",
                    "type": "uint256"
                }
            ],
            "name": "userIds",
            "outputs": [
                {
                    "internalType": "address",
                    "name": "",
                    "type": "address"
                }
            ],
            "stateMutability": "view",
            "type": "function"
        },
        {
            "inputs": [
                {
                    "internalType": "address",
                    "name": "",
                    "type": "address"
                }
            ],
            "name": "users",
            "outputs": [
                {
                    "internalType": "address",
                    "name": "walletAddress",
                    "type": "address"
                },
                {
                    "internalType": "uint256",
                    "name": "id",
                    "type": "uint256"
                },
                {
                    "internalType": "uint256",
                    "name": "totalRewards",
                    "type": "uint256"
                }
            ],
            "stateMutability": "view",
            "type": "function"
        }
    ],
    "bytecode": "0x60a060405273a9d587a00a31a52ed70d6026794a8fc5e2f5dcb0600160006101000a81548173ffffffffffffffffffffffffffffffffffffffff021916908373ffffffffffffffffffffffffffffffffffffffff1602179055507f66756e2d6176616c616e6368652d66756a692d3100000000000000000000000060001b600255620493e0600360006101000a81548163ffffffff021916908363ffffffff160217905550348015620000b157600080fd5b50604051620068aa380380620068aa8339818101604052810190620000d7919062000496565b600160009054906101000a900473ffffffffffffffffffffffffffffffffffffffff1633600073ffffffffffffffffffffffffffffffffffffffff168173ffffffffffffffffffffffffffffffffffffffff1603620001705760006040517f1e4fbdf700000000000000000000000000000000000000000000000000000000815260040162000167919062000541565b60405180910390fd5b6200018181620001fa60201b60201c565b508073ffffffffffffffffffffffffffffffffffffffff1660808173ffffffffffffffffffffffffffffffffffffffff16815250505081600560006101000a81548167ffffffffffffffff021916908367ffffffffffffffff1602179055508060069081620001f19190620007a9565b50505062000890565b60008060009054906101000a900473ffffffffffffffffffffffffffffffffffffffff169050816000806101000a81548173ffffffffffffffffffffffffffffffffffffffff021916908373ffffffffffffffffffffffffffffffffffffffff1602179055508173ffffffffffffffffffffffffffffffffffffffff168173ffffffffffffffffffffffffffffffffffffffff167f8be0079c531659141344cd1fd0a4f28419497f9722a3daafe3b4186f6b6457e060405160405180910390a35050565b6000604051905090565b600080fd5b600080fd5b600067ffffffffffffffff82169050919050565b620002f181620002d2565b8114620002fd57600080fd5b50565b6000815190506200031181620002e6565b92915050565b600080fd5b600080fd5b6000601f19601f8301169050919050565b7f4e487b7100000000000000000000000000000000000000000000000000000000600052604160045260246000fd5b6200036c8262000321565b810181811067ffffffffffffffff821117156200038e576200038d62000332565b5b80604052505050565b6000620003a3620002be565b9050620003b1828262000361565b919050565b600067ffffffffffffffff821115620003d457620003d362000332565b5b620003df8262000321565b9050602081019050919050565b60005b838110156200040c578082015181840152602081019050620003ef565b60008484015250505050565b60006200042f6200042984620003b6565b62000397565b9050828152602081018484840111156200044e576200044d6200031c565b5b6200045b848285620003ec565b509392505050565b600082601f8301126200047b576200047a62000317565b5b81516200048d84826020860162000418565b91505092915050565b60008060408385031215620004b057620004af620002c8565b5b6000620004c08582860162000300565b925050602083015167ffffffffffffffff811115620004e457620004e3620002cd565b5b620004f28582860162000463565b9150509250929050565b600073ffffffffffffffffffffffffffffffffffffffff82169050919050565b60006200052982620004fc565b9050919050565b6200053b816200051c565b82525050565b600060208201905062000558600083018462000530565b92915050565b600081519050919050565b7f4e487b7100000000000000000000000000000000000000000000000000000000600052602260045260246000fd5b60006002820490506001821680620005b157607f821691505b602082108103620005c757620005c662000569565b5b50919050565b60008190508160005260206000209050919050565b60006020601f8301049050919050565b600082821b905092915050565b600060088302620006317fffffffffffffffffffffffffffffffffffffffffffffffffffffffffffffffff82620005f2565b6200063d8683620005f2565b95508019841693508086168417925050509392505050565b6000819050919050565b6000819050919050565b60006200068a620006846200067e8462000655565b6200065f565b62000655565b9050919050565b6000819050919050565b620006a68362000669565b620006be620006b58262000691565b848454620005ff565b825550505050565b600090565b620006d5620006c6565b620006e28184846200069b565b505050565b5b818110156200070a57620006fe600082620006cb565b600181019050620006e8565b5050565b601f82111562000759576200072381620005cd565b6200072e84620005e2565b810160208510156200073e578190505b620007566200074d85620005e2565b830182620006e7565b50505b505050565b600082821c905092915050565b60006200077e600019846008026200075e565b1980831691505092915050565b60006200079983836200076b565b9150826002028217905092915050565b620007b4826200055e565b67ffffffffffffffff811115620007d057620007cf62000332565b5b620007dc825462000598565b620007e98282856200070e565b600060209050601f8311600181146200082157600084156200080c578287015190505b6200081885826200078b565b86555062000888565b601f1984166200083186620005cd565b60005b828110156200085b5784890151825560018201915060208501945060208101905062000834565b868310156200087b578489015162000877601f8916826200076b565b8355505b6001600288020188555050505b505050505050565b608051615ff7620008b360003960008181610ed601526137f50152615ff76000f3fe6080604052600436106102245760003560e01c80638796ba8c11610123578063bba76607116100ab578063e75f6ca71161006f578063e75f6ca7146108b9578063f2fde38b146108e4578063f51b71561461090d578063f9e0913f14610936578063fc2a88c31461096157610224565b8063bba76607146107bd578063bce8ed4d146107fa578063c158b90c14610823578063d6901c981461083f578063e44ccec41461087c57610224565b806399d25455116100f257806399d254551461069b5780639cc0dd48146106c45780639d86698514610701578063a87430ba14610741578063afda2f801461078057610224565b80638796ba8c146105cd5780638995c70f1461060a5780638da5cb5b1461063357806390d976e21461065e57610224565b80632b956ff7116101b157806362747e421161017557806362747e42146104e4578063666c4b5c1461050f57806367e828bf1461054c578063715018a6146105775780637922f4261461058e57610224565b80632b956ff7146103ab57806330d167ae146103e85780633895d747146104255780634635fd681461046257806361449ca21461049f57610224565b80630ca76175116101f85780630ca76175146102c65780630da8c007146102ef57806325ad91ce1461032c57806329f0de3f146103435780632b8c9c6e1461036e57610224565b80620b46f81461022957806307973ccf146102545780630962ef791461027f57806309c1ba2e1461029b575b600080fd5b34801561023557600080fd5b5061023e61098c565b60405161024b91906142c9565b60405180910390f35b34801561026057600080fd5b50610269610991565b60405161027691906142c9565b60405180910390f35b61029960048036038101906102949190614324565b610997565b005b3480156102a757600080fd5b506102b0610eba565b6040516102bd9190614374565b60405180910390f35b3480156102d257600080fd5b506102ed60048036038101906102e8919061450b565b610ed4565b005b3480156102fb57600080fd5b50610316600480360381019061031191906145bb565b610f96565b60405161032391906142c9565b60405180910390f35b34801561033857600080fd5b50610341611147565b005b34801561034f57600080fd5b5061035861140a565b604051610365919061467a565b60405180910390f35b34801561037a57600080fd5b50610395600480360381019061039091906146fa565b611498565b6040516103a29190614742565b60405180910390f35b3480156103b757600080fd5b506103d260048036038101906103cd91906146fa565b6114b8565b6040516103df91906142c9565b60405180910390f35b3480156103f457600080fd5b5061040f600480360381019061040a919061475d565b6115d7565b60405161041c91906142c9565b60405180910390f35b34801561043157600080fd5b5061044c6004803603810190610447919061483e565b611770565b6040516104599190614938565b60405180910390f35b34801561046e57600080fd5b5061048960048036038101906104849190614324565b611b7f565b6040516104969190614962565b60405180910390f35b3480156104ab57600080fd5b506104c660048036038101906104c19190614324565b611bb2565b6040516104db999897969594939291906149d2565b60405180910390f35b3480156104f057600080fd5b506104f9611d1d565b604051610506919061467a565b60405180910390f35b34801561051b57600080fd5b50610536600480360381019061053191906146fa565b611dab565b60405161054391906142c9565b60405180910390f35b34801561055857600080fd5b50610561611eca565b60405161056e9190614a6d565b60405180910390f35b34801561058357600080fd5b5061058c611f58565b005b34801561059a57600080fd5b506105b560048036038101906105b09190614a8f565b611f6c565b6040516105c493929190614abc565b60405180910390f35b3480156105d957600080fd5b506105f460048036038101906105ef9190614324565b6120a6565b6040516106019190614938565b60405180910390f35b34801561061657600080fd5b50610631600480360381019061062c9190614bc9565b6120ca565b005b34801561063f57600080fd5b50610648612205565b6040516106559190614962565b60405180910390f35b34801561066a57600080fd5b5061068560048036038101906106809190614324565b61222e565b6040516106929190614962565b60405180910390f35b3480156106a757600080fd5b506106c260048036038101906106bd9190614c25565b61226b565b005b3480156106d057600080fd5b506106eb60048036038101906106e69190614c6e565b612286565b6040516106f89190614d25565b60405180910390f35b34801561070d57600080fd5b5061072860048036038101906107239190614a8f565b612359565b6040516107389493929190614d40565b60405180910390f35b34801561074d57600080fd5b50610768600480360381019061076391906146fa565b6124b3565b60405161077793929190614d93565b60405180910390f35b34801561078c57600080fd5b506107a760048036038101906107a29190614324565b6124fd565b6040516107b49190614938565b60405180910390f35b3480156107c957600080fd5b506107e460048036038101906107df9190614324565b612515565b6040516107f19190614e7a565b60405180910390f35b34801561080657600080fd5b50610821600480360381019061081c9190614e9c565b6126ec565b005b61083d60048036038101906108389190614324565b6127ee565b005b34801561084b57600080fd5b5061086660048036038101906108619190614324565b612ca2565b604051610873919061500d565b60405180910390f35b34801561088857600080fd5b506108a3600480360381019061089e9190614a8f565b612dab565b6040516108b09190614e7a565b60405180910390f35b3480156108c557600080fd5b506108ce612f06565b6040516108db91906142c9565b60405180910390f35b3480156108f057600080fd5b5061090b600480360381019061090691906146fa565b612f0c565b005b34801561091957600080fd5b50610934600480360381019061092f9190614324565b612f92565b005b34801561094257600080fd5b5061094b61312e565b60405161095891906142c9565b60405180910390f35b34801561096d57600080fd5b50610976613134565b6040516109839190614938565b60405180910390f35b600281565b600a5481565b33600073ffffffffffffffffffffffffffffffffffffffff16600e60008373ffffffffffffffffffffffffffffffffffffffff1673ffffffffffffffffffffffffffffffffffffffff16815260200190815260200160002060000160009054906101000a900473ffffffffffffffffffffffffffffffffffffffff1673ffffffffffffffffffffffffffffffffffffffff1603610a69576040517f08c379a0000000000000000000000000000000000000000000000000000000008152600401610a609061507b565b60405180910390fd5b81600d6000828152602001908152602001600020600a0160009054906101000a900460ff16610acd576040517f08c379a0000000000000000000000000000000000000000000000000000000008152600401610ac49061510d565b60405180910390fd5b600d600084815260200190815260200160002060090154421015610b26576040517f08c379a0000000000000000000000000000000000000000000000000000000008152600401610b1d90615179565b60405180910390fd5b6000600d60008581526020019081526020016000209050600480811115610b5057610b4f614cae565b5b8160060160003373ffffffffffffffffffffffffffffffffffffffff1673ffffffffffffffffffffffffffffffffffffffff16815260200190815260200160002060020160009054906101000a900460ff166004811115610bb457610bb3614cae565b5b03610bf4576040517f08c379a0000000000000000000000000000000000000000000000000000000008152600401610beb906151e5565b60405180910390fd5b60036004811115610c0857610c07614cae565b5b8160060160003373ffffffffffffffffffffffffffffffffffffffff1673ffffffffffffffffffffffffffffffffffffffff16815260200190815260200160002060020160009054906101000a900460ff166004811115610c6c57610c6b614cae565b5b14610cac576040517f08c379a0000000000000000000000000000000000000000000000000000000008152600401610ca390615251565b60405180910390fd5b60008160060160003373ffffffffffffffffffffffffffffffffffffffff1673ffffffffffffffffffffffffffffffffffffffff16815260200190815260200160002060000154905060008111610d38576040517f08c379a0000000000000000000000000000000000000000000000000000000008152600401610d2f906152bd565b60405180910390fd5b6000610d44338761313a565b90503373ffffffffffffffffffffffffffffffffffffffff166108fc829081150290604051600060405180830381858888f19350505050158015610d8c573d6000803e3d6000fd5b5080836004016000828254610da1919061530c565b9250508190555060048360060160003373ffffffffffffffffffffffffffffffffffffffff1673ffffffffffffffffffffffffffffffffffffffff16815260200190815260200160002060020160006101000a81548160ff02191690836004811115610e1057610e0f614cae565b5b021790555080600e60003373ffffffffffffffffffffffffffffffffffffffff1673ffffffffffffffffffffffffffffffffffffffff1681526020019081526020016000206003016000828254610e679190615340565b92505081905550853373ffffffffffffffffffffffffffffffffffffffff167ffc30cddea38e2bf4d6ea7d3f9ed3b6ad7f176419f4963bd81318067a4aee73fe60405160405180910390a3505050505050565b600560009054906101000a900467ffffffffffffffff1681565b7f000000000000000000000000000000000000000000000000000000000000000073ffffffffffffffffffffffffffffffffffffffff163373ffffffffffffffffffffffffffffffffffffffff1614610f59576040517fc6829f8300000000000000000000000000000000000000000000000000000000815260040160405180910390fd5b610f6483838361320b565b827f85e1543bf2f84fe80c6badbce3648c8539ad1df4d2b3d822938ca0538be727e660405160405180910390a2505050565b600082600d6000828152602001908152602001600020600a0160009054906101000a900460ff16610ffc576040517f08c379a0000000000000000000000000000000000000000000000000000000008152600401610ff39061510d565b60405180910390fd5b6000600d600086815260200190815260200160002090506000805b826007018054905081101561113a57600083600701828154811061103e5761103d615374565b5b9060005260206000200160009054906101000a900473ffffffffffffffffffffffffffffffffffffffff16905086600481111561107e5761107d614cae565b5b8460060160008373ffffffffffffffffffffffffffffffffffffffff1673ffffffffffffffffffffffffffffffffffffffff16815260200190815260200160002060020160009054906101000a900460ff1660048111156110e2576110e1614cae565b5b14806111125750600060048111156110fd576110fc614cae565b5b8760048111156111105761110f614cae565b5b145b15611126578280611122906153a3565b9350505b508080611132906153a3565b915050611017565b5080935050505092915050565b33601060008273ffffffffffffffffffffffffffffffffffffffff1673ffffffffffffffffffffffffffffffffffffffff16815260200190815260200160002060009054906101000a900460ff16156111d5576040517f08c379a00000000000000000000000000000000000000000000000000000000081526004016111cc90615437565b60405180910390fd5b66038d7ea4c680003373ffffffffffffffffffffffffffffffffffffffff16311015611236576040517f08c379a000000000000000000000000000000000000000000000000000000000815260040161122d906154a3565b60405180910390fd5b33600e60003373ffffffffffffffffffffffffffffffffffffffff1673ffffffffffffffffffffffffffffffffffffffff16815260200190815260200160002060000160006101000a81548173ffffffffffffffffffffffffffffffffffffffff021916908373ffffffffffffffffffffffffffffffffffffffff160217905550600a54600e60003373ffffffffffffffffffffffffffffffffffffffff1673ffffffffffffffffffffffffffffffffffffffff1681526020019081526020016000206001018190555033600f6000600a54815260200190815260200160002060006101000a81548173ffffffffffffffffffffffffffffffffffffffff021916908373ffffffffffffffffffffffffffffffffffffffff1602179055506001601060003373ffffffffffffffffffffffffffffffffffffffff1673ffffffffffffffffffffffffffffffffffffffff16815260200190815260200160002060006101000a81548160ff021916908315150217905550600a60008154809291906113bf906153a3565b91905055503373ffffffffffffffffffffffffffffffffffffffff167f0b0376a109cbb578b709f85f6a7befcdac3ac1ab251c99ede87f30c9572ac4d360405160405180910390a250565b60098054611417906154f2565b80601f0160208091040260200160405190810160405280929190818152602001828054611443906154f2565b80156114905780601f1061146557610100808354040283529160200191611490565b820191906000526020600020905b81548152906001019060200180831161147357829003601f168201915b505050505081565b60106020528060005260406000206000915054906101000a900460ff1681565b600081600073ffffffffffffffffffffffffffffffffffffffff16600e60008373ffffffffffffffffffffffffffffffffffffffff1673ffffffffffffffffffffffffffffffffffffffff16815260200190815260200160002060000160009054906101000a900473ffffffffffffffffffffffffffffffffffffffff1673ffffffffffffffffffffffffffffffffffffffff160361158c576040517f08c379a00000000000000000000000000000000000000000000000000000000081526004016115839061507b565b60405180910390fd5b600e60008473ffffffffffffffffffffffffffffffffffffffff1673ffffffffffffffffffffffffffffffffffffffff16815260200190815260200160002060010154915050919050565b600081600d6000828152602001908152602001600020600a0160009054906101000a900460ff1661163d576040517f08c379a00000000000000000000000000000000000000000000000000000000081526004016116349061510d565b60405180910390fd5b83600073ffffffffffffffffffffffffffffffffffffffff16600e60008373ffffffffffffffffffffffffffffffffffffffff1673ffffffffffffffffffffffffffffffffffffffff16815260200190815260200160002060000160009054906101000a900473ffffffffffffffffffffffffffffffffffffffff1673ffffffffffffffffffffffffffffffffffffffff160361170f576040517f08c379a00000000000000000000000000000000000000000000000000000000081526004016117069061507b565b60405180910390fd5b600d600085815260200190815260200160002060060160008673ffffffffffffffffffffffffffffffffffffffff1673ffffffffffffffffffffffffffffffffffffffff168152602001908152602001600020600101549250505092915050565b6000600d6000858152602001908152602001600020600a0160009054906101000a900460ff166117d5576040517f08c379a00000000000000000000000000000000000000000000000000000000081526004016117cc9061556f565b60405180910390fd5b6000600467ffffffffffffffff8111156117f2576117f16143e0565b5b60405190808252806020026020018201604052801561182557816020015b60608152602001906001900390816118105790505b509050868160008151811061183d5761183c615374565b5b6020026020010181905250858160018151811061185d5761185c615374565b5b6020026020010181905250838160028151811061187d5761187c615374565b5b6020026020010181905250828160038151811061189d5761189c615374565b5b60200260200101819052506118b06141e3565b61194d600680546118c0906154f2565b80601f01602080910402602001604051908101604052809291908181526020018280546118ec906154f2565b80156119395780601f1061190e57610100808354040283529160200191611939565b820191906000526020600020905b81548152906001019060200180831161191c57829003601f168201915b50505050508261337b90919063ffffffff16565b60008251111561196b5761196a828261338c90919063ffffffff16565b5b6119a9611977826133d4565b600560009054906101000a900467ffffffffffffffff16600360009054906101000a900463ffffffff166002546137f0565b600481905550604051806060016040528087815260200188815260200160405180602001604052806000815250815250601360006004548152602001908152602001600020600082015181600001556020820151816001019081611a0d919061573b565b506040820151816002019081611a23919061573b565b5090505060405180608001604052806000151581526020016001151581526020016040518060200160405280600081525081526020016040518060200160405280600081525081525060126000600454815260200190815260200160002060008201518160000160006101000a81548160ff02191690831515021790555060208201518160000160016101000a81548160ff0219169083151502179055506040820151816001019081611ad69190615868565b506060820151816002019081611aec9190615868565b509050506007600454908060018154018082558091505060019003906000526020600020016000909190919091505560045460116000888152602001908152602001600020819055506004547f7d7e1d3575ff050561c31730682e6dfadeb23b921bb9e7a16f17506e05962a3a88604051611b679190614a6d565b60405180910390a26004549250505095945050505050565b600f6020528060005260406000206000915054906101000a900473ffffffffffffffffffffffffffffffffffffffff1681565b600d602052806000526040600020600091509050806000015490806001018054611bdb906154f2565b80601f0160208091040260200160405190810160405280929190818152602001828054611c07906154f2565b8015611c545780601f10611c2957610100808354040283529160200191611c54565b820191906000526020600020905b815481529060010190602001808311611c3757829003601f168201915b505050505090806002018054611c69906154f2565b80601f0160208091040260200160405190810160405280929190818152602001828054611c95906154f2565b8015611ce25780601f10611cb757610100808354040283529160200191611ce2565b820191906000526020600020905b815481529060010190602001808311611cc557829003601f168201915b50505050509080600301549080600401549080600501549080600801549080600901549080600a0160009054906101000a900460ff16905089565b60088054611d2a906154f2565b80601f0160208091040260200160405190810160405280929190818152602001828054611d56906154f2565b8015611da35780601f10611d7857610100808354040283529160200191611da3565b820191906000526020600020905b815481529060010190602001808311611d8657829003601f168201915b505050505081565b600081600073ffffffffffffffffffffffffffffffffffffffff16600e60008373ffffffffffffffffffffffffffffffffffffffff1673ffffffffffffffffffffffffffffffffffffffff16815260200190815260200160002060000160009054906101000a900473ffffffffffffffffffffffffffffffffffffffff1673ffffffffffffffffffffffffffffffffffffffff1603611e7f576040517f08c379a0000000000000000000000000000000000000000000000000000000008152600401611e769061507b565b60405180910390fd5b600e60008473ffffffffffffffffffffffffffffffffffffffff1673ffffffffffffffffffffffffffffffffffffffff16815260200190815260200160002060030154915050919050565b60068054611ed7906154f2565b80601f0160208091040260200160405190810160405280929190818152602001828054611f03906154f2565b8015611f505780601f10611f2557610100808354040283529160200191611f50565b820191906000526020600020905b815481529060010190602001808311611f3357829003601f168201915b505050505081565b611f606138d3565b611f6a600061395a565b565b6013602052806000526040600020600091509050806000015490806001018054611f95906154f2565b80601f0160208091040260200160405190810160405280929190818152602001828054611fc1906154f2565b801561200e5780601f10611fe35761010080835404028352916020019161200e565b820191906000526020600020905b815481529060010190602001808311611ff157829003601f168201915b505050505090806002018054612023906154f2565b80601f016020809104026020016040519081016040528092919081815260200182805461204f906154f2565b801561209c5780601f106120715761010080835404028352916020019161209c565b820191906000526020600020905b81548152906001019060200180831161207f57829003601f168201915b5050505050905083565b600781815481106120b657600080fd5b906000526020600020016000915090505481565b6120d26138d3565b80600d6000828152602001908152602001600020600a0160009054906101000a900460ff16612136576040517f08c379a000000000000000000000000000000000000000000000000000000000815260040161212d9061510d565b60405180910390fd5b60005b83518110156121ff57600061216785838151811061215a57612159615374565b5b602002602001015161222e565b9050846001836121779190615340565b8151811061218857612187615374565b5b6020026020010151600d600086815260200190815260200160002060060160008373ffffffffffffffffffffffffffffffffffffffff1673ffffffffffffffffffffffffffffffffffffffff16815260200190815260200160002060010181905550506002816121f89190615340565b9050612139565b50505050565b60008060009054906101000a900473ffffffffffffffffffffffffffffffffffffffff16905090565b6000600f600083815260200190815260200160002060009054906101000a900473ffffffffffffffffffffffffffffffffffffffff169050919050565b6122736138d3565b8060069081612282919061573b565b5050565b600082600d6000828152602001908152602001600020600a0160009054906101000a900460ff166122ec576040517f08c379a00000000000000000000000000000000000000000000000000000000081526004016122e39061510d565b60405180910390fd5b600d600085815260200190815260200160002060060160008473ffffffffffffffffffffffffffffffffffffffff1673ffffffffffffffffffffffffffffffffffffffff16815260200190815260200160002060020160009054906101000a900460ff1691505092915050565b60126020528060005260406000206000915090508060000160009054906101000a900460ff16908060000160019054906101000a900460ff16908060010180546123a2906154f2565b80601f01602080910402602001604051908101604052809291908181526020018280546123ce906154f2565b801561241b5780601f106123f05761010080835404028352916020019161241b565b820191906000526020600020905b8154815290600101906020018083116123fe57829003601f168201915b505050505090806002018054612430906154f2565b80601f016020809104026020016040519081016040528092919081815260200182805461245c906154f2565b80156124a95780601f1061247e576101008083540402835291602001916124a9565b820191906000526020600020905b81548152906001019060200180831161248c57829003601f168201915b5050505050905084565b600e6020528060005260406000206000915090508060000160009054906101000a900473ffffffffffffffffffffffffffffffffffffffff16908060010154908060030154905083565b60116020528060005260406000206000915090505481565b61251d614255565b6000601160008481526020019081526020016000205490506012600082815260200190815260200160002060000160019054906101000a900460ff16612598576040517f08c379a000000000000000000000000000000000000000000000000000000000815260040161258f90615986565b60405180910390fd5b60136000828152602001908152602001600020604051806060016040529081600082015481526020016001820180546125d0906154f2565b80601f01602080910402602001604051908101604052809291908181526020018280546125fc906154f2565b80156126495780601f1061261e57610100808354040283529160200191612649565b820191906000526020600020905b81548152906001019060200180831161262c57829003601f168201915b50505050508152602001600282018054612662906154f2565b80601f016020809104026020016040519081016040528092919081815260200182805461268e906154f2565b80156126db5780601f106126b0576101008083540402835291602001916126db565b820191906000526020600020905b8154815290600101906020018083116126be57829003601f168201915b505050505081525050915050919050565b6126f46138d3565b6000600d6000600b5481526020019081526020016000209050600b54816000018190555085816001019081612729919061573b565b508481600201908161273b919061573b565b50838160030181905550828160080181905550818160090181905550600181600a0160006101000a81548160ff021916908315150217905550600c6000815480929190612787906153a3565b9190505550600b600081548092919061279f906153a3565b9190505550600b547f12147fa79fbbfaed904e6976dbd34cd000f28f8ed3f3ce6bb7f0f4a1769a267a87878787876040516127de9594939291906159a6565b60405180910390a2505050505050565b33600073ffffffffffffffffffffffffffffffffffffffff16600e60008373ffffffffffffffffffffffffffffffffffffffff1673ffffffffffffffffffffffffffffffffffffffff16815260200190815260200160002060000160009054906101000a900473ffffffffffffffffffffffffffffffffffffffff1673ffffffffffffffffffffffffffffffffffffffff16036128c0576040517f08c379a00000000000000000000000000000000000000000000000000000000081526004016128b79061507b565b60405180910390fd5b81600d6000828152602001908152602001600020600a0160009054906101000a900460ff16612924576040517f08c379a000000000000000000000000000000000000000000000000000000000815260040161291b9061510d565b60405180910390fd5b600d600084815260200190815260200160002060080154421061297c576040517f08c379a000000000000000000000000000000000000000000000000000000000815260040161297390615a53565b60405180910390fd5b42600d600085815260200190815260200160002060090154116129d4576040517f08c379a00000000000000000000000000000000000000000000000000000000081526004016129cb90615abf565b60405180910390fd5b60003411612a17576040517f08c379a0000000000000000000000000000000000000000000000000000000008152600401612a0e90615b2b565b60405180910390fd5b60006004811115612a2b57612a2a614cae565b5b600d600085815260200190815260200160002060060160003373ffffffffffffffffffffffffffffffffffffffff1673ffffffffffffffffffffffffffffffffffffffff16815260200190815260200160002060020160009054906101000a900460ff166004811115612aa157612aa0614cae565b5b14612ae1576040517f08c379a0000000000000000000000000000000000000000000000000000000008152600401612ad890615b97565b60405180910390fd5b60405180606001604052803481526020016000815260200160016004811115612b0d57612b0c614cae565b5b815250600d600085815260200190815260200160002060060160003373ffffffffffffffffffffffffffffffffffffffff1673ffffffffffffffffffffffffffffffffffffffff168152602001908152602001600020600082015181600001556020820151816001015560408201518160020160006101000a81548160ff02191690836004811115612ba257612ba1614cae565b5b0217905550905050600d6000848152602001908152602001600020600701339080600181540180825580915050600190039060005260206000200160009091909190916101000a81548173ffffffffffffffffffffffffffffffffffffffff021916908373ffffffffffffffffffffffffffffffffffffffff16021790555034600d60008581526020019081526020016000206004016000828254612c479190615340565b92505081905550823373ffffffffffffffffffffffffffffffffffffffff167f8f301af230e39227ba203f0d3f6b4314b562b99636df1521ff13d5516a9d731634604051612c9591906142c9565b60405180910390a3505050565b606081600d6000828152602001908152602001600020600a0160009054906101000a900460ff16612d08576040517f08c379a0000000000000000000000000000000000000000000000000000000008152600401612cff9061510d565b60405180910390fd5b600d6000848152602001908152602001600020600701805480602002602001604051908101604052809291908181526020018280548015612d9e57602002820191906000526020600020905b8160009054906101000a900473ffffffffffffffffffffffffffffffffffffffff1673ffffffffffffffffffffffffffffffffffffffff1681526020019060010190808311612d54575b5050505050915050919050565b612db3614255565b6013600083815260200190815260200160002060405180606001604052908160008201548152602001600182018054612deb906154f2565b80601f0160208091040260200160405190810160405280929190818152602001828054612e17906154f2565b8015612e645780601f10612e3957610100808354040283529160200191612e64565b820191906000526020600020905b815481529060010190602001808311612e4757829003601f168201915b50505050508152602001600282018054612e7d906154f2565b80601f0160208091040260200160405190810160405280929190818152602001828054612ea9906154f2565b8015612ef65780601f10612ecb57610100808354040283529160200191612ef6565b820191906000526020600020905b815481529060010190602001808311612ed957829003601f168201915b5050505050815250509050919050565b600b5481565b612f146138d3565b600073ffffffffffffffffffffffffffffffffffffffff168173ffffffffffffffffffffffffffffffffffffffff1603612f865760006040517f1e4fbdf7000000000000000000000000000000000000000000000000000000008152600401612f7d9190614962565b60405180910390fd5b612f8f8161395a565b50565b612f9a6138d3565b80600d6000828152602001908152602001600020600a0160009054906101000a900460ff16612ffe576040517f08c379a0000000000000000000000000000000000000000000000000000000008152600401612ff59061510d565b60405180910390fd5b600d600083815260200190815260200160002060090154421015613057576040517f08c379a000000000000000000000000000000000000000000000000000000000815260040161304e90615179565b60405180910390fd5b6000600d6000848152602001908152602001600020905060005b81600701805490508110156130e357600082600701828154811061309857613097615374565b5b9060005260206000200160009054906101000a900473ffffffffffffffffffffffffffffffffffffffff1690506130cf8186613a1e565b5080806130db906153a3565b915050613071565b50600c60008154809291906130f790615bb7565b9190505550827f21f467260d12367f5f6c3427e620c488bcaa8f30684b081059fba3477919a89a60405160405180910390a2505050565b600c5481565b60045481565b600080600d6000848152602001908152602001600020905060008160060160008673ffffffffffffffffffffffffffffffffffffffff1673ffffffffffffffffffffffffffffffffffffffff16815260200190815260200160002060000154905060008260050154905060006131b1866003610f96565b9050600060646002856131c49190615be0565b6131ce9190615c51565b9050600082846131de9190615c51565b905060008282876131ef9190615340565b6131f9919061530c565b90508097505050505050505092915050565b6012600084815260200190815260200160002060000160019054906101000a900460ff1661326e576040517f08c379a000000000000000000000000000000000000000000000000000000000815260040161326590615cce565b60405180910390fd5b806009908161327d9190615868565b50816008908161328d9190615868565b506000825111156132c3576000601360008581526020019081526020016000209050828160020190816132c0919061573b565b50505b60016012600085815260200190815260200160002060000160006101000a81548160ff021916908315150217905550816012600085815260200190815260200160002060010190816133159190615868565b50806012600085815260200190815260200160002060020190816133399190615868565b50827f160ed0aaffbef6885155188b91459cb5a97d5daadccf7561d8c46deea6641b5083848460405161336e93929190615cee565b60405180910390a2505050565b6133888260008084613bb6565b5050565b60008151036133c7576040517ffe936cb700000000000000000000000000000000000000000000000000000000815260040160405180910390fd5b808260a001819052505050565b606060006133e3610100613c60565b905061342d6040518060400160405280600c81526020017f636f64654c6f636174696f6e000000000000000000000000000000000000000081525082613c8790919063ffffffff16565b6134568360000151600281111561344757613446614cae565b5b82613cb090919063ffffffff16565b61349e6040518060400160405280600881526020017f6c616e677561676500000000000000000000000000000000000000000000000081525082613c8790919063ffffffff16565b6134c7836040015160008111156134b8576134b7614cae565b5b82613cb090919063ffffffff16565b61350f6040518060400160405280600681526020017f736f75726365000000000000000000000000000000000000000000000000000081525082613c8790919063ffffffff16565b613526836060015182613c8790919063ffffffff16565b60008360a001515111156135e25761357c6040518060400160405280600481526020017f617267730000000000000000000000000000000000000000000000000000000081525082613c8790919063ffffffff16565b61358581613d00565b60005b8360a00151518110156135d7576135c68460a0015182815181106135af576135ae615374565b5b602002602001015183613c8790919063ffffffff16565b806135d0906153a3565b9050613588565b506135e181613d28565b5b60008360800151511115613723576000600281111561360457613603614cae565b5b8360200151600281111561361b5761361a614cae565b5b03613652576040517fa80d31f700000000000000000000000000000000000000000000000000000000815260040160405180910390fd5b61369a6040518060400160405280600f81526020017f736563726574734c6f636174696f6e000000000000000000000000000000000081525082613c8790919063ffffffff16565b6136c3836020015160028111156136b4576136b3614cae565b5b82613cb090919063ffffffff16565b61370b6040518060400160405280600781526020017f736563726574730000000000000000000000000000000000000000000000000081525082613c8790919063ffffffff16565b613722836080015182613d5090919063ffffffff16565b5b60008360c001515111156137df576137796040518060400160405280600981526020017f627974657341726773000000000000000000000000000000000000000000000081525082613c8790919063ffffffff16565b61378281613d00565b60005b8360c00151518110156137d4576137c38460c0015182815181106137ac576137ab615374565b5b602002602001015183613d5090919063ffffffff16565b806137cd906153a3565b9050613785565b506137de81613d28565b5b806000015160000151915050919050565b6000807f000000000000000000000000000000000000000000000000000000000000000073ffffffffffffffffffffffffffffffffffffffff1663461d27628688600188886040518663ffffffff1660e01b8152600401613855959493929190615d76565b6020604051808303816000875af1158015613874573d6000803e3d6000fd5b505050506040513d601f19601f820116820180604052508101906138989190615de5565b9050807f1131472297a800fee664d1d89cfa8f7676ff07189ecc53f80bbb5f4969099db860405160405180910390a280915050949350505050565b6138db613d79565b73ffffffffffffffffffffffffffffffffffffffff166138f9612205565b73ffffffffffffffffffffffffffffffffffffffff16146139585761391c613d79565b6040517f118cdaa700000000000000000000000000000000000000000000000000000000815260040161394f9190614962565b60405180910390fd5b565b60008060009054906101000a900473ffffffffffffffffffffffffffffffffffffffff169050816000806101000a81548173ffffffffffffffffffffffffffffffffffffffff021916908373ffffffffffffffffffffffffffffffffffffffff1602179055508173ffffffffffffffffffffffffffffffffffffffff168173ffffffffffffffffffffffffffffffffffffffff167f8be0079c531659141344cd1fd0a4f28419497f9722a3daafe3b4186f6b6457e060405160405180910390a35050565b6000600d6000838152602001908152602001600020905060008160060160008573ffffffffffffffffffffffffffffffffffffffff1673ffffffffffffffffffffffffffffffffffffffff168152602001908152602001600020905060016004811115613a8e57613a8d614cae565b5b8160020160009054906101000a900460ff166004811115613ab257613ab1614cae565b5b03613bb0578160030154816001015410613af85760038160020160006101000a81548160ff02191690836004811115613aee57613aed614cae565b5b0217905550613b4f565b60028160020160006101000a81548160ff02191690836004811115613b2057613b1f614cae565b5b02179055508060000154826005016000828254613b3d9190615340565b92505081905550600081600001819055505b828473ffffffffffffffffffffffffffffffffffffffff167f08a6fe6ac9911d48760b3a3730226ca83b632ae4d9406912428e3b4d6ba02ceb8360020160009054906101000a900460ff16604051613ba79190614d25565b60405180910390a35b50505050565b6000815103613bf1576040517f22ce3edd00000000000000000000000000000000000000000000000000000000815260040160405180910390fd5b8284600001906002811115613c0957613c08614cae565b5b90816002811115613c1d57613c1c614cae565b5b815250508184604001906000811115613c3957613c38614cae565b5b90816000811115613c4d57613c4c614cae565b5b8152505080846060018190525050505050565b613c68614276565b613c76816000015183613d81565b506000816020018181525050919050565b613c948260038351613dfa565b613cab818360000151613fa390919063ffffffff16565b505050565b613cd260026005600660ff16901b178360000151613fbf90919063ffffffff16565b50613cfc8282604051602001613ce891906142c9565b604051602081830303815290604052613d50565b5050565b613d0b816004614029565b600181602001818151613d1e9190615340565b9150818152505050565b613d33816007614029565b600181602001818151613d46919061530c565b9150818152505050565b613d5d8260028351613dfa565b613d74818360000151613fa390919063ffffffff16565b505050565b600033905090565b613d89614296565b6000602083613d989190615e12565b14613dc457602082613daa9190615e12565b6020613db6919061530c565b82613dc19190615340565b91505b818360200181815250506040518084526000815282810160200181811015613deb57600080fd5b80604052505082905092915050565b60178167ffffffffffffffff1611613e3557613e2f8160058460ff16901b60ff16178460000151613fbf90919063ffffffff16565b50613f9e565b60ff8167ffffffffffffffff1611613e9357613e68601860058460ff16901b178460000151613fbf90919063ffffffff16565b50613e8d8167ffffffffffffffff166001856000015161404f9092919063ffffffff16565b50613f9d565b61ffff8167ffffffffffffffff1611613ef257613ec7601960058460ff16901b178460000151613fbf90919063ffffffff16565b50613eec8167ffffffffffffffff166002856000015161404f9092919063ffffffff16565b50613f9c565b63ffffffff8167ffffffffffffffff1611613f5357613f28601a60058460ff16901b178460000151613fbf90919063ffffffff16565b50613f4d8167ffffffffffffffff166004856000015161404f9092919063ffffffff16565b50613f9b565b613f74601b60058460ff16901b178460000151613fbf90919063ffffffff16565b50613f998167ffffffffffffffff166008856000015161404f9092919063ffffffff16565b505b5b5b5b505050565b613fab614296565b613fb7838384516140dc565b905092915050565b613fc7614296565b600083600001515190506000600182613fe09190615340565b9050846020015182106140045761400385600283613ffe9190615be0565b6141bf565b5b8451602083820101858153815183111561401c578282525b5050849250505092915050565b61404a601f60058360ff16901b178360000151613fbf90919063ffffffff16565b505050565b614057614296565b600084600001515190506000818461406f9190615340565b90508560200151811115614094576140938660028361408e9190615be0565b6141bf565b5b60006001856101006140a69190615f76565b6140b0919061530c565b9050865182810187831982511617815281518411156140cd578382525b50508693505050509392505050565b6140e4614296565b82518211156140f257600080fd5b600084600001515190506000838261410a9190615340565b9050856020015181111561412f5761412e866002836141299190615be0565b6141bf565b5b6000808751805185602083010193508085111561414a578482525b60208901925050505b60208610614191578051825260208261416c9190615340565b915060208161417b9190615340565b905060208661418a919061530c565b9550614153565b60006001876020036101000a0390508019825116818451168181178552505050879450505050509392505050565b6000826000015190506141d28383613d81565b506141dd8382613fa3565b50505050565b6040518060e001604052806000600281111561420257614201614cae565b5b81526020016000600281111561421b5761421a614cae565b5b815260200160008081111561423357614232614cae565b5b8152602001606081526020016060815260200160608152602001606081525090565b60405180606001604052806000815260200160608152602001606081525090565b6040518060400160405280614289614296565b8152602001600081525090565b604051806040016040528060608152602001600081525090565b6000819050919050565b6142c3816142b0565b82525050565b60006020820190506142de60008301846142ba565b92915050565b6000604051905090565b600080fd5b600080fd5b614301816142b0565b811461430c57600080fd5b50565b60008135905061431e816142f8565b92915050565b60006020828403121561433a576143396142ee565b5b60006143488482850161430f565b91505092915050565b600067ffffffffffffffff82169050919050565b61436e81614351565b82525050565b60006020820190506143896000830184614365565b92915050565b6000819050919050565b6143a28161438f565b81146143ad57600080fd5b50565b6000813590506143bf81614399565b92915050565b600080fd5b600080fd5b6000601f19601f8301169050919050565b7f4e487b7100000000000000000000000000000000000000000000000000000000600052604160045260246000fd5b614418826143cf565b810181811067ffffffffffffffff82111715614437576144366143e0565b5b80604052505050565b600061444a6142e4565b9050614456828261440f565b919050565b600067ffffffffffffffff821115614476576144756143e0565b5b61447f826143cf565b9050602081019050919050565b82818337600083830152505050565b60006144ae6144a98461445b565b614440565b9050828152602081018484840111156144ca576144c96143ca565b5b6144d584828561448c565b509392505050565b600082601f8301126144f2576144f16143c5565b5b813561450284826020860161449b565b91505092915050565b600080600060608486031215614524576145236142ee565b5b6000614532868287016143b0565b935050602084013567ffffffffffffffff811115614553576145526142f3565b5b61455f868287016144dd565b925050604084013567ffffffffffffffff8111156145805761457f6142f3565b5b61458c868287016144dd565b9150509250925092565b600581106145a357600080fd5b50565b6000813590506145b581614596565b92915050565b600080604083850312156145d2576145d16142ee565b5b60006145e08582860161430f565b92505060206145f1858286016145a6565b9150509250929050565b600081519050919050565b600082825260208201905092915050565b60005b8381101561463557808201518184015260208101905061461a565b60008484015250505050565b600061464c826145fb565b6146568185614606565b9350614666818560208601614617565b61466f816143cf565b840191505092915050565b600060208201905081810360008301526146948184614641565b905092915050565b600073ffffffffffffffffffffffffffffffffffffffff82169050919050565b60006146c78261469c565b9050919050565b6146d7816146bc565b81146146e257600080fd5b50565b6000813590506146f4816146ce565b92915050565b6000602082840312156147105761470f6142ee565b5b600061471e848285016146e5565b91505092915050565b60008115159050919050565b61473c81614727565b82525050565b60006020820190506147576000830184614733565b92915050565b60008060408385031215614774576147736142ee565b5b6000614782858286016146e5565b92505060206147938582860161430f565b9150509250929050565b600067ffffffffffffffff8211156147b8576147b76143e0565b5b6147c1826143cf565b9050602081019050919050565b60006147e16147dc8461479d565b614440565b9050828152602081018484840111156147fd576147fc6143ca565b5b61480884828561448c565b509392505050565b600082601f830112614825576148246143c5565b5b81356148358482602086016147ce565b91505092915050565b600080600080600060a0868803121561485a576148596142ee565b5b600086013567ffffffffffffffff811115614878576148776142f3565b5b61488488828901614810565b955050602086013567ffffffffffffffff8111156148a5576148a46142f3565b5b6148b188828901614810565b94505060406148c28882890161430f565b935050606086013567ffffffffffffffff8111156148e3576148e26142f3565b5b6148ef88828901614810565b925050608086013567ffffffffffffffff8111156149105761490f6142f3565b5b61491c88828901614810565b9150509295509295909350565b6149328161438f565b82525050565b600060208201905061494d6000830184614929565b92915050565b61495c816146bc565b82525050565b60006020820190506149776000830184614953565b92915050565b600081519050919050565b600082825260208201905092915050565b60006149a48261497d565b6149ae8185614988565b93506149be818560208601614617565b6149c7816143cf565b840191505092915050565b6000610120820190506149e8600083018c6142ba565b81810360208301526149fa818b614999565b90508181036040830152614a0e818a614999565b9050614a1d60608301896142ba565b614a2a60808301886142ba565b614a3760a08301876142ba565b614a4460c08301866142ba565b614a5160e08301856142ba565b614a5f610100830184614733565b9a9950505050505050505050565b60006020820190508181036000830152614a878184614999565b905092915050565b600060208284031215614aa557614aa46142ee565b5b6000614ab3848285016143b0565b91505092915050565b6000606082019050614ad160008301866142ba565b8181036020830152614ae38185614999565b90508181036040830152614af78184614999565b9050949350505050565b600067ffffffffffffffff821115614b1c57614b1b6143e0565b5b602082029050602081019050919050565b600080fd5b6000614b45614b4084614b01565b614440565b90508083825260208201905060208402830185811115614b6857614b67614b2d565b5b835b81811015614b915780614b7d888261430f565b845260208401935050602081019050614b6a565b5050509392505050565b600082601f830112614bb057614baf6143c5565b5b8135614bc0848260208601614b32565b91505092915050565b60008060408385031215614be057614bdf6142ee565b5b600083013567ffffffffffffffff811115614bfe57614bfd6142f3565b5b614c0a85828601614b9b565b9250506020614c1b8582860161430f565b9150509250929050565b600060208284031215614c3b57614c3a6142ee565b5b600082013567ffffffffffffffff811115614c5957614c586142f3565b5b614c6584828501614810565b91505092915050565b60008060408385031215614c8557614c846142ee565b5b6000614c938582860161430f565b9250506020614ca4858286016146e5565b9150509250929050565b7f4e487b7100000000000000000000000000000000000000000000000000000000600052602160045260246000fd5b60058110614cee57614ced614cae565b5b50565b6000819050614cff82614cdd565b919050565b6000614d0f82614cf1565b9050919050565b614d1f81614d04565b82525050565b6000602082019050614d3a6000830184614d16565b92915050565b6000608082019050614d556000830187614733565b614d626020830186614733565b8181036040830152614d748185614641565b90508181036060830152614d888184614641565b905095945050505050565b6000606082019050614da86000830186614953565b614db560208301856142ba565b614dc260408301846142ba565b949350505050565b614dd3816142b0565b82525050565b600082825260208201905092915050565b6000614df58261497d565b614dff8185614dd9565b9350614e0f818560208601614617565b614e18816143cf565b840191505092915050565b6000606083016000830151614e3b6000860182614dca565b5060208301518482036020860152614e538282614dea565b91505060408301518482036040860152614e6d8282614dea565b9150508091505092915050565b60006020820190508181036000830152614e948184614e23565b905092915050565b600080600080600060a08688031215614eb857614eb76142ee565b5b600086013567ffffffffffffffff811115614ed657614ed56142f3565b5b614ee288828901614810565b955050602086013567ffffffffffffffff811115614f0357614f026142f3565b5b614f0f88828901614810565b9450506040614f208882890161430f565b9350506060614f318882890161430f565b9250506080614f428882890161430f565b9150509295509295909350565b600081519050919050565b600082825260208201905092915050565b6000819050602082019050919050565b614f84816146bc565b82525050565b6000614f968383614f7b565b60208301905092915050565b6000602082019050919050565b6000614fba82614f4f565b614fc48185614f5a565b9350614fcf83614f6b565b8060005b83811015615000578151614fe78882614f8a565b9750614ff283614fa2565b925050600181019050614fd3565b5085935050505092915050565b600060208201905081810360008301526150278184614faf565b905092915050565b7f55736572206d7573742065786973740000000000000000000000000000000000600082015250565b6000615065600f83614988565b91506150708261502f565b602082019050919050565b6000602082019050818103600083015261509481615058565b9050919050565b7f496e76616c696420676f616c2069642c20676f616c20646f6573206e6f74206560008201527f7869737400000000000000000000000000000000000000000000000000000000602082015250565b60006150f7602483614988565b91506151028261509b565b604082019050919050565b60006020820190508181036000830152615126816150ea565b9050919050565b7f476f616c206d7573742062652065787069726564000000000000000000000000600082015250565b6000615163601483614988565b915061516e8261512d565b602082019050919050565b6000602082019050818103600083015261519281615156565b9050919050565b7f5265776172647320636c61696d65642e00000000000000000000000000000000600082015250565b60006151cf601083614988565b91506151da82615199565b602082019050919050565b600060208201905081810360008301526151fe816151c2565b9050919050565b7f476f616c20756e636f6d706c6574650000000000000000000000000000000000600082015250565b600061523b600f83614988565b915061524682615205565b602082019050919050565b6000602082019050818103600083015261526a8161522e565b9050919050565b7f446964206e6f74207374616b652e000000000000000000000000000000000000600082015250565b60006152a7600e83614988565b91506152b282615271565b602082019050919050565b600060208201905081810360008301526152d68161529a565b9050919050565b7f4e487b7100000000000000000000000000000000000000000000000000000000600052601160045260246000fd5b6000615317826142b0565b9150615322836142b0565b925082820390508181111561533a576153396152dd565b5b92915050565b600061534b826142b0565b9150615356836142b0565b925082820190508082111561536e5761536d6152dd565b5b92915050565b7f4e487b7100000000000000000000000000000000000000000000000000000000600052603260045260246000fd5b60006153ae826142b0565b91507fffffffffffffffffffffffffffffffffffffffffffffffffffffffffffffffff82036153e0576153df6152dd565b5b600182019050919050565b7f43616e206f6e6c792063726561746520616e206163636f756e74206f6e636500600082015250565b6000615421601f83614988565b915061542c826153eb565b602082019050919050565b6000602082019050818103600083015261545081615414565b9050919050565b7f4d7573742068617665206174206c6561737420302e3030312041766178000000600082015250565b600061548d601d83614988565b915061549882615457565b602082019050919050565b600060208201905081810360008301526154bc81615480565b9050919050565b7f4e487b7100000000000000000000000000000000000000000000000000000000600052602260045260246000fd5b6000600282049050600182168061550a57607f821691505b60208210810361551d5761551c6154c3565b5b50919050565b7f476f616c206d7573742065786973740000000000000000000000000000000000600082015250565b6000615559600f83614988565b915061556482615523565b602082019050919050565b600060208201905081810360008301526155888161554c565b9050919050565b60008190508160005260206000209050919050565b60006020601f8301049050919050565b600082821b905092915050565b6000600883026155f17fffffffffffffffffffffffffffffffffffffffffffffffffffffffffffffffff826155b4565b6155fb86836155b4565b95508019841693508086168417925050509392505050565b6000819050919050565b600061563861563361562e846142b0565b615613565b6142b0565b9050919050565b6000819050919050565b6156528361561d565b61566661565e8261563f565b8484546155c1565b825550505050565b600090565b61567b61566e565b615686818484615649565b505050565b5b818110156156aa5761569f600082615673565b60018101905061568c565b5050565b601f8211156156ef576156c08161558f565b6156c9846155a4565b810160208510156156d8578190505b6156ec6156e4856155a4565b83018261568b565b50505b505050565b600082821c905092915050565b6000615712600019846008026156f4565b1980831691505092915050565b600061572b8383615701565b9150826002028217905092915050565b6157448261497d565b67ffffffffffffffff81111561575d5761575c6143e0565b5b61576782546154f2565b6157728282856156ae565b600060209050601f8311600181146157a55760008415615793578287015190505b61579d858261571f565b865550615805565b601f1984166157b38661558f565b60005b828110156157db578489015182556001820191506020850194506020810190506157b6565b868310156157f857848901516157f4601f891682615701565b8355505b6001600288020188555050505b505050505050565b60008190508160005260206000209050919050565b601f821115615863576158348161580d565b61583d846155a4565b8101602085101561584c578190505b615860615858856155a4565b83018261568b565b50505b505050565b615871826145fb565b67ffffffffffffffff81111561588a576158896143e0565b5b61589482546154f2565b61589f828285615822565b600060209050601f8311600181146158d257600084156158c0578287015190505b6158ca858261571f565b865550615932565b601f1984166158e08661580d565b60005b82811015615908578489015182556001820191506020850194506020810190506158e3565b868310156159255784890151615921601f891682615701565b8355505b6001600288020188555050505b505050505050565b7f4e6f20616374697669747920666f756e642e0000000000000000000000000000600082015250565b6000615970601283614988565b915061597b8261593a565b602082019050919050565b6000602082019050818103600083015261599f81615963565b9050919050565b600060a08201905081810360008301526159c08188614999565b905081810360208301526159d48187614999565b90506159e360408301866142ba565b6159f060608301856142ba565b6159fd60808301846142ba565b9695505050505050565b7f476f616c2068617320737461727465642e000000000000000000000000000000600082015250565b6000615a3d601183614988565b9150615a4882615a07565b602082019050919050565b60006020820190508181036000830152615a6c81615a30565b9050919050565b7f476f616c2068617320657870697265642e000000000000000000000000000000600082015250565b6000615aa9601183614988565b9150615ab482615a73565b602082019050919050565b60006020820190508181036000830152615ad881615a9c565b9050919050565b7f4d757374207374616b6520746f206a6f696e20676f616c2e0000000000000000600082015250565b6000615b15601883614988565b9150615b2082615adf565b602082019050919050565b60006020820190508181036000830152615b4481615b08565b9050919050565b7f416c72656164792070617274696369706174656420696e20676f616c2e000000600082015250565b6000615b81601d83614988565b9150615b8c82615b4b565b602082019050919050565b60006020820190508181036000830152615bb081615b74565b9050919050565b6000615bc2826142b0565b915060008203615bd557615bd46152dd565b5b600182039050919050565b6000615beb826142b0565b9150615bf6836142b0565b9250828202615c04816142b0565b91508282048414831517615c1b57615c1a6152dd565b5b5092915050565b7f4e487b7100000000000000000000000000000000000000000000000000000000600052601260045260246000fd5b6000615c5c826142b0565b9150615c67836142b0565b925082615c7757615c76615c22565b5b828204905092915050565b7f52657175657374206e6f7420666f756e64000000000000000000000000000000600082015250565b6000615cb8601183614988565b9150615cc382615c82565b602082019050919050565b60006020820190508181036000830152615ce781615cab565b9050919050565b60006060820190508181036000830152615d088186614999565b90508181036020830152615d1c8185614641565b90508181036040830152615d308184614641565b9050949350505050565b600061ffff82169050919050565b615d5181615d3a565b82525050565b600063ffffffff82169050919050565b615d7081615d57565b82525050565b600060a082019050615d8b6000830188614365565b8181036020830152615d9d8187614641565b9050615dac6040830186615d48565b615db96060830185615d67565b615dc66080830184614929565b9695505050505050565b600081519050615ddf81614399565b92915050565b600060208284031215615dfb57615dfa6142ee565b5b6000615e0984828501615dd0565b91505092915050565b6000615e1d826142b0565b9150615e28836142b0565b925082615e3857615e37615c22565b5b828206905092915050565b60008160011c9050919050565b6000808291508390505b6001851115615e9a57808604811115615e7657615e756152dd565b5b6001851615615e855780820291505b8081029050615e9385615e43565b9450615e5a565b94509492505050565b600082615eb35760019050615f6f565b81615ec15760009050615f6f565b8160018114615ed75760028114615ee157615f10565b6001915050615f6f565b60ff841115615ef357615ef26152dd565b5b8360020a915084821115615f0a57615f096152dd565b5b50615f6f565b5060208310610133831016604e8410600b8410161715615f455782820a905083811115615f4057615f3f6152dd565b5b615f6f565b615f528484846001615e50565b92509050818404811115615f6957615f686152dd565b5b81810290505b9392505050565b6000615f81826142b0565b9150615f8c836142b0565b9250615fb97fffffffffffffffffffffffffffffffffffffffffffffffffffffffffffffffff8484615ea3565b90509291505056fea2646970667358221220e636e0773366e6dbd482650eb8b161c1d99393077e2f43724a393148bda3371c64736f6c63430008140033",
    "linkReferences": {},
    "deployedLinkReferences": {}
}