{
  "_format": "hh-sol-artifact-1",
  "contractName": "StravaConsumer",
  "sourceName": "contracts/StravaConsumer.sol",
  "abi": [
    {
      "inputs": [
        {
          "internalType": "uint64",
          "name": "functionsSubscriptionId",
          "type": "uint64"
        },
        {
          "internalType": "string",
          "name": "_source",
          "type": "string"
        }
      ],
      "stateMutability": "nonpayable",
      "type": "constructor"
    },
    {
      "inputs": [],
      "name": "EmptyArgs",
      "type": "error"
    },
    {
      "inputs": [],
      "name": "EmptySource",
      "type": "error"
    },
    {
      "inputs": [],
      "name": "NoInlineSecrets",
      "type": "error"
    },
    {
      "inputs": [],
      "name": "OnlyRouterCanFulfill",
      "type": "error"
    },
    {
      "anonymous": false,
      "inputs": [
        {
          "indexed": true,
          "internalType": "address",
          "name": "previousOwner",
          "type": "address"
        },
        {
          "indexed": true,
          "internalType": "address",
          "name": "newOwner",
          "type": "address"
        }
      ],
      "name": "OwnershipTransferred",
      "type": "event"
    },
    {
      "anonymous": false,
      "inputs": [
        {
          "indexed": true,
          "internalType": "bytes32",
          "name": "id",
          "type": "bytes32"
        }
      ],
      "name": "RequestFulfilled",
      "type": "event"
    },
    {
      "anonymous": false,
      "inputs": [
        {
          "indexed": true,
          "internalType": "bytes32",
          "name": "id",
          "type": "bytes32"
        }
      ],
      "name": "RequestSent",
      "type": "event"
    },
    {
      "anonymous": false,
      "inputs": [
        {
          "indexed": true,
          "internalType": "bytes32",
          "name": "requestId",
          "type": "bytes32"
        },
        {
          "indexed": false,
          "internalType": "string",
          "name": "activityType",
          "type": "string"
        }
      ],
      "name": "RequestSent",
      "type": "event"
    },
    {
      "anonymous": false,
      "inputs": [
        {
          "indexed": true,
          "internalType": "bytes32",
          "name": "requestId",
          "type": "bytes32"
        },
        {
          "indexed": false,
          "internalType": "string",
          "name": "activityData",
          "type": "string"
        },
        {
          "indexed": false,
          "internalType": "bytes",
          "name": "response",
          "type": "bytes"
        },
        {
          "indexed": false,
          "internalType": "bytes",
          "name": "err",
          "type": "bytes"
        }
      ],
      "name": "Response",
      "type": "event"
    },
    {
      "inputs": [
        {
          "internalType": "bytes32",
          "name": "",
          "type": "bytes32"
        }
      ],
      "name": "activities",
      "outputs": [
        {
          "internalType": "string",
          "name": "activityType",
          "type": "string"
        },
        {
          "internalType": "string",
          "name": "activityData",
          "type": "string"
        }
      ],
      "stateMutability": "view",
      "type": "function"
    },
    {
      "inputs": [],
      "name": "getLastActivity",
      "outputs": [
        {
          "components": [
            {
              "internalType": "string",
              "name": "activityType",
              "type": "string"
            },
            {
              "internalType": "string",
              "name": "activityData",
              "type": "string"
            }
          ],
          "internalType": "struct StravaConsumer.ActivityStruct",
          "name": "",
          "type": "tuple"
        }
      ],
      "stateMutability": "view",
      "type": "function"
    },
    {
      "inputs": [
        {
          "internalType": "string",
          "name": "accessToken",
          "type": "string"
        },
        {
          "internalType": "string",
          "name": "activityType",
          "type": "string"
        }
      ],
      "name": "getStravaActivity",
      "outputs": [
        {
          "internalType": "bytes32",
          "name": "requestId",
          "type": "bytes32"
        }
      ],
      "stateMutability": "nonpayable",
      "type": "function"
    },
    {
      "inputs": [
        {
          "internalType": "bytes32",
          "name": "requestId",
          "type": "bytes32"
        },
        {
          "internalType": "bytes",
          "name": "response",
          "type": "bytes"
        },
        {
          "internalType": "bytes",
          "name": "err",
          "type": "bytes"
        }
      ],
      "name": "handleOracleFulfillment",
      "outputs": [],
      "stateMutability": "nonpayable",
      "type": "function"
    },
    {
      "inputs": [],
      "name": "lastError",
      "outputs": [
        {
          "internalType": "bytes",
          "name": "",
          "type": "bytes"
        }
      ],
      "stateMutability": "view",
      "type": "function"
    },
    {
      "inputs": [],
      "name": "lastRequestId",
      "outputs": [
        {
          "internalType": "bytes32",
          "name": "",
          "type": "bytes32"
        }
      ],
      "stateMutability": "view",
      "type": "function"
    },
    {
      "inputs": [],
      "name": "lastResponse",
      "outputs": [
        {
          "internalType": "bytes",
          "name": "",
          "type": "bytes"
        }
      ],
      "stateMutability": "view",
      "type": "function"
    },
    {
      "inputs": [],
      "name": "owner",
      "outputs": [
        {
          "internalType": "address",
          "name": "",
          "type": "address"
        }
      ],
      "stateMutability": "view",
      "type": "function"
    },
    {
      "inputs": [],
      "name": "renounceOwnership",
      "outputs": [],
      "stateMutability": "nonpayable",
      "type": "function"
    },
    {
      "inputs": [
        {
          "internalType": "uint256",
          "name": "",
          "type": "uint256"
        }
      ],
      "name": "requestIds",
      "outputs": [
        {
          "internalType": "bytes32",
          "name": "",
          "type": "bytes32"
        }
      ],
      "stateMutability": "view",
      "type": "function"
    },
    {
      "inputs": [
        {
          "internalType": "bytes32",
          "name": "",
          "type": "bytes32"
        }
      ],
      "name": "requests",
      "outputs": [
        {
          "internalType": "bool",
          "name": "fulfilled",
          "type": "bool"
        },
        {
          "internalType": "bool",
          "name": "exists",
          "type": "bool"
        },
        {
          "internalType": "bytes",
          "name": "response",
          "type": "bytes"
        },
        {
          "internalType": "bytes",
          "name": "err",
          "type": "bytes"
        }
      ],
      "stateMutability": "view",
      "type": "function"
    },
    {
      "inputs": [
        {
          "internalType": "string",
          "name": "_source",
          "type": "string"
        }
      ],
      "name": "setSource",
      "outputs": [],
      "stateMutability": "nonpayable",
      "type": "function"
    },
    {
      "inputs": [],
      "name": "source",
      "outputs": [
        {
          "internalType": "string",
          "name": "",
          "type": "string"
        }
      ],
      "stateMutability": "view",
      "type": "function"
    },
    {
      "inputs": [],
      "name": "subscriptionId",
      "outputs": [
        {
          "internalType": "uint64",
          "name": "",
          "type": "uint64"
        }
      ],
      "stateMutability": "view",
      "type": "function"
    },
    {
      "inputs": [
        {
          "internalType": "address",
          "name": "newOwner",
          "type": "address"
        }
      ],
      "name": "transferOwnership",
      "outputs": [],
      "stateMutability": "nonpayable",
      "type": "function"
    }
  ],
  "bytecode": "0x60a060405273b83e47c2bc239b3bf370bc41e1459a34b41238d0600760006101000a81548173ffffffffffffffffffffffffffffffffffffffff021916908373ffffffffffffffffffffffffffffffffffffffff1602179055507f66756e2d657468657265756d2d7365706f6c69612d310000000000000000000060001b600855620493e0600960006101000a81548163ffffffff021916908363ffffffff160217905550348015620000b157600080fd5b50604051620036fe380380620036fe8339818101604052810190620000d7919062000436565b600760009054906101000a900473ffffffffffffffffffffffffffffffffffffffff166200011a6200010e6200019260201b60201c565b6200019a60201b60201c565b8073ffffffffffffffffffffffffffffffffffffffff1660808173ffffffffffffffffffffffffffffffffffffffff16815250505081600960046101000a81548167ffffffffffffffff021916908367ffffffffffffffff16021790555080600a9081620001899190620006e7565b505050620007ce565b600033905090565b60008060009054906101000a900473ffffffffffffffffffffffffffffffffffffffff169050816000806101000a81548173ffffffffffffffffffffffffffffffffffffffff021916908373ffffffffffffffffffffffffffffffffffffffff1602179055508173ffffffffffffffffffffffffffffffffffffffff168173ffffffffffffffffffffffffffffffffffffffff167f8be0079c531659141344cd1fd0a4f28419497f9722a3daafe3b4186f6b6457e060405160405180910390a35050565b6000604051905090565b600080fd5b600080fd5b600067ffffffffffffffff82169050919050565b620002918162000272565b81146200029d57600080fd5b50565b600081519050620002b18162000286565b92915050565b600080fd5b600080fd5b6000601f19601f8301169050919050565b7f4e487b7100000000000000000000000000000000000000000000000000000000600052604160045260246000fd5b6200030c82620002c1565b810181811067ffffffffffffffff821117156200032e576200032d620002d2565b5b80604052505050565b6000620003436200025e565b905062000351828262000301565b919050565b600067ffffffffffffffff821115620003745762000373620002d2565b5b6200037f82620002c1565b9050602081019050919050565b60005b83811015620003ac5780820151818401526020810190506200038f565b60008484015250505050565b6000620003cf620003c98462000356565b62000337565b905082815260208101848484011115620003ee57620003ed620002bc565b5b620003fb8482856200038c565b509392505050565b600082601f8301126200041b576200041a620002b7565b5b81516200042d848260208601620003b8565b91505092915050565b6000806040838503121562000450576200044f62000268565b5b60006200046085828601620002a0565b925050602083015167ffffffffffffffff8111156200048457620004836200026d565b5b620004928582860162000403565b9150509250929050565b600081519050919050565b7f4e487b7100000000000000000000000000000000000000000000000000000000600052602260045260246000fd5b60006002820490506001821680620004ef57607f821691505b602082108103620005055762000504620004a7565b5b50919050565b60008190508160005260206000209050919050565b60006020601f8301049050919050565b600082821b905092915050565b6000600883026200056f7fffffffffffffffffffffffffffffffffffffffffffffffffffffffffffffffff8262000530565b6200057b868362000530565b95508019841693508086168417925050509392505050565b6000819050919050565b6000819050919050565b6000620005c8620005c2620005bc8462000593565b6200059d565b62000593565b9050919050565b6000819050919050565b620005e483620005a7565b620005fc620005f382620005cf565b8484546200053d565b825550505050565b600090565b6200061362000604565b62000620818484620005d9565b505050565b5b8181101562000648576200063c60008262000609565b60018101905062000626565b5050565b601f821115620006975762000661816200050b565b6200066c8462000520565b810160208510156200067c578190505b620006946200068b8562000520565b83018262000625565b50505b505050565b600082821c905092915050565b6000620006bc600019846008026200069c565b1980831691505092915050565b6000620006d78383620006a9565b9150826002028217905092915050565b620006f2826200049c565b67ffffffffffffffff8111156200070e576200070d620002d2565b5b6200071a8254620004d6565b620007278282856200064c565b600060209050601f8311600181146200075f57600084156200074a578287015190505b620007568582620006c9565b865550620007c6565b601f1984166200076f866200050b565b60005b82811015620007995784890151825560018201915060208501945060208101905062000772565b86831015620007b95784890151620007b5601f891682620006a9565b8355505b6001600288020188555050505b505050505050565b608051612f0d620007f16000396000818161030a015261152b0152612f0d6000f3fe608060405234801561001057600080fd5b50600436106100f55760003560e01c80637e2f0e161161009757806399d254551161006657806399d25455146102655780639d86698514610281578063f2fde38b146102b4578063fc2a88c3146102d0576100f5565b80637e2f0e16146101c95780638796ba8c146101e75780638da5cb5b14610217578063962a81c814610235576100f5565b806362747e42116100d357806362747e421461015257806367e828bf14610170578063715018a61461018e5780637922f42614610198576100f5565b806309c1ba2e146100fa5780630ca761751461011857806329f0de3f14610134575b600080fd5b6101026102ee565b60405161010f9190611d1f565b60405180910390f35b610132600480360381019061012d9190611eca565b610308565b005b61013c6103ca565b6040516101499190611fd4565b60405180910390f35b61015a610458565b6040516101679190611fd4565b60405180910390f35b6101786104e6565b604051610185919061204b565b60405180910390f35b610196610574565b005b6101b260048036038101906101ad919061206d565b610588565b6040516101c092919061209a565b60405180910390f35b6101d16106bc565b6040516101de919061215f565b60405180910390f35b61020160048036038101906101fc91906121b7565b610882565b60405161020e91906121f3565b60405180910390f35b61021f6108a6565b60405161022c919061224f565b60405180910390f35b61024f600480360381019061024a919061230b565b6108cf565b60405161025c91906121f3565b60405180910390f35b61027f600480360381019061027a9190612383565b610c0d565b005b61029b6004803603810190610296919061206d565b610c28565b6040516102ab94939291906123e7565b60405180910390f35b6102ce60048036038101906102c99190612466565b610d82565b005b6102d8610e05565b6040516102e591906121f3565b60405180910390f35b600960049054906101000a900467ffffffffffffffff1681565b7f000000000000000000000000000000000000000000000000000000000000000073ffffffffffffffffffffffffffffffffffffffff163373ffffffffffffffffffffffffffffffffffffffff161461038d576040517fc6829f8300000000000000000000000000000000000000000000000000000000815260040160405180910390fd5b610398838383610e0b565b827f85e1543bf2f84fe80c6badbce3648c8539ad1df4d2b3d822938ca0538be727e660405160405180910390a2505050565b600380546103d7906124c2565b80601f0160208091040260200160405190810160405280929190818152602001828054610403906124c2565b80156104505780601f1061042557610100808354040283529160200191610450565b820191906000526020600020905b81548152906001019060200180831161043357829003601f168201915b505050505081565b60028054610465906124c2565b80601f0160208091040260200160405190810160405280929190818152602001828054610491906124c2565b80156104de5780601f106104b3576101008083540402835291602001916104de565b820191906000526020600020905b8154815290600101906020018083116104c157829003601f168201915b505050505081565b600a80546104f3906124c2565b80601f016020809104026020016040519081016040528092919081815260200182805461051f906124c2565b801561056c5780601f106105415761010080835404028352916020019161056c565b820191906000526020600020905b81548152906001019060200180831161054f57829003601f168201915b505050505081565b61057c610f7b565b6105866000610ff9565b565b60056020528060005260406000206000915090508060000180546105ab906124c2565b80601f01602080910402602001604051908101604052809291908181526020018280546105d7906124c2565b80156106245780601f106105f957610100808354040283529160200191610624565b820191906000526020600020905b81548152906001019060200180831161060757829003601f168201915b505050505090806001018054610639906124c2565b80601f0160208091040260200160405190810160405280929190818152602001828054610665906124c2565b80156106b25780601f10610687576101008083540402835291602001916106b2565b820191906000526020600020905b81548152906001019060200180831161069557829003601f168201915b5050505050905082565b6106c4611c36565b60006006805490501161070c576040517f08c379a00000000000000000000000000000000000000000000000000000000081526004016107039061253f565b60405180910390fd5b6005600060066001600680549050610724919061258e565b81548110610735576107346125c2565b5b90600052602060002001548152602001908152602001600020604051806040016040529081600082018054610769906124c2565b80601f0160208091040260200160405190810160405280929190818152602001828054610795906124c2565b80156107e25780601f106107b7576101008083540402835291602001916107e2565b820191906000526020600020905b8154815290600101906020018083116107c557829003601f168201915b505050505081526020016001820180546107fb906124c2565b80601f0160208091040260200160405190810160405280929190818152602001828054610827906124c2565b80156108745780601f1061084957610100808354040283529160200191610874565b820191906000526020600020905b81548152906001019060200180831161085757829003601f168201915b505050505081525050905090565b6006818154811061089257600080fd5b906000526020600020016000915090505481565b60008060009054906101000a900473ffffffffffffffffffffffffffffffffffffffff16905090565b600080600267ffffffffffffffff8111156108ed576108ec611d9f565b5b60405190808252806020026020018201604052801561092057816020015b606081526020019060019003908161090b5790505b5090508381600081518110610938576109376125c2565b5b60200260200101819052508281600181518110610958576109576125c2565b5b602002602001018190525061096b611c50565b610a08600a805461097b906124c2565b80601f01602080910402602001604051908101604052809291908181526020018280546109a7906124c2565b80156109f45780601f106109c9576101008083540402835291602001916109f4565b820191906000526020600020905b8154815290600101906020018083116109d757829003601f168201915b5050505050826110bd90919063ffffffff16565b600082511115610a2657610a2582826110ce90919063ffffffff16565b5b610a64610a3282611116565b600960049054906101000a900467ffffffffffffffff16600960009054906101000a900463ffffffff16600854611526565b6001819055506040518060400160405280858152602001604051806020016040528060008152508152506005600060015481526020019081526020016000206000820151816000019081610ab8919061279d565b506020820151816001019081610ace919061279d565b5090505060405180608001604052806000151581526020016001151581526020016040518060200160405280600081525081526020016040518060200160405280600081525081525060046000600154815260200190815260200160002060008201518160000160006101000a81548160ff02191690831515021790555060208201518160000160016101000a81548160ff0219169083151502179055506040820151816001019081610b8191906128ca565b506060820151816002019081610b9791906128ca565b50905050600660015490806001815401808255809150506001900390600052602060002001600090919091909150556001547f88174de6a46a917320f5e3f37cf87c63bb0a0b6ba316948e048c3adef3a9cbff85604051610bf8919061204b565b60405180910390a26001549250505092915050565b610c15610f7b565b80600a9081610c24919061279d565b5050565b60046020528060005260406000206000915090508060000160009054906101000a900460ff16908060000160019054906101000a900460ff1690806001018054610c71906124c2565b80601f0160208091040260200160405190810160405280929190818152602001828054610c9d906124c2565b8015610cea5780601f10610cbf57610100808354040283529160200191610cea565b820191906000526020600020905b815481529060010190602001808311610ccd57829003601f168201915b505050505090806002018054610cff906124c2565b80601f0160208091040260200160405190810160405280929190818152602001828054610d2b906124c2565b8015610d785780601f10610d4d57610100808354040283529160200191610d78565b820191906000526020600020905b815481529060010190602001808311610d5b57829003601f168201915b5050505050905084565b610d8a610f7b565b600073ffffffffffffffffffffffffffffffffffffffff168173ffffffffffffffffffffffffffffffffffffffff1603610df9576040517f08c379a0000000000000000000000000000000000000000000000000000000008152600401610df090612a0e565b60405180910390fd5b610e0281610ff9565b50565b60015481565b6004600084815260200190815260200160002060000160019054906101000a900460ff16610e6e576040517f08c379a0000000000000000000000000000000000000000000000000000000008152600401610e6590612a7a565b60405180910390fd5b8060039081610e7d91906128ca565b508160029081610e8d91906128ca565b50600082511115610ec357600060056000858152602001908152602001600020905082816001019081610ec0919061279d565b50505b60016004600085815260200190815260200160002060000160006101000a81548160ff02191690831515021790555081600460008581526020019081526020016000206001019081610f1591906128ca565b5080600460008581526020019081526020016000206002019081610f3991906128ca565b50827f160ed0aaffbef6885155188b91459cb5a97d5daadccf7561d8c46deea6641b50838484604051610f6e93929190612a9a565b60405180910390a2505050565b610f83611609565b73ffffffffffffffffffffffffffffffffffffffff16610fa16108a6565b73ffffffffffffffffffffffffffffffffffffffff1614610ff7576040517f08c379a0000000000000000000000000000000000000000000000000000000008152600401610fee90612b32565b60405180910390fd5b565b60008060009054906101000a900473ffffffffffffffffffffffffffffffffffffffff169050816000806101000a81548173ffffffffffffffffffffffffffffffffffffffff021916908373ffffffffffffffffffffffffffffffffffffffff1602179055508173ffffffffffffffffffffffffffffffffffffffff168173ffffffffffffffffffffffffffffffffffffffff167f8be0079c531659141344cd1fd0a4f28419497f9722a3daafe3b4186f6b6457e060405160405180910390a35050565b6110ca8260008084611611565b5050565b6000815103611109576040517ffe936cb700000000000000000000000000000000000000000000000000000000815260040160405180910390fd5b808260a001819052505050565b606060006111256101006116bb565b905061116f6040518060400160405280600c81526020017f636f64654c6f636174696f6e0000000000000000000000000000000000000000815250826116e290919063ffffffff16565b6111988360000151600281111561118957611188612b52565b5b8261170b90919063ffffffff16565b6111e06040518060400160405280600881526020017f6c616e6775616765000000000000000000000000000000000000000000000000815250826116e290919063ffffffff16565b611209836040015160008111156111fa576111f9612b52565b5b8261170b90919063ffffffff16565b6112516040518060400160405280600681526020017f736f757263650000000000000000000000000000000000000000000000000000815250826116e290919063ffffffff16565b6112688360600151826116e290919063ffffffff16565b60008360a0015151111561131e576112be6040518060400160405280600481526020017f6172677300000000000000000000000000000000000000000000000000000000815250826116e290919063ffffffff16565b6112c78161175b565b60005b8360a0015151811015611313576113088460a0015182815181106112f1576112f06125c2565b5b6020026020010151836116e290919063ffffffff16565b8060010190506112ca565b5061131d81611783565b5b6000836080015151111561145f57600060028111156113405761133f612b52565b5b8360200151600281111561135757611356612b52565b5b0361138e576040517fa80d31f700000000000000000000000000000000000000000000000000000000815260040160405180910390fd5b6113d66040518060400160405280600f81526020017f736563726574734c6f636174696f6e0000000000000000000000000000000000815250826116e290919063ffffffff16565b6113ff836020015160028111156113f0576113ef612b52565b5b8261170b90919063ffffffff16565b6114476040518060400160405280600781526020017f7365637265747300000000000000000000000000000000000000000000000000815250826116e290919063ffffffff16565b61145e8360800151826117ab90919063ffffffff16565b5b60008360c00151511115611515576114b56040518060400160405280600981526020017f6279746573417267730000000000000000000000000000000000000000000000815250826116e290919063ffffffff16565b6114be8161175b565b60005b8360c001515181101561150a576114ff8460c0015182815181106114e8576114e76125c2565b5b6020026020010151836117ab90919063ffffffff16565b8060010190506114c1565b5061151481611783565b5b806000015160000151915050919050565b6000807f000000000000000000000000000000000000000000000000000000000000000073ffffffffffffffffffffffffffffffffffffffff1663461d27628688600188886040518663ffffffff1660e01b815260040161158b959493929190612bbd565b6020604051808303816000875af11580156115aa573d6000803e3d6000fd5b505050506040513d601f19601f820116820180604052508101906115ce9190612c2c565b9050807f1131472297a800fee664d1d89cfa8f7676ff07189ecc53f80bbb5f4969099db860405160405180910390a280915050949350505050565b600033905090565b600081510361164c576040517f22ce3edd00000000000000000000000000000000000000000000000000000000815260040160405180910390fd5b828460000190600281111561166457611663612b52565b5b9081600281111561167857611677612b52565b5b81525050818460400190600081111561169457611693612b52565b5b908160008111156116a8576116a7612b52565b5b8152505080846060018190525050505050565b6116c3611cc2565b6116d18160000151836117d4565b506000816020018181525050919050565b6116ef826003835161184d565b6117068183600001516119f690919063ffffffff16565b505050565b61172d60026005600660ff16901b178360000151611a1290919063ffffffff16565b5061175782826040516020016117439190612c68565b6040516020818303038152906040526117ab565b5050565b611766816004611a7c565b6001816020018181516117799190612c83565b9150818152505050565b61178e816007611a7c565b6001816020018181516117a1919061258e565b9150818152505050565b6117b8826002835161184d565b6117cf8183600001516119f690919063ffffffff16565b505050565b6117dc611ce2565b60006020836117eb9190612ce6565b14611817576020826117fd9190612ce6565b6020611809919061258e565b826118149190612c83565b91505b81836020018181525050604051808452600081528281016020018181101561183e57600080fd5b80604052505082905092915050565b60178167ffffffffffffffff1611611888576118828160058460ff16901b60ff16178460000151611a1290919063ffffffff16565b506119f1565b60ff8167ffffffffffffffff16116118e6576118bb601860058460ff16901b178460000151611a1290919063ffffffff16565b506118e08167ffffffffffffffff1660018560000151611aa29092919063ffffffff16565b506119f0565b61ffff8167ffffffffffffffff16116119455761191a601960058460ff16901b178460000151611a1290919063ffffffff16565b5061193f8167ffffffffffffffff1660028560000151611aa29092919063ffffffff16565b506119ef565b63ffffffff8167ffffffffffffffff16116119a65761197b601a60058460ff16901b178460000151611a1290919063ffffffff16565b506119a08167ffffffffffffffff1660048560000151611aa29092919063ffffffff16565b506119ee565b6119c7601b60058460ff16901b178460000151611a1290919063ffffffff16565b506119ec8167ffffffffffffffff1660088560000151611aa29092919063ffffffff16565b505b5b5b5b505050565b6119fe611ce2565b611a0a83838451611b2f565b905092915050565b611a1a611ce2565b600083600001515190506000600182611a339190612c83565b905084602001518210611a5757611a5685600283611a519190612d17565b611c12565b5b84516020838201018581538151831115611a6f578282525b5050849250505092915050565b611a9d601f60058360ff16901b178360000151611a1290919063ffffffff16565b505050565b611aaa611ce2565b6000846000015151905060008184611ac29190612c83565b90508560200151811115611ae757611ae686600283611ae19190612d17565b611c12565b5b6000600185610100611af99190612e8c565b611b03919061258e565b905086518281018783198251161781528151841115611b20578382525b50508693505050509392505050565b611b37611ce2565b8251821115611b4557600080fd5b6000846000015151905060008382611b5d9190612c83565b90508560200151811115611b8257611b8186600283611b7c9190612d17565b611c12565b5b60008087518051856020830101935080851115611b9d578482525b60208901925050505b60208610611be45780518252602082611bbf9190612c83565b9150602081611bce9190612c83565b9050602086611bdd919061258e565b9550611ba6565b60006001876020036101000a0390508019825116818451168181178552505050879450505050509392505050565b600082600001519050611c2583836117d4565b50611c3083826119f6565b50505050565b604051806040016040528060608152602001606081525090565b6040518060e0016040528060006002811115611c6f57611c6e612b52565b5b815260200160006002811115611c8857611c87612b52565b5b8152602001600080811115611ca057611c9f612b52565b5b8152602001606081526020016060815260200160608152602001606081525090565b6040518060400160405280611cd5611ce2565b8152602001600081525090565b604051806040016040528060608152602001600081525090565b600067ffffffffffffffff82169050919050565b611d1981611cfc565b82525050565b6000602082019050611d346000830184611d10565b92915050565b6000604051905090565b600080fd5b600080fd5b6000819050919050565b611d6181611d4e565b8114611d6c57600080fd5b50565b600081359050611d7e81611d58565b92915050565b600080fd5b600080fd5b6000601f19601f8301169050919050565b7f4e487b7100000000000000000000000000000000000000000000000000000000600052604160045260246000fd5b611dd782611d8e565b810181811067ffffffffffffffff82111715611df657611df5611d9f565b5b80604052505050565b6000611e09611d3a565b9050611e158282611dce565b919050565b600067ffffffffffffffff821115611e3557611e34611d9f565b5b611e3e82611d8e565b9050602081019050919050565b82818337600083830152505050565b6000611e6d611e6884611e1a565b611dff565b905082815260208101848484011115611e8957611e88611d89565b5b611e94848285611e4b565b509392505050565b600082601f830112611eb157611eb0611d84565b5b8135611ec1848260208601611e5a565b91505092915050565b600080600060608486031215611ee357611ee2611d44565b5b6000611ef186828701611d6f565b935050602084013567ffffffffffffffff811115611f1257611f11611d49565b5b611f1e86828701611e9c565b925050604084013567ffffffffffffffff811115611f3f57611f3e611d49565b5b611f4b86828701611e9c565b9150509250925092565b600081519050919050565b600082825260208201905092915050565b60005b83811015611f8f578082015181840152602081019050611f74565b60008484015250505050565b6000611fa682611f55565b611fb08185611f60565b9350611fc0818560208601611f71565b611fc981611d8e565b840191505092915050565b60006020820190508181036000830152611fee8184611f9b565b905092915050565b600081519050919050565b600082825260208201905092915050565b600061201d82611ff6565b6120278185612001565b9350612037818560208601611f71565b61204081611d8e565b840191505092915050565b600060208201905081810360008301526120658184612012565b905092915050565b60006020828403121561208357612082611d44565b5b600061209184828501611d6f565b91505092915050565b600060408201905081810360008301526120b48185612012565b905081810360208301526120c88184612012565b90509392505050565b600082825260208201905092915050565b60006120ed82611ff6565b6120f781856120d1565b9350612107818560208601611f71565b61211081611d8e565b840191505092915050565b6000604083016000830151848203600086015261213882826120e2565b9150506020830151848203602086015261215282826120e2565b9150508091505092915050565b60006020820190508181036000830152612179818461211b565b905092915050565b6000819050919050565b61219481612181565b811461219f57600080fd5b50565b6000813590506121b18161218b565b92915050565b6000602082840312156121cd576121cc611d44565b5b60006121db848285016121a2565b91505092915050565b6121ed81611d4e565b82525050565b600060208201905061220860008301846121e4565b92915050565b600073ffffffffffffffffffffffffffffffffffffffff82169050919050565b60006122398261220e565b9050919050565b6122498161222e565b82525050565b60006020820190506122646000830184612240565b92915050565b600067ffffffffffffffff82111561228557612284611d9f565b5b61228e82611d8e565b9050602081019050919050565b60006122ae6122a98461226a565b611dff565b9050828152602081018484840111156122ca576122c9611d89565b5b6122d5848285611e4b565b509392505050565b600082601f8301126122f2576122f1611d84565b5b813561230284826020860161229b565b91505092915050565b6000806040838503121561232257612321611d44565b5b600083013567ffffffffffffffff8111156123405761233f611d49565b5b61234c858286016122dd565b925050602083013567ffffffffffffffff81111561236d5761236c611d49565b5b612379858286016122dd565b9150509250929050565b60006020828403121561239957612398611d44565b5b600082013567ffffffffffffffff8111156123b7576123b6611d49565b5b6123c3848285016122dd565b91505092915050565b60008115159050919050565b6123e1816123cc565b82525050565b60006080820190506123fc60008301876123d8565b61240960208301866123d8565b818103604083015261241b8185611f9b565b9050818103606083015261242f8184611f9b565b905095945050505050565b6124438161222e565b811461244e57600080fd5b50565b6000813590506124608161243a565b92915050565b60006020828403121561247c5761247b611d44565b5b600061248a84828501612451565b91505092915050565b7f4e487b7100000000000000000000000000000000000000000000000000000000600052602260045260246000fd5b600060028204905060018216806124da57607f821691505b6020821081036124ed576124ec612493565b5b50919050565b7f4e6f206163746976697469657320666f756e6400000000000000000000000000600082015250565b6000612529601383612001565b9150612534826124f3565b602082019050919050565b600060208201905081810360008301526125588161251c565b9050919050565b7f4e487b7100000000000000000000000000000000000000000000000000000000600052601160045260246000fd5b600061259982612181565b91506125a483612181565b92508282039050818111156125bc576125bb61255f565b5b92915050565b7f4e487b7100000000000000000000000000000000000000000000000000000000600052603260045260246000fd5b60008190508160005260206000209050919050565b60006020601f8301049050919050565b600082821b905092915050565b6000600883026126537fffffffffffffffffffffffffffffffffffffffffffffffffffffffffffffffff82612616565b61265d8683612616565b95508019841693508086168417925050509392505050565b6000819050919050565b600061269a61269561269084612181565b612675565b612181565b9050919050565b6000819050919050565b6126b48361267f565b6126c86126c0826126a1565b848454612623565b825550505050565b600090565b6126dd6126d0565b6126e88184846126ab565b505050565b5b8181101561270c576127016000826126d5565b6001810190506126ee565b5050565b601f82111561275157612722816125f1565b61272b84612606565b8101602085101561273a578190505b61274e61274685612606565b8301826126ed565b50505b505050565b600082821c905092915050565b600061277460001984600802612756565b1980831691505092915050565b600061278d8383612763565b9150826002028217905092915050565b6127a682611ff6565b67ffffffffffffffff8111156127bf576127be611d9f565b5b6127c982546124c2565b6127d4828285612710565b600060209050601f83116001811461280757600084156127f5578287015190505b6127ff8582612781565b865550612867565b601f198416612815866125f1565b60005b8281101561283d57848901518255600182019150602085019450602081019050612818565b8683101561285a5784890151612856601f891682612763565b8355505b6001600288020188555050505b505050505050565b60008190508160005260206000209050919050565b601f8211156128c5576128968161286f565b61289f84612606565b810160208510156128ae578190505b6128c26128ba85612606565b8301826126ed565b50505b505050565b6128d382611f55565b67ffffffffffffffff8111156128ec576128eb611d9f565b5b6128f682546124c2565b612901828285612884565b600060209050601f8311600181146129345760008415612922578287015190505b61292c8582612781565b865550612994565b601f1984166129428661286f565b60005b8281101561296a57848901518255600182019150602085019450602081019050612945565b868310156129875784890151612983601f891682612763565b8355505b6001600288020188555050505b505050505050565b7f4f776e61626c653a206e6577206f776e657220697320746865207a65726f206160008201527f6464726573730000000000000000000000000000000000000000000000000000602082015250565b60006129f8602683612001565b9150612a038261299c565b604082019050919050565b60006020820190508181036000830152612a27816129eb565b9050919050565b7f72657175657374206e6f7420666f756e64000000000000000000000000000000600082015250565b6000612a64601183612001565b9150612a6f82612a2e565b602082019050919050565b60006020820190508181036000830152612a9381612a57565b9050919050565b60006060820190508181036000830152612ab48186612012565b90508181036020830152612ac88185611f9b565b90508181036040830152612adc8184611f9b565b9050949350505050565b7f4f776e61626c653a2063616c6c6572206973206e6f7420746865206f776e6572600082015250565b6000612b1c602083612001565b9150612b2782612ae6565b602082019050919050565b60006020820190508181036000830152612b4b81612b0f565b9050919050565b7f4e487b7100000000000000000000000000000000000000000000000000000000600052602160045260246000fd5b600061ffff82169050919050565b612b9881612b81565b82525050565b600063ffffffff82169050919050565b612bb781612b9e565b82525050565b600060a082019050612bd26000830188611d10565b8181036020830152612be48187611f9b565b9050612bf36040830186612b8f565b612c006060830185612bae565b612c0d60808301846121e4565b9695505050505050565b600081519050612c2681611d58565b92915050565b600060208284031215612c4257612c41611d44565b5b6000612c5084828501612c17565b91505092915050565b612c6281612181565b82525050565b6000602082019050612c7d6000830184612c59565b92915050565b6000612c8e82612181565b9150612c9983612181565b9250828201905080821115612cb157612cb061255f565b5b92915050565b7f4e487b7100000000000000000000000000000000000000000000000000000000600052601260045260246000fd5b6000612cf182612181565b9150612cfc83612181565b925082612d0c57612d0b612cb7565b5b828206905092915050565b6000612d2282612181565b9150612d2d83612181565b9250828202612d3b81612181565b91508282048414831517612d5257612d5161255f565b5b5092915050565b60008160011c9050919050565b6000808291508390505b6001851115612db057808604811115612d8c57612d8b61255f565b5b6001851615612d9b5780820291505b8081029050612da985612d59565b9450612d70565b94509492505050565b600082612dc95760019050612e85565b81612dd75760009050612e85565b8160018114612ded5760028114612df757612e26565b6001915050612e85565b60ff841115612e0957612e0861255f565b5b8360020a915084821115612e2057612e1f61255f565b5b50612e85565b5060208310610133831016604e8410600b8410161715612e5b5782820a905083811115612e5657612e5561255f565b5b612e85565b612e688484846001612d66565b92509050818404811115612e7f57612e7e61255f565b5b81810290505b9392505050565b6000612e9782612181565b9150612ea283612181565b9250612ecf7fffffffffffffffffffffffffffffffffffffffffffffffffffffffffffffffff8484612db9565b90509291505056fea2646970667358221220ba2ca6a8fec788b9c71f8af82cb246854480708956a6879f18ea8d6b55f96a4c64736f6c63430008180033",
  "linkReferences": {},
  "deployedLinkReferences": {}
}