{
  "_format": "hh-sol-artifact-1",
  "contractName": "StravaConsumer",
  "sourceName": "contracts/StravaConsumer.sol",
  "abi": [
    {
      "inputs": [
        {
          "internalType": "uint64",
          "name": "functionsSubscriptionId",
          "type": "uint64"
        }
      ],
      "stateMutability": "nonpayable",
      "type": "constructor"
    },
    {
      "inputs": [],
      "name": "EmptyArgs",
      "type": "error"
    },
    {
      "inputs": [],
      "name": "EmptySource",
      "type": "error"
    },
    {
      "inputs": [],
      "name": "NoInlineSecrets",
      "type": "error"
    },
    {
      "inputs": [],
      "name": "OnlyRouterCanFulfill",
      "type": "error"
    },
    {
      "anonymous": false,
      "inputs": [
        {
          "indexed": true,
          "internalType": "bytes32",
          "name": "id",
          "type": "bytes32"
        }
      ],
      "name": "RequestFulfilled",
      "type": "event"
    },
    {
      "anonymous": false,
      "inputs": [
        {
          "indexed": true,
          "internalType": "bytes32",
          "name": "id",
          "type": "bytes32"
        }
      ],
      "name": "RequestSent",
      "type": "event"
    },
    {
      "anonymous": false,
      "inputs": [
        {
          "indexed": true,
          "internalType": "bytes32",
          "name": "requestId",
          "type": "bytes32"
        },
        {
          "indexed": false,
          "internalType": "string",
          "name": "activityType",
          "type": "string"
        }
      ],
      "name": "RequestSent",
      "type": "event"
    },
    {
      "anonymous": false,
      "inputs": [
        {
          "indexed": true,
          "internalType": "bytes32",
          "name": "requestId",
          "type": "bytes32"
        },
        {
          "indexed": false,
          "internalType": "string",
          "name": "activityData",
          "type": "string"
        },
        {
          "indexed": false,
          "internalType": "bytes",
          "name": "response",
          "type": "bytes"
        },
        {
          "indexed": false,
          "internalType": "bytes",
          "name": "err",
          "type": "bytes"
        }
      ],
      "name": "Response",
      "type": "event"
    },
    {
      "inputs": [
        {
          "internalType": "bytes32",
          "name": "",
          "type": "bytes32"
        }
      ],
      "name": "activities",
      "outputs": [
        {
          "internalType": "string",
          "name": "activityType",
          "type": "string"
        },
        {
          "internalType": "string",
          "name": "activityData",
          "type": "string"
        }
      ],
      "stateMutability": "view",
      "type": "function"
    },
    {
      "inputs": [],
      "name": "getLastActivity",
      "outputs": [
        {
          "components": [
            {
              "internalType": "string",
              "name": "activityType",
              "type": "string"
            },
            {
              "internalType": "string",
              "name": "activityData",
              "type": "string"
            }
          ],
          "internalType": "struct StravaConsumer.ActivityStruct",
          "name": "",
          "type": "tuple"
        }
      ],
      "stateMutability": "view",
      "type": "function"
    },
    {
      "inputs": [
        {
          "internalType": "string",
          "name": "accessToken",
          "type": "string"
        },
        {
          "internalType": "string",
          "name": "activityType",
          "type": "string"
        }
      ],
      "name": "getStravaActivity",
      "outputs": [
        {
          "internalType": "bytes32",
          "name": "requestId",
          "type": "bytes32"
        }
      ],
      "stateMutability": "nonpayable",
      "type": "function"
    },
    {
      "inputs": [
        {
          "internalType": "bytes32",
          "name": "requestId",
          "type": "bytes32"
        },
        {
          "internalType": "bytes",
          "name": "response",
          "type": "bytes"
        },
        {
          "internalType": "bytes",
          "name": "err",
          "type": "bytes"
        }
      ],
      "name": "handleOracleFulfillment",
      "outputs": [],
      "stateMutability": "nonpayable",
      "type": "function"
    },
    {
      "inputs": [],
      "name": "lastError",
      "outputs": [
        {
          "internalType": "bytes",
          "name": "",
          "type": "bytes"
        }
      ],
      "stateMutability": "view",
      "type": "function"
    },
    {
      "inputs": [],
      "name": "lastRequestId",
      "outputs": [
        {
          "internalType": "bytes32",
          "name": "",
          "type": "bytes32"
        }
      ],
      "stateMutability": "view",
      "type": "function"
    },
    {
      "inputs": [],
      "name": "lastResponse",
      "outputs": [
        {
          "internalType": "bytes",
          "name": "",
          "type": "bytes"
        }
      ],
      "stateMutability": "view",
      "type": "function"
    },
    {
      "inputs": [
        {
          "internalType": "uint256",
          "name": "",
          "type": "uint256"
        }
      ],
      "name": "requestIds",
      "outputs": [
        {
          "internalType": "bytes32",
          "name": "",
          "type": "bytes32"
        }
      ],
      "stateMutability": "view",
      "type": "function"
    },
    {
      "inputs": [
        {
          "internalType": "bytes32",
          "name": "",
          "type": "bytes32"
        }
      ],
      "name": "requests",
      "outputs": [
        {
          "internalType": "bool",
          "name": "fulfilled",
          "type": "bool"
        },
        {
          "internalType": "bool",
          "name": "exists",
          "type": "bool"
        },
        {
          "internalType": "bytes",
          "name": "response",
          "type": "bytes"
        },
        {
          "internalType": "bytes",
          "name": "err",
          "type": "bytes"
        }
      ],
      "stateMutability": "view",
      "type": "function"
    },
    {
      "inputs": [],
      "name": "source",
      "outputs": [
        {
          "internalType": "string",
          "name": "",
          "type": "string"
        }
      ],
      "stateMutability": "view",
      "type": "function"
    },
    {
      "inputs": [],
      "name": "subscriptionId",
      "outputs": [
        {
          "internalType": "uint64",
          "name": "",
          "type": "uint64"
        }
      ],
      "stateMutability": "view",
      "type": "function"
    }
  ],
  "bytecode": "0x60a060405273b83e47c2bc239b3bf370bc41e1459a34b41238d0600660006101000a81548173ffffffffffffffffffffffffffffffffffffffff021916908373ffffffffffffffffffffffffffffffffffffffff1602179055507f66756e2d657468657265756d2d7365706f6c69612d310000000000000000000060001b600755620493e0600860006101000a81548163ffffffff021916908363ffffffff160217905550604051806102e001604052806102b5815260200162002fcb6102b5913960099081620000d1919062000407565b50348015620000df57600080fd5b506040516200328038038062003280833981810160405281019062000105919062000538565b600660009054906101000a900473ffffffffffffffffffffffffffffffffffffffff168073ffffffffffffffffffffffffffffffffffffffff1660808173ffffffffffffffffffffffffffffffffffffffff16815250505080600860046101000a81548167ffffffffffffffff021916908367ffffffffffffffff160217905550506200056a565b600081519050919050565b7f4e487b7100000000000000000000000000000000000000000000000000000000600052604160045260246000fd5b7f4e487b7100000000000000000000000000000000000000000000000000000000600052602260045260246000fd5b600060028204905060018216806200020f57607f821691505b602082108103620002255762000224620001c7565b5b50919050565b60008190508160005260206000209050919050565b60006020601f8301049050919050565b600082821b905092915050565b6000600883026200028f7fffffffffffffffffffffffffffffffffffffffffffffffffffffffffffffffff8262000250565b6200029b868362000250565b95508019841693508086168417925050509392505050565b6000819050919050565b6000819050919050565b6000620002e8620002e2620002dc84620002b3565b620002bd565b620002b3565b9050919050565b6000819050919050565b6200030483620002c7565b6200031c6200031382620002ef565b8484546200025d565b825550505050565b600090565b6200033362000324565b62000340818484620002f9565b505050565b5b8181101562000368576200035c60008262000329565b60018101905062000346565b5050565b601f821115620003b75762000381816200022b565b6200038c8462000240565b810160208510156200039c578190505b620003b4620003ab8562000240565b83018262000345565b50505b505050565b600082821c905092915050565b6000620003dc60001984600802620003bc565b1980831691505092915050565b6000620003f78383620003c9565b9150826002028217905092915050565b62000412826200018d565b67ffffffffffffffff8111156200042e576200042d62000198565b5b6200043a8254620001f6565b620004478282856200036c565b600060209050601f8311600181146200047f57600084156200046a578287015190505b620004768582620003e9565b865550620004e6565b601f1984166200048f866200022b565b60005b82811015620004b95784890151825560018201915060208501945060208101905062000492565b86831015620004d95784890151620004d5601f891682620003c9565b8355505b6001600288020188555050505b505050505050565b600080fd5b600067ffffffffffffffff82169050919050565b6200051281620004f3565b81146200051e57600080fd5b50565b600081519050620005328162000507565b92915050565b600060208284031215620005515762000550620004ee565b5b6000620005618482850162000521565b91505092915050565b608051612a3e6200058d6000396000818161025e01526112600152612a3e6000f3fe608060405234801561001057600080fd5b50600436106100a95760003560e01c80637922f426116100715780637922f426146101425780637e2f0e16146101735780638796ba8c14610191578063962a81c8146101c15780639d866985146101f1578063fc2a88c314610224576100a9565b806309c1ba2e146100ae5780630ca76175146100cc57806329f0de3f146100e857806362747e421461010657806367e828bf14610124575b600080fd5b6100b6610242565b6040516100c39190611a4c565b60405180910390f35b6100e660048036038101906100e19190611bf7565b61025c565b005b6100f061031e565b6040516100fd9190611d01565b60405180910390f35b61010e6103ac565b60405161011b9190611d01565b60405180910390f35b61012c61043a565b6040516101399190611d78565b60405180910390f35b61015c60048036038101906101579190611d9a565b6104c8565b60405161016a929190611dc7565b60405180910390f35b61017b6105fc565b6040516101889190611e8c565b60405180910390f35b6101ab60048036038101906101a69190611ee4565b6107c2565b6040516101b89190611f20565b60405180910390f35b6101db60048036038101906101d69190611fdc565b6107e6565b6040516101e89190611f20565b60405180910390f35b61020b60048036038101906102069190611d9a565b610b22565b60405161021b949392919061206f565b60405180910390f35b61022c610c7c565b6040516102399190611f20565b60405180910390f35b600860049054906101000a900467ffffffffffffffff1681565b7f000000000000000000000000000000000000000000000000000000000000000073ffffffffffffffffffffffffffffffffffffffff163373ffffffffffffffffffffffffffffffffffffffff16146102e1576040517fc6829f8300000000000000000000000000000000000000000000000000000000815260040160405180910390fd5b6102ec838383610c82565b827f85e1543bf2f84fe80c6badbce3648c8539ad1df4d2b3d822938ca0538be727e660405160405180910390a2505050565b6002805461032b906120f1565b80601f0160208091040260200160405190810160405280929190818152602001828054610357906120f1565b80156103a45780601f10610379576101008083540402835291602001916103a4565b820191906000526020600020905b81548152906001019060200180831161038757829003601f168201915b505050505081565b600180546103b9906120f1565b80601f01602080910402602001604051908101604052809291908181526020018280546103e5906120f1565b80156104325780601f1061040757610100808354040283529160200191610432565b820191906000526020600020905b81548152906001019060200180831161041557829003601f168201915b505050505081565b60098054610447906120f1565b80601f0160208091040260200160405190810160405280929190818152602001828054610473906120f1565b80156104c05780601f10610495576101008083540402835291602001916104c0565b820191906000526020600020905b8154815290600101906020018083116104a357829003601f168201915b505050505081565b60046020528060005260406000206000915090508060000180546104eb906120f1565b80601f0160208091040260200160405190810160405280929190818152602001828054610517906120f1565b80156105645780601f1061053957610100808354040283529160200191610564565b820191906000526020600020905b81548152906001019060200180831161054757829003601f168201915b505050505090806001018054610579906120f1565b80601f01602080910402602001604051908101604052809291908181526020018280546105a5906120f1565b80156105f25780601f106105c7576101008083540402835291602001916105f2565b820191906000526020600020905b8154815290600101906020018083116105d557829003601f168201915b5050505050905082565b610604611963565b60006005805490501161064c576040517f08c379a00000000000000000000000000000000000000000000000000000000081526004016106439061216e565b60405180910390fd5b600460006005600160058054905061066491906121bd565b81548110610675576106746121f1565b5b906000526020600020015481526020019081526020016000206040518060400160405290816000820180546106a9906120f1565b80601f01602080910402602001604051908101604052809291908181526020018280546106d5906120f1565b80156107225780601f106106f757610100808354040283529160200191610722565b820191906000526020600020905b81548152906001019060200180831161070557829003601f168201915b5050505050815260200160018201805461073b906120f1565b80601f0160208091040260200160405190810160405280929190818152602001828054610767906120f1565b80156107b45780601f10610789576101008083540402835291602001916107b4565b820191906000526020600020905b81548152906001019060200180831161079757829003601f168201915b505050505081525050905090565b600581815481106107d257600080fd5b906000526020600020016000915090505481565b600080600267ffffffffffffffff81111561080457610803611acc565b5b60405190808252806020026020018201604052801561083757816020015b60608152602001906001900390816108225790505b509050838160008151811061084f5761084e6121f1565b5b6020026020010181905250828160018151811061086f5761086e6121f1565b5b602002602001018190525061088261197d565b61091f60098054610892906120f1565b80601f01602080910402602001604051908101604052809291908181526020018280546108be906120f1565b801561090b5780601f106108e05761010080835404028352916020019161090b565b820191906000526020600020905b8154815290600101906020018083116108ee57829003601f168201915b505050505082610df290919063ffffffff16565b60008251111561093d5761093c8282610e0390919063ffffffff16565b5b61097b61094982610e4b565b600860049054906101000a900467ffffffffffffffff16600860009054906101000a900463ffffffff1660075461125b565b600081905550604051806040016040528085815260200160405180602001604052806000815250815250600460008054815260200190815260200160002060008201518160000190816109ce91906123cc565b5060208201518160010190816109e491906123cc565b50905050604051806080016040528060001515815260200160011515815260200160405180602001604052806000815250815260200160405180602001604052806000815250815250600360008054815260200190815260200160002060008201518160000160006101000a81548160ff02191690831515021790555060208201518160000160016101000a81548160ff0219169083151502179055506040820151816001019081610a9691906124f9565b506060820151816002019081610aac91906124f9565b50905050600560005490806001815401808255809150506001900390600052602060002001600090919091909150556000547f88174de6a46a917320f5e3f37cf87c63bb0a0b6ba316948e048c3adef3a9cbff85604051610b0d9190611d78565b60405180910390a26000549250505092915050565b60036020528060005260406000206000915090508060000160009054906101000a900460ff16908060000160019054906101000a900460ff1690806001018054610b6b906120f1565b80601f0160208091040260200160405190810160405280929190818152602001828054610b97906120f1565b8015610be45780601f10610bb957610100808354040283529160200191610be4565b820191906000526020600020905b815481529060010190602001808311610bc757829003601f168201915b505050505090806002018054610bf9906120f1565b80601f0160208091040260200160405190810160405280929190818152602001828054610c25906120f1565b8015610c725780601f10610c4757610100808354040283529160200191610c72565b820191906000526020600020905b815481529060010190602001808311610c5557829003601f168201915b5050505050905084565b60005481565b6003600084815260200190815260200160002060000160019054906101000a900460ff16610ce5576040517f08c379a0000000000000000000000000000000000000000000000000000000008152600401610cdc90612617565b60405180910390fd5b8060029081610cf491906124f9565b508160019081610d0491906124f9565b50600082511115610d3a57600060046000858152602001908152602001600020905082816001019081610d3791906123cc565b50505b60016003600085815260200190815260200160002060000160006101000a81548160ff02191690831515021790555081600360008581526020019081526020016000206001019081610d8c91906124f9565b5080600360008581526020019081526020016000206002019081610db091906124f9565b50827f160ed0aaffbef6885155188b91459cb5a97d5daadccf7561d8c46deea6641b50838484604051610de593929190612637565b60405180910390a2505050565b610dff826000808461133e565b5050565b6000815103610e3e576040517ffe936cb700000000000000000000000000000000000000000000000000000000815260040160405180910390fd5b808260a001819052505050565b60606000610e5a6101006113e8565b9050610ea46040518060400160405280600c81526020017f636f64654c6f636174696f6e00000000000000000000000000000000000000008152508261140f90919063ffffffff16565b610ecd83600001516002811115610ebe57610ebd612683565b5b8261143890919063ffffffff16565b610f156040518060400160405280600881526020017f6c616e67756167650000000000000000000000000000000000000000000000008152508261140f90919063ffffffff16565b610f3e83604001516000811115610f2f57610f2e612683565b5b8261143890919063ffffffff16565b610f866040518060400160405280600681526020017f736f7572636500000000000000000000000000000000000000000000000000008152508261140f90919063ffffffff16565b610f9d83606001518261140f90919063ffffffff16565b60008360a0015151111561105357610ff36040518060400160405280600481526020017f61726773000000000000000000000000000000000000000000000000000000008152508261140f90919063ffffffff16565b610ffc81611488565b60005b8360a00151518110156110485761103d8460a001518281518110611026576110256121f1565b5b60200260200101518361140f90919063ffffffff16565b806001019050610fff565b50611052816114b0565b5b60008360800151511115611194576000600281111561107557611074612683565b5b8360200151600281111561108c5761108b612683565b5b036110c3576040517fa80d31f700000000000000000000000000000000000000000000000000000000815260040160405180910390fd5b61110b6040518060400160405280600f81526020017f736563726574734c6f636174696f6e00000000000000000000000000000000008152508261140f90919063ffffffff16565b6111348360200151600281111561112557611124612683565b5b8261143890919063ffffffff16565b61117c6040518060400160405280600781526020017f73656372657473000000000000000000000000000000000000000000000000008152508261140f90919063ffffffff16565b6111938360800151826114d890919063ffffffff16565b5b60008360c0015151111561124a576111ea6040518060400160405280600981526020017f62797465734172677300000000000000000000000000000000000000000000008152508261140f90919063ffffffff16565b6111f381611488565b60005b8360c001515181101561123f576112348460c00151828151811061121d5761121c6121f1565b5b6020026020010151836114d890919063ffffffff16565b8060010190506111f6565b50611249816114b0565b5b806000015160000151915050919050565b6000807f000000000000000000000000000000000000000000000000000000000000000073ffffffffffffffffffffffffffffffffffffffff1663461d27628688600188886040518663ffffffff1660e01b81526004016112c09594939291906126ee565b6020604051808303816000875af11580156112df573d6000803e3d6000fd5b505050506040513d601f19601f82011682018060405250810190611303919061275d565b9050807f1131472297a800fee664d1d89cfa8f7676ff07189ecc53f80bbb5f4969099db860405160405180910390a280915050949350505050565b6000815103611379576040517f22ce3edd00000000000000000000000000000000000000000000000000000000815260040160405180910390fd5b828460000190600281111561139157611390612683565b5b908160028111156113a5576113a4612683565b5b8152505081846040019060008111156113c1576113c0612683565b5b908160008111156113d5576113d4612683565b5b8152505080846060018190525050505050565b6113f06119ef565b6113fe816000015183611501565b506000816020018181525050919050565b61141c826003835161157a565b61143381836000015161172390919063ffffffff16565b505050565b61145a60026005600660ff16901b17836000015161173f90919063ffffffff16565b5061148482826040516020016114709190612799565b6040516020818303038152906040526114d8565b5050565b6114938160046117a9565b6001816020018181516114a691906127b4565b9150818152505050565b6114bb8160076117a9565b6001816020018181516114ce91906121bd565b9150818152505050565b6114e5826002835161157a565b6114fc81836000015161172390919063ffffffff16565b505050565b611509611a0f565b60006020836115189190612817565b146115445760208261152a9190612817565b602061153691906121bd565b8261154191906127b4565b91505b81836020018181525050604051808452600081528281016020018181101561156b57600080fd5b80604052505082905092915050565b60178167ffffffffffffffff16116115b5576115af8160058460ff16901b60ff1617846000015161173f90919063ffffffff16565b5061171e565b60ff8167ffffffffffffffff1611611613576115e8601860058460ff16901b17846000015161173f90919063ffffffff16565b5061160d8167ffffffffffffffff16600185600001516117cf9092919063ffffffff16565b5061171d565b61ffff8167ffffffffffffffff161161167257611647601960058460ff16901b17846000015161173f90919063ffffffff16565b5061166c8167ffffffffffffffff16600285600001516117cf9092919063ffffffff16565b5061171c565b63ffffffff8167ffffffffffffffff16116116d3576116a8601a60058460ff16901b17846000015161173f90919063ffffffff16565b506116cd8167ffffffffffffffff16600485600001516117cf9092919063ffffffff16565b5061171b565b6116f4601b60058460ff16901b17846000015161173f90919063ffffffff16565b506117198167ffffffffffffffff16600885600001516117cf9092919063ffffffff16565b505b5b5b5b505050565b61172b611a0f565b6117378383845161185c565b905092915050565b611747611a0f565b60008360000151519050600060018261176091906127b4565b905084602001518210611784576117838560028361177e9190612848565b61193f565b5b8451602083820101858153815183111561179c578282525b5050849250505092915050565b6117ca601f60058360ff16901b17836000015161173f90919063ffffffff16565b505050565b6117d7611a0f565b60008460000151519050600081846117ef91906127b4565b90508560200151811115611814576118138660028361180e9190612848565b61193f565b5b600060018561010061182691906129bd565b61183091906121bd565b90508651828101878319825116178152815184111561184d578382525b50508693505050509392505050565b611864611a0f565b825182111561187257600080fd5b600084600001515190506000838261188a91906127b4565b905085602001518111156118af576118ae866002836118a99190612848565b61193f565b5b600080875180518560208301019350808511156118ca578482525b60208901925050505b6020861061191157805182526020826118ec91906127b4565b91506020816118fb91906127b4565b905060208661190a91906121bd565b95506118d3565b60006001876020036101000a0390508019825116818451168181178552505050879450505050509392505050565b6000826000015190506119528383611501565b5061195d8382611723565b50505050565b604051806040016040528060608152602001606081525090565b6040518060e001604052806000600281111561199c5761199b612683565b5b8152602001600060028111156119b5576119b4612683565b5b81526020016000808111156119cd576119cc612683565b5b8152602001606081526020016060815260200160608152602001606081525090565b6040518060400160405280611a02611a0f565b8152602001600081525090565b604051806040016040528060608152602001600081525090565b600067ffffffffffffffff82169050919050565b611a4681611a29565b82525050565b6000602082019050611a616000830184611a3d565b92915050565b6000604051905090565b600080fd5b600080fd5b6000819050919050565b611a8e81611a7b565b8114611a9957600080fd5b50565b600081359050611aab81611a85565b92915050565b600080fd5b600080fd5b6000601f19601f8301169050919050565b7f4e487b7100000000000000000000000000000000000000000000000000000000600052604160045260246000fd5b611b0482611abb565b810181811067ffffffffffffffff82111715611b2357611b22611acc565b5b80604052505050565b6000611b36611a67565b9050611b428282611afb565b919050565b600067ffffffffffffffff821115611b6257611b61611acc565b5b611b6b82611abb565b9050602081019050919050565b82818337600083830152505050565b6000611b9a611b9584611b47565b611b2c565b905082815260208101848484011115611bb657611bb5611ab6565b5b611bc1848285611b78565b509392505050565b600082601f830112611bde57611bdd611ab1565b5b8135611bee848260208601611b87565b91505092915050565b600080600060608486031215611c1057611c0f611a71565b5b6000611c1e86828701611a9c565b935050602084013567ffffffffffffffff811115611c3f57611c3e611a76565b5b611c4b86828701611bc9565b925050604084013567ffffffffffffffff811115611c6c57611c6b611a76565b5b611c7886828701611bc9565b9150509250925092565b600081519050919050565b600082825260208201905092915050565b60005b83811015611cbc578082015181840152602081019050611ca1565b60008484015250505050565b6000611cd382611c82565b611cdd8185611c8d565b9350611ced818560208601611c9e565b611cf681611abb565b840191505092915050565b60006020820190508181036000830152611d1b8184611cc8565b905092915050565b600081519050919050565b600082825260208201905092915050565b6000611d4a82611d23565b611d548185611d2e565b9350611d64818560208601611c9e565b611d6d81611abb565b840191505092915050565b60006020820190508181036000830152611d928184611d3f565b905092915050565b600060208284031215611db057611daf611a71565b5b6000611dbe84828501611a9c565b91505092915050565b60006040820190508181036000830152611de18185611d3f565b90508181036020830152611df58184611d3f565b90509392505050565b600082825260208201905092915050565b6000611e1a82611d23565b611e248185611dfe565b9350611e34818560208601611c9e565b611e3d81611abb565b840191505092915050565b60006040830160008301518482036000860152611e658282611e0f565b91505060208301518482036020860152611e7f8282611e0f565b9150508091505092915050565b60006020820190508181036000830152611ea68184611e48565b905092915050565b6000819050919050565b611ec181611eae565b8114611ecc57600080fd5b50565b600081359050611ede81611eb8565b92915050565b600060208284031215611efa57611ef9611a71565b5b6000611f0884828501611ecf565b91505092915050565b611f1a81611a7b565b82525050565b6000602082019050611f356000830184611f11565b92915050565b600067ffffffffffffffff821115611f5657611f55611acc565b5b611f5f82611abb565b9050602081019050919050565b6000611f7f611f7a84611f3b565b611b2c565b905082815260208101848484011115611f9b57611f9a611ab6565b5b611fa6848285611b78565b509392505050565b600082601f830112611fc357611fc2611ab1565b5b8135611fd3848260208601611f6c565b91505092915050565b60008060408385031215611ff357611ff2611a71565b5b600083013567ffffffffffffffff81111561201157612010611a76565b5b61201d85828601611fae565b925050602083013567ffffffffffffffff81111561203e5761203d611a76565b5b61204a85828601611fae565b9150509250929050565b60008115159050919050565b61206981612054565b82525050565b60006080820190506120846000830187612060565b6120916020830186612060565b81810360408301526120a38185611cc8565b905081810360608301526120b78184611cc8565b905095945050505050565b7f4e487b7100000000000000000000000000000000000000000000000000000000600052602260045260246000fd5b6000600282049050600182168061210957607f821691505b60208210810361211c5761211b6120c2565b5b50919050565b7f4e6f206163746976697469657320666f756e6400000000000000000000000000600082015250565b6000612158601383611d2e565b915061216382612122565b602082019050919050565b600060208201905081810360008301526121878161214b565b9050919050565b7f4e487b7100000000000000000000000000000000000000000000000000000000600052601160045260246000fd5b60006121c882611eae565b91506121d383611eae565b92508282039050818111156121eb576121ea61218e565b5b92915050565b7f4e487b7100000000000000000000000000000000000000000000000000000000600052603260045260246000fd5b60008190508160005260206000209050919050565b60006020601f8301049050919050565b600082821b905092915050565b6000600883026122827fffffffffffffffffffffffffffffffffffffffffffffffffffffffffffffffff82612245565b61228c8683612245565b95508019841693508086168417925050509392505050565b6000819050919050565b60006122c96122c46122bf84611eae565b6122a4565b611eae565b9050919050565b6000819050919050565b6122e3836122ae565b6122f76122ef826122d0565b848454612252565b825550505050565b600090565b61230c6122ff565b6123178184846122da565b505050565b5b8181101561233b57612330600082612304565b60018101905061231d565b5050565b601f8211156123805761235181612220565b61235a84612235565b81016020851015612369578190505b61237d61237585612235565b83018261231c565b50505b505050565b600082821c905092915050565b60006123a360001984600802612385565b1980831691505092915050565b60006123bc8383612392565b9150826002028217905092915050565b6123d582611d23565b67ffffffffffffffff8111156123ee576123ed611acc565b5b6123f882546120f1565b61240382828561233f565b600060209050601f8311600181146124365760008415612424578287015190505b61242e85826123b0565b865550612496565b601f19841661244486612220565b60005b8281101561246c57848901518255600182019150602085019450602081019050612447565b868310156124895784890151612485601f891682612392565b8355505b6001600288020188555050505b505050505050565b60008190508160005260206000209050919050565b601f8211156124f4576124c58161249e565b6124ce84612235565b810160208510156124dd578190505b6124f16124e985612235565b83018261231c565b50505b505050565b61250282611c82565b67ffffffffffffffff81111561251b5761251a611acc565b5b61252582546120f1565b6125308282856124b3565b600060209050601f8311600181146125635760008415612551578287015190505b61255b85826123b0565b8655506125c3565b601f1984166125718661249e565b60005b8281101561259957848901518255600182019150602085019450602081019050612574565b868310156125b657848901516125b2601f891682612392565b8355505b6001600288020188555050505b505050505050565b7f72657175657374206e6f7420666f756e64000000000000000000000000000000600082015250565b6000612601601183611d2e565b915061260c826125cb565b602082019050919050565b60006020820190508181036000830152612630816125f4565b9050919050565b600060608201905081810360008301526126518186611d3f565b905081810360208301526126658185611cc8565b905081810360408301526126798184611cc8565b9050949350505050565b7f4e487b7100000000000000000000000000000000000000000000000000000000600052602160045260246000fd5b600061ffff82169050919050565b6126c9816126b2565b82525050565b600063ffffffff82169050919050565b6126e8816126cf565b82525050565b600060a0820190506127036000830188611a3d565b81810360208301526127158187611cc8565b905061272460408301866126c0565b61273160608301856126df565b61273e6080830184611f11565b9695505050505050565b60008151905061275781611a85565b92915050565b60006020828403121561277357612772611a71565b5b600061278184828501612748565b91505092915050565b61279381611eae565b82525050565b60006020820190506127ae600083018461278a565b92915050565b60006127bf82611eae565b91506127ca83611eae565b92508282019050808211156127e2576127e161218e565b5b92915050565b7f4e487b7100000000000000000000000000000000000000000000000000000000600052601260045260246000fd5b600061282282611eae565b915061282d83611eae565b92508261283d5761283c6127e8565b5b828206905092915050565b600061285382611eae565b915061285e83611eae565b925082820261286c81611eae565b915082820484148315176128835761288261218e565b5b5092915050565b60008160011c9050919050565b6000808291508390505b60018511156128e1578086048111156128bd576128bc61218e565b5b60018516156128cc5780820291505b80810290506128da8561288a565b94506128a1565b94509492505050565b6000826128fa57600190506129b6565b8161290857600090506129b6565b816001811461291e576002811461292857612957565b60019150506129b6565b60ff84111561293a5761293961218e565b5b8360020a9150848211156129515761295061218e565b5b506129b6565b5060208310610133831016604e8410600b841016171561298c5782820a9050838111156129875761298661218e565b5b6129b6565b6129998484846001612897565b925090508184048111156129b0576129af61218e565b5b81810290505b9392505050565b60006129c882611eae565b91506129d383611eae565b9250612a007fffffffffffffffffffffffffffffffffffffffffffffffffffffffffffffffff84846128ea565b90509291505056fea2646970667358221220e9323724dccdf455a482492f5c7f7cd954e9a2a5d9476bd5b6847d704d60dcf264736f6c63430008180033636f6e737420616363657373546f6b656e203d20617267735b305d3b636f6e737420616374697669747954797065203d20617267735b315d3b636f6e737420617069526573706f6e7365203d2061776169742046756e6374696f6e732e6d616b654874747052657175657374287b75726c3a202768747470733a2f2f7777772e7374726176612e636f6d2f6170692f76332f6174686c6574652f61637469766974696573272c686561646572733a207b20417574686f72697a6174696f6e3a206042656172657220247b616363657373546f6b656e7d60207d2c726573706f6e7365547970653a20276a736f6e277d293b69662028617069526573706f6e73652e6572726f7229207b7468726f77204572726f72282752657175657374206661696c656427293b7d636f6e73742064617461203d20617069526573706f6e73652e646174613b636f6e7374206163746976697479203d20646174612e66696e64286163746976697479203d3e2061637469766974792e73706f72745f74797065203d3d3d20616374697669747954797065293b69662028616374697669747929207b636f6e737420737461727444617465203d206e657720446174652861637469766974792e73746172745f64617465292e67657454696d652829202f20313030303b636f6e737420726573756c74203d207b73746172745f646174653a207374617274446174652c64697374616e63653a2061637469766974792e64697374616e63657d3b72657475726e2046756e6374696f6e732e656e636f6465537472696e67284a534f4e2e737472696e6769667928726573756c7429293b7d20656c7365207b72657475726e2046756e6374696f6e732e656e636f6465537472696e6728604e6f206163746976697469657320666f756e6420666f7220747970653a20247b6163746976697479547970657d2e60293b7d",
  "linkReferences": {},
  "deployedLinkReferences": {}
}