{
  "_format": "hh-sol-artifact-1",
  "contractName": "StravaConsumer",
  "sourceName": "contracts/StravaConsumer.sol",
  "abi": [
    {
      "inputs": [
        {
          "internalType": "uint64",
          "name": "functionsSubscriptionId",
          "type": "uint64"
        },
        {
          "internalType": "string",
          "name": "_source",
          "type": "string"
        }
      ],
      "stateMutability": "nonpayable",
      "type": "constructor"
    },
    {
      "inputs": [],
      "name": "EmptyArgs",
      "type": "error"
    },
    {
      "inputs": [],
      "name": "EmptySource",
      "type": "error"
    },
    {
      "inputs": [],
      "name": "NoInlineSecrets",
      "type": "error"
    },
    {
      "inputs": [],
      "name": "OnlyRouterCanFulfill",
      "type": "error"
    },
    {
      "anonymous": false,
      "inputs": [
        {
          "indexed": true,
          "internalType": "address",
          "name": "previousOwner",
          "type": "address"
        },
        {
          "indexed": true,
          "internalType": "address",
          "name": "newOwner",
          "type": "address"
        }
      ],
      "name": "OwnershipTransferred",
      "type": "event"
    },
    {
      "anonymous": false,
      "inputs": [
        {
          "indexed": true,
          "internalType": "bytes32",
          "name": "id",
          "type": "bytes32"
        }
      ],
      "name": "RequestFulfilled",
      "type": "event"
    },
    {
      "anonymous": false,
      "inputs": [
        {
          "indexed": true,
          "internalType": "bytes32",
          "name": "id",
          "type": "bytes32"
        }
      ],
      "name": "RequestSent",
      "type": "event"
    },
    {
      "anonymous": false,
      "inputs": [
        {
          "indexed": true,
          "internalType": "bytes32",
          "name": "requestId",
          "type": "bytes32"
        },
        {
          "indexed": false,
          "internalType": "string",
          "name": "activityType",
          "type": "string"
        }
      ],
      "name": "RequestSent",
      "type": "event"
    },
    {
      "anonymous": false,
      "inputs": [
        {
          "indexed": true,
          "internalType": "bytes32",
          "name": "requestId",
          "type": "bytes32"
        },
        {
          "indexed": false,
          "internalType": "string",
          "name": "activityData",
          "type": "string"
        },
        {
          "indexed": false,
          "internalType": "bytes",
          "name": "response",
          "type": "bytes"
        },
        {
          "indexed": false,
          "internalType": "bytes",
          "name": "err",
          "type": "bytes"
        }
      ],
      "name": "Response",
      "type": "event"
    },
    {
      "inputs": [
        {
          "internalType": "bytes32",
          "name": "",
          "type": "bytes32"
        }
      ],
      "name": "activities",
      "outputs": [
        {
          "internalType": "string",
          "name": "activityType",
          "type": "string"
        },
        {
          "internalType": "string",
          "name": "activityData",
          "type": "string"
        }
      ],
      "stateMutability": "view",
      "type": "function"
    },
    {
      "inputs": [
        {
          "internalType": "string",
          "name": "dataMap",
          "type": "string"
        },
        {
          "internalType": "string",
          "name": "activityType",
          "type": "string"
        }
      ],
      "name": "executeRequest",
      "outputs": [
        {
          "internalType": "bytes32",
          "name": "requestId",
          "type": "bytes32"
        }
      ],
      "stateMutability": "nonpayable",
      "type": "function"
    },
    {
      "inputs": [],
      "name": "getLastActivity",
      "outputs": [
        {
          "components": [
            {
              "internalType": "string",
              "name": "activityType",
              "type": "string"
            },
            {
              "internalType": "string",
              "name": "activityData",
              "type": "string"
            }
          ],
          "internalType": "struct StravaConsumer.ActivityStruct",
          "name": "",
          "type": "tuple"
        }
      ],
      "stateMutability": "view",
      "type": "function"
    },
    {
      "inputs": [
        {
          "internalType": "bytes32",
          "name": "requestId",
          "type": "bytes32"
        },
        {
          "internalType": "bytes",
          "name": "response",
          "type": "bytes"
        },
        {
          "internalType": "bytes",
          "name": "err",
          "type": "bytes"
        }
      ],
      "name": "handleOracleFulfillment",
      "outputs": [],
      "stateMutability": "nonpayable",
      "type": "function"
    },
    {
      "inputs": [],
      "name": "lastError",
      "outputs": [
        {
          "internalType": "bytes",
          "name": "",
          "type": "bytes"
        }
      ],
      "stateMutability": "view",
      "type": "function"
    },
    {
      "inputs": [],
      "name": "lastRequestId",
      "outputs": [
        {
          "internalType": "bytes32",
          "name": "",
          "type": "bytes32"
        }
      ],
      "stateMutability": "view",
      "type": "function"
    },
    {
      "inputs": [],
      "name": "lastResponse",
      "outputs": [
        {
          "internalType": "bytes",
          "name": "",
          "type": "bytes"
        }
      ],
      "stateMutability": "view",
      "type": "function"
    },
    {
      "inputs": [],
      "name": "owner",
      "outputs": [
        {
          "internalType": "address",
          "name": "",
          "type": "address"
        }
      ],
      "stateMutability": "view",
      "type": "function"
    },
    {
      "inputs": [],
      "name": "renounceOwnership",
      "outputs": [],
      "stateMutability": "nonpayable",
      "type": "function"
    },
    {
      "inputs": [
        {
          "internalType": "uint256",
          "name": "",
          "type": "uint256"
        }
      ],
      "name": "requestIds",
      "outputs": [
        {
          "internalType": "bytes32",
          "name": "",
          "type": "bytes32"
        }
      ],
      "stateMutability": "view",
      "type": "function"
    },
    {
      "inputs": [
        {
          "internalType": "bytes32",
          "name": "",
          "type": "bytes32"
        }
      ],
      "name": "requests",
      "outputs": [
        {
          "internalType": "bool",
          "name": "fulfilled",
          "type": "bool"
        },
        {
          "internalType": "bool",
          "name": "exists",
          "type": "bool"
        },
        {
          "internalType": "bytes",
          "name": "response",
          "type": "bytes"
        },
        {
          "internalType": "bytes",
          "name": "err",
          "type": "bytes"
        }
      ],
      "stateMutability": "view",
      "type": "function"
    },
    {
      "inputs": [
        {
          "internalType": "string",
          "name": "_source",
          "type": "string"
        }
      ],
      "name": "setSource",
      "outputs": [],
      "stateMutability": "nonpayable",
      "type": "function"
    },
    {
      "inputs": [],
      "name": "source",
      "outputs": [
        {
          "internalType": "string",
          "name": "",
          "type": "string"
        }
      ],
      "stateMutability": "view",
      "type": "function"
    },
    {
      "inputs": [],
      "name": "subscriptionId",
      "outputs": [
        {
          "internalType": "uint64",
          "name": "",
          "type": "uint64"
        }
      ],
      "stateMutability": "view",
      "type": "function"
    },
    {
      "inputs": [
        {
          "internalType": "address",
          "name": "newOwner",
          "type": "address"
        }
      ],
      "name": "transferOwnership",
      "outputs": [],
      "stateMutability": "nonpayable",
      "type": "function"
    }
  ],
  "bytecode": "0x60a060405273a9d587a00a31a52ed70d6026794a8fc5e2f5dcb0600760006101000a81548173ffffffffffffffffffffffffffffffffffffffff021916908373ffffffffffffffffffffffffffffffffffffffff1602179055507f66756e2d6176616c616e6368652d66756a692d3100000000000000000000000060001b600855620493e0600960006101000a81548163ffffffff021916908363ffffffff160217905550348015620000b157600080fd5b5060405162003752380380620037528339818101604052810190620000d7919062000436565b600760009054906101000a900473ffffffffffffffffffffffffffffffffffffffff166200011a6200010e6200019260201b60201c565b6200019a60201b60201c565b8073ffffffffffffffffffffffffffffffffffffffff1660808173ffffffffffffffffffffffffffffffffffffffff16815250505081600960046101000a81548167ffffffffffffffff021916908367ffffffffffffffff16021790555080600a9081620001899190620006e7565b505050620007ce565b600033905090565b60008060009054906101000a900473ffffffffffffffffffffffffffffffffffffffff169050816000806101000a81548173ffffffffffffffffffffffffffffffffffffffff021916908373ffffffffffffffffffffffffffffffffffffffff1602179055508173ffffffffffffffffffffffffffffffffffffffff168173ffffffffffffffffffffffffffffffffffffffff167f8be0079c531659141344cd1fd0a4f28419497f9722a3daafe3b4186f6b6457e060405160405180910390a35050565b6000604051905090565b600080fd5b600080fd5b600067ffffffffffffffff82169050919050565b620002918162000272565b81146200029d57600080fd5b50565b600081519050620002b18162000286565b92915050565b600080fd5b600080fd5b6000601f19601f8301169050919050565b7f4e487b7100000000000000000000000000000000000000000000000000000000600052604160045260246000fd5b6200030c82620002c1565b810181811067ffffffffffffffff821117156200032e576200032d620002d2565b5b80604052505050565b6000620003436200025e565b905062000351828262000301565b919050565b600067ffffffffffffffff821115620003745762000373620002d2565b5b6200037f82620002c1565b9050602081019050919050565b60005b83811015620003ac5780820151818401526020810190506200038f565b60008484015250505050565b6000620003cf620003c98462000356565b62000337565b905082815260208101848484011115620003ee57620003ed620002bc565b5b620003fb8482856200038c565b509392505050565b600082601f8301126200041b576200041a620002b7565b5b81516200042d848260208601620003b8565b91505092915050565b6000806040838503121562000450576200044f62000268565b5b60006200046085828601620002a0565b925050602083015167ffffffffffffffff8111156200048457620004836200026d565b5b620004928582860162000403565b9150509250929050565b600081519050919050565b7f4e487b7100000000000000000000000000000000000000000000000000000000600052602260045260246000fd5b60006002820490506001821680620004ef57607f821691505b602082108103620005055762000504620004a7565b5b50919050565b60008190508160005260206000209050919050565b60006020601f8301049050919050565b600082821b905092915050565b6000600883026200056f7fffffffffffffffffffffffffffffffffffffffffffffffffffffffffffffffff8262000530565b6200057b868362000530565b95508019841693508086168417925050509392505050565b6000819050919050565b6000819050919050565b6000620005c8620005c2620005bc8462000593565b6200059d565b62000593565b9050919050565b6000819050919050565b620005e483620005a7565b620005fc620005f382620005cf565b8484546200053d565b825550505050565b600090565b6200061362000604565b62000620818484620005d9565b505050565b5b8181101562000648576200063c60008262000609565b60018101905062000626565b5050565b601f821115620006975762000661816200050b565b6200066c8462000520565b810160208510156200067c578190505b620006946200068b8562000520565b83018262000625565b50505b505050565b600082821c905092915050565b6000620006bc600019846008026200069c565b1980831691505092915050565b6000620006d78383620006a9565b9150826002028217905092915050565b620006f2826200049c565b67ffffffffffffffff8111156200070e576200070d620002d2565b5b6200071a8254620004d6565b620007278282856200064c565b600060209050601f8311600181146200075f57600084156200074a578287015190505b620007568582620006c9565b865550620007c6565b601f1984166200076f866200050b565b60005b82811015620007995784890151825560018201915060208501945060208101905062000772565b86831015620007b95784890151620007b5601f891682620006a9565b8355505b6001600288020188555050505b505050505050565b608051612f61620007f16000396000818161030a01526115370152612f616000f3fe608060405234801561001057600080fd5b50600436106100f55760003560e01c80637e2f0e16116100975780639d866985116100665780639d86698514610251578063a459614814610284578063f2fde38b146102b4578063fc2a88c3146102d0576100f5565b80637e2f0e16146101c95780638796ba8c146101e75780638da5cb5b1461021757806399d2545514610235576100f5565b806362747e42116100d357806362747e421461015257806367e828bf14610170578063715018a61461018e5780637922f42614610198576100f5565b806309c1ba2e146100fa5780630ca761751461011857806329f0de3f14610134575b600080fd5b6101026102ee565b60405161010f9190611d2b565b60405180910390f35b610132600480360381019061012d9190611ed6565b610308565b005b61013c6103ca565b6040516101499190611fe0565b60405180910390f35b61015a610458565b6040516101679190611fe0565b60405180910390f35b6101786104e6565b6040516101859190612057565b60405180910390f35b610196610574565b005b6101b260048036038101906101ad9190612079565b610588565b6040516101c09291906120a6565b60405180910390f35b6101d16106bc565b6040516101de919061216b565b60405180910390f35b61020160048036038101906101fc91906121c3565b610882565b60405161020e91906121ff565b60405180910390f35b61021f6108a6565b60405161022c919061225b565b60405180910390f35b61024f600480360381019061024a9190612317565b6108cf565b005b61026b60048036038101906102669190612079565b6108ea565b60405161027b949392919061237b565b60405180910390f35b61029e600480360381019061029991906123ce565b610a44565b6040516102ab91906121ff565b60405180910390f35b6102ce60048036038101906102c99190612472565b610d82565b005b6102d8610e05565b6040516102e591906121ff565b60405180910390f35b600960049054906101000a900467ffffffffffffffff1681565b7f000000000000000000000000000000000000000000000000000000000000000073ffffffffffffffffffffffffffffffffffffffff163373ffffffffffffffffffffffffffffffffffffffff161461038d576040517fc6829f8300000000000000000000000000000000000000000000000000000000815260040160405180910390fd5b610398838383610e0b565b827f85e1543bf2f84fe80c6badbce3648c8539ad1df4d2b3d822938ca0538be727e660405160405180910390a2505050565b600380546103d7906124ce565b80601f0160208091040260200160405190810160405280929190818152602001828054610403906124ce565b80156104505780601f1061042557610100808354040283529160200191610450565b820191906000526020600020905b81548152906001019060200180831161043357829003601f168201915b505050505081565b60028054610465906124ce565b80601f0160208091040260200160405190810160405280929190818152602001828054610491906124ce565b80156104de5780601f106104b3576101008083540402835291602001916104de565b820191906000526020600020905b8154815290600101906020018083116104c157829003601f168201915b505050505081565b600a80546104f3906124ce565b80601f016020809104026020016040519081016040528092919081815260200182805461051f906124ce565b801561056c5780601f106105415761010080835404028352916020019161056c565b820191906000526020600020905b81548152906001019060200180831161054f57829003601f168201915b505050505081565b61057c610f7b565b6105866000610ff9565b565b60056020528060005260406000206000915090508060000180546105ab906124ce565b80601f01602080910402602001604051908101604052809291908181526020018280546105d7906124ce565b80156106245780601f106105f957610100808354040283529160200191610624565b820191906000526020600020905b81548152906001019060200180831161060757829003601f168201915b505050505090806001018054610639906124ce565b80601f0160208091040260200160405190810160405280929190818152602001828054610665906124ce565b80156106b25780601f10610687576101008083540402835291602001916106b2565b820191906000526020600020905b81548152906001019060200180831161069557829003601f168201915b5050505050905082565b6106c4611c42565b60006006805490501161070c576040517f08c379a00000000000000000000000000000000000000000000000000000000081526004016107039061254b565b60405180910390fd5b6005600060066001600680549050610724919061259a565b81548110610735576107346125ce565b5b90600052602060002001548152602001908152602001600020604051806040016040529081600082018054610769906124ce565b80601f0160208091040260200160405190810160405280929190818152602001828054610795906124ce565b80156107e25780601f106107b7576101008083540402835291602001916107e2565b820191906000526020600020905b8154815290600101906020018083116107c557829003601f168201915b505050505081526020016001820180546107fb906124ce565b80601f0160208091040260200160405190810160405280929190818152602001828054610827906124ce565b80156108745780601f1061084957610100808354040283529160200191610874565b820191906000526020600020905b81548152906001019060200180831161085757829003601f168201915b505050505081525050905090565b6006818154811061089257600080fd5b906000526020600020016000915090505481565b60008060009054906101000a900473ffffffffffffffffffffffffffffffffffffffff16905090565b6108d7610f7b565b80600a90816108e691906127a9565b5050565b60046020528060005260406000206000915090508060000160009054906101000a900460ff16908060000160019054906101000a900460ff1690806001018054610933906124ce565b80601f016020809104026020016040519081016040528092919081815260200182805461095f906124ce565b80156109ac5780601f10610981576101008083540402835291602001916109ac565b820191906000526020600020905b81548152906001019060200180831161098f57829003601f168201915b5050505050908060020180546109c1906124ce565b80601f01602080910402602001604051908101604052809291908181526020018280546109ed906124ce565b8015610a3a5780601f10610a0f57610100808354040283529160200191610a3a565b820191906000526020600020905b815481529060010190602001808311610a1d57829003601f168201915b5050505050905084565b600080600267ffffffffffffffff811115610a6257610a61611dab565b5b604051908082528060200260200182016040528015610a9557816020015b6060815260200190600190039081610a805790505b5090508381600081518110610aad57610aac6125ce565b5b60200260200101819052508281600181518110610acd57610acc6125ce565b5b6020026020010181905250610ae0611c5c565b610b7d600a8054610af0906124ce565b80601f0160208091040260200160405190810160405280929190818152602001828054610b1c906124ce565b8015610b695780601f10610b3e57610100808354040283529160200191610b69565b820191906000526020600020905b815481529060010190602001808311610b4c57829003601f168201915b5050505050826110bd90919063ffffffff16565b600082511115610b9b57610b9a82826110ce90919063ffffffff16565b5b610bd9610ba782611116565b600960049054906101000a900467ffffffffffffffff16600960009054906101000a900463ffffffff16600854611532565b6001819055506040518060400160405280858152602001604051806020016040528060008152508152506005600060015481526020019081526020016000206000820151816000019081610c2d91906127a9565b506020820151816001019081610c4391906127a9565b5090505060405180608001604052806000151581526020016001151581526020016040518060200160405280600081525081526020016040518060200160405280600081525081525060046000600154815260200190815260200160002060008201518160000160006101000a81548160ff02191690831515021790555060208201518160000160016101000a81548160ff0219169083151502179055506040820151816001019081610cf691906128d6565b506060820151816002019081610d0c91906128d6565b50905050600660015490806001815401808255809150506001900390600052602060002001600090919091909150556001547f88174de6a46a917320f5e3f37cf87c63bb0a0b6ba316948e048c3adef3a9cbff85604051610d6d9190612057565b60405180910390a26001549250505092915050565b610d8a610f7b565b600073ffffffffffffffffffffffffffffffffffffffff168173ffffffffffffffffffffffffffffffffffffffff1603610df9576040517f08c379a0000000000000000000000000000000000000000000000000000000008152600401610df090612a1a565b60405180910390fd5b610e0281610ff9565b50565b60015481565b6004600084815260200190815260200160002060000160019054906101000a900460ff16610e6e576040517f08c379a0000000000000000000000000000000000000000000000000000000008152600401610e6590612a86565b60405180910390fd5b8060039081610e7d91906128d6565b508160029081610e8d91906128d6565b50600082511115610eff57600060056000858152602001908152602001600020905082816001019081610ec091906127a9565b50837f160ed0aaffbef6885155188b91459cb5a97d5daadccf7561d8c46deea6641b50848585604051610ef593929190612aa6565b60405180910390a2505b60016004600085815260200190815260200160002060000160006101000a81548160ff02191690831515021790555081600460008581526020019081526020016000206001019081610f5191906128d6565b5080600460008581526020019081526020016000206002019081610f7591906128d6565b50505050565b610f83611615565b73ffffffffffffffffffffffffffffffffffffffff16610fa16108a6565b73ffffffffffffffffffffffffffffffffffffffff1614610ff7576040517f08c379a0000000000000000000000000000000000000000000000000000000008152600401610fee90612b3e565b60405180910390fd5b565b60008060009054906101000a900473ffffffffffffffffffffffffffffffffffffffff169050816000806101000a81548173ffffffffffffffffffffffffffffffffffffffff021916908373ffffffffffffffffffffffffffffffffffffffff1602179055508173ffffffffffffffffffffffffffffffffffffffff168173ffffffffffffffffffffffffffffffffffffffff167f8be0079c531659141344cd1fd0a4f28419497f9722a3daafe3b4186f6b6457e060405160405180910390a35050565b6110ca826000808461161d565b5050565b6000815103611109576040517ffe936cb700000000000000000000000000000000000000000000000000000000815260040160405180910390fd5b808260a001819052505050565b606060006111256101006116c7565b905061116f6040518060400160405280600c81526020017f636f64654c6f636174696f6e0000000000000000000000000000000000000000815250826116ee90919063ffffffff16565b6111988360000151600281111561118957611188612b5e565b5b8261171790919063ffffffff16565b6111e06040518060400160405280600881526020017f6c616e6775616765000000000000000000000000000000000000000000000000815250826116ee90919063ffffffff16565b611209836040015160008111156111fa576111f9612b5e565b5b8261171790919063ffffffff16565b6112516040518060400160405280600681526020017f736f757263650000000000000000000000000000000000000000000000000000815250826116ee90919063ffffffff16565b6112688360600151826116ee90919063ffffffff16565b60008360a00151511115611324576112be6040518060400160405280600481526020017f6172677300000000000000000000000000000000000000000000000000000000815250826116ee90919063ffffffff16565b6112c781611767565b60005b8360a0015151811015611319576113088460a0015182815181106112f1576112f06125ce565b5b6020026020010151836116ee90919063ffffffff16565b8061131290612b8d565b90506112ca565b506113238161178f565b5b60008360800151511115611465576000600281111561134657611345612b5e565b5b8360200151600281111561135d5761135c612b5e565b5b03611394576040517fa80d31f700000000000000000000000000000000000000000000000000000000815260040160405180910390fd5b6113dc6040518060400160405280600f81526020017f736563726574734c6f636174696f6e0000000000000000000000000000000000815250826116ee90919063ffffffff16565b611405836020015160028111156113f6576113f5612b5e565b5b8261171790919063ffffffff16565b61144d6040518060400160405280600781526020017f7365637265747300000000000000000000000000000000000000000000000000815250826116ee90919063ffffffff16565b6114648360800151826117b790919063ffffffff16565b5b60008360c00151511115611521576114bb6040518060400160405280600981526020017f6279746573417267730000000000000000000000000000000000000000000000815250826116ee90919063ffffffff16565b6114c481611767565b60005b8360c0015151811015611516576115058460c0015182815181106114ee576114ed6125ce565b5b6020026020010151836117b790919063ffffffff16565b8061150f90612b8d565b90506114c7565b506115208161178f565b5b806000015160000151915050919050565b6000807f000000000000000000000000000000000000000000000000000000000000000073ffffffffffffffffffffffffffffffffffffffff1663461d27628688600188886040518663ffffffff1660e01b8152600401611597959493929190612c11565b6020604051808303816000875af11580156115b6573d6000803e3d6000fd5b505050506040513d601f19601f820116820180604052508101906115da9190612c80565b9050807f1131472297a800fee664d1d89cfa8f7676ff07189ecc53f80bbb5f4969099db860405160405180910390a280915050949350505050565b600033905090565b6000815103611658576040517f22ce3edd00000000000000000000000000000000000000000000000000000000815260040160405180910390fd5b82846000019060028111156116705761166f612b5e565b5b9081600281111561168457611683612b5e565b5b8152505081846040019060008111156116a05761169f612b5e565b5b908160008111156116b4576116b3612b5e565b5b8152505080846060018190525050505050565b6116cf611cce565b6116dd8160000151836117e0565b506000816020018181525050919050565b6116fb8260038351611859565b611712818360000151611a0290919063ffffffff16565b505050565b61173960026005600660ff16901b178360000151611a1e90919063ffffffff16565b50611763828260405160200161174f9190612cbc565b6040516020818303038152906040526117b7565b5050565b611772816004611a88565b6001816020018181516117859190612cd7565b9150818152505050565b61179a816007611a88565b6001816020018181516117ad919061259a565b9150818152505050565b6117c48260028351611859565b6117db818360000151611a0290919063ffffffff16565b505050565b6117e8611cee565b60006020836117f79190612d3a565b14611823576020826118099190612d3a565b6020611815919061259a565b826118209190612cd7565b91505b81836020018181525050604051808452600081528281016020018181101561184a57600080fd5b80604052505082905092915050565b60178167ffffffffffffffff16116118945761188e8160058460ff16901b60ff16178460000151611a1e90919063ffffffff16565b506119fd565b60ff8167ffffffffffffffff16116118f2576118c7601860058460ff16901b178460000151611a1e90919063ffffffff16565b506118ec8167ffffffffffffffff1660018560000151611aae9092919063ffffffff16565b506119fc565b61ffff8167ffffffffffffffff161161195157611926601960058460ff16901b178460000151611a1e90919063ffffffff16565b5061194b8167ffffffffffffffff1660028560000151611aae9092919063ffffffff16565b506119fb565b63ffffffff8167ffffffffffffffff16116119b257611987601a60058460ff16901b178460000151611a1e90919063ffffffff16565b506119ac8167ffffffffffffffff1660048560000151611aae9092919063ffffffff16565b506119fa565b6119d3601b60058460ff16901b178460000151611a1e90919063ffffffff16565b506119f88167ffffffffffffffff1660088560000151611aae9092919063ffffffff16565b505b5b5b5b505050565b611a0a611cee565b611a1683838451611b3b565b905092915050565b611a26611cee565b600083600001515190506000600182611a3f9190612cd7565b905084602001518210611a6357611a6285600283611a5d9190612d6b565b611c1e565b5b84516020838201018581538151831115611a7b578282525b5050849250505092915050565b611aa9601f60058360ff16901b178360000151611a1e90919063ffffffff16565b505050565b611ab6611cee565b6000846000015151905060008184611ace9190612cd7565b90508560200151811115611af357611af286600283611aed9190612d6b565b611c1e565b5b6000600185610100611b059190612ee0565b611b0f919061259a565b905086518281018783198251161781528151841115611b2c578382525b50508693505050509392505050565b611b43611cee565b8251821115611b5157600080fd5b6000846000015151905060008382611b699190612cd7565b90508560200151811115611b8e57611b8d86600283611b889190612d6b565b611c1e565b5b60008087518051856020830101935080851115611ba9578482525b60208901925050505b60208610611bf05780518252602082611bcb9190612cd7565b9150602081611bda9190612cd7565b9050602086611be9919061259a565b9550611bb2565b60006001876020036101000a0390508019825116818451168181178552505050879450505050509392505050565b600082600001519050611c3183836117e0565b50611c3c8382611a02565b50505050565b604051806040016040528060608152602001606081525090565b6040518060e0016040528060006002811115611c7b57611c7a612b5e565b5b815260200160006002811115611c9457611c93612b5e565b5b8152602001600080811115611cac57611cab612b5e565b5b8152602001606081526020016060815260200160608152602001606081525090565b6040518060400160405280611ce1611cee565b8152602001600081525090565b604051806040016040528060608152602001600081525090565b600067ffffffffffffffff82169050919050565b611d2581611d08565b82525050565b6000602082019050611d406000830184611d1c565b92915050565b6000604051905090565b600080fd5b600080fd5b6000819050919050565b611d6d81611d5a565b8114611d7857600080fd5b50565b600081359050611d8a81611d64565b92915050565b600080fd5b600080fd5b6000601f19601f8301169050919050565b7f4e487b7100000000000000000000000000000000000000000000000000000000600052604160045260246000fd5b611de382611d9a565b810181811067ffffffffffffffff82111715611e0257611e01611dab565b5b80604052505050565b6000611e15611d46565b9050611e218282611dda565b919050565b600067ffffffffffffffff821115611e4157611e40611dab565b5b611e4a82611d9a565b9050602081019050919050565b82818337600083830152505050565b6000611e79611e7484611e26565b611e0b565b905082815260208101848484011115611e9557611e94611d95565b5b611ea0848285611e57565b509392505050565b600082601f830112611ebd57611ebc611d90565b5b8135611ecd848260208601611e66565b91505092915050565b600080600060608486031215611eef57611eee611d50565b5b6000611efd86828701611d7b565b935050602084013567ffffffffffffffff811115611f1e57611f1d611d55565b5b611f2a86828701611ea8565b925050604084013567ffffffffffffffff811115611f4b57611f4a611d55565b5b611f5786828701611ea8565b9150509250925092565b600081519050919050565b600082825260208201905092915050565b60005b83811015611f9b578082015181840152602081019050611f80565b60008484015250505050565b6000611fb282611f61565b611fbc8185611f6c565b9350611fcc818560208601611f7d565b611fd581611d9a565b840191505092915050565b60006020820190508181036000830152611ffa8184611fa7565b905092915050565b600081519050919050565b600082825260208201905092915050565b600061202982612002565b612033818561200d565b9350612043818560208601611f7d565b61204c81611d9a565b840191505092915050565b60006020820190508181036000830152612071818461201e565b905092915050565b60006020828403121561208f5761208e611d50565b5b600061209d84828501611d7b565b91505092915050565b600060408201905081810360008301526120c0818561201e565b905081810360208301526120d4818461201e565b90509392505050565b600082825260208201905092915050565b60006120f982612002565b61210381856120dd565b9350612113818560208601611f7d565b61211c81611d9a565b840191505092915050565b6000604083016000830151848203600086015261214482826120ee565b9150506020830151848203602086015261215e82826120ee565b9150508091505092915050565b600060208201905081810360008301526121858184612127565b905092915050565b6000819050919050565b6121a08161218d565b81146121ab57600080fd5b50565b6000813590506121bd81612197565b92915050565b6000602082840312156121d9576121d8611d50565b5b60006121e7848285016121ae565b91505092915050565b6121f981611d5a565b82525050565b600060208201905061221460008301846121f0565b92915050565b600073ffffffffffffffffffffffffffffffffffffffff82169050919050565b60006122458261221a565b9050919050565b6122558161223a565b82525050565b6000602082019050612270600083018461224c565b92915050565b600067ffffffffffffffff82111561229157612290611dab565b5b61229a82611d9a565b9050602081019050919050565b60006122ba6122b584612276565b611e0b565b9050828152602081018484840111156122d6576122d5611d95565b5b6122e1848285611e57565b509392505050565b600082601f8301126122fe576122fd611d90565b5b813561230e8482602086016122a7565b91505092915050565b60006020828403121561232d5761232c611d50565b5b600082013567ffffffffffffffff81111561234b5761234a611d55565b5b612357848285016122e9565b91505092915050565b60008115159050919050565b61237581612360565b82525050565b6000608082019050612390600083018761236c565b61239d602083018661236c565b81810360408301526123af8185611fa7565b905081810360608301526123c38184611fa7565b905095945050505050565b600080604083850312156123e5576123e4611d50565b5b600083013567ffffffffffffffff81111561240357612402611d55565b5b61240f858286016122e9565b925050602083013567ffffffffffffffff8111156124305761242f611d55565b5b61243c858286016122e9565b9150509250929050565b61244f8161223a565b811461245a57600080fd5b50565b60008135905061246c81612446565b92915050565b60006020828403121561248857612487611d50565b5b60006124968482850161245d565b91505092915050565b7f4e487b7100000000000000000000000000000000000000000000000000000000600052602260045260246000fd5b600060028204905060018216806124e657607f821691505b6020821081036124f9576124f861249f565b5b50919050565b7f4e6f206163746976697469657320666f756e6400000000000000000000000000600082015250565b600061253560138361200d565b9150612540826124ff565b602082019050919050565b6000602082019050818103600083015261256481612528565b9050919050565b7f4e487b7100000000000000000000000000000000000000000000000000000000600052601160045260246000fd5b60006125a58261218d565b91506125b08361218d565b92508282039050818111156125c8576125c761256b565b5b92915050565b7f4e487b7100000000000000000000000000000000000000000000000000000000600052603260045260246000fd5b60008190508160005260206000209050919050565b60006020601f8301049050919050565b600082821b905092915050565b60006008830261265f7fffffffffffffffffffffffffffffffffffffffffffffffffffffffffffffffff82612622565b6126698683612622565b95508019841693508086168417925050509392505050565b6000819050919050565b60006126a66126a161269c8461218d565b612681565b61218d565b9050919050565b6000819050919050565b6126c08361268b565b6126d46126cc826126ad565b84845461262f565b825550505050565b600090565b6126e96126dc565b6126f48184846126b7565b505050565b5b818110156127185761270d6000826126e1565b6001810190506126fa565b5050565b601f82111561275d5761272e816125fd565b61273784612612565b81016020851015612746578190505b61275a61275285612612565b8301826126f9565b50505b505050565b600082821c905092915050565b600061278060001984600802612762565b1980831691505092915050565b6000612799838361276f565b9150826002028217905092915050565b6127b282612002565b67ffffffffffffffff8111156127cb576127ca611dab565b5b6127d582546124ce565b6127e082828561271c565b600060209050601f8311600181146128135760008415612801578287015190505b61280b858261278d565b865550612873565b601f198416612821866125fd565b60005b8281101561284957848901518255600182019150602085019450602081019050612824565b868310156128665784890151612862601f89168261276f565b8355505b6001600288020188555050505b505050505050565b60008190508160005260206000209050919050565b601f8211156128d1576128a28161287b565b6128ab84612612565b810160208510156128ba578190505b6128ce6128c685612612565b8301826126f9565b50505b505050565b6128df82611f61565b67ffffffffffffffff8111156128f8576128f7611dab565b5b61290282546124ce565b61290d828285612890565b600060209050601f831160018114612940576000841561292e578287015190505b612938858261278d565b8655506129a0565b601f19841661294e8661287b565b60005b8281101561297657848901518255600182019150602085019450602081019050612951565b86831015612993578489015161298f601f89168261276f565b8355505b6001600288020188555050505b505050505050565b7f4f776e61626c653a206e6577206f776e657220697320746865207a65726f206160008201527f6464726573730000000000000000000000000000000000000000000000000000602082015250565b6000612a0460268361200d565b9150612a0f826129a8565b604082019050919050565b60006020820190508181036000830152612a33816129f7565b9050919050565b7f72657175657374206e6f7420666f756e64000000000000000000000000000000600082015250565b6000612a7060118361200d565b9150612a7b82612a3a565b602082019050919050565b60006020820190508181036000830152612a9f81612a63565b9050919050565b60006060820190508181036000830152612ac0818661201e565b90508181036020830152612ad48185611fa7565b90508181036040830152612ae88184611fa7565b9050949350505050565b7f4f776e61626c653a2063616c6c6572206973206e6f7420746865206f776e6572600082015250565b6000612b2860208361200d565b9150612b3382612af2565b602082019050919050565b60006020820190508181036000830152612b5781612b1b565b9050919050565b7f4e487b7100000000000000000000000000000000000000000000000000000000600052602160045260246000fd5b6000612b988261218d565b91507fffffffffffffffffffffffffffffffffffffffffffffffffffffffffffffffff8203612bca57612bc961256b565b5b600182019050919050565b600061ffff82169050919050565b612bec81612bd5565b82525050565b600063ffffffff82169050919050565b612c0b81612bf2565b82525050565b600060a082019050612c266000830188611d1c565b8181036020830152612c388187611fa7565b9050612c476040830186612be3565b612c546060830185612c02565b612c6160808301846121f0565b9695505050505050565b600081519050612c7a81611d64565b92915050565b600060208284031215612c9657612c95611d50565b5b6000612ca484828501612c6b565b91505092915050565b612cb68161218d565b82525050565b6000602082019050612cd16000830184612cad565b92915050565b6000612ce28261218d565b9150612ced8361218d565b9250828201905080821115612d0557612d0461256b565b5b92915050565b7f4e487b7100000000000000000000000000000000000000000000000000000000600052601260045260246000fd5b6000612d458261218d565b9150612d508361218d565b925082612d6057612d5f612d0b565b5b828206905092915050565b6000612d768261218d565b9150612d818361218d565b9250828202612d8f8161218d565b91508282048414831517612da657612da561256b565b5b5092915050565b60008160011c9050919050565b6000808291508390505b6001851115612e0457808604811115612de057612ddf61256b565b5b6001851615612def5780820291505b8081029050612dfd85612dad565b9450612dc4565b94509492505050565b600082612e1d5760019050612ed9565b81612e2b5760009050612ed9565b8160018114612e415760028114612e4b57612e7a565b6001915050612ed9565b60ff841115612e5d57612e5c61256b565b5b8360020a915084821115612e7457612e7361256b565b5b50612ed9565b5060208310610133831016604e8410600b8410161715612eaf5782820a905083811115612eaa57612ea961256b565b5b612ed9565b612ebc8484846001612dba565b92509050818404811115612ed357612ed261256b565b5b81810290505b9392505050565b6000612eeb8261218d565b9150612ef68361218d565b9250612f237fffffffffffffffffffffffffffffffffffffffffffffffffffffffffffffffff8484612e0d565b90509291505056fea2646970667358221220249dd6e550cb9e20ea0df138f1cff17a70aea4c86ded3cf92e79bfae60e48dca64736f6c63430008140033",
  "linkReferences": {},
  "deployedLinkReferences": {}
}