{
  "_format": "hh-sol-artifact-1",
  "contractName": "Goalify",
  "sourceName": "contracts/Goalify.sol",
  "abi": [
    {
      "inputs": [
        {
          "internalType": "address",
          "name": "owner",
          "type": "address"
        }
      ],
      "name": "OwnableInvalidOwner",
      "type": "error"
    },
    {
      "inputs": [
        {
          "internalType": "address",
          "name": "account",
          "type": "address"
        }
      ],
      "name": "OwnableUnauthorizedAccount",
      "type": "error"
    },
    {
      "anonymous": false,
      "inputs": [
        {
          "indexed": true,
          "internalType": "uint256",
          "name": "goalId",
          "type": "uint256"
        },
        {
          "indexed": false,
          "internalType": "string",
          "name": "activity",
          "type": "string"
        },
        {
          "indexed": false,
          "internalType": "string",
          "name": "description",
          "type": "string"
        },
        {
          "indexed": false,
          "internalType": "uint256",
          "name": "distance",
          "type": "uint256"
        },
        {
          "indexed": false,
          "internalType": "uint256",
          "name": "stake",
          "type": "uint256"
        },
        {
          "indexed": false,
          "internalType": "uint256",
          "name": "goalPoolId",
          "type": "uint256"
        },
        {
          "indexed": false,
          "internalType": "uint256",
          "name": "startTimestamp",
          "type": "uint256"
        },
        {
          "indexed": false,
          "internalType": "uint256",
          "name": "expiryTimestamp",
          "type": "uint256"
        }
      ],
      "name": "GoalCreated",
      "type": "event"
    },
    {
      "anonymous": false,
      "inputs": [
        {
          "indexed": true,
          "internalType": "uint256",
          "name": "goalPoolId",
          "type": "uint256"
        },
        {
          "indexed": false,
          "internalType": "string",
          "name": "name",
          "type": "string"
        }
      ],
      "name": "GoalPoolCreated",
      "type": "event"
    },
    {
      "anonymous": false,
      "inputs": [
        {
          "indexed": true,
          "internalType": "address",
          "name": "previousOwner",
          "type": "address"
        },
        {
          "indexed": true,
          "internalType": "address",
          "name": "newOwner",
          "type": "address"
        }
      ],
      "name": "OwnershipTransferred",
      "type": "event"
    },
    {
      "anonymous": false,
      "inputs": [
        {
          "indexed": true,
          "internalType": "address",
          "name": "walletAddress",
          "type": "address"
        },
        {
          "indexed": true,
          "internalType": "uint256",
          "name": "goalId",
          "type": "uint256"
        }
      ],
      "name": "RewardsClaimed",
      "type": "event"
    },
    {
      "anonymous": false,
      "inputs": [
        {
          "indexed": true,
          "internalType": "address",
          "name": "walletAddress",
          "type": "address"
        }
      ],
      "name": "UserCreated",
      "type": "event"
    },
    {
      "anonymous": false,
      "inputs": [
        {
          "indexed": true,
          "internalType": "address",
          "name": "walletAddress",
          "type": "address"
        },
        {
          "indexed": true,
          "internalType": "uint256",
          "name": "goalId",
          "type": "uint256"
        },
        {
          "indexed": false,
          "internalType": "uint256",
          "name": "stake",
          "type": "uint256"
        }
      ],
      "name": "UserJoinedGoal",
      "type": "event"
    },
    {
      "anonymous": false,
      "inputs": [
        {
          "indexed": true,
          "internalType": "address",
          "name": "walletAddress",
          "type": "address"
        },
        {
          "indexed": true,
          "internalType": "uint256",
          "name": "goalId",
          "type": "uint256"
        },
        {
          "indexed": false,
          "internalType": "enum Goalify.UserProgress",
          "name": "newStatus",
          "type": "uint8"
        }
      ],
      "name": "UserProgressUpdated",
      "type": "event"
    },
    {
      "inputs": [],
      "name": "FEE_PERCENTAGE",
      "outputs": [
        {
          "internalType": "uint256",
          "name": "",
          "type": "uint256"
        }
      ],
      "stateMutability": "view",
      "type": "function"
    },
    {
      "inputs": [],
      "name": "MAX_GOALS_PER_POOL",
      "outputs": [
        {
          "internalType": "uint256",
          "name": "",
          "type": "uint256"
        }
      ],
      "stateMutability": "view",
      "type": "function"
    },
    {
      "inputs": [],
      "name": "MAX_GOAL_POOLS",
      "outputs": [
        {
          "internalType": "uint256",
          "name": "",
          "type": "uint256"
        }
      ],
      "stateMutability": "view",
      "type": "function"
    },
    {
      "inputs": [
        {
          "internalType": "uint256",
          "name": "_goalId",
          "type": "uint256"
        }
      ],
      "name": "claimRewards",
      "outputs": [],
      "stateMutability": "payable",
      "type": "function"
    },
    {
      "inputs": [
        {
          "internalType": "address",
          "name": "_walletAddress",
          "type": "address"
        },
        {
          "internalType": "uint256",
          "name": "_goalId",
          "type": "uint256"
        },
        {
          "internalType": "uint256",
          "name": "_userData",
          "type": "uint256"
        }
      ],
      "name": "completeGoal",
      "outputs": [],
      "stateMutability": "nonpayable",
      "type": "function"
    },
    {
      "inputs": [
        {
          "internalType": "uint256",
          "name": "_goalId",
          "type": "uint256"
        },
        {
          "internalType": "enum Goalify.UserProgress",
          "name": "progress",
          "type": "uint8"
        }
      ],
      "name": "countGoalParticipantsAtProgress",
      "outputs": [
        {
          "internalType": "uint256",
          "name": "",
          "type": "uint256"
        }
      ],
      "stateMutability": "view",
      "type": "function"
    },
    {
      "inputs": [
        {
          "internalType": "string",
          "name": "_activity",
          "type": "string"
        },
        {
          "internalType": "string",
          "name": "_description",
          "type": "string"
        },
        {
          "internalType": "uint256",
          "name": "_distance",
          "type": "uint256"
        },
        {
          "internalType": "uint256",
          "name": "_goalPoolId",
          "type": "uint256"
        },
        {
          "internalType": "uint256",
          "name": "_startTimestamp",
          "type": "uint256"
        },
        {
          "internalType": "uint256",
          "name": "_expiryTimestamp",
          "type": "uint256"
        }
      ],
      "name": "createGoal",
      "outputs": [],
      "stateMutability": "nonpayable",
      "type": "function"
    },
    {
      "inputs": [
        {
          "internalType": "string",
          "name": "_name",
          "type": "string"
        }
      ],
      "name": "createGoalPool",
      "outputs": [],
      "stateMutability": "nonpayable",
      "type": "function"
    },
    {
      "inputs": [],
      "name": "createUser",
      "outputs": [],
      "stateMutability": "nonpayable",
      "type": "function"
    },
    {
      "inputs": [
        {
          "internalType": "uint256",
          "name": "_goalId",
          "type": "uint256"
        }
      ],
      "name": "failGoal",
      "outputs": [],
      "stateMutability": "nonpayable",
      "type": "function"
    },
    {
      "inputs": [],
      "name": "goalCount",
      "outputs": [
        {
          "internalType": "uint256",
          "name": "",
          "type": "uint256"
        }
      ],
      "stateMutability": "view",
      "type": "function"
    },
    {
      "inputs": [],
      "name": "goalPoolCount",
      "outputs": [
        {
          "internalType": "uint256",
          "name": "",
          "type": "uint256"
        }
      ],
      "stateMutability": "view",
      "type": "function"
    },
    {
      "inputs": [
        {
          "internalType": "uint256",
          "name": "",
          "type": "uint256"
        }
      ],
      "name": "goalPools",
      "outputs": [
        {
          "internalType": "string",
          "name": "name",
          "type": "string"
        },
        {
          "internalType": "uint256",
          "name": "activeGoals",
          "type": "uint256"
        }
      ],
      "stateMutability": "view",
      "type": "function"
    },
    {
      "inputs": [
        {
          "internalType": "uint256",
          "name": "",
          "type": "uint256"
        }
      ],
      "name": "goals",
      "outputs": [
        {
          "internalType": "uint256",
          "name": "goalPoolId",
          "type": "uint256"
        },
        {
          "internalType": "string",
          "name": "activity",
          "type": "string"
        },
        {
          "internalType": "string",
          "name": "description",
          "type": "string"
        },
        {
          "internalType": "uint256",
          "name": "distance",
          "type": "uint256"
        },
        {
          "internalType": "uint256",
          "name": "stake",
          "type": "uint256"
        },
        {
          "internalType": "uint256",
          "name": "totalFailedStake",
          "type": "uint256"
        },
        {
          "internalType": "uint256",
          "name": "startTimestamp",
          "type": "uint256"
        },
        {
          "internalType": "uint256",
          "name": "expiryTimestamp",
          "type": "uint256"
        },
        {
          "internalType": "bool",
          "name": "set",
          "type": "bool"
        }
      ],
      "stateMutability": "view",
      "type": "function"
    },
    {
      "inputs": [
        {
          "internalType": "uint256",
          "name": "_goalId",
          "type": "uint256"
        }
      ],
      "name": "joinGoal",
      "outputs": [],
      "stateMutability": "payable",
      "type": "function"
    },
    {
      "inputs": [],
      "name": "owner",
      "outputs": [
        {
          "internalType": "address",
          "name": "",
          "type": "address"
        }
      ],
      "stateMutability": "view",
      "type": "function"
    },
    {
      "inputs": [],
      "name": "renounceOwnership",
      "outputs": [],
      "stateMutability": "nonpayable",
      "type": "function"
    },
    {
      "inputs": [
        {
          "internalType": "address",
          "name": "newOwner",
          "type": "address"
        }
      ],
      "name": "transferOwnership",
      "outputs": [],
      "stateMutability": "nonpayable",
      "type": "function"
    },
    {
      "inputs": [
        {
          "internalType": "address",
          "name": "",
          "type": "address"
        }
      ],
      "name": "uncompletedUsersId",
      "outputs": [
        {
          "internalType": "bool",
          "name": "",
          "type": "bool"
        }
      ],
      "stateMutability": "view",
      "type": "function"
    },
    {
      "inputs": [
        {
          "internalType": "address",
          "name": "",
          "type": "address"
        }
      ],
      "name": "userAddressUsed",
      "outputs": [
        {
          "internalType": "bool",
          "name": "",
          "type": "bool"
        }
      ],
      "stateMutability": "view",
      "type": "function"
    },
    {
      "inputs": [],
      "name": "userCount",
      "outputs": [
        {
          "internalType": "uint256",
          "name": "",
          "type": "uint256"
        }
      ],
      "stateMutability": "view",
      "type": "function"
    },
    {
      "inputs": [
        {
          "internalType": "address",
          "name": "",
          "type": "address"
        }
      ],
      "name": "users",
      "outputs": [
        {
          "internalType": "address",
          "name": "walletAddress",
          "type": "address"
        }
      ],
      "stateMutability": "view",
      "type": "function"
    }
  ],
  "bytecode": "0x60806040523480156200001157600080fd5b5033600073ffffffffffffffffffffffffffffffffffffffff168173ffffffffffffffffffffffffffffffffffffffff1603620000885760006040517f1e4fbdf70000000000000000000000000000000000000000000000000000000081526004016200007f9190620001a9565b60405180910390fd5b6200009981620000a060201b60201c565b50620001c6565b60008060009054906101000a900473ffffffffffffffffffffffffffffffffffffffff169050816000806101000a81548173ffffffffffffffffffffffffffffffffffffffff021916908373ffffffffffffffffffffffffffffffffffffffff1602179055508173ffffffffffffffffffffffffffffffffffffffff168173ffffffffffffffffffffffffffffffffffffffff167f8be0079c531659141344cd1fd0a4f28419497f9722a3daafe3b4186f6b6457e060405160405180910390a35050565b600073ffffffffffffffffffffffffffffffffffffffff82169050919050565b6000620001918262000164565b9050919050565b620001a38162000184565b82525050565b6000602082019050620001c0600083018462000198565b92915050565b613b5880620001d66000396000f3fe6080604052600436106101345760003560e01c80637dc89c3e116100ab578063bbd4d1621161006f578063bbd4d162146103fc578063c158b90c1461043a578063de4b7bf314610456578063e75f6ca71461047f578063f2fde38b146104aa578063f7170067146104d357610134565b80637dc89c3e146103155780638010fa701461033e5780638da5cb5b14610369578063941af8e314610394578063a87430ba146103bf57610134565b806325ad91ce116100fd57806325ad91ce146102115780632b8c9c6e14610228578063386994201461026557806357caa5781461028e57806361449ca2146102b9578063715018a6146102fe57610134565b80620b46f8146101395780630712d74e1461016457806307973ccf1461018d5780630962ef79146101b85780630da8c007146101d4575b600080fd5b34801561014557600080fd5b5061014e610510565b60405161015b91906124c9565b60405180910390f35b34801561017057600080fd5b5061018b6004803603810190610186919061263e565b610515565b005b34801561019957600080fd5b506101a2610670565b6040516101af91906124c9565b60405180910390f35b6101d260048036038101906101cd91906126b3565b610676565b005b3480156101e057600080fd5b506101fb60048036038101906101f69190612705565b610b40565b60405161020891906124c9565b60405180910390f35b34801561021d57600080fd5b50610226610cf1565b005b34801561023457600080fd5b5061024f600480360381019061024a91906127a3565b610f17565b60405161025c91906127eb565b60405180910390f35b34801561027157600080fd5b5061028c60048036038101906102879190612806565b610f37565b005b34801561029a57600080fd5b506102a361132f565b6040516102b091906124c9565b60405180910390f35b3480156102c557600080fd5b506102e060048036038101906102db91906126b3565b611334565b6040516102f5999897969594939291906128d8565b60405180910390f35b34801561030a57600080fd5b5061031361149f565b005b34801561032157600080fd5b5061033c600480360381019061033791906126b3565b6114b3565b005b34801561034a57600080fd5b5061035361189b565b60405161036091906124c9565b60405180910390f35b34801561037557600080fd5b5061037e6118a1565b60405161038b9190612982565b60405180910390f35b3480156103a057600080fd5b506103a96118ca565b6040516103b691906124c9565b60405180910390f35b3480156103cb57600080fd5b506103e660048036038101906103e191906127a3565b6118cf565b6040516103f39190612982565b60405180910390f35b34801561040857600080fd5b50610423600480360381019061041e91906126b3565b61190d565b60405161043192919061299d565b60405180910390f35b610454600480360381019061044f91906126b3565b6119b9565b005b34801561046257600080fd5b5061047d600480360381019061047891906129cd565b611ec5565b005b34801561048b57600080fd5b506104946120ec565b6040516104a191906124c9565b60405180910390f35b3480156104b657600080fd5b506104d160048036038101906104cc91906127a3565b6120f2565b005b3480156104df57600080fd5b506104fa60048036038101906104f591906127a3565b612178565b60405161050791906127eb565b60405180910390f35b600281565b61051d612198565b6003805410610561576040517f08c379a000000000000000000000000000000000000000000000000000000000815260040161055890612b04565b60405180910390fd5b6040518060600160405280828152602001600067ffffffffffffffff81111561058d5761058c612513565b5b6040519080825280602002602001820160405280156105bb5781602001602082028036833780820191505090505b508152602001600081525060066000600354815260200190815260200160002060008201518160000190816105f09190612d30565b50602082015181600101908051906020019061060d9291906123bc565b50604082015181600201559050506003600081548092919061062e90612e31565b91905055506003547ffc4c098343bdea315bbb04df417978f4ff42ad020b84b0bd1e0ab10d828d42b5826040516106659190612e79565b60405180910390a250565b60015481565b33600073ffffffffffffffffffffffffffffffffffffffff16600460008373ffffffffffffffffffffffffffffffffffffffff1673ffffffffffffffffffffffffffffffffffffffff16815260200190815260200160002060000160009054906101000a900473ffffffffffffffffffffffffffffffffffffffff1673ffffffffffffffffffffffffffffffffffffffff1603610748576040517f08c379a000000000000000000000000000000000000000000000000000000000815260040161073f90612ee7565b60405180910390fd5b8160056000828152602001908152602001600020600a0160009054906101000a900460ff166107ac576040517f08c379a00000000000000000000000000000000000000000000000000000000081526004016107a390612f79565b60405180910390fd5b6005600084815260200190815260200160002060090154421015610805576040517f08c379a00000000000000000000000000000000000000000000000000000000081526004016107fc9061300b565b60405180910390fd5b600060056000858152602001908152602001600020905060048081111561082f5761082e61302b565b5b8160060160003373ffffffffffffffffffffffffffffffffffffffff1673ffffffffffffffffffffffffffffffffffffffff16815260200190815260200160002060020160009054906101000a900460ff1660048111156108935761089261302b565b5b036108d3576040517f08c379a00000000000000000000000000000000000000000000000000000000081526004016108ca906130a6565b60405180910390fd5b600360048111156108e7576108e661302b565b5b8160060160003373ffffffffffffffffffffffffffffffffffffffff1673ffffffffffffffffffffffffffffffffffffffff16815260200190815260200160002060020160009054906101000a900460ff16600481111561094b5761094a61302b565b5b1461098b576040517f08c379a000000000000000000000000000000000000000000000000000000000815260040161098290613138565b60405180910390fd5b60008160060160003373ffffffffffffffffffffffffffffffffffffffff1673ffffffffffffffffffffffffffffffffffffffff16815260200190815260200160002060000154905060008111610a17576040517f08c379a0000000000000000000000000000000000000000000000000000000008152600401610a0e906131ca565b60405180910390fd5b6000610a23338761221f565b90503373ffffffffffffffffffffffffffffffffffffffff166108fc829081150290604051600060405180830381858888f19350505050158015610a6b573d6000803e3d6000fd5b5080836004016000828254610a8091906131ea565b9250508190555060048360060160003373ffffffffffffffffffffffffffffffffffffffff1673ffffffffffffffffffffffffffffffffffffffff16815260200190815260200160002060020160006101000a81548160ff02191690836004811115610aef57610aee61302b565b5b0217905550853373ffffffffffffffffffffffffffffffffffffffff167ffc30cddea38e2bf4d6ea7d3f9ed3b6ad7f176419f4963bd81318067a4aee73fe60405160405180910390a3505050505050565b60008260056000828152602001908152602001600020600a0160009054906101000a900460ff16610ba6576040517f08c379a0000000000000000000000000000000000000000000000000000000008152600401610b9d90612f79565b60405180910390fd5b60006005600086815260200190815260200160002090506000805b8260070180549050811015610ce4576000836007018281548110610be857610be761321e565b5b9060005260206000200160009054906101000a900473ffffffffffffffffffffffffffffffffffffffff169050866004811115610c2857610c2761302b565b5b8460060160008373ffffffffffffffffffffffffffffffffffffffff1673ffffffffffffffffffffffffffffffffffffffff16815260200190815260200160002060020160009054906101000a900460ff166004811115610c8c57610c8b61302b565b5b1480610cbc575060006004811115610ca757610ca661302b565b5b876004811115610cba57610cb961302b565b5b145b15610cd0578280610ccc90612e31565b9350505b508080610cdc90612e31565b915050610bc1565b5080935050505092915050565b33600760008273ffffffffffffffffffffffffffffffffffffffff1673ffffffffffffffffffffffffffffffffffffffff16815260200190815260200160002060009054906101000a900460ff1615610d7f576040517f08c379a0000000000000000000000000000000000000000000000000000000008152600401610d76906132bf565b60405180910390fd5b66038d7ea4c680003373ffffffffffffffffffffffffffffffffffffffff16311015610de0576040517f08c379a0000000000000000000000000000000000000000000000000000000008152600401610dd790613351565b60405180910390fd5b33600460003373ffffffffffffffffffffffffffffffffffffffff1673ffffffffffffffffffffffffffffffffffffffff16815260200190815260200160002060000160006101000a81548173ffffffffffffffffffffffffffffffffffffffff021916908373ffffffffffffffffffffffffffffffffffffffff16021790555060016000815480929190610e7490612e31565b91905055506001600760003373ffffffffffffffffffffffffffffffffffffffff1673ffffffffffffffffffffffffffffffffffffffff16815260200190815260200160002060006101000a81548160ff0219169083151502179055503373ffffffffffffffffffffffffffffffffffffffff167f0b0376a109cbb578b709f85f6a7befcdac3ac1ab251c99ede87f30c9572ac4d360405160405180910390a250565b60076020528060005260406000206000915054906101000a900460ff1681565b610f3f612198565b818360056000838152602001908152602001600020600a0160009054906101000a900460ff16610fa4576040517f08c379a0000000000000000000000000000000000000000000000000000000008152600401610f9b906133e3565b60405180910390fd5b4260056000848152602001908152602001600020600901541015610fcc57610fcb826114b3565b5b6000600460008773ffffffffffffffffffffffffffffffffffffffff1673ffffffffffffffffffffffffffffffffffffffff16815260200190815260200160002090506000600560008781526020019081526020016000209050600073ffffffffffffffffffffffffffffffffffffffff168260000160009054906101000a900473ffffffffffffffffffffffffffffffffffffffff1673ffffffffffffffffffffffffffffffffffffffff16036110b9576040517f08c379a00000000000000000000000000000000000000000000000000000000081526004016110b09061344f565b60405180910390fd5b8060030154851015611100576040517f08c379a00000000000000000000000000000000000000000000000000000000081526004016110f7906134e1565b60405180910390fd5b600160048111156111145761111361302b565b5b8160060160008973ffffffffffffffffffffffffffffffffffffffff1673ffffffffffffffffffffffffffffffffffffffff16815260200190815260200160002060020160009054906101000a900460ff1660048111156111785761117761302b565b5b146111b8576040517f08c379a00000000000000000000000000000000000000000000000000000000081526004016111af90613573565b60405180910390fd5b600260048111156111cc576111cb61302b565b5b8160060160008973ffffffffffffffffffffffffffffffffffffffff1673ffffffffffffffffffffffffffffffffffffffff16815260200190815260200160002060020160009054906101000a900460ff1660048111156112305761122f61302b565b5b03611270576040517f08c379a000000000000000000000000000000000000000000000000000000000815260040161126790613605565b60405180910390fd5b60038160060160008973ffffffffffffffffffffffffffffffffffffffff1673ffffffffffffffffffffffffffffffffffffffff16815260200190815260200160002060020160006101000a81548160ff021916908360048111156112d8576112d761302b565b5b0217905550848160060160008973ffffffffffffffffffffffffffffffffffffffff1673ffffffffffffffffffffffffffffffffffffffff1681526020019081526020016000206001018190555050505050505050565b600381565b600560205280600052604060002060009150905080600001549080600101805461135d90612b53565b80601f016020809104026020016040519081016040528092919081815260200182805461138990612b53565b80156113d65780601f106113ab576101008083540402835291602001916113d6565b820191906000526020600020905b8154815290600101906020018083116113b957829003601f168201915b5050505050908060020180546113eb90612b53565b80601f016020809104026020016040519081016040528092919081815260200182805461141790612b53565b80156114645780601f1061143957610100808354040283529160200191611464565b820191906000526020600020905b81548152906001019060200180831161144757829003601f168201915b50505050509080600301549080600401549080600501549080600801549080600901549080600a0160009054906101000a900460ff16905089565b6114a7612198565b6114b160006122f0565b565b6114bb612198565b8060056000828152602001908152602001600020600a0160009054906101000a900460ff1661151f576040517f08c379a000000000000000000000000000000000000000000000000000000000815260040161151690612f79565b60405180910390fd5b6005600083815260200190815260200160002060090154421015611578576040517f08c379a000000000000000000000000000000000000000000000000000000000815260040161156f906136bd565b60405180910390fd5b600060056000848152602001908152602001600020905060005b81600701805490508110156118655760008260070182815481106115b9576115b861321e565b5b9060005260206000200160009054906101000a900473ffffffffffffffffffffffffffffffffffffffff169050600860008273ffffffffffffffffffffffffffffffffffffffff1673ffffffffffffffffffffffffffffffffffffffff16815260200190815260200160002060009054906101000a900460ff1615611851576002600481111561164c5761164b61302b565b5b8360060160008373ffffffffffffffffffffffffffffffffffffffff1673ffffffffffffffffffffffffffffffffffffffff16815260200190815260200160002060020160009054906101000a900460ff1660048111156116b0576116af61302b565b5b141580156117345750600360048111156116cd576116cc61302b565b5b8360060160008373ffffffffffffffffffffffffffffffffffffffff1673ffffffffffffffffffffffffffffffffffffffff16815260200190815260200160002060020160009054906101000a900460ff1660048111156117315761173061302b565b5b14155b156118505760028360060160008373ffffffffffffffffffffffffffffffffffffffff1673ffffffffffffffffffffffffffffffffffffffff16815260200190815260200160002060020160006101000a81548160ff021916908360048111156117a1576117a061302b565b5b02179055508260060160008273ffffffffffffffffffffffffffffffffffffffff1673ffffffffffffffffffffffffffffffffffffffff168152602001908152602001600020600001548360050160008282546117fe91906136dd565b9250508190555060008360060160008373ffffffffffffffffffffffffffffffffffffffff1673ffffffffffffffffffffffffffffffffffffffff168152602001908152602001600020600001819055505b5b50808061185d90612e31565b915050611592565b506006600082600001548152602001908152602001600020600201600081548092919061189190613711565b9190505550505050565b60035481565b60008060009054906101000a900473ffffffffffffffffffffffffffffffffffffffff16905090565b600381565b60046020528060005260406000206000915090508060000160009054906101000a900473ffffffffffffffffffffffffffffffffffffffff16905081565b600660205280600052604060002060009150905080600001805461193090612b53565b80601f016020809104026020016040519081016040528092919081815260200182805461195c90612b53565b80156119a95780601f1061197e576101008083540402835291602001916119a9565b820191906000526020600020905b81548152906001019060200180831161198c57829003601f168201915b5050505050908060020154905082565b33600073ffffffffffffffffffffffffffffffffffffffff16600460008373ffffffffffffffffffffffffffffffffffffffff1673ffffffffffffffffffffffffffffffffffffffff16815260200190815260200160002060000160009054906101000a900473ffffffffffffffffffffffffffffffffffffffff1673ffffffffffffffffffffffffffffffffffffffff1603611a8b576040517f08c379a0000000000000000000000000000000000000000000000000000000008152600401611a8290612ee7565b60405180910390fd5b8160056000828152602001908152602001600020600a0160009054906101000a900460ff16611aef576040517f08c379a0000000000000000000000000000000000000000000000000000000008152600401611ae690612f79565b60405180910390fd5b42600560008581526020019081526020016000206009015411611b47576040517f08c379a0000000000000000000000000000000000000000000000000000000008152600401611b3e90613786565b60405180910390fd5b42600560008581526020019081526020016000206008015410611b9f576040517f08c379a0000000000000000000000000000000000000000000000000000000008152600401611b9690613818565b60405180910390fd5b60003411611be2576040517f08c379a0000000000000000000000000000000000000000000000000000000008152600401611bd990613884565b60405180910390fd5b60006004811115611bf657611bf561302b565b5b6005600085815260200190815260200160002060060160003373ffffffffffffffffffffffffffffffffffffffff1673ffffffffffffffffffffffffffffffffffffffff16815260200190815260200160002060020160009054906101000a900460ff166004811115611c6c57611c6b61302b565b5b14611cac576040517f08c379a0000000000000000000000000000000000000000000000000000000008152600401611ca390613916565b60405180910390fd5b6001600860003373ffffffffffffffffffffffffffffffffffffffff1673ffffffffffffffffffffffffffffffffffffffff16815260200190815260200160002060006101000a81548160ff02191690831515021790555060405180606001604052803481526020016000815260200160016004811115611d3057611d2f61302b565b5b8152506005600085815260200190815260200160002060060160003373ffffffffffffffffffffffffffffffffffffffff1673ffffffffffffffffffffffffffffffffffffffff168152602001908152602001600020600082015181600001556020820151816001015560408201518160020160006101000a81548160ff02191690836004811115611dc557611dc461302b565b5b021790555090505060056000848152602001908152602001600020600701339080600181540180825580915050600190039060005260206000200160009091909190916101000a81548173ffffffffffffffffffffffffffffffffffffffff021916908373ffffffffffffffffffffffffffffffffffffffff16021790555034600560008581526020019081526020016000206004016000828254611e6a91906136dd565b92505081905550823373ffffffffffffffffffffffffffffffffffffffff167f8f301af230e39227ba203f0d3f6b4314b562b99636df1521ff13d5516a9d731634604051611eb891906124c9565b60405180910390a3505050565b611ecd612198565b6003600660008581526020019081526020016000206002015410611f26576040517f08c379a0000000000000000000000000000000000000000000000000000000008152600401611f1d906139a8565b60405180910390fd5b6000600560006002548152602001908152602001600020905083816000018190555086816001019081611f599190612d30565b5085816002019081611f6b9190612d30565b508481600301819055506000816004018190555060008160050181905550600067ffffffffffffffff811115611fa457611fa3612513565b5b604051908082528060200260200182016040528015611fd25781602001602082028036833780820191505090505b50816007019080519060200190611fea929190612409565b50828160080181905550818160090181905550600181600a0160006101000a81548160ff02191690831515021790555060066000858152602001908152602001600020600101600254908060018154018082558091505060019003906000526020600020016000909190919091505560066000858152602001908152602001600020600201600081548092919061208090612e31565b91905055506002547e0c04399f4baf711d12f07f4aecf69da41d97df1693cdef1f9086249d8b3f8a88888860008989896040516120c39796959493929190613a03565b60405180910390a2600260008154809291906120de90612e31565b919050555050505050505050565b60025481565b6120fa612198565b600073ffffffffffffffffffffffffffffffffffffffff168173ffffffffffffffffffffffffffffffffffffffff160361216c5760006040517f1e4fbdf70000000000000000000000000000000000000000000000000000000081526004016121639190612982565b60405180910390fd5b612175816122f0565b50565b60086020528060005260406000206000915054906101000a900460ff1681565b6121a06123b4565b73ffffffffffffffffffffffffffffffffffffffff166121be6118a1565b73ffffffffffffffffffffffffffffffffffffffff161461221d576121e16123b4565b6040517f118cdaa70000000000000000000000000000000000000000000000000000000081526004016122149190612982565b60405180910390fd5b565b60008060056000848152602001908152602001600020905060008160060160008673ffffffffffffffffffffffffffffffffffffffff1673ffffffffffffffffffffffffffffffffffffffff1681526020019081526020016000206000015490506000826005015490506000612296866003610b40565b9050600060646002856122a99190613a80565b6122b39190613af1565b9050600082846122c39190613af1565b905060008282876122d491906136dd565b6122de91906131ea565b90508097505050505050505092915050565b60008060009054906101000a900473ffffffffffffffffffffffffffffffffffffffff169050816000806101000a81548173ffffffffffffffffffffffffffffffffffffffff021916908373ffffffffffffffffffffffffffffffffffffffff1602179055508173ffffffffffffffffffffffffffffffffffffffff168173ffffffffffffffffffffffffffffffffffffffff167f8be0079c531659141344cd1fd0a4f28419497f9722a3daafe3b4186f6b6457e060405160405180910390a35050565b600033905090565b8280548282559060005260206000209081019282156123f8579160200282015b828111156123f75782518255916020019190600101906123dc565b5b5090506124059190612493565b5090565b828054828255906000526020600020908101928215612482579160200282015b828111156124815782518260006101000a81548173ffffffffffffffffffffffffffffffffffffffff021916908373ffffffffffffffffffffffffffffffffffffffff16021790555091602001919060010190612429565b5b50905061248f9190612493565b5090565b5b808211156124ac576000816000905550600101612494565b5090565b6000819050919050565b6124c3816124b0565b82525050565b60006020820190506124de60008301846124ba565b92915050565b6000604051905090565b600080fd5b600080fd5b600080fd5b600080fd5b6000601f19601f8301169050919050565b7f4e487b7100000000000000000000000000000000000000000000000000000000600052604160045260246000fd5b61254b82612502565b810181811067ffffffffffffffff8211171561256a57612569612513565b5b80604052505050565b600061257d6124e4565b90506125898282612542565b919050565b600067ffffffffffffffff8211156125a9576125a8612513565b5b6125b282612502565b9050602081019050919050565b82818337600083830152505050565b60006125e16125dc8461258e565b612573565b9050828152602081018484840111156125fd576125fc6124fd565b5b6126088482856125bf565b509392505050565b600082601f830112612625576126246124f8565b5b81356126358482602086016125ce565b91505092915050565b600060208284031215612654576126536124ee565b5b600082013567ffffffffffffffff811115612672576126716124f3565b5b61267e84828501612610565b91505092915050565b612690816124b0565b811461269b57600080fd5b50565b6000813590506126ad81612687565b92915050565b6000602082840312156126c9576126c86124ee565b5b60006126d78482850161269e565b91505092915050565b600581106126ed57600080fd5b50565b6000813590506126ff816126e0565b92915050565b6000806040838503121561271c5761271b6124ee565b5b600061272a8582860161269e565b925050602061273b858286016126f0565b9150509250929050565b600073ffffffffffffffffffffffffffffffffffffffff82169050919050565b600061277082612745565b9050919050565b61278081612765565b811461278b57600080fd5b50565b60008135905061279d81612777565b92915050565b6000602082840312156127b9576127b86124ee565b5b60006127c78482850161278e565b91505092915050565b60008115159050919050565b6127e5816127d0565b82525050565b600060208201905061280060008301846127dc565b92915050565b60008060006060848603121561281f5761281e6124ee565b5b600061282d8682870161278e565b935050602061283e8682870161269e565b925050604061284f8682870161269e565b9150509250925092565b600081519050919050565b600082825260208201905092915050565b60005b83811015612893578082015181840152602081019050612878565b60008484015250505050565b60006128aa82612859565b6128b48185612864565b93506128c4818560208601612875565b6128cd81612502565b840191505092915050565b6000610120820190506128ee600083018c6124ba565b8181036020830152612900818b61289f565b90508181036040830152612914818a61289f565b905061292360608301896124ba565b61293060808301886124ba565b61293d60a08301876124ba565b61294a60c08301866124ba565b61295760e08301856124ba565b6129656101008301846127dc565b9a9950505050505050505050565b61297c81612765565b82525050565b60006020820190506129976000830184612973565b92915050565b600060408201905081810360008301526129b7818561289f565b90506129c660208301846124ba565b9392505050565b60008060008060008060c087890312156129ea576129e96124ee565b5b600087013567ffffffffffffffff811115612a0857612a076124f3565b5b612a1489828a01612610565b965050602087013567ffffffffffffffff811115612a3557612a346124f3565b5b612a4189828a01612610565b9550506040612a5289828a0161269e565b9450506060612a6389828a0161269e565b9350506080612a7489828a0161269e565b92505060a0612a8589828a0161269e565b9150509295509295509295565b7f4d6178696d756d206e756d626572206f6620676f616c20706f6f6c732072656160008201527f6368656400000000000000000000000000000000000000000000000000000000602082015250565b6000612aee602483612864565b9150612af982612a92565b604082019050919050565b60006020820190508181036000830152612b1d81612ae1565b9050919050565b7f4e487b7100000000000000000000000000000000000000000000000000000000600052602260045260246000fd5b60006002820490506001821680612b6b57607f821691505b602082108103612b7e57612b7d612b24565b5b50919050565b60008190508160005260206000209050919050565b60006020601f8301049050919050565b600082821b905092915050565b600060088302612be67fffffffffffffffffffffffffffffffffffffffffffffffffffffffffffffffff82612ba9565b612bf08683612ba9565b95508019841693508086168417925050509392505050565b6000819050919050565b6000612c2d612c28612c23846124b0565b612c08565b6124b0565b9050919050565b6000819050919050565b612c4783612c12565b612c5b612c5382612c34565b848454612bb6565b825550505050565b600090565b612c70612c63565b612c7b818484612c3e565b505050565b5b81811015612c9f57612c94600082612c68565b600181019050612c81565b5050565b601f821115612ce457612cb581612b84565b612cbe84612b99565b81016020851015612ccd578190505b612ce1612cd985612b99565b830182612c80565b50505b505050565b600082821c905092915050565b6000612d0760001984600802612ce9565b1980831691505092915050565b6000612d208383612cf6565b9150826002028217905092915050565b612d3982612859565b67ffffffffffffffff811115612d5257612d51612513565b5b612d5c8254612b53565b612d67828285612ca3565b600060209050601f831160018114612d9a5760008415612d88578287015190505b612d928582612d14565b865550612dfa565b601f198416612da886612b84565b60005b82811015612dd057848901518255600182019150602085019450602081019050612dab565b86831015612ded5784890151612de9601f891682612cf6565b8355505b6001600288020188555050505b505050505050565b7f4e487b7100000000000000000000000000000000000000000000000000000000600052601160045260246000fd5b6000612e3c826124b0565b91507fffffffffffffffffffffffffffffffffffffffffffffffffffffffffffffffff8203612e6e57612e6d612e02565b5b600182019050919050565b60006020820190508181036000830152612e93818461289f565b905092915050565b7f55736572206d7573742065786973740000000000000000000000000000000000600082015250565b6000612ed1600f83612864565b9150612edc82612e9b565b602082019050919050565b60006020820190508181036000830152612f0081612ec4565b9050919050565b7f676f616c4578697374733a20696e76616c696420676f616c2069642c20676f6160008201527f6c20646f6573206e6f7420657869737400000000000000000000000000000000602082015250565b6000612f63603083612864565b9150612f6e82612f07565b604082019050919050565b60006020820190508181036000830152612f9281612f56565b9050919050565b7f636c61696d526577617264733a20476f616c206d75737420626520657870697260008201527f6564000000000000000000000000000000000000000000000000000000000000602082015250565b6000612ff5602283612864565b915061300082612f99565b604082019050919050565b6000602082019050818103600083015261302481612fe8565b9050919050565b7f4e487b7100000000000000000000000000000000000000000000000000000000600052602160045260246000fd5b7f557365722068617320616c726561647920636c61696d65642072657761726473600082015250565b6000613090602083612864565b915061309b8261305a565b602082019050919050565b600060208201905081810360008301526130bf81613083565b9050919050565b7f55736572206d757374206861766520636f6d706c657465642074686520676f6160008201527f6c00000000000000000000000000000000000000000000000000000000000000602082015250565b6000613122602183612864565b915061312d826130c6565b604082019050919050565b6000602082019050818103600083015261315181613115565b9050919050565b7f55736572206d7573742068617665207374616b656420457468657220696e207460008201527f686520676f616c00000000000000000000000000000000000000000000000000602082015250565b60006131b4602783612864565b91506131bf82613158565b604082019050919050565b600060208201905081810360008301526131e3816131a7565b9050919050565b60006131f5826124b0565b9150613200836124b0565b925082820390508181111561321857613217612e02565b5b92915050565b7f4e487b7100000000000000000000000000000000000000000000000000000000600052603260045260246000fd5b7f557365722063616e206f6e6c792063726561746520616e206163636f756e742060008201527f6f6e636500000000000000000000000000000000000000000000000000000000602082015250565b60006132a9602483612864565b91506132b48261324d565b604082019050919050565b600060208201905081810360008301526132d88161329c565b9050919050565b7f55736572206d7573742068617665206174206c6561737420302e30303120455460008201527f4820696e2074686569722077616c6c6574000000000000000000000000000000602082015250565b600061333b603183612864565b9150613346826132df565b604082019050919050565b6000602082019050818103600083015261336a8161332e565b9050919050565b7f6d61726b4661696c65644966457870697265643a20696e76616c696420676f6160008201527f6c2069642c20676f616c20646f6573206e6f7420657869737400000000000000602082015250565b60006133cd603983612864565b91506133d882613371565b604082019050919050565b600060208201905081810360008301526133fc816133c0565b9050919050565b7f636f6d706c657465476f616c3a2075736572206d757374206578697374000000600082015250565b6000613439601d83612864565b915061344482613403565b602082019050919050565b600060208201905081810360008301526134688161342c565b9050919050565b7f557365722064697374616e6365206d757374206265206772656174657220746860008201527f616e206f7220657175616c20746f2074686520676f616c2064697374616e6365602082015250565b60006134cb604083612864565b91506134d68261346f565b604082019050919050565b600060208201905081810360008301526134fa816134be565b9050919050565b7f5573657220697320726571756972656420746f2068617665206a6f696e65642060008201527f74686520676f616c000000000000000000000000000000000000000000000000602082015250565b600061355d602883612864565b915061356882613501565b604082019050919050565b6000602082019050818103600083015261358c81613550565b9050919050565b7f55736572206d757374206e6f74206265206d61726b6564206173206661696c6560008201527f6400000000000000000000000000000000000000000000000000000000000000602082015250565b60006135ef602183612864565b91506135fa82613593565b604082019050919050565b6000602082019050818103600083015261361e816135e2565b9050919050565b7f476f616c206d757374206265206578706972656420696e206f7264657220666f60008201527f7220757365727320746f2068617665206661696c656420746865697220676f6160208201527f6c00000000000000000000000000000000000000000000000000000000000000604082015250565b60006136a7604183612864565b91506136b282613625565b606082019050919050565b600060208201905081810360008301526136d68161369a565b9050919050565b60006136e8826124b0565b91506136f3836124b0565b925082820190508082111561370b5761370a612e02565b5b92915050565b600061371c826124b0565b91506000820361372f5761372e612e02565b5b600182039050919050565b7f43616e6e6f74206a6f696e20616e206578706972656420676f616c0000000000600082015250565b6000613770601b83612864565b915061377b8261373a565b602082019050919050565b6000602082019050818103600083015261379f81613763565b9050919050565b7f43616e6e6f74206a6f696e206120676f616c207468617420686173207374617260008201527f7465642e00000000000000000000000000000000000000000000000000000000602082015250565b6000613802602483612864565b915061380d826137a6565b604082019050919050565b60006020820190508181036000830152613831816137f5565b9050919050565b7f596f75206d757374207374616b6520746f206a6f696e2074686520706f6f6c2e600082015250565b600061386e602083612864565b915061387982613838565b602082019050919050565b6000602082019050818103600083015261389d81613861565b9050919050565b7f557365722068617320616c72656164792070617274696369706174656420696e60008201527f2074686520676f616c0000000000000000000000000000000000000000000000602082015250565b6000613900602983612864565b915061390b826138a4565b604082019050919050565b6000602082019050818103600083015261392f816138f3565b9050919050565b7f4d6178696d756d206e756d626572206f662061637469766520676f616c73207060008201527f657220706f6f6c20726561636865640000000000000000000000000000000000602082015250565b6000613992602f83612864565b915061399d82613936565b604082019050919050565b600060208201905081810360008301526139c181613985565b9050919050565b6000819050919050565b60006139ed6139e86139e3846139c8565b612c08565b6124b0565b9050919050565b6139fd816139d2565b82525050565b600060e0820190508181036000830152613a1d818a61289f565b90508181036020830152613a31818961289f565b9050613a4060408301886124ba565b613a4d60608301876139f4565b613a5a60808301866124ba565b613a6760a08301856124ba565b613a7460c08301846124ba565b98975050505050505050565b6000613a8b826124b0565b9150613a96836124b0565b9250828202613aa4816124b0565b91508282048414831517613abb57613aba612e02565b5b5092915050565b7f4e487b7100000000000000000000000000000000000000000000000000000000600052601260045260246000fd5b6000613afc826124b0565b9150613b07836124b0565b925082613b1757613b16613ac2565b5b82820490509291505056fea2646970667358221220e1131ea0a0a6d9597f209ebaa1c844477f6d2d14275b9091bb6967274947e99364736f6c63430008140033",
  "linkReferences": {},
  "deployedLinkReferences": {}
}