{
  "_format": "hh-sol-artifact-1",
  "contractName": "Goalfi",
  "sourceName": "contracts/Goalfi.sol",
  "abi": [
    {
      "inputs": [
        {
          "internalType": "uint64",
          "name": "functionsSubscriptionId",
          "type": "uint64"
        },
        {
          "internalType": "string",
          "name": "_source",
          "type": "string"
        }
      ],
      "stateMutability": "nonpayable",
      "type": "constructor"
    },
    {
      "inputs": [],
      "name": "EmptyArgs",
      "type": "error"
    },
    {
      "inputs": [],
      "name": "EmptySource",
      "type": "error"
    },
    {
      "inputs": [],
      "name": "NoInlineSecrets",
      "type": "error"
    },
    {
      "inputs": [],
      "name": "OnlyRouterCanFulfill",
      "type": "error"
    },
    {
      "inputs": [
        {
          "internalType": "address",
          "name": "owner",
          "type": "address"
        }
      ],
      "name": "OwnableInvalidOwner",
      "type": "error"
    },
    {
      "inputs": [
        {
          "internalType": "address",
          "name": "account",
          "type": "address"
        }
      ],
      "name": "OwnableUnauthorizedAccount",
      "type": "error"
    },
    {
      "anonymous": false,
      "inputs": [
        {
          "indexed": true,
          "internalType": "bytes32",
          "name": "requestId",
          "type": "bytes32"
        },
        {
          "indexed": false,
          "internalType": "string",
          "name": "activityType",
          "type": "string"
        }
      ],
      "name": "APIRequestSent",
      "type": "event"
    },
    {
      "anonymous": false,
      "inputs": [
        {
          "indexed": true,
          "internalType": "uint256",
          "name": "goalId",
          "type": "uint256"
        },
        {
          "indexed": false,
          "internalType": "string",
          "name": "activity",
          "type": "string"
        },
        {
          "indexed": false,
          "internalType": "string",
          "name": "description",
          "type": "string"
        },
        {
          "indexed": false,
          "internalType": "uint256",
          "name": "distance",
          "type": "uint256"
        },
        {
          "indexed": false,
          "internalType": "uint256",
          "name": "startTimestamp",
          "type": "uint256"
        },
        {
          "indexed": false,
          "internalType": "uint256",
          "name": "expiryTimestamp",
          "type": "uint256"
        }
      ],
      "name": "GoalCreated",
      "type": "event"
    },
    {
      "anonymous": false,
      "inputs": [
        {
          "indexed": true,
          "internalType": "uint256",
          "name": "goalId",
          "type": "uint256"
        }
      ],
      "name": "GoalEvaluated",
      "type": "event"
    },
    {
      "anonymous": false,
      "inputs": [
        {
          "indexed": true,
          "internalType": "address",
          "name": "previousOwner",
          "type": "address"
        },
        {
          "indexed": true,
          "internalType": "address",
          "name": "newOwner",
          "type": "address"
        }
      ],
      "name": "OwnershipTransferred",
      "type": "event"
    },
    {
      "anonymous": false,
      "inputs": [
        {
          "indexed": true,
          "internalType": "bytes32",
          "name": "id",
          "type": "bytes32"
        }
      ],
      "name": "RequestFulfilled",
      "type": "event"
    },
    {
      "anonymous": false,
      "inputs": [
        {
          "indexed": true,
          "internalType": "bytes32",
          "name": "id",
          "type": "bytes32"
        }
      ],
      "name": "RequestSent",
      "type": "event"
    },
    {
      "anonymous": false,
      "inputs": [
        {
          "indexed": true,
          "internalType": "bytes32",
          "name": "requestId",
          "type": "bytes32"
        },
        {
          "indexed": false,
          "internalType": "string",
          "name": "activityData",
          "type": "string"
        },
        {
          "indexed": false,
          "internalType": "bytes",
          "name": "response",
          "type": "bytes"
        },
        {
          "indexed": false,
          "internalType": "bytes",
          "name": "err",
          "type": "bytes"
        }
      ],
      "name": "Response",
      "type": "event"
    },
    {
      "anonymous": false,
      "inputs": [
        {
          "indexed": true,
          "internalType": "address",
          "name": "walletAddress",
          "type": "address"
        },
        {
          "indexed": true,
          "internalType": "uint256",
          "name": "goalId",
          "type": "uint256"
        }
      ],
      "name": "RewardsClaimed",
      "type": "event"
    },
    {
      "anonymous": false,
      "inputs": [
        {
          "indexed": true,
          "internalType": "address",
          "name": "walletAddress",
          "type": "address"
        }
      ],
      "name": "UserCreated",
      "type": "event"
    },
    {
      "anonymous": false,
      "inputs": [
        {
          "indexed": true,
          "internalType": "address",
          "name": "walletAddress",
          "type": "address"
        },
        {
          "indexed": true,
          "internalType": "uint256",
          "name": "goalId",
          "type": "uint256"
        },
        {
          "indexed": false,
          "internalType": "uint256",
          "name": "stake",
          "type": "uint256"
        }
      ],
      "name": "UserJoinedGoal",
      "type": "event"
    },
    {
      "anonymous": false,
      "inputs": [
        {
          "indexed": true,
          "internalType": "address",
          "name": "walletAddress",
          "type": "address"
        },
        {
          "indexed": true,
          "internalType": "uint256",
          "name": "goalId",
          "type": "uint256"
        },
        {
          "indexed": false,
          "internalType": "enum Goalfi.UserProgress",
          "name": "newStatus",
          "type": "uint8"
        }
      ],
      "name": "UserProgressUpdated",
      "type": "event"
    },
    {
      "inputs": [],
      "name": "FEE_PERCENTAGE",
      "outputs": [
        {
          "internalType": "uint256",
          "name": "",
          "type": "uint256"
        }
      ],
      "stateMutability": "view",
      "type": "function"
    },
    {
      "inputs": [],
      "name": "activeGoalCount",
      "outputs": [
        {
          "internalType": "uint256",
          "name": "",
          "type": "uint256"
        }
      ],
      "stateMutability": "view",
      "type": "function"
    },
    {
      "inputs": [
        {
          "internalType": "bytes32",
          "name": "",
          "type": "bytes32"
        }
      ],
      "name": "activities",
      "outputs": [
        {
          "internalType": "string",
          "name": "activityType",
          "type": "string"
        },
        {
          "internalType": "string",
          "name": "activityData",
          "type": "string"
        }
      ],
      "stateMutability": "view",
      "type": "function"
    },
    {
      "inputs": [
        {
          "internalType": "uint256",
          "name": "_goalId",
          "type": "uint256"
        }
      ],
      "name": "claimRewards",
      "outputs": [],
      "stateMutability": "payable",
      "type": "function"
    },
    {
      "inputs": [
        {
          "internalType": "uint256",
          "name": "_goalId",
          "type": "uint256"
        }
      ],
      "name": "closeGoal",
      "outputs": [],
      "stateMutability": "nonpayable",
      "type": "function"
    },
    {
      "inputs": [
        {
          "internalType": "uint256",
          "name": "_goalId",
          "type": "uint256"
        },
        {
          "internalType": "enum Goalfi.UserProgress",
          "name": "progress",
          "type": "uint8"
        }
      ],
      "name": "countGoalParticipantsAtProgress",
      "outputs": [
        {
          "internalType": "uint256",
          "name": "",
          "type": "uint256"
        }
      ],
      "stateMutability": "view",
      "type": "function"
    },
    {
      "inputs": [
        {
          "internalType": "string",
          "name": "_activity",
          "type": "string"
        },
        {
          "internalType": "string",
          "name": "_description",
          "type": "string"
        },
        {
          "internalType": "uint256",
          "name": "_distance",
          "type": "uint256"
        },
        {
          "internalType": "uint256",
          "name": "_startTimestamp",
          "type": "uint256"
        },
        {
          "internalType": "uint256",
          "name": "_expiryTimestamp",
          "type": "uint256"
        }
      ],
      "name": "createGoal",
      "outputs": [],
      "stateMutability": "nonpayable",
      "type": "function"
    },
    {
      "inputs": [],
      "name": "createUser",
      "outputs": [],
      "stateMutability": "nonpayable",
      "type": "function"
    },
    {
      "inputs": [
        {
          "internalType": "string",
          "name": "accessToken",
          "type": "string"
        },
        {
          "internalType": "string",
          "name": "activityType",
          "type": "string"
        },
        {
          "internalType": "address",
          "name": "walletAddress",
          "type": "address"
        },
        {
          "internalType": "uint256",
          "name": "goalId",
          "type": "uint256"
        }
      ],
      "name": "executeRequest",
      "outputs": [
        {
          "internalType": "bytes32",
          "name": "requestId",
          "type": "bytes32"
        }
      ],
      "stateMutability": "nonpayable",
      "type": "function"
    },
    {
      "inputs": [],
      "name": "getLastActivity",
      "outputs": [
        {
          "components": [
            {
              "internalType": "string",
              "name": "activityType",
              "type": "string"
            },
            {
              "internalType": "string",
              "name": "activityData",
              "type": "string"
            }
          ],
          "internalType": "struct Goalfi.ActivityStruct",
          "name": "",
          "type": "tuple"
        }
      ],
      "stateMutability": "view",
      "type": "function"
    },
    {
      "inputs": [
        {
          "internalType": "uint256",
          "name": "_goalId",
          "type": "uint256"
        }
      ],
      "name": "getParticipantAddresses",
      "outputs": [
        {
          "internalType": "address[]",
          "name": "",
          "type": "address[]"
        }
      ],
      "stateMutability": "view",
      "type": "function"
    },
    {
      "inputs": [
        {
          "internalType": "uint256",
          "name": "_goalId",
          "type": "uint256"
        },
        {
          "internalType": "address",
          "name": "_userAddress",
          "type": "address"
        }
      ],
      "name": "getParticipantProgress",
      "outputs": [
        {
          "internalType": "enum Goalfi.UserProgress",
          "name": "",
          "type": "uint8"
        }
      ],
      "stateMutability": "view",
      "type": "function"
    },
    {
      "inputs": [
        {
          "internalType": "uint256",
          "name": "id",
          "type": "uint256"
        }
      ],
      "name": "getUserAddress",
      "outputs": [
        {
          "internalType": "address",
          "name": "",
          "type": "address"
        }
      ],
      "stateMutability": "view",
      "type": "function"
    },
    {
      "inputs": [
        {
          "internalType": "address",
          "name": "walletAddress",
          "type": "address"
        },
        {
          "internalType": "uint256",
          "name": "goalId",
          "type": "uint256"
        }
      ],
      "name": "getUserDistance",
      "outputs": [
        {
          "internalType": "uint256",
          "name": "",
          "type": "uint256"
        }
      ],
      "stateMutability": "view",
      "type": "function"
    },
    {
      "inputs": [
        {
          "internalType": "address",
          "name": "walletAddress",
          "type": "address"
        }
      ],
      "name": "getUserId",
      "outputs": [
        {
          "internalType": "uint256",
          "name": "",
          "type": "uint256"
        }
      ],
      "stateMutability": "view",
      "type": "function"
    },
    {
      "inputs": [
        {
          "internalType": "address",
          "name": "walletAddress",
          "type": "address"
        }
      ],
      "name": "getUserTotalRewards",
      "outputs": [
        {
          "internalType": "uint256",
          "name": "",
          "type": "uint256"
        }
      ],
      "stateMutability": "view",
      "type": "function"
    },
    {
      "inputs": [],
      "name": "goalCount",
      "outputs": [
        {
          "internalType": "uint256",
          "name": "",
          "type": "uint256"
        }
      ],
      "stateMutability": "view",
      "type": "function"
    },
    {
      "inputs": [
        {
          "internalType": "uint256",
          "name": "",
          "type": "uint256"
        }
      ],
      "name": "goals",
      "outputs": [
        {
          "internalType": "uint256",
          "name": "goalId",
          "type": "uint256"
        },
        {
          "internalType": "string",
          "name": "activity",
          "type": "string"
        },
        {
          "internalType": "string",
          "name": "description",
          "type": "string"
        },
        {
          "internalType": "uint256",
          "name": "distance",
          "type": "uint256"
        },
        {
          "internalType": "uint256",
          "name": "stake",
          "type": "uint256"
        },
        {
          "internalType": "uint256",
          "name": "failedStake",
          "type": "uint256"
        },
        {
          "internalType": "uint256",
          "name": "startTimestamp",
          "type": "uint256"
        },
        {
          "internalType": "uint256",
          "name": "expiryTimestamp",
          "type": "uint256"
        },
        {
          "internalType": "bool",
          "name": "set",
          "type": "bool"
        }
      ],
      "stateMutability": "view",
      "type": "function"
    },
    {
      "inputs": [
        {
          "internalType": "bytes32",
          "name": "requestId",
          "type": "bytes32"
        },
        {
          "internalType": "bytes",
          "name": "response",
          "type": "bytes"
        },
        {
          "internalType": "bytes",
          "name": "err",
          "type": "bytes"
        }
      ],
      "name": "handleOracleFulfillment",
      "outputs": [],
      "stateMutability": "nonpayable",
      "type": "function"
    },
    {
      "inputs": [
        {
          "internalType": "uint256",
          "name": "_goalId",
          "type": "uint256"
        }
      ],
      "name": "joinGoal",
      "outputs": [],
      "stateMutability": "payable",
      "type": "function"
    },
    {
      "inputs": [],
      "name": "lastError",
      "outputs": [
        {
          "internalType": "bytes",
          "name": "",
          "type": "bytes"
        }
      ],
      "stateMutability": "view",
      "type": "function"
    },
    {
      "inputs": [],
      "name": "lastRequestId",
      "outputs": [
        {
          "internalType": "bytes32",
          "name": "",
          "type": "bytes32"
        }
      ],
      "stateMutability": "view",
      "type": "function"
    },
    {
      "inputs": [],
      "name": "lastResponse",
      "outputs": [
        {
          "internalType": "bytes",
          "name": "",
          "type": "bytes"
        }
      ],
      "stateMutability": "view",
      "type": "function"
    },
    {
      "inputs": [],
      "name": "owner",
      "outputs": [
        {
          "internalType": "address",
          "name": "",
          "type": "address"
        }
      ],
      "stateMutability": "view",
      "type": "function"
    },
    {
      "inputs": [],
      "name": "renounceOwnership",
      "outputs": [],
      "stateMutability": "nonpayable",
      "type": "function"
    },
    {
      "inputs": [
        {
          "internalType": "bytes32",
          "name": "",
          "type": "bytes32"
        }
      ],
      "name": "requestDetails",
      "outputs": [
        {
          "internalType": "address",
          "name": "walletAddress",
          "type": "address"
        },
        {
          "internalType": "uint256",
          "name": "goalId",
          "type": "uint256"
        }
      ],
      "stateMutability": "view",
      "type": "function"
    },
    {
      "inputs": [
        {
          "internalType": "uint256",
          "name": "",
          "type": "uint256"
        }
      ],
      "name": "requestIds",
      "outputs": [
        {
          "internalType": "bytes32",
          "name": "",
          "type": "bytes32"
        }
      ],
      "stateMutability": "view",
      "type": "function"
    },
    {
      "inputs": [
        {
          "internalType": "bytes32",
          "name": "",
          "type": "bytes32"
        }
      ],
      "name": "requests",
      "outputs": [
        {
          "internalType": "bool",
          "name": "fulfilled",
          "type": "bool"
        },
        {
          "internalType": "bool",
          "name": "exists",
          "type": "bool"
        },
        {
          "internalType": "bytes",
          "name": "response",
          "type": "bytes"
        },
        {
          "internalType": "bytes",
          "name": "err",
          "type": "bytes"
        }
      ],
      "stateMutability": "view",
      "type": "function"
    },
    {
      "inputs": [
        {
          "internalType": "string",
          "name": "_source",
          "type": "string"
        }
      ],
      "name": "setSource",
      "outputs": [],
      "stateMutability": "nonpayable",
      "type": "function"
    },
    {
      "inputs": [],
      "name": "source",
      "outputs": [
        {
          "internalType": "string",
          "name": "",
          "type": "string"
        }
      ],
      "stateMutability": "view",
      "type": "function"
    },
    {
      "inputs": [],
      "name": "subscriptionId",
      "outputs": [
        {
          "internalType": "uint64",
          "name": "",
          "type": "uint64"
        }
      ],
      "stateMutability": "view",
      "type": "function"
    },
    {
      "inputs": [
        {
          "internalType": "address",
          "name": "newOwner",
          "type": "address"
        }
      ],
      "name": "transferOwnership",
      "outputs": [],
      "stateMutability": "nonpayable",
      "type": "function"
    },
    {
      "inputs": [
        {
          "internalType": "address",
          "name": "",
          "type": "address"
        }
      ],
      "name": "userAddressUsed",
      "outputs": [
        {
          "internalType": "bool",
          "name": "",
          "type": "bool"
        }
      ],
      "stateMutability": "view",
      "type": "function"
    },
    {
      "inputs": [],
      "name": "userCount",
      "outputs": [
        {
          "internalType": "uint256",
          "name": "",
          "type": "uint256"
        }
      ],
      "stateMutability": "view",
      "type": "function"
    },
    {
      "inputs": [
        {
          "internalType": "uint256",
          "name": "",
          "type": "uint256"
        }
      ],
      "name": "userIds",
      "outputs": [
        {
          "internalType": "address",
          "name": "",
          "type": "address"
        }
      ],
      "stateMutability": "view",
      "type": "function"
    },
    {
      "inputs": [
        {
          "internalType": "address",
          "name": "",
          "type": "address"
        }
      ],
      "name": "users",
      "outputs": [
        {
          "internalType": "address",
          "name": "walletAddress",
          "type": "address"
        },
        {
          "internalType": "uint256",
          "name": "id",
          "type": "uint256"
        },
        {
          "internalType": "uint256",
          "name": "totalRewards",
          "type": "uint256"
        }
      ],
      "stateMutability": "view",
      "type": "function"
    }
  ],
  "bytecode": "0x60a060405273a9d587a00a31a52ed70d6026794a8fc5e2f5dcb0600160006101000a81548173ffffffffffffffffffffffffffffffffffffffff021916908373ffffffffffffffffffffffffffffffffffffffff1602179055507f66756e2d6176616c616e6368652d66756a692d3100000000000000000000000060001b600255620493e0600360006101000a81548163ffffffff021916908363ffffffff160217905550348015620000b157600080fd5b5060405162006891380380620068918339818101604052810190620000d7919062000496565b600160009054906101000a900473ffffffffffffffffffffffffffffffffffffffff1633600073ffffffffffffffffffffffffffffffffffffffff168173ffffffffffffffffffffffffffffffffffffffff1603620001705760006040517f1e4fbdf700000000000000000000000000000000000000000000000000000000815260040162000167919062000541565b60405180910390fd5b6200018181620001fa60201b60201c565b508073ffffffffffffffffffffffffffffffffffffffff1660808173ffffffffffffffffffffffffffffffffffffffff16815250505081600560006101000a81548167ffffffffffffffff021916908367ffffffffffffffff1602179055508060069081620001f19190620007a9565b50505062000890565b60008060009054906101000a900473ffffffffffffffffffffffffffffffffffffffff169050816000806101000a81548173ffffffffffffffffffffffffffffffffffffffff021916908373ffffffffffffffffffffffffffffffffffffffff1602179055508173ffffffffffffffffffffffffffffffffffffffff168173ffffffffffffffffffffffffffffffffffffffff167f8be0079c531659141344cd1fd0a4f28419497f9722a3daafe3b4186f6b6457e060405160405180910390a35050565b6000604051905090565b600080fd5b600080fd5b600067ffffffffffffffff82169050919050565b620002f181620002d2565b8114620002fd57600080fd5b50565b6000815190506200031181620002e6565b92915050565b600080fd5b600080fd5b6000601f19601f8301169050919050565b7f4e487b7100000000000000000000000000000000000000000000000000000000600052604160045260246000fd5b6200036c8262000321565b810181811067ffffffffffffffff821117156200038e576200038d62000332565b5b80604052505050565b6000620003a3620002be565b9050620003b1828262000361565b919050565b600067ffffffffffffffff821115620003d457620003d362000332565b5b620003df8262000321565b9050602081019050919050565b60005b838110156200040c578082015181840152602081019050620003ef565b60008484015250505050565b60006200042f6200042984620003b6565b62000397565b9050828152602081018484840111156200044e576200044d6200031c565b5b6200045b848285620003ec565b509392505050565b600082601f8301126200047b576200047a62000317565b5b81516200048d84826020860162000418565b91505092915050565b60008060408385031215620004b057620004af620002c8565b5b6000620004c08582860162000300565b925050602083015167ffffffffffffffff811115620004e457620004e3620002cd565b5b620004f28582860162000463565b9150509250929050565b600073ffffffffffffffffffffffffffffffffffffffff82169050919050565b60006200052982620004fc565b9050919050565b6200053b816200051c565b82525050565b600060208201905062000558600083018462000530565b92915050565b600081519050919050565b7f4e487b7100000000000000000000000000000000000000000000000000000000600052602260045260246000fd5b60006002820490506001821680620005b157607f821691505b602082108103620005c757620005c662000569565b5b50919050565b60008190508160005260206000209050919050565b60006020601f8301049050919050565b600082821b905092915050565b600060088302620006317fffffffffffffffffffffffffffffffffffffffffffffffffffffffffffffffff82620005f2565b6200063d8683620005f2565b95508019841693508086168417925050509392505050565b6000819050919050565b6000819050919050565b60006200068a620006846200067e8462000655565b6200065f565b62000655565b9050919050565b6000819050919050565b620006a68362000669565b620006be620006b58262000691565b848454620005ff565b825550505050565b600090565b620006d5620006c6565b620006e28184846200069b565b505050565b5b818110156200070a57620006fe600082620006cb565b600181019050620006e8565b5050565b601f82111562000759576200072381620005cd565b6200072e84620005e2565b810160208510156200073e578190505b620007566200074d85620005e2565b830182620006e7565b50505b505050565b600082821c905092915050565b60006200077e600019846008026200075e565b1980831691505092915050565b60006200079983836200076b565b9150826002028217905092915050565b620007b4826200055e565b67ffffffffffffffff811115620007d057620007cf62000332565b5b620007dc825462000598565b620007e98282856200070e565b600060209050601f8311600181146200082157600084156200080c578287015190505b6200081885826200078b565b86555062000888565b601f1984166200083186620005cd565b60005b828110156200085b5784890151825560018201915060208501945060208101905062000834565b868310156200087b578489015162000877601f8916826200076b565b8355505b6001600288020188555050505b505050505050565b608051615fde620008b360003960008181610e4801526136ea0152615fde6000f3fe60806040526004361061020e5760003560e01c8063715018a611610118578063a87430ba116100a0578063e75f6ca71161006f578063e75f6ca71461082b578063f2fde38b14610856578063f51b71561461087f578063f9e0913f146108a8578063fc2a88c3146108d35761020e565b8063a87430ba1461076a578063bce8ed4d146107a9578063c158b90c146107d2578063d6901c98146107ee5761020e565b80638da5cb5b116100e75780638da5cb5b1461065c57806390d976e21461068757806399d25455146106c45780639cc0dd48146106ed5780639d8669851461072a5761020e565b8063715018a61461059f5780637922f426146105b65780637e2f0e16146105f45780638796ba8c1461061f5761020e565b80632b956ff71161019b57806361449ca21161016a57806361449ca21461048a57806362747e42146104cf578063666c4b5c146104fa57806367e828bf146105375780636fde0a99146105625761020e565b80632b956ff71461039557806330d167ae146103d257806344a9253c1461040f5780634635fd681461044d5761020e565b80630ca76175116101e25780630ca76175146102b05780630da8c007146102d957806325ad91ce1461031657806329f0de3f1461032d5780632b8c9c6e146103585761020e565b80620b46f81461021357806307973ccf1461023e5780630962ef791461026957806309c1ba2e14610285575b600080fd5b34801561021f57600080fd5b506102286108fe565b60405161023591906141b7565b60405180910390f35b34801561024a57600080fd5b50610253610903565b60405161026091906141b7565b60405180910390f35b610283600480360381019061027e9190614212565b610909565b005b34801561029157600080fd5b5061029a610e2c565b6040516102a79190614262565b60405180910390f35b3480156102bc57600080fd5b506102d760048036038101906102d291906143f9565b610e46565b005b3480156102e557600080fd5b5061030060048036038101906102fb91906144a9565b610f08565b60405161030d91906141b7565b60405180910390f35b34801561032257600080fd5b5061032b6110b9565b005b34801561033957600080fd5b5061034261137c565b60405161034f9190614568565b60405180910390f35b34801561036457600080fd5b5061037f600480360381019061037a91906145e8565b61140a565b60405161038c9190614630565b60405180910390f35b3480156103a157600080fd5b506103bc60048036038101906103b791906145e8565b61142a565b6040516103c991906141b7565b60405180910390f35b3480156103de57600080fd5b506103f960048036038101906103f4919061464b565b611549565b60405161040691906141b7565b60405180910390f35b34801561041b57600080fd5b506104366004803603810190610431919061468b565b6116e2565b6040516104449291906146c7565b60405180910390f35b34801561045957600080fd5b50610474600480360381019061046f9190614212565b611726565b60405161048191906146f0565b60405180910390f35b34801561049657600080fd5b506104b160048036038101906104ac9190614212565b611759565b6040516104c699989796959493929190614760565b60405180910390f35b3480156104db57600080fd5b506104e46118c4565b6040516104f19190614568565b60405180910390f35b34801561050657600080fd5b50610521600480360381019061051c91906145e8565b611952565b60405161052e91906141b7565b60405180910390f35b34801561054357600080fd5b5061054c611a71565b60405161055991906147fb565b60405180910390f35b34801561056e57600080fd5b50610589600480360381019061058491906148be565b611aff565b604051610596919061496c565b60405180910390f35b3480156105ab57600080fd5b506105b4612007565b005b3480156105c257600080fd5b506105dd60048036038101906105d8919061468b565b61201b565b6040516105eb929190614987565b60405180910390f35b34801561060057600080fd5b5061060961214f565b6040516106169190614a4c565b60405180910390f35b34801561062b57600080fd5b5061064660048036038101906106419190614212565b612315565b604051610653919061496c565b60405180910390f35b34801561066857600080fd5b50610671612339565b60405161067e91906146f0565b60405180910390f35b34801561069357600080fd5b506106ae60048036038101906106a99190614212565b612362565b6040516106bb91906146f0565b60405180910390f35b3480156106d057600080fd5b506106eb60048036038101906106e69190614a6e565b61239f565b005b3480156106f957600080fd5b50610714600480360381019061070f9190614ab7565b6123ba565b6040516107219190614b6e565b60405180910390f35b34801561073657600080fd5b50610751600480360381019061074c919061468b565b61248d565b6040516107619493929190614b89565b60405180910390f35b34801561077657600080fd5b50610791600480360381019061078c91906145e8565b6125e7565b6040516107a093929190614bdc565b60405180910390f35b3480156107b557600080fd5b506107d060048036038101906107cb9190614c13565b612631565b005b6107ec60048036038101906107e79190614212565b612733565b005b3480156107fa57600080fd5b5061081560048036038101906108109190614212565b612be7565b6040516108229190614d84565b60405180910390f35b34801561083757600080fd5b50610840612cf0565b60405161084d91906141b7565b60405180910390f35b34801561086257600080fd5b5061087d600480360381019061087891906145e8565b612cf6565b005b34801561088b57600080fd5b506108a660048036038101906108a19190614212565b612d7c565b005b3480156108b457600080fd5b506108bd612f18565b6040516108ca91906141b7565b60405180910390f35b3480156108df57600080fd5b506108e8612f1e565b6040516108f5919061496c565b60405180910390f35b600281565b600a5481565b33600073ffffffffffffffffffffffffffffffffffffffff16600d60008373ffffffffffffffffffffffffffffffffffffffff1673ffffffffffffffffffffffffffffffffffffffff16815260200190815260200160002060000160009054906101000a900473ffffffffffffffffffffffffffffffffffffffff1673ffffffffffffffffffffffffffffffffffffffff16036109db576040517f08c379a00000000000000000000000000000000000000000000000000000000081526004016109d290614df2565b60405180910390fd5b81600f6000828152602001908152602001600020600a0160009054906101000a900460ff16610a3f576040517f08c379a0000000000000000000000000000000000000000000000000000000008152600401610a3690614e84565b60405180910390fd5b600f600084815260200190815260200160002060090154421015610a98576040517f08c379a0000000000000000000000000000000000000000000000000000000008152600401610a8f90614f16565b60405180910390fd5b6000600f60008581526020019081526020016000209050600480811115610ac257610ac1614af7565b5b8160060160003373ffffffffffffffffffffffffffffffffffffffff1673ffffffffffffffffffffffffffffffffffffffff16815260200190815260200160002060020160009054906101000a900460ff166004811115610b2657610b25614af7565b5b03610b66576040517f08c379a0000000000000000000000000000000000000000000000000000000008152600401610b5d90614f82565b60405180910390fd5b60036004811115610b7a57610b79614af7565b5b8160060160003373ffffffffffffffffffffffffffffffffffffffff1673ffffffffffffffffffffffffffffffffffffffff16815260200190815260200160002060020160009054906101000a900460ff166004811115610bde57610bdd614af7565b5b14610c1e576040517f08c379a0000000000000000000000000000000000000000000000000000000008152600401610c1590615014565b60405180910390fd5b60008160060160003373ffffffffffffffffffffffffffffffffffffffff1673ffffffffffffffffffffffffffffffffffffffff16815260200190815260200160002060000154905060008111610caa576040517f08c379a0000000000000000000000000000000000000000000000000000000008152600401610ca1906150a6565b60405180910390fd5b6000610cb63387612f24565b90503373ffffffffffffffffffffffffffffffffffffffff166108fc829081150290604051600060405180830381858888f19350505050158015610cfe573d6000803e3d6000fd5b5080836004016000828254610d1391906150f5565b9250508190555060048360060160003373ffffffffffffffffffffffffffffffffffffffff1673ffffffffffffffffffffffffffffffffffffffff16815260200190815260200160002060020160006101000a81548160ff02191690836004811115610d8257610d81614af7565b5b021790555080600d60003373ffffffffffffffffffffffffffffffffffffffff1673ffffffffffffffffffffffffffffffffffffffff1681526020019081526020016000206003016000828254610dd99190615129565b92505081905550853373ffffffffffffffffffffffffffffffffffffffff167ffc30cddea38e2bf4d6ea7d3f9ed3b6ad7f176419f4963bd81318067a4aee73fe60405160405180910390a3505050505050565b600560009054906101000a900467ffffffffffffffff1681565b7f000000000000000000000000000000000000000000000000000000000000000073ffffffffffffffffffffffffffffffffffffffff163373ffffffffffffffffffffffffffffffffffffffff1614610ecb576040517fc6829f8300000000000000000000000000000000000000000000000000000000815260040160405180910390fd5b610ed6838383612ff5565b827f85e1543bf2f84fe80c6badbce3648c8539ad1df4d2b3d822938ca0538be727e660405160405180910390a2505050565b600082600f6000828152602001908152602001600020600a0160009054906101000a900460ff16610f6e576040517f08c379a0000000000000000000000000000000000000000000000000000000008152600401610f6590614e84565b60405180910390fd5b6000600f600086815260200190815260200160002090506000805b82600701805490508110156110ac576000836007018281548110610fb057610faf61515d565b5b9060005260206000200160009054906101000a900473ffffffffffffffffffffffffffffffffffffffff169050866004811115610ff057610fef614af7565b5b8460060160008373ffffffffffffffffffffffffffffffffffffffff1673ffffffffffffffffffffffffffffffffffffffff16815260200190815260200160002060020160009054906101000a900460ff16600481111561105457611053614af7565b5b148061108457506000600481111561106f5761106e614af7565b5b87600481111561108257611081614af7565b5b145b156110985782806110949061518c565b9350505b5080806110a49061518c565b915050610f89565b5080935050505092915050565b33601060008273ffffffffffffffffffffffffffffffffffffffff1673ffffffffffffffffffffffffffffffffffffffff16815260200190815260200160002060009054906101000a900460ff1615611147576040517f08c379a000000000000000000000000000000000000000000000000000000000815260040161113e90615246565b60405180910390fd5b66038d7ea4c680003373ffffffffffffffffffffffffffffffffffffffff163110156111a8576040517f08c379a000000000000000000000000000000000000000000000000000000000815260040161119f906152d8565b60405180910390fd5b33600d60003373ffffffffffffffffffffffffffffffffffffffff1673ffffffffffffffffffffffffffffffffffffffff16815260200190815260200160002060000160006101000a81548173ffffffffffffffffffffffffffffffffffffffff021916908373ffffffffffffffffffffffffffffffffffffffff160217905550600a54600d60003373ffffffffffffffffffffffffffffffffffffffff1673ffffffffffffffffffffffffffffffffffffffff1681526020019081526020016000206001018190555033600e6000600a54815260200190815260200160002060006101000a81548173ffffffffffffffffffffffffffffffffffffffff021916908373ffffffffffffffffffffffffffffffffffffffff1602179055506001601060003373ffffffffffffffffffffffffffffffffffffffff1673ffffffffffffffffffffffffffffffffffffffff16815260200190815260200160002060006101000a81548160ff021916908315150217905550600a60008154809291906113319061518c565b91905055503373ffffffffffffffffffffffffffffffffffffffff167f0b0376a109cbb578b709f85f6a7befcdac3ac1ab251c99ede87f30c9572ac4d360405160405180910390a250565b6009805461138990615327565b80601f01602080910402602001604051908101604052809291908181526020018280546113b590615327565b80156114025780601f106113d757610100808354040283529160200191611402565b820191906000526020600020905b8154815290600101906020018083116113e557829003601f168201915b505050505081565b60106020528060005260406000206000915054906101000a900460ff1681565b600081600073ffffffffffffffffffffffffffffffffffffffff16600d60008373ffffffffffffffffffffffffffffffffffffffff1673ffffffffffffffffffffffffffffffffffffffff16815260200190815260200160002060000160009054906101000a900473ffffffffffffffffffffffffffffffffffffffff1673ffffffffffffffffffffffffffffffffffffffff16036114fe576040517f08c379a00000000000000000000000000000000000000000000000000000000081526004016114f590614df2565b60405180910390fd5b600d60008473ffffffffffffffffffffffffffffffffffffffff1673ffffffffffffffffffffffffffffffffffffffff16815260200190815260200160002060010154915050919050565b600081600f6000828152602001908152602001600020600a0160009054906101000a900460ff166115af576040517f08c379a00000000000000000000000000000000000000000000000000000000081526004016115a690614e84565b60405180910390fd5b83600073ffffffffffffffffffffffffffffffffffffffff16600d60008373ffffffffffffffffffffffffffffffffffffffff1673ffffffffffffffffffffffffffffffffffffffff16815260200190815260200160002060000160009054906101000a900473ffffffffffffffffffffffffffffffffffffffff1673ffffffffffffffffffffffffffffffffffffffff1603611681576040517f08c379a000000000000000000000000000000000000000000000000000000000815260040161167890614df2565b60405180910390fd5b600f600085815260200190815260200160002060060160008673ffffffffffffffffffffffffffffffffffffffff1673ffffffffffffffffffffffffffffffffffffffff168152602001908152602001600020600101549250505092915050565b60136020528060005260406000206000915090508060000160009054906101000a900473ffffffffffffffffffffffffffffffffffffffff16908060010154905082565b600e6020528060005260406000206000915054906101000a900473ffffffffffffffffffffffffffffffffffffffff1681565b600f60205280600052604060002060009150905080600001549080600101805461178290615327565b80601f01602080910402602001604051908101604052809291908181526020018280546117ae90615327565b80156117fb5780601f106117d0576101008083540402835291602001916117fb565b820191906000526020600020905b8154815290600101906020018083116117de57829003601f168201915b50505050509080600201805461181090615327565b80601f016020809104026020016040519081016040528092919081815260200182805461183c90615327565b80156118895780601f1061185e57610100808354040283529160200191611889565b820191906000526020600020905b81548152906001019060200180831161186c57829003601f168201915b50505050509080600301549080600401549080600501549080600801549080600901549080600a0160009054906101000a900460ff16905089565b600880546118d190615327565b80601f01602080910402602001604051908101604052809291908181526020018280546118fd90615327565b801561194a5780601f1061191f5761010080835404028352916020019161194a565b820191906000526020600020905b81548152906001019060200180831161192d57829003601f168201915b505050505081565b600081600073ffffffffffffffffffffffffffffffffffffffff16600d60008373ffffffffffffffffffffffffffffffffffffffff1673ffffffffffffffffffffffffffffffffffffffff16815260200190815260200160002060000160009054906101000a900473ffffffffffffffffffffffffffffffffffffffff1673ffffffffffffffffffffffffffffffffffffffff1603611a26576040517f08c379a0000000000000000000000000000000000000000000000000000000008152600401611a1d90614df2565b60405180910390fd5b600d60008473ffffffffffffffffffffffffffffffffffffffff1673ffffffffffffffffffffffffffffffffffffffff16815260200190815260200160002060030154915050919050565b60068054611a7e90615327565b80601f0160208091040260200160405190810160405280929190818152602001828054611aaa90615327565b8015611af75780601f10611acc57610100808354040283529160200191611af7565b820191906000526020600020905b815481529060010190602001808311611ada57829003601f168201915b505050505081565b60008073ffffffffffffffffffffffffffffffffffffffff16600d60008573ffffffffffffffffffffffffffffffffffffffff1673ffffffffffffffffffffffffffffffffffffffff16815260200190815260200160002060000160009054906101000a900473ffffffffffffffffffffffffffffffffffffffff1673ffffffffffffffffffffffffffffffffffffffff1603611bd1576040517f08c379a0000000000000000000000000000000000000000000000000000000008152600401611bc8906153ca565b60405180910390fd5b600f6000838152602001908152602001600020600a0160009054906101000a900460ff16611c34576040517f08c379a0000000000000000000000000000000000000000000000000000000008152600401611c2b9061545c565b60405180910390fd5b6000600267ffffffffffffffff811115611c5157611c506142ce565b5b604051908082528060200260200182016040528015611c8457816020015b6060815260200190600190039081611c6f5790505b5090508581600081518110611c9c57611c9b61515d565b5b60200260200101819052508481600181518110611cbc57611cbb61515d565b5b6020026020010181905250611ccf6140d8565b611d6c60068054611cdf90615327565b80601f0160208091040260200160405190810160405280929190818152602001828054611d0b90615327565b8015611d585780601f10611d2d57610100808354040283529160200191611d58565b820191906000526020600020905b815481529060010190602001808311611d3b57829003601f168201915b50505050508261327090919063ffffffff16565b600082511115611d8a57611d89828261328190919063ffffffff16565b5b611dc8611d96826132c9565b600560009054906101000a900467ffffffffffffffff16600360009054906101000a900463ffffffff166002546136e5565b6004819055506040518060400160405280878152602001604051806020016040528060008152508152506012600060045481526020019081526020016000206000820151816000019081611e1c9190615628565b506020820151816001019081611e329190615628565b5090505060405180608001604052806000151581526020016001151581526020016040518060200160405280600081525081526020016040518060200160405280600081525081525060116000600454815260200190815260200160002060008201518160000160006101000a81548160ff02191690831515021790555060208201518160000160016101000a81548160ff0219169083151502179055506040820151816001019081611ee59190615755565b506060820151816002019081611efb9190615755565b5090505060405180604001604052808673ffffffffffffffffffffffffffffffffffffffff1681526020018581525060136000600454815260200190815260200160002060008201518160000160006101000a81548173ffffffffffffffffffffffffffffffffffffffff021916908373ffffffffffffffffffffffffffffffffffffffff16021790555060208201518160010155905050600760045490806001815401808255809150506001900390600052602060002001600090919091909150556004547f7d7e1d3575ff050561c31730682e6dfadeb23b921bb9e7a16f17506e05962a3a87604051611ff091906147fb565b60405180910390a260045492505050949350505050565b61200f6137c8565b612019600061384f565b565b601260205280600052604060002060009150905080600001805461203e90615327565b80601f016020809104026020016040519081016040528092919081815260200182805461206a90615327565b80156120b75780601f1061208c576101008083540402835291602001916120b7565b820191906000526020600020905b81548152906001019060200180831161209a57829003601f168201915b5050505050908060010180546120cc90615327565b80601f01602080910402602001604051908101604052809291908181526020018280546120f890615327565b80156121455780601f1061211a57610100808354040283529160200191612145565b820191906000526020600020905b81548152906001019060200180831161212857829003601f168201915b5050505050905082565b61215761414a565b60006007805490501161219f576040517f08c379a000000000000000000000000000000000000000000000000000000000815260040161219690615873565b60405180910390fd5b60126000600760016007805490506121b791906150f5565b815481106121c8576121c761515d565b5b906000526020600020015481526020019081526020016000206040518060400160405290816000820180546121fc90615327565b80601f016020809104026020016040519081016040528092919081815260200182805461222890615327565b80156122755780601f1061224a57610100808354040283529160200191612275565b820191906000526020600020905b81548152906001019060200180831161225857829003601f168201915b5050505050815260200160018201805461228e90615327565b80601f01602080910402602001604051908101604052809291908181526020018280546122ba90615327565b80156123075780601f106122dc57610100808354040283529160200191612307565b820191906000526020600020905b8154815290600101906020018083116122ea57829003601f168201915b505050505081525050905090565b6007818154811061232557600080fd5b906000526020600020016000915090505481565b60008060009054906101000a900473ffffffffffffffffffffffffffffffffffffffff16905090565b6000600e600083815260200190815260200160002060009054906101000a900473ffffffffffffffffffffffffffffffffffffffff169050919050565b6123a76137c8565b80600690816123b69190615628565b5050565b600082600f6000828152602001908152602001600020600a0160009054906101000a900460ff16612420576040517f08c379a000000000000000000000000000000000000000000000000000000000815260040161241790614e84565b60405180910390fd5b600f600085815260200190815260200160002060060160008473ffffffffffffffffffffffffffffffffffffffff1673ffffffffffffffffffffffffffffffffffffffff16815260200190815260200160002060020160009054906101000a900460ff1691505092915050565b60116020528060005260406000206000915090508060000160009054906101000a900460ff16908060000160019054906101000a900460ff16908060010180546124d690615327565b80601f016020809104026020016040519081016040528092919081815260200182805461250290615327565b801561254f5780601f106125245761010080835404028352916020019161254f565b820191906000526020600020905b81548152906001019060200180831161253257829003601f168201915b50505050509080600201805461256490615327565b80601f016020809104026020016040519081016040528092919081815260200182805461259090615327565b80156125dd5780601f106125b2576101008083540402835291602001916125dd565b820191906000526020600020905b8154815290600101906020018083116125c057829003601f168201915b5050505050905084565b600d6020528060005260406000206000915090508060000160009054906101000a900473ffffffffffffffffffffffffffffffffffffffff16908060010154908060030154905083565b6126396137c8565b6000600f6000600b5481526020019081526020016000209050600b5481600001819055508581600101908161266e9190615628565b50848160020190816126809190615628565b50838160030181905550828160080181905550818160090181905550600181600a0160006101000a81548160ff021916908315150217905550600b547f12147fa79fbbfaed904e6976dbd34cd000f28f8ed3f3ce6bb7f0f4a1769a267a87878787876040516126f3959493929190615893565b60405180910390a2600c600081548092919061270e9061518c565b9190505550600b60008154809291906127269061518c565b9190505550505050505050565b33600073ffffffffffffffffffffffffffffffffffffffff16600d60008373ffffffffffffffffffffffffffffffffffffffff1673ffffffffffffffffffffffffffffffffffffffff16815260200190815260200160002060000160009054906101000a900473ffffffffffffffffffffffffffffffffffffffff1673ffffffffffffffffffffffffffffffffffffffff1603612805576040517f08c379a00000000000000000000000000000000000000000000000000000000081526004016127fc90614df2565b60405180910390fd5b81600f6000828152602001908152602001600020600a0160009054906101000a900460ff16612869576040517f08c379a000000000000000000000000000000000000000000000000000000000815260040161286090614e84565b60405180910390fd5b600f60008481526020019081526020016000206008015442106128c1576040517f08c379a00000000000000000000000000000000000000000000000000000000081526004016128b890615966565b60405180910390fd5b42600f60008581526020019081526020016000206009015411612919576040517f08c379a0000000000000000000000000000000000000000000000000000000008152600401612910906159d2565b60405180910390fd5b6000341161295c576040517f08c379a000000000000000000000000000000000000000000000000000000000815260040161295390615a3e565b60405180910390fd5b600060048111156129705761296f614af7565b5b600f600085815260200190815260200160002060060160003373ffffffffffffffffffffffffffffffffffffffff1673ffffffffffffffffffffffffffffffffffffffff16815260200190815260200160002060020160009054906101000a900460ff1660048111156129e6576129e5614af7565b5b14612a26576040517f08c379a0000000000000000000000000000000000000000000000000000000008152600401612a1d90615ad0565b60405180910390fd5b60405180606001604052803481526020016000815260200160016004811115612a5257612a51614af7565b5b815250600f600085815260200190815260200160002060060160003373ffffffffffffffffffffffffffffffffffffffff1673ffffffffffffffffffffffffffffffffffffffff168152602001908152602001600020600082015181600001556020820151816001015560408201518160020160006101000a81548160ff02191690836004811115612ae757612ae6614af7565b5b0217905550905050600f6000848152602001908152602001600020600701339080600181540180825580915050600190039060005260206000200160009091909190916101000a81548173ffffffffffffffffffffffffffffffffffffffff021916908373ffffffffffffffffffffffffffffffffffffffff16021790555034600f60008581526020019081526020016000206004016000828254612b8c9190615129565b92505081905550823373ffffffffffffffffffffffffffffffffffffffff167f8f301af230e39227ba203f0d3f6b4314b562b99636df1521ff13d5516a9d731634604051612bda91906141b7565b60405180910390a3505050565b606081600f6000828152602001908152602001600020600a0160009054906101000a900460ff16612c4d576040517f08c379a0000000000000000000000000000000000000000000000000000000008152600401612c4490614e84565b60405180910390fd5b600f6000848152602001908152602001600020600701805480602002602001604051908101604052809291908181526020018280548015612ce357602002820191906000526020600020905b8160009054906101000a900473ffffffffffffffffffffffffffffffffffffffff1673ffffffffffffffffffffffffffffffffffffffff1681526020019060010190808311612c99575b5050505050915050919050565b600b5481565b612cfe6137c8565b600073ffffffffffffffffffffffffffffffffffffffff168173ffffffffffffffffffffffffffffffffffffffff1603612d705760006040517f1e4fbdf7000000000000000000000000000000000000000000000000000000008152600401612d6791906146f0565b60405180910390fd5b612d798161384f565b50565b612d846137c8565b80600f6000828152602001908152602001600020600a0160009054906101000a900460ff16612de8576040517f08c379a0000000000000000000000000000000000000000000000000000000008152600401612ddf90614e84565b60405180910390fd5b600f600083815260200190815260200160002060090154421015612e41576040517f08c379a0000000000000000000000000000000000000000000000000000000008152600401612e3890615b3c565b60405180910390fd5b6000600f6000848152602001908152602001600020905060005b8160070180549050811015612ecd576000826007018281548110612e8257612e8161515d565b5b9060005260206000200160009054906101000a900473ffffffffffffffffffffffffffffffffffffffff169050612eb98186613913565b508080612ec59061518c565b915050612e5b565b50600c6000815480929190612ee190615b5c565b9190505550827f21f467260d12367f5f6c3427e620c488bcaa8f30684b081059fba3477919a89a60405160405180910390a2505050565b600c5481565b60045481565b600080600f6000848152602001908152602001600020905060008160060160008673ffffffffffffffffffffffffffffffffffffffff1673ffffffffffffffffffffffffffffffffffffffff1681526020019081526020016000206000015490506000826005015490506000612f9b866003610f08565b905060006064600285612fae9190615b85565b612fb89190615bf6565b905060008284612fc89190615bf6565b90506000828287612fd99190615129565b612fe391906150f5565b90508097505050505050505092915050565b6011600084815260200190815260200160002060000160019054906101000a900460ff16613058576040517f08c379a000000000000000000000000000000000000000000000000000000000815260040161304f90615c73565b60405180910390fd5b80600990816130679190615755565b5081600890816130779190615755565b506000825111156131b8576000601260008581526020019081526020016000209050828160010190816130aa9190615628565b506000838060200190518101906130c19190615ca8565b90506000601360008781526020019081526020016000206040518060400160405290816000820160009054906101000a900473ffffffffffffffffffffffffffffffffffffffff1673ffffffffffffffffffffffffffffffffffffffff1673ffffffffffffffffffffffffffffffffffffffff168152602001600182015481525050905060008160000151905060008260200151905083600f600083815260200190815260200160002060060160008473ffffffffffffffffffffffffffffffffffffffff1673ffffffffffffffffffffffffffffffffffffffff1681526020019081526020016000206001018190555050505050505b60016011600085815260200190815260200160002060000160006101000a81548160ff0219169083151502179055508160116000858152602001908152602001600020600101908161320a9190615755565b508060116000858152602001908152602001600020600201908161322e9190615755565b50827f160ed0aaffbef6885155188b91459cb5a97d5daadccf7561d8c46deea6641b5083848460405161326393929190615cd5565b60405180910390a2505050565b61327d8260008084613aab565b5050565b60008151036132bc576040517ffe936cb700000000000000000000000000000000000000000000000000000000815260040160405180910390fd5b808260a001819052505050565b606060006132d8610100613b55565b90506133226040518060400160405280600c81526020017f636f64654c6f636174696f6e000000000000000000000000000000000000000081525082613b7c90919063ffffffff16565b61334b8360000151600281111561333c5761333b614af7565b5b82613ba590919063ffffffff16565b6133936040518060400160405280600881526020017f6c616e677561676500000000000000000000000000000000000000000000000081525082613b7c90919063ffffffff16565b6133bc836040015160008111156133ad576133ac614af7565b5b82613ba590919063ffffffff16565b6134046040518060400160405280600681526020017f736f75726365000000000000000000000000000000000000000000000000000081525082613b7c90919063ffffffff16565b61341b836060015182613b7c90919063ffffffff16565b60008360a001515111156134d7576134716040518060400160405280600481526020017f617267730000000000000000000000000000000000000000000000000000000081525082613b7c90919063ffffffff16565b61347a81613bf5565b60005b8360a00151518110156134cc576134bb8460a0015182815181106134a4576134a361515d565b5b602002602001015183613b7c90919063ffffffff16565b806134c59061518c565b905061347d565b506134d681613c1d565b5b6000836080015151111561361857600060028111156134f9576134f8614af7565b5b836020015160028111156135105761350f614af7565b5b03613547576040517fa80d31f700000000000000000000000000000000000000000000000000000000815260040160405180910390fd5b61358f6040518060400160405280600f81526020017f736563726574734c6f636174696f6e000000000000000000000000000000000081525082613b7c90919063ffffffff16565b6135b8836020015160028111156135a9576135a8614af7565b5b82613ba590919063ffffffff16565b6136006040518060400160405280600781526020017f736563726574730000000000000000000000000000000000000000000000000081525082613b7c90919063ffffffff16565b613617836080015182613c4590919063ffffffff16565b5b60008360c001515111156136d45761366e6040518060400160405280600981526020017f627974657341726773000000000000000000000000000000000000000000000081525082613b7c90919063ffffffff16565b61367781613bf5565b60005b8360c00151518110156136c9576136b88460c0015182815181106136a1576136a061515d565b5b602002602001015183613c4590919063ffffffff16565b806136c29061518c565b905061367a565b506136d381613c1d565b5b806000015160000151915050919050565b6000807f000000000000000000000000000000000000000000000000000000000000000073ffffffffffffffffffffffffffffffffffffffff1663461d27628688600188886040518663ffffffff1660e01b815260040161374a959493929190615d5d565b6020604051808303816000875af1158015613769573d6000803e3d6000fd5b505050506040513d601f19601f8201168201806040525081019061378d9190615dcc565b9050807f1131472297a800fee664d1d89cfa8f7676ff07189ecc53f80bbb5f4969099db860405160405180910390a280915050949350505050565b6137d0613c6e565b73ffffffffffffffffffffffffffffffffffffffff166137ee612339565b73ffffffffffffffffffffffffffffffffffffffff161461384d57613811613c6e565b6040517f118cdaa700000000000000000000000000000000000000000000000000000000815260040161384491906146f0565b60405180910390fd5b565b60008060009054906101000a900473ffffffffffffffffffffffffffffffffffffffff169050816000806101000a81548173ffffffffffffffffffffffffffffffffffffffff021916908373ffffffffffffffffffffffffffffffffffffffff1602179055508173ffffffffffffffffffffffffffffffffffffffff168173ffffffffffffffffffffffffffffffffffffffff167f8be0079c531659141344cd1fd0a4f28419497f9722a3daafe3b4186f6b6457e060405160405180910390a35050565b6000600f6000838152602001908152602001600020905060008160060160008573ffffffffffffffffffffffffffffffffffffffff1673ffffffffffffffffffffffffffffffffffffffff16815260200190815260200160002090506001600481111561398357613982614af7565b5b8160020160009054906101000a900460ff1660048111156139a7576139a6614af7565b5b03613aa55781600301548160010154106139ed5760038160020160006101000a81548160ff021916908360048111156139e3576139e2614af7565b5b0217905550613a44565b60028160020160006101000a81548160ff02191690836004811115613a1557613a14614af7565b5b02179055508060000154826005016000828254613a329190615129565b92505081905550600081600001819055505b828473ffffffffffffffffffffffffffffffffffffffff167f08a6fe6ac9911d48760b3a3730226ca83b632ae4d9406912428e3b4d6ba02ceb8360020160009054906101000a900460ff16604051613a9c9190614b6e565b60405180910390a35b50505050565b6000815103613ae6576040517f22ce3edd00000000000000000000000000000000000000000000000000000000815260040160405180910390fd5b8284600001906002811115613afe57613afd614af7565b5b90816002811115613b1257613b11614af7565b5b815250508184604001906000811115613b2e57613b2d614af7565b5b90816000811115613b4257613b41614af7565b5b8152505080846060018190525050505050565b613b5d614164565b613b6b816000015183613c76565b506000816020018181525050919050565b613b898260038351613cef565b613ba0818360000151613e9890919063ffffffff16565b505050565b613bc760026005600660ff16901b178360000151613eb490919063ffffffff16565b50613bf18282604051602001613bdd91906141b7565b604051602081830303815290604052613c45565b5050565b613c00816004613f1e565b600181602001818151613c139190615129565b9150818152505050565b613c28816007613f1e565b600181602001818151613c3b91906150f5565b9150818152505050565b613c528260028351613cef565b613c69818360000151613e9890919063ffffffff16565b505050565b600033905090565b613c7e614184565b6000602083613c8d9190615df9565b14613cb957602082613c9f9190615df9565b6020613cab91906150f5565b82613cb69190615129565b91505b818360200181815250506040518084526000815282810160200181811015613ce057600080fd5b80604052505082905092915050565b60178167ffffffffffffffff1611613d2a57613d248160058460ff16901b60ff16178460000151613eb490919063ffffffff16565b50613e93565b60ff8167ffffffffffffffff1611613d8857613d5d601860058460ff16901b178460000151613eb490919063ffffffff16565b50613d828167ffffffffffffffff1660018560000151613f449092919063ffffffff16565b50613e92565b61ffff8167ffffffffffffffff1611613de757613dbc601960058460ff16901b178460000151613eb490919063ffffffff16565b50613de18167ffffffffffffffff1660028560000151613f449092919063ffffffff16565b50613e91565b63ffffffff8167ffffffffffffffff1611613e4857613e1d601a60058460ff16901b178460000151613eb490919063ffffffff16565b50613e428167ffffffffffffffff1660048560000151613f449092919063ffffffff16565b50613e90565b613e69601b60058460ff16901b178460000151613eb490919063ffffffff16565b50613e8e8167ffffffffffffffff1660088560000151613f449092919063ffffffff16565b505b5b5b5b505050565b613ea0614184565b613eac83838451613fd1565b905092915050565b613ebc614184565b600083600001515190506000600182613ed59190615129565b905084602001518210613ef957613ef885600283613ef39190615b85565b6140b4565b5b84516020838201018581538151831115613f11578282525b5050849250505092915050565b613f3f601f60058360ff16901b178360000151613eb490919063ffffffff16565b505050565b613f4c614184565b6000846000015151905060008184613f649190615129565b90508560200151811115613f8957613f8886600283613f839190615b85565b6140b4565b5b6000600185610100613f9b9190615f5d565b613fa591906150f5565b905086518281018783198251161781528151841115613fc2578382525b50508693505050509392505050565b613fd9614184565b8251821115613fe757600080fd5b6000846000015151905060008382613fff9190615129565b90508560200151811115614024576140238660028361401e9190615b85565b6140b4565b5b6000808751805185602083010193508085111561403f578482525b60208901925050505b6020861061408657805182526020826140619190615129565b91506020816140709190615129565b905060208661407f91906150f5565b9550614048565b60006001876020036101000a0390508019825116818451168181178552505050879450505050509392505050565b6000826000015190506140c78383613c76565b506140d28382613e98565b50505050565b6040518060e00160405280600060028111156140f7576140f6614af7565b5b8152602001600060028111156141105761410f614af7565b5b815260200160008081111561412857614127614af7565b5b8152602001606081526020016060815260200160608152602001606081525090565b604051806040016040528060608152602001606081525090565b6040518060400160405280614177614184565b8152602001600081525090565b604051806040016040528060608152602001600081525090565b6000819050919050565b6141b18161419e565b82525050565b60006020820190506141cc60008301846141a8565b92915050565b6000604051905090565b600080fd5b600080fd5b6141ef8161419e565b81146141fa57600080fd5b50565b60008135905061420c816141e6565b92915050565b600060208284031215614228576142276141dc565b5b6000614236848285016141fd565b91505092915050565b600067ffffffffffffffff82169050919050565b61425c8161423f565b82525050565b60006020820190506142776000830184614253565b92915050565b6000819050919050565b6142908161427d565b811461429b57600080fd5b50565b6000813590506142ad81614287565b92915050565b600080fd5b600080fd5b6000601f19601f8301169050919050565b7f4e487b7100000000000000000000000000000000000000000000000000000000600052604160045260246000fd5b614306826142bd565b810181811067ffffffffffffffff82111715614325576143246142ce565b5b80604052505050565b60006143386141d2565b905061434482826142fd565b919050565b600067ffffffffffffffff821115614364576143636142ce565b5b61436d826142bd565b9050602081019050919050565b82818337600083830152505050565b600061439c61439784614349565b61432e565b9050828152602081018484840111156143b8576143b76142b8565b5b6143c384828561437a565b509392505050565b600082601f8301126143e0576143df6142b3565b5b81356143f0848260208601614389565b91505092915050565b600080600060608486031215614412576144116141dc565b5b60006144208682870161429e565b935050602084013567ffffffffffffffff811115614441576144406141e1565b5b61444d868287016143cb565b925050604084013567ffffffffffffffff81111561446e5761446d6141e1565b5b61447a868287016143cb565b9150509250925092565b6005811061449157600080fd5b50565b6000813590506144a381614484565b92915050565b600080604083850312156144c0576144bf6141dc565b5b60006144ce858286016141fd565b92505060206144df85828601614494565b9150509250929050565b600081519050919050565b600082825260208201905092915050565b60005b83811015614523578082015181840152602081019050614508565b60008484015250505050565b600061453a826144e9565b61454481856144f4565b9350614554818560208601614505565b61455d816142bd565b840191505092915050565b60006020820190508181036000830152614582818461452f565b905092915050565b600073ffffffffffffffffffffffffffffffffffffffff82169050919050565b60006145b58261458a565b9050919050565b6145c5816145aa565b81146145d057600080fd5b50565b6000813590506145e2816145bc565b92915050565b6000602082840312156145fe576145fd6141dc565b5b600061460c848285016145d3565b91505092915050565b60008115159050919050565b61462a81614615565b82525050565b60006020820190506146456000830184614621565b92915050565b60008060408385031215614662576146616141dc565b5b6000614670858286016145d3565b9250506020614681858286016141fd565b9150509250929050565b6000602082840312156146a1576146a06141dc565b5b60006146af8482850161429e565b91505092915050565b6146c1816145aa565b82525050565b60006040820190506146dc60008301856146b8565b6146e960208301846141a8565b9392505050565b600060208201905061470560008301846146b8565b92915050565b600081519050919050565b600082825260208201905092915050565b60006147328261470b565b61473c8185614716565b935061474c818560208601614505565b614755816142bd565b840191505092915050565b600061012082019050614776600083018c6141a8565b8181036020830152614788818b614727565b9050818103604083015261479c818a614727565b90506147ab60608301896141a8565b6147b860808301886141a8565b6147c560a08301876141a8565b6147d260c08301866141a8565b6147df60e08301856141a8565b6147ed610100830184614621565b9a9950505050505050505050565b600060208201905081810360008301526148158184614727565b905092915050565b600067ffffffffffffffff821115614838576148376142ce565b5b614841826142bd565b9050602081019050919050565b600061486161485c8461481d565b61432e565b90508281526020810184848401111561487d5761487c6142b8565b5b61488884828561437a565b509392505050565b600082601f8301126148a5576148a46142b3565b5b81356148b584826020860161484e565b91505092915050565b600080600080608085870312156148d8576148d76141dc565b5b600085013567ffffffffffffffff8111156148f6576148f56141e1565b5b61490287828801614890565b945050602085013567ffffffffffffffff811115614923576149226141e1565b5b61492f87828801614890565b9350506040614940878288016145d3565b9250506060614951878288016141fd565b91505092959194509250565b6149668161427d565b82525050565b6000602082019050614981600083018461495d565b92915050565b600060408201905081810360008301526149a18185614727565b905081810360208301526149b58184614727565b90509392505050565b600082825260208201905092915050565b60006149da8261470b565b6149e481856149be565b93506149f4818560208601614505565b6149fd816142bd565b840191505092915050565b60006040830160008301518482036000860152614a2582826149cf565b91505060208301518482036020860152614a3f82826149cf565b9150508091505092915050565b60006020820190508181036000830152614a668184614a08565b905092915050565b600060208284031215614a8457614a836141dc565b5b600082013567ffffffffffffffff811115614aa257614aa16141e1565b5b614aae84828501614890565b91505092915050565b60008060408385031215614ace57614acd6141dc565b5b6000614adc858286016141fd565b9250506020614aed858286016145d3565b9150509250929050565b7f4e487b7100000000000000000000000000000000000000000000000000000000600052602160045260246000fd5b60058110614b3757614b36614af7565b5b50565b6000819050614b4882614b26565b919050565b6000614b5882614b3a565b9050919050565b614b6881614b4d565b82525050565b6000602082019050614b836000830184614b5f565b92915050565b6000608082019050614b9e6000830187614621565b614bab6020830186614621565b8181036040830152614bbd818561452f565b90508181036060830152614bd1818461452f565b905095945050505050565b6000606082019050614bf160008301866146b8565b614bfe60208301856141a8565b614c0b60408301846141a8565b949350505050565b600080600080600060a08688031215614c2f57614c2e6141dc565b5b600086013567ffffffffffffffff811115614c4d57614c4c6141e1565b5b614c5988828901614890565b955050602086013567ffffffffffffffff811115614c7a57614c796141e1565b5b614c8688828901614890565b9450506040614c97888289016141fd565b9350506060614ca8888289016141fd565b9250506080614cb9888289016141fd565b9150509295509295909350565b600081519050919050565b600082825260208201905092915050565b6000819050602082019050919050565b614cfb816145aa565b82525050565b6000614d0d8383614cf2565b60208301905092915050565b6000602082019050919050565b6000614d3182614cc6565b614d3b8185614cd1565b9350614d4683614ce2565b8060005b83811015614d77578151614d5e8882614d01565b9750614d6983614d19565b925050600181019050614d4a565b5085935050505092915050565b60006020820190508181036000830152614d9e8184614d26565b905092915050565b7f55736572206d7573742065786973740000000000000000000000000000000000600082015250565b6000614ddc600f83614716565b9150614de782614da6565b602082019050919050565b60006020820190508181036000830152614e0b81614dcf565b9050919050565b7f676f616c4578697374733a20696e76616c696420676f616c2069642c20676f6160008201527f6c20646f6573206e6f7420657869737400000000000000000000000000000000602082015250565b6000614e6e603083614716565b9150614e7982614e12565b604082019050919050565b60006020820190508181036000830152614e9d81614e61565b9050919050565b7f636c61696d526577617264733a20476f616c206d75737420626520657870697260008201527f6564000000000000000000000000000000000000000000000000000000000000602082015250565b6000614f00602283614716565b9150614f0b82614ea4565b604082019050919050565b60006020820190508181036000830152614f2f81614ef3565b9050919050565b7f557365722068617320616c726561647920636c61696d65642072657761726473600082015250565b6000614f6c602083614716565b9150614f7782614f36565b602082019050919050565b60006020820190508181036000830152614f9b81614f5f565b9050919050565b7f55736572206d757374206861766520636f6d706c657465642074686520676f6160008201527f6c00000000000000000000000000000000000000000000000000000000000000602082015250565b6000614ffe602183614716565b915061500982614fa2565b604082019050919050565b6000602082019050818103600083015261502d81614ff1565b9050919050565b7f55736572206d7573742068617665207374616b656420457468657220696e207460008201527f686520676f616c00000000000000000000000000000000000000000000000000602082015250565b6000615090602783614716565b915061509b82615034565b604082019050919050565b600060208201905081810360008301526150bf81615083565b9050919050565b7f4e487b7100000000000000000000000000000000000000000000000000000000600052601160045260246000fd5b60006151008261419e565b915061510b8361419e565b9250828203905081811115615123576151226150c6565b5b92915050565b60006151348261419e565b915061513f8361419e565b9250828201905080821115615157576151566150c6565b5b92915050565b7f4e487b7100000000000000000000000000000000000000000000000000000000600052603260045260246000fd5b60006151978261419e565b91507fffffffffffffffffffffffffffffffffffffffffffffffffffffffffffffffff82036151c9576151c86150c6565b5b600182019050919050565b7f557365722063616e206f6e6c792063726561746520616e206163636f756e742060008201527f6f6e636500000000000000000000000000000000000000000000000000000000602082015250565b6000615230602483614716565b915061523b826151d4565b604082019050919050565b6000602082019050818103600083015261525f81615223565b9050919050565b7f55736572206d7573742068617665206174206c6561737420302e30303120455460008201527f4820696e2074686569722077616c6c6574000000000000000000000000000000602082015250565b60006152c2603183614716565b91506152cd82615266565b604082019050919050565b600060208201905081810360008301526152f1816152b5565b9050919050565b7f4e487b7100000000000000000000000000000000000000000000000000000000600052602260045260246000fd5b6000600282049050600182168061533f57607f821691505b602082108103615352576153516152f8565b5b50919050565b7f67657453747261766141637469766974793a2075736572206d7573742065786960008201527f7374000000000000000000000000000000000000000000000000000000000000602082015250565b60006153b4602283614716565b91506153bf82615358565b604082019050919050565b600060208201905081810360008301526153e3816153a7565b9050919050565b7f67657453747261766141637469766974793a20676f616c206d7573742065786960008201527f7374000000000000000000000000000000000000000000000000000000000000602082015250565b6000615446602283614716565b9150615451826153ea565b604082019050919050565b6000602082019050818103600083015261547581615439565b9050919050565b60008190508160005260206000209050919050565b60006020601f8301049050919050565b600082821b905092915050565b6000600883026154de7fffffffffffffffffffffffffffffffffffffffffffffffffffffffffffffffff826154a1565b6154e886836154a1565b95508019841693508086168417925050509392505050565b6000819050919050565b600061552561552061551b8461419e565b615500565b61419e565b9050919050565b6000819050919050565b61553f8361550a565b61555361554b8261552c565b8484546154ae565b825550505050565b600090565b61556861555b565b615573818484615536565b505050565b5b818110156155975761558c600082615560565b600181019050615579565b5050565b601f8211156155dc576155ad8161547c565b6155b684615491565b810160208510156155c5578190505b6155d96155d185615491565b830182615578565b50505b505050565b600082821c905092915050565b60006155ff600019846008026155e1565b1980831691505092915050565b600061561883836155ee565b9150826002028217905092915050565b6156318261470b565b67ffffffffffffffff81111561564a576156496142ce565b5b6156548254615327565b61565f82828561559b565b600060209050601f8311600181146156925760008415615680578287015190505b61568a858261560c565b8655506156f2565b601f1984166156a08661547c565b60005b828110156156c8578489015182556001820191506020850194506020810190506156a3565b868310156156e557848901516156e1601f8916826155ee565b8355505b6001600288020188555050505b505050505050565b60008190508160005260206000209050919050565b601f82111561575057615721816156fa565b61572a84615491565b81016020851015615739578190505b61574d61574585615491565b830182615578565b50505b505050565b61575e826144e9565b67ffffffffffffffff811115615777576157766142ce565b5b6157818254615327565b61578c82828561570f565b600060209050601f8311600181146157bf57600084156157ad578287015190505b6157b7858261560c565b86555061581f565b601f1984166157cd866156fa565b60005b828110156157f5578489015182556001820191506020850194506020810190506157d0565b86831015615812578489015161580e601f8916826155ee565b8355505b6001600288020188555050505b505050505050565b7f4e6f206163746976697469657320666f756e6400000000000000000000000000600082015250565b600061585d601383614716565b915061586882615827565b602082019050919050565b6000602082019050818103600083015261588c81615850565b9050919050565b600060a08201905081810360008301526158ad8188614727565b905081810360208301526158c18187614727565b90506158d060408301866141a8565b6158dd60608301856141a8565b6158ea60808301846141a8565b9695505050505050565b7f43616e6e6f74206a6f696e206120676f616c20746861742068617320616c726560008201527f61647920737461727465642e0000000000000000000000000000000000000000602082015250565b6000615950602c83614716565b915061595b826158f4565b604082019050919050565b6000602082019050818103600083015261597f81615943565b9050919050565b7f43616e6e6f74206a6f696e20616e206578706972656420676f616c0000000000600082015250565b60006159bc601b83614716565b91506159c782615986565b602082019050919050565b600060208201905081810360008301526159eb816159af565b9050919050565b7f596f75206d757374207374616b6520746f206a6f696e2074686520706f6f6c2e600082015250565b6000615a28602083614716565b9150615a33826159f2565b602082019050919050565b60006020820190508181036000830152615a5781615a1b565b9050919050565b7f557365722068617320616c72656164792070617274696369706174656420696e60008201527f2074686520676f616c0000000000000000000000000000000000000000000000602082015250565b6000615aba602983614716565b9150615ac582615a5e565b604082019050919050565b60006020820190508181036000830152615ae981615aad565b9050919050565b7f636c6f7365476f616c3a20476f616c206d757374206265206578706972656400600082015250565b6000615b26601f83614716565b9150615b3182615af0565b602082019050919050565b60006020820190508181036000830152615b5581615b19565b9050919050565b6000615b678261419e565b915060008203615b7a57615b796150c6565b5b600182039050919050565b6000615b908261419e565b9150615b9b8361419e565b9250828202615ba98161419e565b91508282048414831517615bc057615bbf6150c6565b5b5092915050565b7f4e487b7100000000000000000000000000000000000000000000000000000000600052601260045260246000fd5b6000615c018261419e565b9150615c0c8361419e565b925082615c1c57615c1b615bc7565b5b828204905092915050565b7f72657175657374206e6f7420666f756e64000000000000000000000000000000600082015250565b6000615c5d601183614716565b9150615c6882615c27565b602082019050919050565b60006020820190508181036000830152615c8c81615c50565b9050919050565b600081519050615ca2816141e6565b92915050565b600060208284031215615cbe57615cbd6141dc565b5b6000615ccc84828501615c93565b91505092915050565b60006060820190508181036000830152615cef8186614727565b90508181036020830152615d03818561452f565b90508181036040830152615d17818461452f565b9050949350505050565b600061ffff82169050919050565b615d3881615d21565b82525050565b600063ffffffff82169050919050565b615d5781615d3e565b82525050565b600060a082019050615d726000830188614253565b8181036020830152615d84818761452f565b9050615d936040830186615d2f565b615da06060830185615d4e565b615dad608083018461495d565b9695505050505050565b600081519050615dc681614287565b92915050565b600060208284031215615de257615de16141dc565b5b6000615df084828501615db7565b91505092915050565b6000615e048261419e565b9150615e0f8361419e565b925082615e1f57615e1e615bc7565b5b828206905092915050565b60008160011c9050919050565b6000808291508390505b6001851115615e8157808604811115615e5d57615e5c6150c6565b5b6001851615615e6c5780820291505b8081029050615e7a85615e2a565b9450615e41565b94509492505050565b600082615e9a5760019050615f56565b81615ea85760009050615f56565b8160018114615ebe5760028114615ec857615ef7565b6001915050615f56565b60ff841115615eda57615ed96150c6565b5b8360020a915084821115615ef157615ef06150c6565b5b50615f56565b5060208310610133831016604e8410600b8410161715615f2c5782820a905083811115615f2757615f266150c6565b5b615f56565b615f398484846001615e37565b92509050818404811115615f5057615f4f6150c6565b5b81810290505b9392505050565b6000615f688261419e565b9150615f738361419e565b9250615fa07fffffffffffffffffffffffffffffffffffffffffffffffffffffffffffffffff8484615e8a565b90509291505056fea26469706673582212202d2074ee8b6e46f6dd51fff16430bcf8b04e22d7ee223c19b4d1b43285f3a10264736f6c63430008140033",
  "linkReferences": {},
  "deployedLinkReferences": {}
}