{
  "_format": "hh-sol-artifact-1",
  "contractName": "Goalfi",
  "sourceName": "contracts/Goalfi.sol",
  "abi": [
    {
      "inputs": [
        {
          "internalType": "address",
          "name": "owner",
          "type": "address"
        }
      ],
      "name": "OwnableInvalidOwner",
      "type": "error"
    },
    {
      "inputs": [
        {
          "internalType": "address",
          "name": "account",
          "type": "address"
        }
      ],
      "name": "OwnableUnauthorizedAccount",
      "type": "error"
    },
    {
      "anonymous": false,
      "inputs": [
        {
          "indexed": true,
          "internalType": "uint256",
          "name": "goalId",
          "type": "uint256"
        },
        {
          "indexed": false,
          "internalType": "string",
          "name": "activity",
          "type": "string"
        },
        {
          "indexed": false,
          "internalType": "string",
          "name": "description",
          "type": "string"
        },
        {
          "indexed": false,
          "internalType": "uint256",
          "name": "distance",
          "type": "uint256"
        },
        {
          "indexed": false,
          "internalType": "uint256",
          "name": "stake",
          "type": "uint256"
        },
        {
          "indexed": false,
          "internalType": "uint256",
          "name": "startTimestamp",
          "type": "uint256"
        },
        {
          "indexed": false,
          "internalType": "uint256",
          "name": "expiryTimestamp",
          "type": "uint256"
        }
      ],
      "name": "GoalCreated",
      "type": "event"
    },
    {
      "anonymous": false,
      "inputs": [
        {
          "indexed": true,
          "internalType": "address",
          "name": "previousOwner",
          "type": "address"
        },
        {
          "indexed": true,
          "internalType": "address",
          "name": "newOwner",
          "type": "address"
        }
      ],
      "name": "OwnershipTransferred",
      "type": "event"
    },
    {
      "anonymous": false,
      "inputs": [
        {
          "indexed": true,
          "internalType": "address",
          "name": "walletAddress",
          "type": "address"
        },
        {
          "indexed": true,
          "internalType": "uint256",
          "name": "goalId",
          "type": "uint256"
        }
      ],
      "name": "RewardsClaimed",
      "type": "event"
    },
    {
      "anonymous": false,
      "inputs": [
        {
          "indexed": true,
          "internalType": "address",
          "name": "walletAddress",
          "type": "address"
        }
      ],
      "name": "UserCreated",
      "type": "event"
    },
    {
      "anonymous": false,
      "inputs": [
        {
          "indexed": true,
          "internalType": "address",
          "name": "walletAddress",
          "type": "address"
        },
        {
          "indexed": true,
          "internalType": "uint256",
          "name": "goalId",
          "type": "uint256"
        },
        {
          "indexed": false,
          "internalType": "uint256",
          "name": "stake",
          "type": "uint256"
        }
      ],
      "name": "UserJoinedGoal",
      "type": "event"
    },
    {
      "anonymous": false,
      "inputs": [
        {
          "indexed": true,
          "internalType": "address",
          "name": "walletAddress",
          "type": "address"
        },
        {
          "indexed": true,
          "internalType": "uint256",
          "name": "goalId",
          "type": "uint256"
        },
        {
          "indexed": false,
          "internalType": "enum Goalfi.UserProgress",
          "name": "newStatus",
          "type": "uint8"
        }
      ],
      "name": "UserProgressUpdated",
      "type": "event"
    },
    {
      "inputs": [],
      "name": "FEE_PERCENTAGE",
      "outputs": [
        {
          "internalType": "uint256",
          "name": "",
          "type": "uint256"
        }
      ],
      "stateMutability": "view",
      "type": "function"
    },
    {
      "inputs": [],
      "name": "MAX_ACTIVE_GOALS",
      "outputs": [
        {
          "internalType": "uint256",
          "name": "",
          "type": "uint256"
        }
      ],
      "stateMutability": "view",
      "type": "function"
    },
    {
      "inputs": [],
      "name": "activeGoalCount",
      "outputs": [
        {
          "internalType": "uint256",
          "name": "",
          "type": "uint256"
        }
      ],
      "stateMutability": "view",
      "type": "function"
    },
    {
      "inputs": [
        {
          "internalType": "uint256",
          "name": "_goalId",
          "type": "uint256"
        }
      ],
      "name": "claimRewards",
      "outputs": [],
      "stateMutability": "payable",
      "type": "function"
    },
    {
      "inputs": [
        {
          "internalType": "address",
          "name": "_walletAddress",
          "type": "address"
        },
        {
          "internalType": "uint256",
          "name": "_goalId",
          "type": "uint256"
        },
        {
          "internalType": "uint256",
          "name": "_userData",
          "type": "uint256"
        }
      ],
      "name": "completeGoal",
      "outputs": [],
      "stateMutability": "nonpayable",
      "type": "function"
    },
    {
      "inputs": [
        {
          "internalType": "uint256",
          "name": "_goalId",
          "type": "uint256"
        },
        {
          "internalType": "enum Goalfi.UserProgress",
          "name": "progress",
          "type": "uint8"
        }
      ],
      "name": "countGoalParticipantsAtProgress",
      "outputs": [
        {
          "internalType": "uint256",
          "name": "",
          "type": "uint256"
        }
      ],
      "stateMutability": "view",
      "type": "function"
    },
    {
      "inputs": [
        {
          "internalType": "string",
          "name": "_activity",
          "type": "string"
        },
        {
          "internalType": "string",
          "name": "_description",
          "type": "string"
        },
        {
          "internalType": "uint256",
          "name": "_distance",
          "type": "uint256"
        },
        {
          "internalType": "uint256",
          "name": "_startTimestamp",
          "type": "uint256"
        },
        {
          "internalType": "uint256",
          "name": "_expiryTimestamp",
          "type": "uint256"
        }
      ],
      "name": "createGoal",
      "outputs": [],
      "stateMutability": "nonpayable",
      "type": "function"
    },
    {
      "inputs": [],
      "name": "createUser",
      "outputs": [],
      "stateMutability": "nonpayable",
      "type": "function"
    },
    {
      "inputs": [
        {
          "internalType": "uint256",
          "name": "_goalId",
          "type": "uint256"
        }
      ],
      "name": "failGoal",
      "outputs": [],
      "stateMutability": "nonpayable",
      "type": "function"
    },
    {
      "inputs": [
        {
          "internalType": "uint256",
          "name": "_goalId",
          "type": "uint256"
        }
      ],
      "name": "getParticipantAddresses",
      "outputs": [
        {
          "internalType": "address[]",
          "name": "",
          "type": "address[]"
        }
      ],
      "stateMutability": "view",
      "type": "function"
    },
    {
      "inputs": [],
      "name": "goalCount",
      "outputs": [
        {
          "internalType": "uint256",
          "name": "",
          "type": "uint256"
        }
      ],
      "stateMutability": "view",
      "type": "function"
    },
    {
      "inputs": [
        {
          "internalType": "uint256",
          "name": "",
          "type": "uint256"
        }
      ],
      "name": "goals",
      "outputs": [
        {
          "internalType": "uint256",
          "name": "goalId",
          "type": "uint256"
        },
        {
          "internalType": "string",
          "name": "activity",
          "type": "string"
        },
        {
          "internalType": "string",
          "name": "description",
          "type": "string"
        },
        {
          "internalType": "uint256",
          "name": "distance",
          "type": "uint256"
        },
        {
          "internalType": "uint256",
          "name": "stake",
          "type": "uint256"
        },
        {
          "internalType": "uint256",
          "name": "failedStake",
          "type": "uint256"
        },
        {
          "internalType": "uint256",
          "name": "startTimestamp",
          "type": "uint256"
        },
        {
          "internalType": "uint256",
          "name": "expiryTimestamp",
          "type": "uint256"
        },
        {
          "internalType": "bool",
          "name": "set",
          "type": "bool"
        }
      ],
      "stateMutability": "view",
      "type": "function"
    },
    {
      "inputs": [
        {
          "internalType": "uint256",
          "name": "_goalId",
          "type": "uint256"
        }
      ],
      "name": "joinGoal",
      "outputs": [],
      "stateMutability": "payable",
      "type": "function"
    },
    {
      "inputs": [],
      "name": "owner",
      "outputs": [
        {
          "internalType": "address",
          "name": "",
          "type": "address"
        }
      ],
      "stateMutability": "view",
      "type": "function"
    },
    {
      "inputs": [],
      "name": "renounceOwnership",
      "outputs": [],
      "stateMutability": "nonpayable",
      "type": "function"
    },
    {
      "inputs": [
        {
          "internalType": "address",
          "name": "newOwner",
          "type": "address"
        }
      ],
      "name": "transferOwnership",
      "outputs": [],
      "stateMutability": "nonpayable",
      "type": "function"
    },
    {
      "inputs": [
        {
          "internalType": "address",
          "name": "",
          "type": "address"
        }
      ],
      "name": "uncompletedUsersId",
      "outputs": [
        {
          "internalType": "bool",
          "name": "",
          "type": "bool"
        }
      ],
      "stateMutability": "view",
      "type": "function"
    },
    {
      "inputs": [
        {
          "internalType": "address",
          "name": "",
          "type": "address"
        }
      ],
      "name": "userAddressUsed",
      "outputs": [
        {
          "internalType": "bool",
          "name": "",
          "type": "bool"
        }
      ],
      "stateMutability": "view",
      "type": "function"
    },
    {
      "inputs": [],
      "name": "userCount",
      "outputs": [
        {
          "internalType": "uint256",
          "name": "",
          "type": "uint256"
        }
      ],
      "stateMutability": "view",
      "type": "function"
    },
    {
      "inputs": [
        {
          "internalType": "address",
          "name": "",
          "type": "address"
        }
      ],
      "name": "users",
      "outputs": [
        {
          "internalType": "address",
          "name": "walletAddress",
          "type": "address"
        }
      ],
      "stateMutability": "view",
      "type": "function"
    }
  ],
  "bytecode": "0x60806040523480156200001157600080fd5b5033600073ffffffffffffffffffffffffffffffffffffffff168173ffffffffffffffffffffffffffffffffffffffff1603620000885760006040517f1e4fbdf70000000000000000000000000000000000000000000000000000000081526004016200007f9190620001a9565b60405180910390fd5b6200009981620000a060201b60201c565b50620001c6565b60008060009054906101000a900473ffffffffffffffffffffffffffffffffffffffff169050816000806101000a81548173ffffffffffffffffffffffffffffffffffffffff021916908373ffffffffffffffffffffffffffffffffffffffff1602179055508173ffffffffffffffffffffffffffffffffffffffff168173ffffffffffffffffffffffffffffffffffffffff167f8be0079c531659141344cd1fd0a4f28419497f9722a3daafe3b4186f6b6457e060405160405180910390a35050565b600073ffffffffffffffffffffffffffffffffffffffff82169050919050565b6000620001918262000164565b9050919050565b620001a38162000184565b82525050565b6000602082019050620001c0600083018462000198565b92915050565b6138b180620001d66000396000f3fe60806040526004361061011e5760003560e01c80637dc89c3e116100a0578063d6901c9811610064578063d6901c98146103ac578063e75f6ca7146103e9578063f2fde38b14610414578063f71700671461043d578063f9e0913f1461047a5761011e565b80637dc89c3e146102d65780638da5cb5b146102ff578063a87430ba1461032a578063bce8ed4d14610367578063c158b90c146103905761011e565b806325ad91ce116100e757806325ad91ce146101fd5780632b8c9c6e14610214578063386994201461025157806361449ca21461027a578063715018a6146102bf5761011e565b80620b46f81461012357806307973ccf1461014e5780630962ef79146101795780630da8c007146101955780632559d152146101d2575b600080fd5b34801561012f57600080fd5b506101386104a5565b604051610145919061228f565b60405180910390f35b34801561015a57600080fd5b506101636104aa565b604051610170919061228f565b60405180910390f35b610193600480360381019061018e91906122ea565b6104b0565b005b3480156101a157600080fd5b506101bc60048036038101906101b7919061233c565b61097a565b6040516101c9919061228f565b60405180910390f35b3480156101de57600080fd5b506101e7610b2b565b6040516101f4919061228f565b60405180910390f35b34801561020957600080fd5b50610212610b30565b005b34801561022057600080fd5b5061023b600480360381019061023691906123da565b610d56565b6040516102489190612422565b60405180910390f35b34801561025d57600080fd5b506102786004803603810190610273919061243d565b610d76565b005b34801561028657600080fd5b506102a1600480360381019061029c91906122ea565b61116e565b6040516102b699989796959493929190612520565b60405180910390f35b3480156102cb57600080fd5b506102d46112d9565b005b3480156102e257600080fd5b506102fd60048036038101906102f891906122ea565b6112ed565b005b34801561030b57600080fd5b506103146116bd565b60405161032191906125ca565b60405180910390f35b34801561033657600080fd5b50610351600480360381019061034c91906123da565b6116e6565b60405161035e91906125ca565b60405180910390f35b34801561037357600080fd5b5061038e6004803603810190610389919061271a565b611724565b005b6103aa60048036038101906103a591906122ea565b6118e4565b005b3480156103b857600080fd5b506103d360048036038101906103ce91906122ea565b611df0565b6040516103e0919061288b565b60405180910390f35b3480156103f557600080fd5b506103fe611ef9565b60405161040b919061228f565b60405180910390f35b34801561042057600080fd5b5061043b600480360381019061043691906123da565b611eff565b005b34801561044957600080fd5b50610464600480360381019061045f91906123da565b611f85565b6040516104719190612422565b60405180910390f35b34801561048657600080fd5b5061048f611fa5565b60405161049c919061228f565b60405180910390f35b600281565b60015481565b33600073ffffffffffffffffffffffffffffffffffffffff16600460008373ffffffffffffffffffffffffffffffffffffffff1673ffffffffffffffffffffffffffffffffffffffff16815260200190815260200160002060000160009054906101000a900473ffffffffffffffffffffffffffffffffffffffff1673ffffffffffffffffffffffffffffffffffffffff1603610582576040517f08c379a0000000000000000000000000000000000000000000000000000000008152600401610579906128f9565b60405180910390fd5b8160056000828152602001908152602001600020600a0160009054906101000a900460ff166105e6576040517f08c379a00000000000000000000000000000000000000000000000000000000081526004016105dd9061298b565b60405180910390fd5b600560008481526020019081526020016000206009015442101561063f576040517f08c379a000000000000000000000000000000000000000000000000000000000815260040161063690612a1d565b60405180910390fd5b600060056000858152602001908152602001600020905060048081111561066957610668612a3d565b5b8160060160003373ffffffffffffffffffffffffffffffffffffffff1673ffffffffffffffffffffffffffffffffffffffff16815260200190815260200160002060020160009054906101000a900460ff1660048111156106cd576106cc612a3d565b5b0361070d576040517f08c379a000000000000000000000000000000000000000000000000000000000815260040161070490612ab8565b60405180910390fd5b6003600481111561072157610720612a3d565b5b8160060160003373ffffffffffffffffffffffffffffffffffffffff1673ffffffffffffffffffffffffffffffffffffffff16815260200190815260200160002060020160009054906101000a900460ff16600481111561078557610784612a3d565b5b146107c5576040517f08c379a00000000000000000000000000000000000000000000000000000000081526004016107bc90612b4a565b60405180910390fd5b60008160060160003373ffffffffffffffffffffffffffffffffffffffff1673ffffffffffffffffffffffffffffffffffffffff16815260200190815260200160002060000154905060008111610851576040517f08c379a000000000000000000000000000000000000000000000000000000000815260040161084890612bdc565b60405180910390fd5b600061085d3387611fab565b90503373ffffffffffffffffffffffffffffffffffffffff166108fc829081150290604051600060405180830381858888f193505050501580156108a5573d6000803e3d6000fd5b50808360040160008282546108ba9190612c2b565b9250508190555060048360060160003373ffffffffffffffffffffffffffffffffffffffff1673ffffffffffffffffffffffffffffffffffffffff16815260200190815260200160002060020160006101000a81548160ff0219169083600481111561092957610928612a3d565b5b0217905550853373ffffffffffffffffffffffffffffffffffffffff167ffc30cddea38e2bf4d6ea7d3f9ed3b6ad7f176419f4963bd81318067a4aee73fe60405160405180910390a3505050505050565b60008260056000828152602001908152602001600020600a0160009054906101000a900460ff166109e0576040517f08c379a00000000000000000000000000000000000000000000000000000000081526004016109d79061298b565b60405180910390fd5b60006005600086815260200190815260200160002090506000805b8260070180549050811015610b1e576000836007018281548110610a2257610a21612c5f565b5b9060005260206000200160009054906101000a900473ffffffffffffffffffffffffffffffffffffffff169050866004811115610a6257610a61612a3d565b5b8460060160008373ffffffffffffffffffffffffffffffffffffffff1673ffffffffffffffffffffffffffffffffffffffff16815260200190815260200160002060020160009054906101000a900460ff166004811115610ac657610ac5612a3d565b5b1480610af6575060006004811115610ae157610ae0612a3d565b5b876004811115610af457610af3612a3d565b5b145b15610b0a578280610b0690612c8e565b9350505b508080610b1690612c8e565b9150506109fb565b5080935050505092915050565b600a81565b33600660008273ffffffffffffffffffffffffffffffffffffffff1673ffffffffffffffffffffffffffffffffffffffff16815260200190815260200160002060009054906101000a900460ff1615610bbe576040517f08c379a0000000000000000000000000000000000000000000000000000000008152600401610bb590612d48565b60405180910390fd5b66038d7ea4c680003373ffffffffffffffffffffffffffffffffffffffff16311015610c1f576040517f08c379a0000000000000000000000000000000000000000000000000000000008152600401610c1690612dda565b60405180910390fd5b33600460003373ffffffffffffffffffffffffffffffffffffffff1673ffffffffffffffffffffffffffffffffffffffff16815260200190815260200160002060000160006101000a81548173ffffffffffffffffffffffffffffffffffffffff021916908373ffffffffffffffffffffffffffffffffffffffff16021790555060016000815480929190610cb390612c8e565b91905055506001600660003373ffffffffffffffffffffffffffffffffffffffff1673ffffffffffffffffffffffffffffffffffffffff16815260200190815260200160002060006101000a81548160ff0219169083151502179055503373ffffffffffffffffffffffffffffffffffffffff167f0b0376a109cbb578b709f85f6a7befcdac3ac1ab251c99ede87f30c9572ac4d360405160405180910390a250565b60066020528060005260406000206000915054906101000a900460ff1681565b610d7e61207c565b818360056000838152602001908152602001600020600a0160009054906101000a900460ff16610de3576040517f08c379a0000000000000000000000000000000000000000000000000000000008152600401610dda90612e6c565b60405180910390fd5b4260056000848152602001908152602001600020600901541015610e0b57610e0a826112ed565b5b6000600460008773ffffffffffffffffffffffffffffffffffffffff1673ffffffffffffffffffffffffffffffffffffffff16815260200190815260200160002090506000600560008781526020019081526020016000209050600073ffffffffffffffffffffffffffffffffffffffff168260000160009054906101000a900473ffffffffffffffffffffffffffffffffffffffff1673ffffffffffffffffffffffffffffffffffffffff1603610ef8576040517f08c379a0000000000000000000000000000000000000000000000000000000008152600401610eef90612ed8565b60405180910390fd5b8060030154851015610f3f576040517f08c379a0000000000000000000000000000000000000000000000000000000008152600401610f3690612f6a565b60405180910390fd5b60016004811115610f5357610f52612a3d565b5b8160060160008973ffffffffffffffffffffffffffffffffffffffff1673ffffffffffffffffffffffffffffffffffffffff16815260200190815260200160002060020160009054906101000a900460ff166004811115610fb757610fb6612a3d565b5b14610ff7576040517f08c379a0000000000000000000000000000000000000000000000000000000008152600401610fee90612ffc565b60405180910390fd5b6002600481111561100b5761100a612a3d565b5b8160060160008973ffffffffffffffffffffffffffffffffffffffff1673ffffffffffffffffffffffffffffffffffffffff16815260200190815260200160002060020160009054906101000a900460ff16600481111561106f5761106e612a3d565b5b036110af576040517f08c379a00000000000000000000000000000000000000000000000000000000081526004016110a69061308e565b60405180910390fd5b60038160060160008973ffffffffffffffffffffffffffffffffffffffff1673ffffffffffffffffffffffffffffffffffffffff16815260200190815260200160002060020160006101000a81548160ff0219169083600481111561111757611116612a3d565b5b0217905550848160060160008973ffffffffffffffffffffffffffffffffffffffff1673ffffffffffffffffffffffffffffffffffffffff1681526020019081526020016000206001018190555050505050505050565b6005602052806000526040600020600091509050806000015490806001018054611197906130dd565b80601f01602080910402602001604051908101604052809291908181526020018280546111c3906130dd565b80156112105780601f106111e557610100808354040283529160200191611210565b820191906000526020600020905b8154815290600101906020018083116111f357829003601f168201915b505050505090806002018054611225906130dd565b80601f0160208091040260200160405190810160405280929190818152602001828054611251906130dd565b801561129e5780601f106112735761010080835404028352916020019161129e565b820191906000526020600020905b81548152906001019060200180831161128157829003601f168201915b50505050509080600301549080600401549080600501549080600801549080600901549080600a0160009054906101000a900460ff16905089565b6112e161207c565b6112eb6000612103565b565b6112f561207c565b8060056000828152602001908152602001600020600a0160009054906101000a900460ff16611359576040517f08c379a00000000000000000000000000000000000000000000000000000000081526004016113509061298b565b60405180910390fd5b60056000838152602001908152602001600020600901544210156113b2576040517f08c379a00000000000000000000000000000000000000000000000000000000081526004016113a9906131a6565b60405180910390fd5b600060056000848152602001908152602001600020905060005b816007018054905081101561169f5760008260070182815481106113f3576113f2612c5f565b5b9060005260206000200160009054906101000a900473ffffffffffffffffffffffffffffffffffffffff169050600760008273ffffffffffffffffffffffffffffffffffffffff1673ffffffffffffffffffffffffffffffffffffffff16815260200190815260200160002060009054906101000a900460ff161561168b576002600481111561148657611485612a3d565b5b8360060160008373ffffffffffffffffffffffffffffffffffffffff1673ffffffffffffffffffffffffffffffffffffffff16815260200190815260200160002060020160009054906101000a900460ff1660048111156114ea576114e9612a3d565b5b1415801561156e57506003600481111561150757611506612a3d565b5b8360060160008373ffffffffffffffffffffffffffffffffffffffff1673ffffffffffffffffffffffffffffffffffffffff16815260200190815260200160002060020160009054906101000a900460ff16600481111561156b5761156a612a3d565b5b14155b1561168a5760028360060160008373ffffffffffffffffffffffffffffffffffffffff1673ffffffffffffffffffffffffffffffffffffffff16815260200190815260200160002060020160006101000a81548160ff021916908360048111156115db576115da612a3d565b5b02179055508260060160008273ffffffffffffffffffffffffffffffffffffffff1673ffffffffffffffffffffffffffffffffffffffff1681526020019081526020016000206000015483600501600082825461163891906131c6565b9250508190555060008360060160008373ffffffffffffffffffffffffffffffffffffffff1673ffffffffffffffffffffffffffffffffffffffff168152602001908152602001600020600001819055505b5b50808061169790612c8e565b9150506113cc565b50600360008154809291906116b3906131fa565b9190505550505050565b60008060009054906101000a900473ffffffffffffffffffffffffffffffffffffffff16905090565b60046020528060005260406000206000915090508060000160009054906101000a900473ffffffffffffffffffffffffffffffffffffffff16905081565b61172c61207c565b600a60035410611771576040517f08c379a000000000000000000000000000000000000000000000000000000000815260040161176890613295565b60405180910390fd5b600060056000600254815260200190815260200160002090506002548160000181905550858160010190816117a69190613461565b50848160020190816117b89190613461565b508381600301819055506000816004018190555060008160050181905550600067ffffffffffffffff8111156117f1576117f06125ef565b5b60405190808252806020026020018201604052801561181f5781602001602082028036833780820191505090505b508160070190805190602001906118379291906121cf565b50828160080181905550818160090181905550600181600a0160006101000a81548160ff0219169083151502179055506002547f3cd7b95aaf5b8e35301eec75643248929b83571e600ed03f87f41de5d7d767e1878787600088886040516118a49695949392919061356e565b60405180910390a2600360008154809291906118bf90612c8e565b9190505550600260008154809291906118d790612c8e565b9190505550505050505050565b33600073ffffffffffffffffffffffffffffffffffffffff16600460008373ffffffffffffffffffffffffffffffffffffffff1673ffffffffffffffffffffffffffffffffffffffff16815260200190815260200160002060000160009054906101000a900473ffffffffffffffffffffffffffffffffffffffff1673ffffffffffffffffffffffffffffffffffffffff16036119b6576040517f08c379a00000000000000000000000000000000000000000000000000000000081526004016119ad906128f9565b60405180910390fd5b8160056000828152602001908152602001600020600a0160009054906101000a900460ff16611a1a576040517f08c379a0000000000000000000000000000000000000000000000000000000008152600401611a119061298b565b60405180910390fd5b60056000848152602001908152602001600020600801544210611a72576040517f08c379a0000000000000000000000000000000000000000000000000000000008152600401611a699061364f565b60405180910390fd5b42600560008581526020019081526020016000206009015411611aca576040517f08c379a0000000000000000000000000000000000000000000000000000000008152600401611ac1906136bb565b60405180910390fd5b60003411611b0d576040517f08c379a0000000000000000000000000000000000000000000000000000000008152600401611b0490613727565b60405180910390fd5b60006004811115611b2157611b20612a3d565b5b6005600085815260200190815260200160002060060160003373ffffffffffffffffffffffffffffffffffffffff1673ffffffffffffffffffffffffffffffffffffffff16815260200190815260200160002060020160009054906101000a900460ff166004811115611b9757611b96612a3d565b5b14611bd7576040517f08c379a0000000000000000000000000000000000000000000000000000000008152600401611bce906137b9565b60405180910390fd5b6001600760003373ffffffffffffffffffffffffffffffffffffffff1673ffffffffffffffffffffffffffffffffffffffff16815260200190815260200160002060006101000a81548160ff02191690831515021790555060405180606001604052803481526020016000815260200160016004811115611c5b57611c5a612a3d565b5b8152506005600085815260200190815260200160002060060160003373ffffffffffffffffffffffffffffffffffffffff1673ffffffffffffffffffffffffffffffffffffffff168152602001908152602001600020600082015181600001556020820151816001015560408201518160020160006101000a81548160ff02191690836004811115611cf057611cef612a3d565b5b021790555090505060056000848152602001908152602001600020600701339080600181540180825580915050600190039060005260206000200160009091909190916101000a81548173ffffffffffffffffffffffffffffffffffffffff021916908373ffffffffffffffffffffffffffffffffffffffff16021790555034600560008581526020019081526020016000206004016000828254611d9591906131c6565b92505081905550823373ffffffffffffffffffffffffffffffffffffffff167f8f301af230e39227ba203f0d3f6b4314b562b99636df1521ff13d5516a9d731634604051611de3919061228f565b60405180910390a3505050565b60608160056000828152602001908152602001600020600a0160009054906101000a900460ff16611e56576040517f08c379a0000000000000000000000000000000000000000000000000000000008152600401611e4d9061298b565b60405180910390fd5b60056000848152602001908152602001600020600701805480602002602001604051908101604052809291908181526020018280548015611eec57602002820191906000526020600020905b8160009054906101000a900473ffffffffffffffffffffffffffffffffffffffff1673ffffffffffffffffffffffffffffffffffffffff1681526020019060010190808311611ea2575b5050505050915050919050565b60025481565b611f0761207c565b600073ffffffffffffffffffffffffffffffffffffffff168173ffffffffffffffffffffffffffffffffffffffff1603611f795760006040517f1e4fbdf7000000000000000000000000000000000000000000000000000000008152600401611f7091906125ca565b60405180910390fd5b611f8281612103565b50565b60076020528060005260406000206000915054906101000a900460ff1681565b60035481565b60008060056000848152602001908152602001600020905060008160060160008673ffffffffffffffffffffffffffffffffffffffff1673ffffffffffffffffffffffffffffffffffffffff168152602001908152602001600020600001549050600082600501549050600061202286600361097a565b90506000606460028561203591906137d9565b61203f919061384a565b90506000828461204f919061384a565b9050600082828761206091906131c6565b61206a9190612c2b565b90508097505050505050505092915050565b6120846121c7565b73ffffffffffffffffffffffffffffffffffffffff166120a26116bd565b73ffffffffffffffffffffffffffffffffffffffff1614612101576120c56121c7565b6040517f118cdaa70000000000000000000000000000000000000000000000000000000081526004016120f891906125ca565b60405180910390fd5b565b60008060009054906101000a900473ffffffffffffffffffffffffffffffffffffffff169050816000806101000a81548173ffffffffffffffffffffffffffffffffffffffff021916908373ffffffffffffffffffffffffffffffffffffffff1602179055508173ffffffffffffffffffffffffffffffffffffffff168173ffffffffffffffffffffffffffffffffffffffff167f8be0079c531659141344cd1fd0a4f28419497f9722a3daafe3b4186f6b6457e060405160405180910390a35050565b600033905090565b828054828255906000526020600020908101928215612248579160200282015b828111156122475782518260006101000a81548173ffffffffffffffffffffffffffffffffffffffff021916908373ffffffffffffffffffffffffffffffffffffffff160217905550916020019190600101906121ef565b5b5090506122559190612259565b5090565b5b8082111561227257600081600090555060010161225a565b5090565b6000819050919050565b61228981612276565b82525050565b60006020820190506122a46000830184612280565b92915050565b6000604051905090565b600080fd5b600080fd5b6122c781612276565b81146122d257600080fd5b50565b6000813590506122e4816122be565b92915050565b600060208284031215612300576122ff6122b4565b5b600061230e848285016122d5565b91505092915050565b6005811061232457600080fd5b50565b60008135905061233681612317565b92915050565b60008060408385031215612353576123526122b4565b5b6000612361858286016122d5565b925050602061237285828601612327565b9150509250929050565b600073ffffffffffffffffffffffffffffffffffffffff82169050919050565b60006123a78261237c565b9050919050565b6123b78161239c565b81146123c257600080fd5b50565b6000813590506123d4816123ae565b92915050565b6000602082840312156123f0576123ef6122b4565b5b60006123fe848285016123c5565b91505092915050565b60008115159050919050565b61241c81612407565b82525050565b60006020820190506124376000830184612413565b92915050565b600080600060608486031215612456576124556122b4565b5b6000612464868287016123c5565b9350506020612475868287016122d5565b9250506040612486868287016122d5565b9150509250925092565b600081519050919050565b600082825260208201905092915050565b60005b838110156124ca5780820151818401526020810190506124af565b60008484015250505050565b6000601f19601f8301169050919050565b60006124f282612490565b6124fc818561249b565b935061250c8185602086016124ac565b612515816124d6565b840191505092915050565b600061012082019050612536600083018c612280565b8181036020830152612548818b6124e7565b9050818103604083015261255c818a6124e7565b905061256b6060830189612280565b6125786080830188612280565b61258560a0830187612280565b61259260c0830186612280565b61259f60e0830185612280565b6125ad610100830184612413565b9a9950505050505050505050565b6125c48161239c565b82525050565b60006020820190506125df60008301846125bb565b92915050565b600080fd5b600080fd5b7f4e487b7100000000000000000000000000000000000000000000000000000000600052604160045260246000fd5b612627826124d6565b810181811067ffffffffffffffff82111715612646576126456125ef565b5b80604052505050565b60006126596122aa565b9050612665828261261e565b919050565b600067ffffffffffffffff821115612685576126846125ef565b5b61268e826124d6565b9050602081019050919050565b82818337600083830152505050565b60006126bd6126b88461266a565b61264f565b9050828152602081018484840111156126d9576126d86125ea565b5b6126e484828561269b565b509392505050565b600082601f830112612701576127006125e5565b5b81356127118482602086016126aa565b91505092915050565b600080600080600060a08688031215612736576127356122b4565b5b600086013567ffffffffffffffff811115612754576127536122b9565b5b612760888289016126ec565b955050602086013567ffffffffffffffff811115612781576127806122b9565b5b61278d888289016126ec565b945050604061279e888289016122d5565b93505060606127af888289016122d5565b92505060806127c0888289016122d5565b9150509295509295909350565b600081519050919050565b600082825260208201905092915050565b6000819050602082019050919050565b6128028161239c565b82525050565b600061281483836127f9565b60208301905092915050565b6000602082019050919050565b6000612838826127cd565b61284281856127d8565b935061284d836127e9565b8060005b8381101561287e5781516128658882612808565b975061287083612820565b925050600181019050612851565b5085935050505092915050565b600060208201905081810360008301526128a5818461282d565b905092915050565b7f55736572206d7573742065786973740000000000000000000000000000000000600082015250565b60006128e3600f8361249b565b91506128ee826128ad565b602082019050919050565b60006020820190508181036000830152612912816128d6565b9050919050565b7f676f616c4578697374733a20696e76616c696420676f616c2069642c20676f6160008201527f6c20646f6573206e6f7420657869737400000000000000000000000000000000602082015250565b600061297560308361249b565b915061298082612919565b604082019050919050565b600060208201905081810360008301526129a481612968565b9050919050565b7f636c61696d526577617264733a20476f616c206d75737420626520657870697260008201527f6564000000000000000000000000000000000000000000000000000000000000602082015250565b6000612a0760228361249b565b9150612a12826129ab565b604082019050919050565b60006020820190508181036000830152612a36816129fa565b9050919050565b7f4e487b7100000000000000000000000000000000000000000000000000000000600052602160045260246000fd5b7f557365722068617320616c726561647920636c61696d65642072657761726473600082015250565b6000612aa260208361249b565b9150612aad82612a6c565b602082019050919050565b60006020820190508181036000830152612ad181612a95565b9050919050565b7f55736572206d757374206861766520636f6d706c657465642074686520676f6160008201527f6c00000000000000000000000000000000000000000000000000000000000000602082015250565b6000612b3460218361249b565b9150612b3f82612ad8565b604082019050919050565b60006020820190508181036000830152612b6381612b27565b9050919050565b7f55736572206d7573742068617665207374616b656420457468657220696e207460008201527f686520676f616c00000000000000000000000000000000000000000000000000602082015250565b6000612bc660278361249b565b9150612bd182612b6a565b604082019050919050565b60006020820190508181036000830152612bf581612bb9565b9050919050565b7f4e487b7100000000000000000000000000000000000000000000000000000000600052601160045260246000fd5b6000612c3682612276565b9150612c4183612276565b9250828203905081811115612c5957612c58612bfc565b5b92915050565b7f4e487b7100000000000000000000000000000000000000000000000000000000600052603260045260246000fd5b6000612c9982612276565b91507fffffffffffffffffffffffffffffffffffffffffffffffffffffffffffffffff8203612ccb57612cca612bfc565b5b600182019050919050565b7f557365722063616e206f6e6c792063726561746520616e206163636f756e742060008201527f6f6e636500000000000000000000000000000000000000000000000000000000602082015250565b6000612d3260248361249b565b9150612d3d82612cd6565b604082019050919050565b60006020820190508181036000830152612d6181612d25565b9050919050565b7f55736572206d7573742068617665206174206c6561737420302e30303120455460008201527f4820696e2074686569722077616c6c6574000000000000000000000000000000602082015250565b6000612dc460318361249b565b9150612dcf82612d68565b604082019050919050565b60006020820190508181036000830152612df381612db7565b9050919050565b7f6d61726b4661696c65644966457870697265643a20696e76616c696420676f6160008201527f6c2069642c20676f616c20646f6573206e6f7420657869737400000000000000602082015250565b6000612e5660398361249b565b9150612e6182612dfa565b604082019050919050565b60006020820190508181036000830152612e8581612e49565b9050919050565b7f636f6d706c657465476f616c3a2075736572206d757374206578697374000000600082015250565b6000612ec2601d8361249b565b9150612ecd82612e8c565b602082019050919050565b60006020820190508181036000830152612ef181612eb5565b9050919050565b7f557365722064697374616e6365206d757374206265206772656174657220746860008201527f616e206f7220657175616c20746f2074686520676f616c2064697374616e6365602082015250565b6000612f5460408361249b565b9150612f5f82612ef8565b604082019050919050565b60006020820190508181036000830152612f8381612f47565b9050919050565b7f5573657220697320726571756972656420746f2068617665206a6f696e65642060008201527f74686520676f616c000000000000000000000000000000000000000000000000602082015250565b6000612fe660288361249b565b9150612ff182612f8a565b604082019050919050565b6000602082019050818103600083015261301581612fd9565b9050919050565b7f55736572206d757374206e6f74206265206d61726b6564206173206661696c6560008201527f6400000000000000000000000000000000000000000000000000000000000000602082015250565b600061307860218361249b565b91506130838261301c565b604082019050919050565b600060208201905081810360008301526130a78161306b565b9050919050565b7f4e487b7100000000000000000000000000000000000000000000000000000000600052602260045260246000fd5b600060028204905060018216806130f557607f821691505b602082108103613108576131076130ae565b5b50919050565b7f476f616c206d757374206265206578706972656420696e206f7264657220666f60008201527f7220757365727320746f2068617665206661696c656420746865697220676f6160208201527f6c00000000000000000000000000000000000000000000000000000000000000604082015250565b600061319060418361249b565b915061319b8261310e565b606082019050919050565b600060208201905081810360008301526131bf81613183565b9050919050565b60006131d182612276565b91506131dc83612276565b92508282019050808211156131f4576131f3612bfc565b5b92915050565b600061320582612276565b91506000820361321857613217612bfc565b5b600182039050919050565b7f4d6178696d756d206e756d626572206f662061637469766520676f616c73207260008201527f6561636865640000000000000000000000000000000000000000000000000000602082015250565b600061327f60268361249b565b915061328a82613223565b604082019050919050565b600060208201905081810360008301526132ae81613272565b9050919050565b60008190508160005260206000209050919050565b60006020601f8301049050919050565b600082821b905092915050565b6000600883026133177fffffffffffffffffffffffffffffffffffffffffffffffffffffffffffffffff826132da565b61332186836132da565b95508019841693508086168417925050509392505050565b6000819050919050565b600061335e61335961335484612276565b613339565b612276565b9050919050565b6000819050919050565b61337883613343565b61338c61338482613365565b8484546132e7565b825550505050565b600090565b6133a1613394565b6133ac81848461336f565b505050565b5b818110156133d0576133c5600082613399565b6001810190506133b2565b5050565b601f821115613415576133e6816132b5565b6133ef846132ca565b810160208510156133fe578190505b61341261340a856132ca565b8301826133b1565b50505b505050565b600082821c905092915050565b60006134386000198460080261341a565b1980831691505092915050565b60006134518383613427565b9150826002028217905092915050565b61346a82612490565b67ffffffffffffffff811115613483576134826125ef565b5b61348d82546130dd565b6134988282856133d4565b600060209050601f8311600181146134cb57600084156134b9578287015190505b6134c38582613445565b86555061352b565b601f1984166134d9866132b5565b60005b82811015613501578489015182556001820191506020850194506020810190506134dc565b8683101561351e578489015161351a601f891682613427565b8355505b6001600288020188555050505b505050505050565b6000819050919050565b600061355861355361354e84613533565b613339565b612276565b9050919050565b6135688161353d565b82525050565b600060c082019050818103600083015261358881896124e7565b9050818103602083015261359c81886124e7565b90506135ab6040830187612280565b6135b8606083018661355f565b6135c56080830185612280565b6135d260a0830184612280565b979650505050505050565b7f43616e6e6f74206a6f696e206120676f616c20746861742068617320616c726560008201527f61647920737461727465642e0000000000000000000000000000000000000000602082015250565b6000613639602c8361249b565b9150613644826135dd565b604082019050919050565b600060208201905081810360008301526136688161362c565b9050919050565b7f43616e6e6f74206a6f696e20616e206578706972656420676f616c0000000000600082015250565b60006136a5601b8361249b565b91506136b08261366f565b602082019050919050565b600060208201905081810360008301526136d481613698565b9050919050565b7f596f75206d757374207374616b6520746f206a6f696e2074686520706f6f6c2e600082015250565b600061371160208361249b565b915061371c826136db565b602082019050919050565b6000602082019050818103600083015261374081613704565b9050919050565b7f557365722068617320616c72656164792070617274696369706174656420696e60008201527f2074686520676f616c0000000000000000000000000000000000000000000000602082015250565b60006137a360298361249b565b91506137ae82613747565b604082019050919050565b600060208201905081810360008301526137d281613796565b9050919050565b60006137e482612276565b91506137ef83612276565b92508282026137fd81612276565b9150828204841483151761381457613813612bfc565b5b5092915050565b7f4e487b7100000000000000000000000000000000000000000000000000000000600052601260045260246000fd5b600061385582612276565b915061386083612276565b9250826138705761386f61381b565b5b82820490509291505056fea2646970667358221220b380666404a9f5fcb40bff360d1b64c0ec6c4edcbdd64ac5b083af900c2c2a0164736f6c63430008140033",
  "linkReferences": {},
  "deployedLinkReferences": {}
}