{
  "_format": "hh-sol-artifact-1",
  "contractName": "Goalfi",
  "sourceName": "contracts/Goalfi.sol",
  "abi": [
    {
      "inputs": [
        {
          "internalType": "uint64",
          "name": "functionsSubscriptionId",
          "type": "uint64"
        },
        {
          "internalType": "string",
          "name": "_source",
          "type": "string"
        }
      ],
      "stateMutability": "nonpayable",
      "type": "constructor"
    },
    {
      "inputs": [],
      "name": "EmptyArgs",
      "type": "error"
    },
    {
      "inputs": [],
      "name": "EmptySource",
      "type": "error"
    },
    {
      "inputs": [],
      "name": "NoInlineSecrets",
      "type": "error"
    },
    {
      "inputs": [],
      "name": "OnlyRouterCanFulfill",
      "type": "error"
    },
    {
      "inputs": [
        {
          "internalType": "address",
          "name": "owner",
          "type": "address"
        }
      ],
      "name": "OwnableInvalidOwner",
      "type": "error"
    },
    {
      "inputs": [
        {
          "internalType": "address",
          "name": "account",
          "type": "address"
        }
      ],
      "name": "OwnableUnauthorizedAccount",
      "type": "error"
    },
    {
      "inputs": [],
      "name": "ReentrancyGuardReentrantCall",
      "type": "error"
    },
    {
      "anonymous": false,
      "inputs": [
        {
          "indexed": true,
          "internalType": "bytes32",
          "name": "requestId",
          "type": "bytes32"
        },
        {
          "indexed": false,
          "internalType": "string",
          "name": "activityType",
          "type": "string"
        }
      ],
      "name": "APIRequestSent",
      "type": "event"
    },
    {
      "anonymous": false,
      "inputs": [
        {
          "indexed": true,
          "internalType": "uint256",
          "name": "goalId",
          "type": "uint256"
        },
        {
          "indexed": false,
          "internalType": "string",
          "name": "activity",
          "type": "string"
        },
        {
          "indexed": false,
          "internalType": "string",
          "name": "description",
          "type": "string"
        },
        {
          "indexed": false,
          "internalType": "uint256",
          "name": "distance",
          "type": "uint256"
        },
        {
          "indexed": false,
          "internalType": "uint256",
          "name": "startTimestamp",
          "type": "uint256"
        },
        {
          "indexed": false,
          "internalType": "uint256",
          "name": "expiryTimestamp",
          "type": "uint256"
        }
      ],
      "name": "GoalCreated",
      "type": "event"
    },
    {
      "anonymous": false,
      "inputs": [
        {
          "indexed": true,
          "internalType": "uint256",
          "name": "goalId",
          "type": "uint256"
        }
      ],
      "name": "GoalEvaluated",
      "type": "event"
    },
    {
      "anonymous": false,
      "inputs": [
        {
          "indexed": true,
          "internalType": "address",
          "name": "previousOwner",
          "type": "address"
        },
        {
          "indexed": true,
          "internalType": "address",
          "name": "newOwner",
          "type": "address"
        }
      ],
      "name": "OwnershipTransferred",
      "type": "event"
    },
    {
      "anonymous": false,
      "inputs": [
        {
          "indexed": true,
          "internalType": "bytes32",
          "name": "id",
          "type": "bytes32"
        }
      ],
      "name": "RequestFulfilled",
      "type": "event"
    },
    {
      "anonymous": false,
      "inputs": [
        {
          "indexed": true,
          "internalType": "bytes32",
          "name": "id",
          "type": "bytes32"
        }
      ],
      "name": "RequestSent",
      "type": "event"
    },
    {
      "anonymous": false,
      "inputs": [
        {
          "indexed": true,
          "internalType": "bytes32",
          "name": "requestId",
          "type": "bytes32"
        },
        {
          "indexed": false,
          "internalType": "string",
          "name": "activityData",
          "type": "string"
        },
        {
          "indexed": false,
          "internalType": "bytes",
          "name": "response",
          "type": "bytes"
        },
        {
          "indexed": false,
          "internalType": "bytes",
          "name": "err",
          "type": "bytes"
        }
      ],
      "name": "Response",
      "type": "event"
    },
    {
      "anonymous": false,
      "inputs": [
        {
          "indexed": true,
          "internalType": "address",
          "name": "walletAddress",
          "type": "address"
        },
        {
          "indexed": true,
          "internalType": "uint256",
          "name": "goalId",
          "type": "uint256"
        }
      ],
      "name": "RewardsClaimed",
      "type": "event"
    },
    {
      "anonymous": false,
      "inputs": [
        {
          "indexed": true,
          "internalType": "address",
          "name": "walletAddress",
          "type": "address"
        }
      ],
      "name": "UserCreated",
      "type": "event"
    },
    {
      "anonymous": false,
      "inputs": [
        {
          "indexed": true,
          "internalType": "address",
          "name": "walletAddress",
          "type": "address"
        },
        {
          "indexed": true,
          "internalType": "uint256",
          "name": "goalId",
          "type": "uint256"
        },
        {
          "indexed": false,
          "internalType": "uint256",
          "name": "stake",
          "type": "uint256"
        }
      ],
      "name": "UserJoinedGoal",
      "type": "event"
    },
    {
      "anonymous": false,
      "inputs": [
        {
          "indexed": true,
          "internalType": "address",
          "name": "walletAddress",
          "type": "address"
        },
        {
          "indexed": true,
          "internalType": "uint256",
          "name": "goalId",
          "type": "uint256"
        },
        {
          "indexed": false,
          "internalType": "enum Goalfi.UserProgress",
          "name": "newStatus",
          "type": "uint8"
        }
      ],
      "name": "UserProgressUpdated",
      "type": "event"
    },
    {
      "inputs": [],
      "name": "FEE_PERCENTAGE",
      "outputs": [
        {
          "internalType": "uint256",
          "name": "",
          "type": "uint256"
        }
      ],
      "stateMutability": "view",
      "type": "function"
    },
    {
      "inputs": [],
      "name": "activeGoalCount",
      "outputs": [
        {
          "internalType": "uint256",
          "name": "",
          "type": "uint256"
        }
      ],
      "stateMutability": "view",
      "type": "function"
    },
    {
      "inputs": [
        {
          "internalType": "bytes32",
          "name": "",
          "type": "bytes32"
        }
      ],
      "name": "activities",
      "outputs": [
        {
          "internalType": "uint256",
          "name": "goalId",
          "type": "uint256"
        },
        {
          "internalType": "string",
          "name": "activityType",
          "type": "string"
        },
        {
          "internalType": "string",
          "name": "activityData",
          "type": "string"
        }
      ],
      "stateMutability": "view",
      "type": "function"
    },
    {
      "inputs": [
        {
          "internalType": "uint256[]",
          "name": "_data",
          "type": "uint256[]"
        },
        {
          "internalType": "uint256",
          "name": "_goalId",
          "type": "uint256"
        }
      ],
      "name": "assignDistance",
      "outputs": [],
      "stateMutability": "nonpayable",
      "type": "function"
    },
    {
      "inputs": [
        {
          "internalType": "uint256",
          "name": "_goalId",
          "type": "uint256"
        }
      ],
      "name": "claimRewards",
      "outputs": [],
      "stateMutability": "nonpayable",
      "type": "function"
    },
    {
      "inputs": [
        {
          "internalType": "uint256",
          "name": "_goalId",
          "type": "uint256"
        }
      ],
      "name": "closeGoal",
      "outputs": [],
      "stateMutability": "nonpayable",
      "type": "function"
    },
    {
      "inputs": [
        {
          "internalType": "uint256",
          "name": "_goalId",
          "type": "uint256"
        },
        {
          "internalType": "enum Goalfi.UserProgress",
          "name": "progress",
          "type": "uint8"
        }
      ],
      "name": "countGoalParticipantsAtProgress",
      "outputs": [
        {
          "internalType": "uint256",
          "name": "",
          "type": "uint256"
        }
      ],
      "stateMutability": "view",
      "type": "function"
    },
    {
      "inputs": [
        {
          "internalType": "string",
          "name": "_activity",
          "type": "string"
        },
        {
          "internalType": "string",
          "name": "_description",
          "type": "string"
        },
        {
          "internalType": "uint256",
          "name": "_distance",
          "type": "uint256"
        },
        {
          "internalType": "uint256",
          "name": "_startTimestamp",
          "type": "uint256"
        },
        {
          "internalType": "uint256",
          "name": "_expiryTimestamp",
          "type": "uint256"
        }
      ],
      "name": "createGoal",
      "outputs": [],
      "stateMutability": "nonpayable",
      "type": "function"
    },
    {
      "inputs": [],
      "name": "createUser",
      "outputs": [],
      "stateMutability": "nonpayable",
      "type": "function"
    },
    {
      "inputs": [
        {
          "internalType": "string",
          "name": "accessTokens",
          "type": "string"
        },
        {
          "internalType": "string",
          "name": "activityType",
          "type": "string"
        },
        {
          "internalType": "uint256",
          "name": "goalId",
          "type": "uint256"
        },
        {
          "internalType": "string",
          "name": "startTimestamp",
          "type": "string"
        },
        {
          "internalType": "string",
          "name": "expiryTimestamp",
          "type": "string"
        }
      ],
      "name": "executeRequest",
      "outputs": [
        {
          "internalType": "bytes32",
          "name": "requestId",
          "type": "bytes32"
        }
      ],
      "stateMutability": "nonpayable",
      "type": "function"
    },
    {
      "inputs": [
        {
          "internalType": "bytes32",
          "name": "requestId",
          "type": "bytes32"
        }
      ],
      "name": "getActivityWithRequestId",
      "outputs": [
        {
          "components": [
            {
              "internalType": "uint256",
              "name": "goalId",
              "type": "uint256"
            },
            {
              "internalType": "string",
              "name": "activityType",
              "type": "string"
            },
            {
              "internalType": "string",
              "name": "activityData",
              "type": "string"
            }
          ],
          "internalType": "struct Goalfi.ActivityStruct",
          "name": "",
          "type": "tuple"
        }
      ],
      "stateMutability": "view",
      "type": "function"
    },
    {
      "inputs": [
        {
          "internalType": "uint256",
          "name": "_goalId",
          "type": "uint256"
        }
      ],
      "name": "getParticipantAddresses",
      "outputs": [
        {
          "internalType": "address[]",
          "name": "",
          "type": "address[]"
        }
      ],
      "stateMutability": "view",
      "type": "function"
    },
    {
      "inputs": [
        {
          "internalType": "uint256",
          "name": "_goalId",
          "type": "uint256"
        },
        {
          "internalType": "address",
          "name": "_userAddress",
          "type": "address"
        }
      ],
      "name": "getParticipantProgress",
      "outputs": [
        {
          "internalType": "enum Goalfi.UserProgress",
          "name": "",
          "type": "uint8"
        }
      ],
      "stateMutability": "view",
      "type": "function"
    },
    {
      "inputs": [
        {
          "internalType": "uint256",
          "name": "_id",
          "type": "uint256"
        }
      ],
      "name": "getUserAddress",
      "outputs": [
        {
          "internalType": "address",
          "name": "",
          "type": "address"
        }
      ],
      "stateMutability": "view",
      "type": "function"
    },
    {
      "inputs": [
        {
          "internalType": "address",
          "name": "walletAddress",
          "type": "address"
        },
        {
          "internalType": "uint256",
          "name": "goalId",
          "type": "uint256"
        }
      ],
      "name": "getUserDistance",
      "outputs": [
        {
          "internalType": "uint256",
          "name": "",
          "type": "uint256"
        }
      ],
      "stateMutability": "view",
      "type": "function"
    },
    {
      "inputs": [
        {
          "internalType": "address",
          "name": "walletAddress",
          "type": "address"
        }
      ],
      "name": "getUserId",
      "outputs": [
        {
          "internalType": "uint256",
          "name": "",
          "type": "uint256"
        }
      ],
      "stateMutability": "view",
      "type": "function"
    },
    {
      "inputs": [
        {
          "internalType": "address",
          "name": "walletAddress",
          "type": "address"
        }
      ],
      "name": "getUserTotalRewards",
      "outputs": [
        {
          "internalType": "uint256",
          "name": "",
          "type": "uint256"
        }
      ],
      "stateMutability": "view",
      "type": "function"
    },
    {
      "inputs": [],
      "name": "goalCount",
      "outputs": [
        {
          "internalType": "uint256",
          "name": "",
          "type": "uint256"
        }
      ],
      "stateMutability": "view",
      "type": "function"
    },
    {
      "inputs": [
        {
          "internalType": "uint256",
          "name": "",
          "type": "uint256"
        }
      ],
      "name": "goalToRequestId",
      "outputs": [
        {
          "internalType": "bytes32",
          "name": "",
          "type": "bytes32"
        }
      ],
      "stateMutability": "view",
      "type": "function"
    },
    {
      "inputs": [
        {
          "internalType": "uint256",
          "name": "",
          "type": "uint256"
        }
      ],
      "name": "goals",
      "outputs": [
        {
          "internalType": "uint256",
          "name": "goalId",
          "type": "uint256"
        },
        {
          "internalType": "string",
          "name": "activity",
          "type": "string"
        },
        {
          "internalType": "string",
          "name": "description",
          "type": "string"
        },
        {
          "internalType": "uint256",
          "name": "distance",
          "type": "uint256"
        },
        {
          "internalType": "uint256",
          "name": "stake",
          "type": "uint256"
        },
        {
          "internalType": "uint256",
          "name": "failedStake",
          "type": "uint256"
        },
        {
          "internalType": "uint256",
          "name": "startTimestamp",
          "type": "uint256"
        },
        {
          "internalType": "uint256",
          "name": "expiryTimestamp",
          "type": "uint256"
        },
        {
          "internalType": "bool",
          "name": "set",
          "type": "bool"
        }
      ],
      "stateMutability": "view",
      "type": "function"
    },
    {
      "inputs": [
        {
          "internalType": "bytes32",
          "name": "requestId",
          "type": "bytes32"
        },
        {
          "internalType": "bytes",
          "name": "response",
          "type": "bytes"
        },
        {
          "internalType": "bytes",
          "name": "err",
          "type": "bytes"
        }
      ],
      "name": "handleOracleFulfillment",
      "outputs": [],
      "stateMutability": "nonpayable",
      "type": "function"
    },
    {
      "inputs": [
        {
          "internalType": "uint256",
          "name": "_goalId",
          "type": "uint256"
        }
      ],
      "name": "joinGoal",
      "outputs": [],
      "stateMutability": "payable",
      "type": "function"
    },
    {
      "inputs": [],
      "name": "lastError",
      "outputs": [
        {
          "internalType": "bytes",
          "name": "",
          "type": "bytes"
        }
      ],
      "stateMutability": "view",
      "type": "function"
    },
    {
      "inputs": [],
      "name": "lastRequestId",
      "outputs": [
        {
          "internalType": "bytes32",
          "name": "",
          "type": "bytes32"
        }
      ],
      "stateMutability": "view",
      "type": "function"
    },
    {
      "inputs": [],
      "name": "lastResponse",
      "outputs": [
        {
          "internalType": "bytes",
          "name": "",
          "type": "bytes"
        }
      ],
      "stateMutability": "view",
      "type": "function"
    },
    {
      "inputs": [],
      "name": "owner",
      "outputs": [
        {
          "internalType": "address",
          "name": "",
          "type": "address"
        }
      ],
      "stateMutability": "view",
      "type": "function"
    },
    {
      "inputs": [],
      "name": "renounceOwnership",
      "outputs": [],
      "stateMutability": "nonpayable",
      "type": "function"
    },
    {
      "inputs": [
        {
          "internalType": "uint256",
          "name": "",
          "type": "uint256"
        }
      ],
      "name": "requestIds",
      "outputs": [
        {
          "internalType": "bytes32",
          "name": "",
          "type": "bytes32"
        }
      ],
      "stateMutability": "view",
      "type": "function"
    },
    {
      "inputs": [
        {
          "internalType": "bytes32",
          "name": "",
          "type": "bytes32"
        }
      ],
      "name": "requests",
      "outputs": [
        {
          "internalType": "bool",
          "name": "fulfilled",
          "type": "bool"
        },
        {
          "internalType": "bool",
          "name": "exists",
          "type": "bool"
        },
        {
          "internalType": "bytes",
          "name": "response",
          "type": "bytes"
        },
        {
          "internalType": "bytes",
          "name": "err",
          "type": "bytes"
        }
      ],
      "stateMutability": "view",
      "type": "function"
    },
    {
      "inputs": [
        {
          "internalType": "string",
          "name": "_source",
          "type": "string"
        }
      ],
      "name": "setSource",
      "outputs": [],
      "stateMutability": "nonpayable",
      "type": "function"
    },
    {
      "inputs": [],
      "name": "source",
      "outputs": [
        {
          "internalType": "string",
          "name": "",
          "type": "string"
        }
      ],
      "stateMutability": "view",
      "type": "function"
    },
    {
      "inputs": [],
      "name": "subscriptionId",
      "outputs": [
        {
          "internalType": "uint64",
          "name": "",
          "type": "uint64"
        }
      ],
      "stateMutability": "view",
      "type": "function"
    },
    {
      "inputs": [
        {
          "internalType": "address",
          "name": "newOwner",
          "type": "address"
        }
      ],
      "name": "transferOwnership",
      "outputs": [],
      "stateMutability": "nonpayable",
      "type": "function"
    },
    {
      "inputs": [
        {
          "internalType": "address",
          "name": "",
          "type": "address"
        }
      ],
      "name": "userAddressUsed",
      "outputs": [
        {
          "internalType": "bool",
          "name": "",
          "type": "bool"
        }
      ],
      "stateMutability": "view",
      "type": "function"
    },
    {
      "inputs": [],
      "name": "userCount",
      "outputs": [
        {
          "internalType": "uint256",
          "name": "",
          "type": "uint256"
        }
      ],
      "stateMutability": "view",
      "type": "function"
    },
    {
      "inputs": [
        {
          "internalType": "uint256",
          "name": "",
          "type": "uint256"
        }
      ],
      "name": "userIds",
      "outputs": [
        {
          "internalType": "address",
          "name": "",
          "type": "address"
        }
      ],
      "stateMutability": "view",
      "type": "function"
    },
    {
      "inputs": [
        {
          "internalType": "address",
          "name": "",
          "type": "address"
        }
      ],
      "name": "users",
      "outputs": [
        {
          "internalType": "address",
          "name": "walletAddress",
          "type": "address"
        },
        {
          "internalType": "uint256",
          "name": "id",
          "type": "uint256"
        },
        {
          "internalType": "uint256",
          "name": "totalRewards",
          "type": "uint256"
        }
      ],
      "stateMutability": "view",
      "type": "function"
    }
  ],
  "bytecode": "0x60a060405273a9d587a00a31a52ed70d6026794a8fc5e2f5dcb0600260006101000a81548173ffffffffffffffffffffffffffffffffffffffff021916908373ffffffffffffffffffffffffffffffffffffffff1602179055507f66756e2d6176616c616e6368652d66756a692d3100000000000000000000000060001b600355620493e0600460006101000a81548163ffffffff021916908363ffffffff160217905550348015620000b157600080fd5b50604051620068a9380380620068a98339818101604052810190620000d791906200049d565b600260009054906101000a900473ffffffffffffffffffffffffffffffffffffffff1633600073ffffffffffffffffffffffffffffffffffffffff168173ffffffffffffffffffffffffffffffffffffffff1603620001705760006040517f1e4fbdf700000000000000000000000000000000000000000000000000000000815260040162000167919062000548565b60405180910390fd5b62000181816200020160201b60201c565b50600180819055508073ffffffffffffffffffffffffffffffffffffffff1660808173ffffffffffffffffffffffffffffffffffffffff16815250505081600660006101000a81548167ffffffffffffffff021916908367ffffffffffffffff1602179055508060079081620001f89190620007b0565b50505062000897565b60008060009054906101000a900473ffffffffffffffffffffffffffffffffffffffff169050816000806101000a81548173ffffffffffffffffffffffffffffffffffffffff021916908373ffffffffffffffffffffffffffffffffffffffff1602179055508173ffffffffffffffffffffffffffffffffffffffff168173ffffffffffffffffffffffffffffffffffffffff167f8be0079c531659141344cd1fd0a4f28419497f9722a3daafe3b4186f6b6457e060405160405180910390a35050565b6000604051905090565b600080fd5b600080fd5b600067ffffffffffffffff82169050919050565b620002f881620002d9565b81146200030457600080fd5b50565b6000815190506200031881620002ed565b92915050565b600080fd5b600080fd5b6000601f19601f8301169050919050565b7f4e487b7100000000000000000000000000000000000000000000000000000000600052604160045260246000fd5b620003738262000328565b810181811067ffffffffffffffff8211171562000395576200039462000339565b5b80604052505050565b6000620003aa620002c5565b9050620003b8828262000368565b919050565b600067ffffffffffffffff821115620003db57620003da62000339565b5b620003e68262000328565b9050602081019050919050565b60005b8381101562000413578082015181840152602081019050620003f6565b60008484015250505050565b6000620004366200043084620003bd565b6200039e565b90508281526020810184848401111562000455576200045462000323565b5b62000462848285620003f3565b509392505050565b600082601f8301126200048257620004816200031e565b5b8151620004948482602086016200041f565b91505092915050565b60008060408385031215620004b757620004b6620002cf565b5b6000620004c78582860162000307565b925050602083015167ffffffffffffffff811115620004eb57620004ea620002d4565b5b620004f9858286016200046a565b9150509250929050565b600073ffffffffffffffffffffffffffffffffffffffff82169050919050565b6000620005308262000503565b9050919050565b620005428162000523565b82525050565b60006020820190506200055f600083018462000537565b92915050565b600081519050919050565b7f4e487b7100000000000000000000000000000000000000000000000000000000600052602260045260246000fd5b60006002820490506001821680620005b857607f821691505b602082108103620005ce57620005cd62000570565b5b50919050565b60008190508160005260206000209050919050565b60006020601f8301049050919050565b600082821b905092915050565b600060088302620006387fffffffffffffffffffffffffffffffffffffffffffffffffffffffffffffffff82620005f9565b620006448683620005f9565b95508019841693508086168417925050509392505050565b6000819050919050565b6000819050919050565b6000620006916200068b62000685846200065c565b62000666565b6200065c565b9050919050565b6000819050919050565b620006ad8362000670565b620006c5620006bc8262000698565b84845462000606565b825550505050565b600090565b620006dc620006cd565b620006e9818484620006a2565b505050565b5b81811015620007115762000705600082620006d2565b600181019050620006ef565b5050565b601f82111562000760576200072a81620005d4565b6200073584620005e9565b8101602085101562000745578190505b6200075d6200075485620005e9565b830182620006ee565b50505b505050565b600082821c905092915050565b6000620007856000198460080262000765565b1980831691505092915050565b6000620007a0838362000772565b9150826002028217905092915050565b620007bb8262000565565b67ffffffffffffffff811115620007d757620007d662000339565b5b620007e382546200059f565b620007f082828562000715565b600060209050601f83116001811462000828576000841562000813578287015190505b6200081f858262000792565b8655506200088f565b601f1984166200083886620005d4565b60005b8281101562000862578489015182556001820191506020850194506020810190506200083b565b868310156200088257848901516200087e601f89168262000772565b8355505b6001600288020188555050505b505050505050565b608051615fef620008ba60003960008181610f8701526136cf0152615fef6000f3fe6080604052600436106102195760003560e01c80637922f42611610123578063afda2f80116100ab578063e75f6ca71161006f578063e75f6ca71461087e578063f2fde38b146108a9578063f51b7156146108d2578063f9e0913f146108fb578063fc2a88c31461092657610219565b8063afda2f8014610782578063bce8ed4d146107bf578063c158b90c146107e8578063d6901c9814610804578063e44ccec41461084157610219565b806390d976e2116100f257806390d976e21461066057806399d254551461069d5780639cc0dd48146106c65780639d86698514610703578063a87430ba1461074357610219565b80637922f426146105905780638796ba8c146105cf5780638995c70f1461060c5780638da5cb5b1461063557610219565b80632b956ff7116101a657806361449ca21161017557806361449ca2146104a157806362747e42146104e6578063666c4b5c1461051157806367e828bf1461054e578063715018a61461057957610219565b80632b956ff7146103ad57806330d167ae146103ea5780633895d747146104275780634635fd681461046457610219565b80630ca76175116101ed5780630ca76175146102c85780630da8c007146102f157806325ad91ce1461032e57806329f0de3f146103455780632b8c9c6e1461037057610219565b80620b46f81461021e57806307973ccf146102495780630962ef791461027457806309c1ba2e1461029d575b600080fd5b34801561022a57600080fd5b50610233610951565b60405161024091906141a3565b60405180910390f35b34801561025557600080fd5b5061025e610956565b60405161026b91906141a3565b60405180910390f35b34801561028057600080fd5b5061029b600480360381019061029691906141fe565b61095c565b005b3480156102a957600080fd5b506102b2610f6b565b6040516102bf919061424e565b60405180910390f35b3480156102d457600080fd5b506102ef60048036038101906102ea91906143e5565b610f85565b005b3480156102fd57600080fd5b5061031860048036038101906103139190614495565b611047565b60405161032591906141a3565b60405180910390f35b34801561033a57600080fd5b506103436111f8565b005b34801561035157600080fd5b5061035a6114bb565b6040516103679190614554565b60405180910390f35b34801561037c57600080fd5b50610397600480360381019061039291906145d4565b611549565b6040516103a4919061461c565b60405180910390f35b3480156103b957600080fd5b506103d460048036038101906103cf91906145d4565b611569565b6040516103e191906141a3565b60405180910390f35b3480156103f657600080fd5b50610411600480360381019061040c9190614637565b611688565b60405161041e91906141a3565b60405180910390f35b34801561043357600080fd5b5061044e60048036038101906104499190614718565b611821565b60405161045b9190614812565b60405180910390f35b34801561047057600080fd5b5061048b600480360381019061048691906141fe565b611c30565b604051610498919061483c565b60405180910390f35b3480156104ad57600080fd5b506104c860048036038101906104c391906141fe565b611c63565b6040516104dd999897969594939291906148ac565b60405180910390f35b3480156104f257600080fd5b506104fb611dce565b6040516105089190614554565b60405180910390f35b34801561051d57600080fd5b50610538600480360381019061053391906145d4565b611e5c565b60405161054591906141a3565b60405180910390f35b34801561055a57600080fd5b50610563611f7b565b6040516105709190614947565b60405180910390f35b34801561058557600080fd5b5061058e612009565b005b34801561059c57600080fd5b506105b760048036038101906105b29190614969565b61201d565b6040516105c693929190614996565b60405180910390f35b3480156105db57600080fd5b506105f660048036038101906105f191906141fe565b612157565b6040516106039190614812565b60405180910390f35b34801561061857600080fd5b50610633600480360381019061062e9190614aa3565b61217b565b005b34801561064157600080fd5b5061064a6122b6565b604051610657919061483c565b60405180910390f35b34801561066c57600080fd5b50610687600480360381019061068291906141fe565b6122df565b604051610694919061483c565b60405180910390f35b3480156106a957600080fd5b506106c460048036038101906106bf9190614aff565b61231c565b005b3480156106d257600080fd5b506106ed60048036038101906106e89190614b48565b612337565b6040516106fa9190614bff565b60405180910390f35b34801561070f57600080fd5b5061072a60048036038101906107259190614969565b61240a565b60405161073a9493929190614c1a565b60405180910390f35b34801561074f57600080fd5b5061076a600480360381019061076591906145d4565b612564565b60405161077993929190614c6d565b60405180910390f35b34801561078e57600080fd5b506107a960048036038101906107a491906141fe565b6125ae565b6040516107b69190614812565b60405180910390f35b3480156107cb57600080fd5b506107e660048036038101906107e19190614ca4565b6125c6565b005b61080260048036038101906107fd91906141fe565b6126c8565b005b34801561081057600080fd5b5061082b600480360381019061082691906141fe565b612b7c565b6040516108389190614e15565b60405180910390f35b34801561084d57600080fd5b5061086860048036038101906108639190614969565b612c85565b6040516108759190614ee7565b60405180910390f35b34801561088a57600080fd5b50610893612de0565b6040516108a091906141a3565b60405180910390f35b3480156108b557600080fd5b506108d060048036038101906108cb91906145d4565b612de6565b005b3480156108de57600080fd5b506108f960048036038101906108f491906141fe565b612e6c565b005b34801561090757600080fd5b50610910613008565b60405161091d91906141a3565b60405180910390f35b34801561093257600080fd5b5061093b61300e565b6040516109489190614812565b60405180910390f35b600281565b600b5481565b33600073ffffffffffffffffffffffffffffffffffffffff16600f60008373ffffffffffffffffffffffffffffffffffffffff1673ffffffffffffffffffffffffffffffffffffffff16815260200190815260200160002060000160009054906101000a900473ffffffffffffffffffffffffffffffffffffffff1673ffffffffffffffffffffffffffffffffffffffff1603610a2e576040517f08c379a0000000000000000000000000000000000000000000000000000000008152600401610a2590614f55565b60405180910390fd5b81600e6000828152602001908152602001600020600a0160009054906101000a900460ff16610a92576040517f08c379a0000000000000000000000000000000000000000000000000000000008152600401610a8990614fe7565b60405180910390fd5b600e600084815260200190815260200160002060090154421015610aeb576040517f08c379a0000000000000000000000000000000000000000000000000000000008152600401610ae290615053565b60405180910390fd5b6000600e60008581526020019081526020016000209050600480811115610b1557610b14614b88565b5b8160060160003373ffffffffffffffffffffffffffffffffffffffff1673ffffffffffffffffffffffffffffffffffffffff16815260200190815260200160002060020160009054906101000a900460ff166004811115610b7957610b78614b88565b5b03610bb9576040517f08c379a0000000000000000000000000000000000000000000000000000000008152600401610bb0906150bf565b60405180910390fd5b60036004811115610bcd57610bcc614b88565b5b8160060160003373ffffffffffffffffffffffffffffffffffffffff1673ffffffffffffffffffffffffffffffffffffffff16815260200190815260200160002060020160009054906101000a900460ff166004811115610c3157610c30614b88565b5b14610c71576040517f08c379a0000000000000000000000000000000000000000000000000000000008152600401610c689061512b565b60405180910390fd5b60008160060160003373ffffffffffffffffffffffffffffffffffffffff1673ffffffffffffffffffffffffffffffffffffffff16815260200190815260200160002060000154905060008111610cfd576040517f08c379a0000000000000000000000000000000000000000000000000000000008152600401610cf490615197565b60405180910390fd5b6000610d093387613014565b905060008111610d4e576040517f08c379a0000000000000000000000000000000000000000000000000000000008152600401610d4590615203565b60405180910390fd5b47811115610d91576040517f08c379a0000000000000000000000000000000000000000000000000000000008152600401610d889061526f565b60405180910390fd5b80836004016000828254610da591906152be565b9250508190555060048360060160003373ffffffffffffffffffffffffffffffffffffffff1673ffffffffffffffffffffffffffffffffffffffff16815260200190815260200160002060020160006101000a81548160ff02191690836004811115610e1457610e13614b88565b5b021790555080600f60003373ffffffffffffffffffffffffffffffffffffffff1673ffffffffffffffffffffffffffffffffffffffff1681526020019081526020016000206003016000828254610e6b91906152f2565b92505081905550853373ffffffffffffffffffffffffffffffffffffffff167ffc30cddea38e2bf4d6ea7d3f9ed3b6ad7f176419f4963bd81318067a4aee73fe60405160405180910390a360003373ffffffffffffffffffffffffffffffffffffffff1682604051610edc90615357565b60006040518083038185875af1925050503d8060008114610f19576040519150601f19603f3d011682016040523d82523d6000602084013e610f1e565b606091505b5050905080610f62576040517f08c379a0000000000000000000000000000000000000000000000000000000008152600401610f59906153b8565b60405180910390fd5b50505050505050565b600660009054906101000a900467ffffffffffffffff1681565b7f000000000000000000000000000000000000000000000000000000000000000073ffffffffffffffffffffffffffffffffffffffff163373ffffffffffffffffffffffffffffffffffffffff161461100a576040517fc6829f8300000000000000000000000000000000000000000000000000000000815260040160405180910390fd5b6110158383836130e5565b827f85e1543bf2f84fe80c6badbce3648c8539ad1df4d2b3d822938ca0538be727e660405160405180910390a2505050565b600082600e6000828152602001908152602001600020600a0160009054906101000a900460ff166110ad576040517f08c379a00000000000000000000000000000000000000000000000000000000081526004016110a490614fe7565b60405180910390fd5b6000600e600086815260200190815260200160002090506000805b82600701805490508110156111eb5760008360070182815481106110ef576110ee6153d8565b5b9060005260206000200160009054906101000a900473ffffffffffffffffffffffffffffffffffffffff16905086600481111561112f5761112e614b88565b5b8460060160008373ffffffffffffffffffffffffffffffffffffffff1673ffffffffffffffffffffffffffffffffffffffff16815260200190815260200160002060020160009054906101000a900460ff16600481111561119357611192614b88565b5b14806111c35750600060048111156111ae576111ad614b88565b5b8760048111156111c1576111c0614b88565b5b145b156111d75782806111d390615407565b9350505b5080806111e390615407565b9150506110c8565b5080935050505092915050565b33601160008273ffffffffffffffffffffffffffffffffffffffff1673ffffffffffffffffffffffffffffffffffffffff16815260200190815260200160002060009054906101000a900460ff1615611286576040517f08c379a000000000000000000000000000000000000000000000000000000000815260040161127d9061549b565b60405180910390fd5b66038d7ea4c680003373ffffffffffffffffffffffffffffffffffffffff163110156112e7576040517f08c379a00000000000000000000000000000000000000000000000000000000081526004016112de90615507565b60405180910390fd5b33600f60003373ffffffffffffffffffffffffffffffffffffffff1673ffffffffffffffffffffffffffffffffffffffff16815260200190815260200160002060000160006101000a81548173ffffffffffffffffffffffffffffffffffffffff021916908373ffffffffffffffffffffffffffffffffffffffff160217905550600b54600f60003373ffffffffffffffffffffffffffffffffffffffff1673ffffffffffffffffffffffffffffffffffffffff168152602001908152602001600020600101819055503360106000600b54815260200190815260200160002060006101000a81548173ffffffffffffffffffffffffffffffffffffffff021916908373ffffffffffffffffffffffffffffffffffffffff1602179055506001601160003373ffffffffffffffffffffffffffffffffffffffff1673ffffffffffffffffffffffffffffffffffffffff16815260200190815260200160002060006101000a81548160ff021916908315150217905550600b600081548092919061147090615407565b91905055503373ffffffffffffffffffffffffffffffffffffffff167f0b0376a109cbb578b709f85f6a7befcdac3ac1ab251c99ede87f30c9572ac4d360405160405180910390a250565b600a80546114c890615556565b80601f01602080910402602001604051908101604052809291908181526020018280546114f490615556565b80156115415780601f1061151657610100808354040283529160200191611541565b820191906000526020600020905b81548152906001019060200180831161152457829003601f168201915b505050505081565b60116020528060005260406000206000915054906101000a900460ff1681565b600081600073ffffffffffffffffffffffffffffffffffffffff16600f60008373ffffffffffffffffffffffffffffffffffffffff1673ffffffffffffffffffffffffffffffffffffffff16815260200190815260200160002060000160009054906101000a900473ffffffffffffffffffffffffffffffffffffffff1673ffffffffffffffffffffffffffffffffffffffff160361163d576040517f08c379a000000000000000000000000000000000000000000000000000000000815260040161163490614f55565b60405180910390fd5b600f60008473ffffffffffffffffffffffffffffffffffffffff1673ffffffffffffffffffffffffffffffffffffffff16815260200190815260200160002060010154915050919050565b600081600e6000828152602001908152602001600020600a0160009054906101000a900460ff166116ee576040517f08c379a00000000000000000000000000000000000000000000000000000000081526004016116e590614fe7565b60405180910390fd5b83600073ffffffffffffffffffffffffffffffffffffffff16600f60008373ffffffffffffffffffffffffffffffffffffffff1673ffffffffffffffffffffffffffffffffffffffff16815260200190815260200160002060000160009054906101000a900473ffffffffffffffffffffffffffffffffffffffff1673ffffffffffffffffffffffffffffffffffffffff16036117c0576040517f08c379a00000000000000000000000000000000000000000000000000000000081526004016117b790614f55565b60405180910390fd5b600e600085815260200190815260200160002060060160008673ffffffffffffffffffffffffffffffffffffffff1673ffffffffffffffffffffffffffffffffffffffff168152602001908152602001600020600101549250505092915050565b6000600e6000858152602001908152602001600020600a0160009054906101000a900460ff16611886576040517f08c379a000000000000000000000000000000000000000000000000000000000815260040161187d906155d3565b60405180910390fd5b6000600467ffffffffffffffff8111156118a3576118a26142ba565b5b6040519080825280602002602001820160405280156118d657816020015b60608152602001906001900390816118c15790505b50905086816000815181106118ee576118ed6153d8565b5b6020026020010181905250858160018151811061190e5761190d6153d8565b5b6020026020010181905250838160028151811061192e5761192d6153d8565b5b6020026020010181905250828160038151811061194e5761194d6153d8565b5b60200260200101819052506119616140bd565b6119fe6007805461197190615556565b80601f016020809104026020016040519081016040528092919081815260200182805461199d90615556565b80156119ea5780601f106119bf576101008083540402835291602001916119ea565b820191906000526020600020905b8154815290600101906020018083116119cd57829003601f168201915b50505050508261325590919063ffffffff16565b600082511115611a1c57611a1b828261326690919063ffffffff16565b5b611a5a611a28826132ae565b600660009054906101000a900467ffffffffffffffff16600460009054906101000a900463ffffffff166003546136ca565b600581905550604051806060016040528087815260200188815260200160405180602001604052806000815250815250601460006005548152602001908152602001600020600082015181600001556020820151816001019081611abe919061579f565b506040820151816002019081611ad4919061579f565b5090505060405180608001604052806000151581526020016001151581526020016040518060200160405280600081525081526020016040518060200160405280600081525081525060136000600554815260200190815260200160002060008201518160000160006101000a81548160ff02191690831515021790555060208201518160000160016101000a81548160ff0219169083151502179055506040820151816001019081611b8791906158cc565b506060820151816002019081611b9d91906158cc565b509050506008600554908060018154018082558091505060019003906000526020600020016000909190919091505560055460126000888152602001908152602001600020819055506005547f7d7e1d3575ff050561c31730682e6dfadeb23b921bb9e7a16f17506e05962a3a88604051611c189190614947565b60405180910390a26005549250505095945050505050565b60106020528060005260406000206000915054906101000a900473ffffffffffffffffffffffffffffffffffffffff1681565b600e602052806000526040600020600091509050806000015490806001018054611c8c90615556565b80601f0160208091040260200160405190810160405280929190818152602001828054611cb890615556565b8015611d055780601f10611cda57610100808354040283529160200191611d05565b820191906000526020600020905b815481529060010190602001808311611ce857829003601f168201915b505050505090806002018054611d1a90615556565b80601f0160208091040260200160405190810160405280929190818152602001828054611d4690615556565b8015611d935780601f10611d6857610100808354040283529160200191611d93565b820191906000526020600020905b815481529060010190602001808311611d7657829003601f168201915b50505050509080600301549080600401549080600501549080600801549080600901549080600a0160009054906101000a900460ff16905089565b60098054611ddb90615556565b80601f0160208091040260200160405190810160405280929190818152602001828054611e0790615556565b8015611e545780601f10611e2957610100808354040283529160200191611e54565b820191906000526020600020905b815481529060010190602001808311611e3757829003601f168201915b505050505081565b600081600073ffffffffffffffffffffffffffffffffffffffff16600f60008373ffffffffffffffffffffffffffffffffffffffff1673ffffffffffffffffffffffffffffffffffffffff16815260200190815260200160002060000160009054906101000a900473ffffffffffffffffffffffffffffffffffffffff1673ffffffffffffffffffffffffffffffffffffffff1603611f30576040517f08c379a0000000000000000000000000000000000000000000000000000000008152600401611f2790614f55565b60405180910390fd5b600f60008473ffffffffffffffffffffffffffffffffffffffff1673ffffffffffffffffffffffffffffffffffffffff16815260200190815260200160002060030154915050919050565b60078054611f8890615556565b80601f0160208091040260200160405190810160405280929190818152602001828054611fb490615556565b80156120015780601f10611fd657610100808354040283529160200191612001565b820191906000526020600020905b815481529060010190602001808311611fe457829003601f168201915b505050505081565b6120116137ad565b61201b6000613834565b565b601460205280600052604060002060009150905080600001549080600101805461204690615556565b80601f016020809104026020016040519081016040528092919081815260200182805461207290615556565b80156120bf5780601f10612094576101008083540402835291602001916120bf565b820191906000526020600020905b8154815290600101906020018083116120a257829003601f168201915b5050505050908060020180546120d490615556565b80601f016020809104026020016040519081016040528092919081815260200182805461210090615556565b801561214d5780601f106121225761010080835404028352916020019161214d565b820191906000526020600020905b81548152906001019060200180831161213057829003601f168201915b5050505050905083565b6008818154811061216757600080fd5b906000526020600020016000915090505481565b6121836137ad565b80600e6000828152602001908152602001600020600a0160009054906101000a900460ff166121e7576040517f08c379a00000000000000000000000000000000000000000000000000000000081526004016121de90614fe7565b60405180910390fd5b60005b83518110156122b057600061221885838151811061220b5761220a6153d8565b5b60200260200101516122df565b90508460018361222891906152f2565b81518110612239576122386153d8565b5b6020026020010151600e600086815260200190815260200160002060060160008373ffffffffffffffffffffffffffffffffffffffff1673ffffffffffffffffffffffffffffffffffffffff16815260200190815260200160002060010181905550506002816122a991906152f2565b90506121ea565b50505050565b60008060009054906101000a900473ffffffffffffffffffffffffffffffffffffffff16905090565b60006010600083815260200190815260200160002060009054906101000a900473ffffffffffffffffffffffffffffffffffffffff169050919050565b6123246137ad565b8060079081612333919061579f565b5050565b600082600e6000828152602001908152602001600020600a0160009054906101000a900460ff1661239d576040517f08c379a000000000000000000000000000000000000000000000000000000000815260040161239490614fe7565b60405180910390fd5b600e600085815260200190815260200160002060060160008473ffffffffffffffffffffffffffffffffffffffff1673ffffffffffffffffffffffffffffffffffffffff16815260200190815260200160002060020160009054906101000a900460ff1691505092915050565b60136020528060005260406000206000915090508060000160009054906101000a900460ff16908060000160019054906101000a900460ff169080600101805461245390615556565b80601f016020809104026020016040519081016040528092919081815260200182805461247f90615556565b80156124cc5780601f106124a1576101008083540402835291602001916124cc565b820191906000526020600020905b8154815290600101906020018083116124af57829003601f168201915b5050505050908060020180546124e190615556565b80601f016020809104026020016040519081016040528092919081815260200182805461250d90615556565b801561255a5780601f1061252f5761010080835404028352916020019161255a565b820191906000526020600020905b81548152906001019060200180831161253d57829003601f168201915b5050505050905084565b600f6020528060005260406000206000915090508060000160009054906101000a900473ffffffffffffffffffffffffffffffffffffffff16908060010154908060030154905083565b60126020528060005260406000206000915090505481565b6125ce6137ad565b6000600e6000600c5481526020019081526020016000209050600c54816000018190555085816001019081612603919061579f565b5084816002019081612615919061579f565b50838160030181905550828160080181905550818160090181905550600181600a0160006101000a81548160ff021916908315150217905550600d600081548092919061266190615407565b9190505550600c600081548092919061267990615407565b9190505550600c547f12147fa79fbbfaed904e6976dbd34cd000f28f8ed3f3ce6bb7f0f4a1769a267a87878787876040516126b895949392919061599e565b60405180910390a2505050505050565b33600073ffffffffffffffffffffffffffffffffffffffff16600f60008373ffffffffffffffffffffffffffffffffffffffff1673ffffffffffffffffffffffffffffffffffffffff16815260200190815260200160002060000160009054906101000a900473ffffffffffffffffffffffffffffffffffffffff1673ffffffffffffffffffffffffffffffffffffffff160361279a576040517f08c379a000000000000000000000000000000000000000000000000000000000815260040161279190614f55565b60405180910390fd5b81600e6000828152602001908152602001600020600a0160009054906101000a900460ff166127fe576040517f08c379a00000000000000000000000000000000000000000000000000000000081526004016127f590614fe7565b60405180910390fd5b600e6000848152602001908152602001600020600801544210612856576040517f08c379a000000000000000000000000000000000000000000000000000000000815260040161284d90615a4b565b60405180910390fd5b42600e600085815260200190815260200160002060090154116128ae576040517f08c379a00000000000000000000000000000000000000000000000000000000081526004016128a590615ab7565b60405180910390fd5b600034116128f1576040517f08c379a00000000000000000000000000000000000000000000000000000000081526004016128e890615b23565b60405180910390fd5b6000600481111561290557612904614b88565b5b600e600085815260200190815260200160002060060160003373ffffffffffffffffffffffffffffffffffffffff1673ffffffffffffffffffffffffffffffffffffffff16815260200190815260200160002060020160009054906101000a900460ff16600481111561297b5761297a614b88565b5b146129bb576040517f08c379a00000000000000000000000000000000000000000000000000000000081526004016129b290615b8f565b60405180910390fd5b604051806060016040528034815260200160008152602001600160048111156129e7576129e6614b88565b5b815250600e600085815260200190815260200160002060060160003373ffffffffffffffffffffffffffffffffffffffff1673ffffffffffffffffffffffffffffffffffffffff168152602001908152602001600020600082015181600001556020820151816001015560408201518160020160006101000a81548160ff02191690836004811115612a7c57612a7b614b88565b5b0217905550905050600e6000848152602001908152602001600020600701339080600181540180825580915050600190039060005260206000200160009091909190916101000a81548173ffffffffffffffffffffffffffffffffffffffff021916908373ffffffffffffffffffffffffffffffffffffffff16021790555034600e60008581526020019081526020016000206004016000828254612b2191906152f2565b92505081905550823373ffffffffffffffffffffffffffffffffffffffff167f8f301af230e39227ba203f0d3f6b4314b562b99636df1521ff13d5516a9d731634604051612b6f91906141a3565b60405180910390a3505050565b606081600e6000828152602001908152602001600020600a0160009054906101000a900460ff16612be2576040517f08c379a0000000000000000000000000000000000000000000000000000000008152600401612bd990614fe7565b60405180910390fd5b600e6000848152602001908152602001600020600701805480602002602001604051908101604052809291908181526020018280548015612c7857602002820191906000526020600020905b8160009054906101000a900473ffffffffffffffffffffffffffffffffffffffff1673ffffffffffffffffffffffffffffffffffffffff1681526020019060010190808311612c2e575b5050505050915050919050565b612c8d61412f565b6014600083815260200190815260200160002060405180606001604052908160008201548152602001600182018054612cc590615556565b80601f0160208091040260200160405190810160405280929190818152602001828054612cf190615556565b8015612d3e5780601f10612d1357610100808354040283529160200191612d3e565b820191906000526020600020905b815481529060010190602001808311612d2157829003601f168201915b50505050508152602001600282018054612d5790615556565b80601f0160208091040260200160405190810160405280929190818152602001828054612d8390615556565b8015612dd05780601f10612da557610100808354040283529160200191612dd0565b820191906000526020600020905b815481529060010190602001808311612db357829003601f168201915b5050505050815250509050919050565b600c5481565b612dee6137ad565b600073ffffffffffffffffffffffffffffffffffffffff168173ffffffffffffffffffffffffffffffffffffffff1603612e605760006040517f1e4fbdf7000000000000000000000000000000000000000000000000000000008152600401612e57919061483c565b60405180910390fd5b612e6981613834565b50565b612e746137ad565b80600e6000828152602001908152602001600020600a0160009054906101000a900460ff16612ed8576040517f08c379a0000000000000000000000000000000000000000000000000000000008152600401612ecf90614fe7565b60405180910390fd5b600e600083815260200190815260200160002060090154421015612f31576040517f08c379a0000000000000000000000000000000000000000000000000000000008152600401612f2890615053565b60405180910390fd5b6000600e6000848152602001908152602001600020905060005b8160070180549050811015612fbd576000826007018281548110612f7257612f716153d8565b5b9060005260206000200160009054906101000a900473ffffffffffffffffffffffffffffffffffffffff169050612fa981866138f8565b508080612fb590615407565b915050612f4b565b50600d6000815480929190612fd190615baf565b9190505550827f21f467260d12367f5f6c3427e620c488bcaa8f30684b081059fba3477919a89a60405160405180910390a2505050565b600d5481565b60055481565b600080600e6000848152602001908152602001600020905060008160060160008673ffffffffffffffffffffffffffffffffffffffff1673ffffffffffffffffffffffffffffffffffffffff168152602001908152602001600020600001549050600082600501549050600061308b866003611047565b90506000606460028561309e9190615bd8565b6130a89190615c49565b9050600082846130b89190615c49565b905060008282876130c991906152f2565b6130d391906152be565b90508097505050505050505092915050565b6013600084815260200190815260200160002060000160019054906101000a900460ff16613148576040517f08c379a000000000000000000000000000000000000000000000000000000000815260040161313f90615cc6565b60405180910390fd5b80600a908161315791906158cc565b50816009908161316791906158cc565b5060008251111561319d5760006014600085815260200190815260200160002090508281600201908161319a919061579f565b50505b60016013600085815260200190815260200160002060000160006101000a81548160ff021916908315150217905550816013600085815260200190815260200160002060010190816131ef91906158cc565b508060136000858152602001908152602001600020600201908161321391906158cc565b50827f160ed0aaffbef6885155188b91459cb5a97d5daadccf7561d8c46deea6641b5083848460405161324893929190615ce6565b60405180910390a2505050565b6132628260008084613a90565b5050565b60008151036132a1576040517ffe936cb700000000000000000000000000000000000000000000000000000000815260040160405180910390fd5b808260a001819052505050565b606060006132bd610100613b3a565b90506133076040518060400160405280600c81526020017f636f64654c6f636174696f6e000000000000000000000000000000000000000081525082613b6190919063ffffffff16565b6133308360000151600281111561332157613320614b88565b5b82613b8a90919063ffffffff16565b6133786040518060400160405280600881526020017f6c616e677561676500000000000000000000000000000000000000000000000081525082613b6190919063ffffffff16565b6133a18360400151600081111561339257613391614b88565b5b82613b8a90919063ffffffff16565b6133e96040518060400160405280600681526020017f736f75726365000000000000000000000000000000000000000000000000000081525082613b6190919063ffffffff16565b613400836060015182613b6190919063ffffffff16565b60008360a001515111156134bc576134566040518060400160405280600481526020017f617267730000000000000000000000000000000000000000000000000000000081525082613b6190919063ffffffff16565b61345f81613bda565b60005b8360a00151518110156134b1576134a08460a001518281518110613489576134886153d8565b5b602002602001015183613b6190919063ffffffff16565b806134aa90615407565b9050613462565b506134bb81613c02565b5b600083608001515111156135fd57600060028111156134de576134dd614b88565b5b836020015160028111156134f5576134f4614b88565b5b0361352c576040517fa80d31f700000000000000000000000000000000000000000000000000000000815260040160405180910390fd5b6135746040518060400160405280600f81526020017f736563726574734c6f636174696f6e000000000000000000000000000000000081525082613b6190919063ffffffff16565b61359d8360200151600281111561358e5761358d614b88565b5b82613b8a90919063ffffffff16565b6135e56040518060400160405280600781526020017f736563726574730000000000000000000000000000000000000000000000000081525082613b6190919063ffffffff16565b6135fc836080015182613c2a90919063ffffffff16565b5b60008360c001515111156136b9576136536040518060400160405280600981526020017f627974657341726773000000000000000000000000000000000000000000000081525082613b6190919063ffffffff16565b61365c81613bda565b60005b8360c00151518110156136ae5761369d8460c001518281518110613686576136856153d8565b5b602002602001015183613c2a90919063ffffffff16565b806136a790615407565b905061365f565b506136b881613c02565b5b806000015160000151915050919050565b6000807f000000000000000000000000000000000000000000000000000000000000000073ffffffffffffffffffffffffffffffffffffffff1663461d27628688600188886040518663ffffffff1660e01b815260040161372f959493929190615d6e565b6020604051808303816000875af115801561374e573d6000803e3d6000fd5b505050506040513d601f19601f820116820180604052508101906137729190615ddd565b9050807f1131472297a800fee664d1d89cfa8f7676ff07189ecc53f80bbb5f4969099db860405160405180910390a280915050949350505050565b6137b5613c53565b73ffffffffffffffffffffffffffffffffffffffff166137d36122b6565b73ffffffffffffffffffffffffffffffffffffffff1614613832576137f6613c53565b6040517f118cdaa7000000000000000000000000000000000000000000000000000000008152600401613829919061483c565b60405180910390fd5b565b60008060009054906101000a900473ffffffffffffffffffffffffffffffffffffffff169050816000806101000a81548173ffffffffffffffffffffffffffffffffffffffff021916908373ffffffffffffffffffffffffffffffffffffffff1602179055508173ffffffffffffffffffffffffffffffffffffffff168173ffffffffffffffffffffffffffffffffffffffff167f8be0079c531659141344cd1fd0a4f28419497f9722a3daafe3b4186f6b6457e060405160405180910390a35050565b6000600e6000838152602001908152602001600020905060008160060160008573ffffffffffffffffffffffffffffffffffffffff1673ffffffffffffffffffffffffffffffffffffffff16815260200190815260200160002090506001600481111561396857613967614b88565b5b8160020160009054906101000a900460ff16600481111561398c5761398b614b88565b5b03613a8a5781600301548160010154106139d25760038160020160006101000a81548160ff021916908360048111156139c8576139c7614b88565b5b0217905550613a29565b60028160020160006101000a81548160ff021916908360048111156139fa576139f9614b88565b5b02179055508060000154826005016000828254613a1791906152f2565b92505081905550600081600001819055505b828473ffffffffffffffffffffffffffffffffffffffff167f08a6fe6ac9911d48760b3a3730226ca83b632ae4d9406912428e3b4d6ba02ceb8360020160009054906101000a900460ff16604051613a819190614bff565b60405180910390a35b50505050565b6000815103613acb576040517f22ce3edd00000000000000000000000000000000000000000000000000000000815260040160405180910390fd5b8284600001906002811115613ae357613ae2614b88565b5b90816002811115613af757613af6614b88565b5b815250508184604001906000811115613b1357613b12614b88565b5b90816000811115613b2757613b26614b88565b5b8152505080846060018190525050505050565b613b42614150565b613b50816000015183613c5b565b506000816020018181525050919050565b613b6e8260038351613cd4565b613b85818360000151613e7d90919063ffffffff16565b505050565b613bac60026005600660ff16901b178360000151613e9990919063ffffffff16565b50613bd68282604051602001613bc291906141a3565b604051602081830303815290604052613c2a565b5050565b613be5816004613f03565b600181602001818151613bf891906152f2565b9150818152505050565b613c0d816007613f03565b600181602001818151613c2091906152be565b9150818152505050565b613c378260028351613cd4565b613c4e818360000151613e7d90919063ffffffff16565b505050565b600033905090565b613c63614170565b6000602083613c729190615e0a565b14613c9e57602082613c849190615e0a565b6020613c9091906152be565b82613c9b91906152f2565b91505b818360200181815250506040518084526000815282810160200181811015613cc557600080fd5b80604052505082905092915050565b60178167ffffffffffffffff1611613d0f57613d098160058460ff16901b60ff16178460000151613e9990919063ffffffff16565b50613e78565b60ff8167ffffffffffffffff1611613d6d57613d42601860058460ff16901b178460000151613e9990919063ffffffff16565b50613d678167ffffffffffffffff1660018560000151613f299092919063ffffffff16565b50613e77565b61ffff8167ffffffffffffffff1611613dcc57613da1601960058460ff16901b178460000151613e9990919063ffffffff16565b50613dc68167ffffffffffffffff1660028560000151613f299092919063ffffffff16565b50613e76565b63ffffffff8167ffffffffffffffff1611613e2d57613e02601a60058460ff16901b178460000151613e9990919063ffffffff16565b50613e278167ffffffffffffffff1660048560000151613f299092919063ffffffff16565b50613e75565b613e4e601b60058460ff16901b178460000151613e9990919063ffffffff16565b50613e738167ffffffffffffffff1660088560000151613f299092919063ffffffff16565b505b5b5b5b505050565b613e85614170565b613e9183838451613fb6565b905092915050565b613ea1614170565b600083600001515190506000600182613eba91906152f2565b905084602001518210613ede57613edd85600283613ed89190615bd8565b614099565b5b84516020838201018581538151831115613ef6578282525b5050849250505092915050565b613f24601f60058360ff16901b178360000151613e9990919063ffffffff16565b505050565b613f31614170565b6000846000015151905060008184613f4991906152f2565b90508560200151811115613f6e57613f6d86600283613f689190615bd8565b614099565b5b6000600185610100613f809190615f6e565b613f8a91906152be565b905086518281018783198251161781528151841115613fa7578382525b50508693505050509392505050565b613fbe614170565b8251821115613fcc57600080fd5b6000846000015151905060008382613fe491906152f2565b9050856020015181111561400957614008866002836140039190615bd8565b614099565b5b60008087518051856020830101935080851115614024578482525b60208901925050505b6020861061406b578051825260208261404691906152f2565b915060208161405591906152f2565b905060208661406491906152be565b955061402d565b60006001876020036101000a0390508019825116818451168181178552505050879450505050509392505050565b6000826000015190506140ac8383613c5b565b506140b78382613e7d565b50505050565b6040518060e00160405280600060028111156140dc576140db614b88565b5b8152602001600060028111156140f5576140f4614b88565b5b815260200160008081111561410d5761410c614b88565b5b8152602001606081526020016060815260200160608152602001606081525090565b60405180606001604052806000815260200160608152602001606081525090565b6040518060400160405280614163614170565b8152602001600081525090565b604051806040016040528060608152602001600081525090565b6000819050919050565b61419d8161418a565b82525050565b60006020820190506141b86000830184614194565b92915050565b6000604051905090565b600080fd5b600080fd5b6141db8161418a565b81146141e657600080fd5b50565b6000813590506141f8816141d2565b92915050565b600060208284031215614214576142136141c8565b5b6000614222848285016141e9565b91505092915050565b600067ffffffffffffffff82169050919050565b6142488161422b565b82525050565b6000602082019050614263600083018461423f565b92915050565b6000819050919050565b61427c81614269565b811461428757600080fd5b50565b60008135905061429981614273565b92915050565b600080fd5b600080fd5b6000601f19601f8301169050919050565b7f4e487b7100000000000000000000000000000000000000000000000000000000600052604160045260246000fd5b6142f2826142a9565b810181811067ffffffffffffffff82111715614311576143106142ba565b5b80604052505050565b60006143246141be565b905061433082826142e9565b919050565b600067ffffffffffffffff8211156143505761434f6142ba565b5b614359826142a9565b9050602081019050919050565b82818337600083830152505050565b600061438861438384614335565b61431a565b9050828152602081018484840111156143a4576143a36142a4565b5b6143af848285614366565b509392505050565b600082601f8301126143cc576143cb61429f565b5b81356143dc848260208601614375565b91505092915050565b6000806000606084860312156143fe576143fd6141c8565b5b600061440c8682870161428a565b935050602084013567ffffffffffffffff81111561442d5761442c6141cd565b5b614439868287016143b7565b925050604084013567ffffffffffffffff81111561445a576144596141cd565b5b614466868287016143b7565b9150509250925092565b6005811061447d57600080fd5b50565b60008135905061448f81614470565b92915050565b600080604083850312156144ac576144ab6141c8565b5b60006144ba858286016141e9565b92505060206144cb85828601614480565b9150509250929050565b600081519050919050565b600082825260208201905092915050565b60005b8381101561450f5780820151818401526020810190506144f4565b60008484015250505050565b6000614526826144d5565b61453081856144e0565b93506145408185602086016144f1565b614549816142a9565b840191505092915050565b6000602082019050818103600083015261456e818461451b565b905092915050565b600073ffffffffffffffffffffffffffffffffffffffff82169050919050565b60006145a182614576565b9050919050565b6145b181614596565b81146145bc57600080fd5b50565b6000813590506145ce816145a8565b92915050565b6000602082840312156145ea576145e96141c8565b5b60006145f8848285016145bf565b91505092915050565b60008115159050919050565b61461681614601565b82525050565b6000602082019050614631600083018461460d565b92915050565b6000806040838503121561464e5761464d6141c8565b5b600061465c858286016145bf565b925050602061466d858286016141e9565b9150509250929050565b600067ffffffffffffffff821115614692576146916142ba565b5b61469b826142a9565b9050602081019050919050565b60006146bb6146b684614677565b61431a565b9050828152602081018484840111156146d7576146d66142a4565b5b6146e2848285614366565b509392505050565b600082601f8301126146ff576146fe61429f565b5b813561470f8482602086016146a8565b91505092915050565b600080600080600060a08688031215614734576147336141c8565b5b600086013567ffffffffffffffff811115614752576147516141cd565b5b61475e888289016146ea565b955050602086013567ffffffffffffffff81111561477f5761477e6141cd565b5b61478b888289016146ea565b945050604061479c888289016141e9565b935050606086013567ffffffffffffffff8111156147bd576147bc6141cd565b5b6147c9888289016146ea565b925050608086013567ffffffffffffffff8111156147ea576147e96141cd565b5b6147f6888289016146ea565b9150509295509295909350565b61480c81614269565b82525050565b60006020820190506148276000830184614803565b92915050565b61483681614596565b82525050565b6000602082019050614851600083018461482d565b92915050565b600081519050919050565b600082825260208201905092915050565b600061487e82614857565b6148888185614862565b93506148988185602086016144f1565b6148a1816142a9565b840191505092915050565b6000610120820190506148c2600083018c614194565b81810360208301526148d4818b614873565b905081810360408301526148e8818a614873565b90506148f76060830189614194565b6149046080830188614194565b61491160a0830187614194565b61491e60c0830186614194565b61492b60e0830185614194565b61493961010083018461460d565b9a9950505050505050505050565b600060208201905081810360008301526149618184614873565b905092915050565b60006020828403121561497f5761497e6141c8565b5b600061498d8482850161428a565b91505092915050565b60006060820190506149ab6000830186614194565b81810360208301526149bd8185614873565b905081810360408301526149d18184614873565b9050949350505050565b600067ffffffffffffffff8211156149f6576149f56142ba565b5b602082029050602081019050919050565b600080fd5b6000614a1f614a1a846149db565b61431a565b90508083825260208201905060208402830185811115614a4257614a41614a07565b5b835b81811015614a6b5780614a5788826141e9565b845260208401935050602081019050614a44565b5050509392505050565b600082601f830112614a8a57614a8961429f565b5b8135614a9a848260208601614a0c565b91505092915050565b60008060408385031215614aba57614ab96141c8565b5b600083013567ffffffffffffffff811115614ad857614ad76141cd565b5b614ae485828601614a75565b9250506020614af5858286016141e9565b9150509250929050565b600060208284031215614b1557614b146141c8565b5b600082013567ffffffffffffffff811115614b3357614b326141cd565b5b614b3f848285016146ea565b91505092915050565b60008060408385031215614b5f57614b5e6141c8565b5b6000614b6d858286016141e9565b9250506020614b7e858286016145bf565b9150509250929050565b7f4e487b7100000000000000000000000000000000000000000000000000000000600052602160045260246000fd5b60058110614bc857614bc7614b88565b5b50565b6000819050614bd982614bb7565b919050565b6000614be982614bcb565b9050919050565b614bf981614bde565b82525050565b6000602082019050614c146000830184614bf0565b92915050565b6000608082019050614c2f600083018761460d565b614c3c602083018661460d565b8181036040830152614c4e818561451b565b90508181036060830152614c62818461451b565b905095945050505050565b6000606082019050614c82600083018661482d565b614c8f6020830185614194565b614c9c6040830184614194565b949350505050565b600080600080600060a08688031215614cc057614cbf6141c8565b5b600086013567ffffffffffffffff811115614cde57614cdd6141cd565b5b614cea888289016146ea565b955050602086013567ffffffffffffffff811115614d0b57614d0a6141cd565b5b614d17888289016146ea565b9450506040614d28888289016141e9565b9350506060614d39888289016141e9565b9250506080614d4a888289016141e9565b9150509295509295909350565b600081519050919050565b600082825260208201905092915050565b6000819050602082019050919050565b614d8c81614596565b82525050565b6000614d9e8383614d83565b60208301905092915050565b6000602082019050919050565b6000614dc282614d57565b614dcc8185614d62565b9350614dd783614d73565b8060005b83811015614e08578151614def8882614d92565b9750614dfa83614daa565b925050600181019050614ddb565b5085935050505092915050565b60006020820190508181036000830152614e2f8184614db7565b905092915050565b614e408161418a565b82525050565b600082825260208201905092915050565b6000614e6282614857565b614e6c8185614e46565b9350614e7c8185602086016144f1565b614e85816142a9565b840191505092915050565b6000606083016000830151614ea86000860182614e37565b5060208301518482036020860152614ec08282614e57565b91505060408301518482036040860152614eda8282614e57565b9150508091505092915050565b60006020820190508181036000830152614f018184614e90565b905092915050565b7f55736572206d7573742065786973740000000000000000000000000000000000600082015250565b6000614f3f600f83614862565b9150614f4a82614f09565b602082019050919050565b60006020820190508181036000830152614f6e81614f32565b9050919050565b7f496e76616c696420676f616c2069642c20676f616c20646f6573206e6f74206560008201527f7869737400000000000000000000000000000000000000000000000000000000602082015250565b6000614fd1602483614862565b9150614fdc82614f75565b604082019050919050565b6000602082019050818103600083015261500081614fc4565b9050919050565b7f476f616c206d7573742062652065787069726564000000000000000000000000600082015250565b600061503d601483614862565b915061504882615007565b602082019050919050565b6000602082019050818103600083015261506c81615030565b9050919050565b7f5265776172647320616c726561647920636c61696d65642e0000000000000000600082015250565b60006150a9601883614862565b91506150b482615073565b602082019050919050565b600060208201905081810360008301526150d88161509c565b9050919050565b7f476f616c20696e636f6d706c6574652e00000000000000000000000000000000600082015250565b6000615115601083614862565b9150615120826150df565b602082019050919050565b6000602082019050818103600083015261514481615108565b9050919050565b7f446964206e6f74207374616b652e000000000000000000000000000000000000600082015250565b6000615181600e83614862565b915061518c8261514b565b602082019050919050565b600060208201905081810360008301526151b081615174565b9050919050565b7f4e6f207265776172647320746f20636c61696d2e000000000000000000000000600082015250565b60006151ed601483614862565b91506151f8826151b7565b602082019050919050565b6000602082019050818103600083015261521c816151e0565b9050919050565b7f496e73756666696369656e7420636f6e74726163742062616c616e63652e0000600082015250565b6000615259601e83614862565b915061526482615223565b602082019050919050565b600060208201905081810360008301526152888161524c565b9050919050565b7f4e487b7100000000000000000000000000000000000000000000000000000000600052601160045260246000fd5b60006152c98261418a565b91506152d48361418a565b92508282039050818111156152ec576152eb61528f565b5b92915050565b60006152fd8261418a565b91506153088361418a565b92508282019050808211156153205761531f61528f565b5b92915050565b600081905092915050565b50565b6000615341600083615326565b915061534c82615331565b600082019050919050565b600061536282615334565b9150819050919050565b7f5472616e73666572206661696c65642e00000000000000000000000000000000600082015250565b60006153a2601083614862565b91506153ad8261536c565b602082019050919050565b600060208201905081810360008301526153d181615395565b9050919050565b7f4e487b7100000000000000000000000000000000000000000000000000000000600052603260045260246000fd5b60006154128261418a565b91507fffffffffffffffffffffffffffffffffffffffffffffffffffffffffffffffff82036154445761544361528f565b5b600182019050919050565b7f43616e206f6e6c792063726561746520616e206163636f756e74206f6e636500600082015250565b6000615485601f83614862565b91506154908261544f565b602082019050919050565b600060208201905081810360008301526154b481615478565b9050919050565b7f4d7573742068617665206174206c6561737420302e3030312041766178000000600082015250565b60006154f1601d83614862565b91506154fc826154bb565b602082019050919050565b60006020820190508181036000830152615520816154e4565b9050919050565b7f4e487b7100000000000000000000000000000000000000000000000000000000600052602260045260246000fd5b6000600282049050600182168061556e57607f821691505b60208210810361558157615580615527565b5b50919050565b7f476f616c206d7573742065786973740000000000000000000000000000000000600082015250565b60006155bd600f83614862565b91506155c882615587565b602082019050919050565b600060208201905081810360008301526155ec816155b0565b9050919050565b60008190508160005260206000209050919050565b60006020601f8301049050919050565b600082821b905092915050565b6000600883026156557fffffffffffffffffffffffffffffffffffffffffffffffffffffffffffffffff82615618565b61565f8683615618565b95508019841693508086168417925050509392505050565b6000819050919050565b600061569c6156976156928461418a565b615677565b61418a565b9050919050565b6000819050919050565b6156b683615681565b6156ca6156c2826156a3565b848454615625565b825550505050565b600090565b6156df6156d2565b6156ea8184846156ad565b505050565b5b8181101561570e576157036000826156d7565b6001810190506156f0565b5050565b601f82111561575357615724816155f3565b61572d84615608565b8101602085101561573c578190505b61575061574885615608565b8301826156ef565b50505b505050565b600082821c905092915050565b600061577660001984600802615758565b1980831691505092915050565b600061578f8383615765565b9150826002028217905092915050565b6157a882614857565b67ffffffffffffffff8111156157c1576157c06142ba565b5b6157cb8254615556565b6157d6828285615712565b600060209050601f83116001811461580957600084156157f7578287015190505b6158018582615783565b865550615869565b601f198416615817866155f3565b60005b8281101561583f5784890151825560018201915060208501945060208101905061581a565b8683101561585c5784890151615858601f891682615765565b8355505b6001600288020188555050505b505050505050565b60008190508160005260206000209050919050565b601f8211156158c75761589881615871565b6158a184615608565b810160208510156158b0578190505b6158c46158bc85615608565b8301826156ef565b50505b505050565b6158d5826144d5565b67ffffffffffffffff8111156158ee576158ed6142ba565b5b6158f88254615556565b615903828285615886565b600060209050601f8311600181146159365760008415615924578287015190505b61592e8582615783565b865550615996565b601f19841661594486615871565b60005b8281101561596c57848901518255600182019150602085019450602081019050615947565b868310156159895784890151615985601f891682615765565b8355505b6001600288020188555050505b505050505050565b600060a08201905081810360008301526159b88188614873565b905081810360208301526159cc8187614873565b90506159db6040830186614194565b6159e86060830185614194565b6159f56080830184614194565b9695505050505050565b7f476f616c2068617320737461727465642e000000000000000000000000000000600082015250565b6000615a35601183614862565b9150615a40826159ff565b602082019050919050565b60006020820190508181036000830152615a6481615a28565b9050919050565b7f476f616c2068617320657870697265642e000000000000000000000000000000600082015250565b6000615aa1601183614862565b9150615aac82615a6b565b602082019050919050565b60006020820190508181036000830152615ad081615a94565b9050919050565b7f4d757374207374616b6520746f206a6f696e20676f616c2e0000000000000000600082015250565b6000615b0d601883614862565b9150615b1882615ad7565b602082019050919050565b60006020820190508181036000830152615b3c81615b00565b9050919050565b7f416c72656164792070617274696369706174656420696e20676f616c2e000000600082015250565b6000615b79601d83614862565b9150615b8482615b43565b602082019050919050565b60006020820190508181036000830152615ba881615b6c565b9050919050565b6000615bba8261418a565b915060008203615bcd57615bcc61528f565b5b600182039050919050565b6000615be38261418a565b9150615bee8361418a565b9250828202615bfc8161418a565b91508282048414831517615c1357615c1261528f565b5b5092915050565b7f4e487b7100000000000000000000000000000000000000000000000000000000600052601260045260246000fd5b6000615c548261418a565b9150615c5f8361418a565b925082615c6f57615c6e615c1a565b5b828204905092915050565b7f52657175657374206e6f7420666f756e64000000000000000000000000000000600082015250565b6000615cb0601183614862565b9150615cbb82615c7a565b602082019050919050565b60006020820190508181036000830152615cdf81615ca3565b9050919050565b60006060820190508181036000830152615d008186614873565b90508181036020830152615d14818561451b565b90508181036040830152615d28818461451b565b9050949350505050565b600061ffff82169050919050565b615d4981615d32565b82525050565b600063ffffffff82169050919050565b615d6881615d4f565b82525050565b600060a082019050615d83600083018861423f565b8181036020830152615d95818761451b565b9050615da46040830186615d40565b615db16060830185615d5f565b615dbe6080830184614803565b9695505050505050565b600081519050615dd781614273565b92915050565b600060208284031215615df357615df26141c8565b5b6000615e0184828501615dc8565b91505092915050565b6000615e158261418a565b9150615e208361418a565b925082615e3057615e2f615c1a565b5b828206905092915050565b60008160011c9050919050565b6000808291508390505b6001851115615e9257808604811115615e6e57615e6d61528f565b5b6001851615615e7d5780820291505b8081029050615e8b85615e3b565b9450615e52565b94509492505050565b600082615eab5760019050615f67565b81615eb95760009050615f67565b8160018114615ecf5760028114615ed957615f08565b6001915050615f67565b60ff841115615eeb57615eea61528f565b5b8360020a915084821115615f0257615f0161528f565b5b50615f67565b5060208310610133831016604e8410600b8410161715615f3d5782820a905083811115615f3857615f3761528f565b5b615f67565b615f4a8484846001615e48565b92509050818404811115615f6157615f6061528f565b5b81810290505b9392505050565b6000615f798261418a565b9150615f848361418a565b9250615fb17fffffffffffffffffffffffffffffffffffffffffffffffffffffffffffffffff8484615e9b565b90509291505056fea2646970667358221220f7564fdaa279300f49417ecce3b3a640f5870cd94ecfef018cf94cd2741201b464736f6c63430008140033",
  "linkReferences": {},
  "deployedLinkReferences": {}
}